:082225004100BF004100C000B0
:03005B000222E698
:1022E600C0E0C0F0C083C082C0D075D000C000C0BE
:1022F60001C002C003C004C005C006C007C2EF1279
:102306002360D007D006D005D004D003D002D00178
:0D231600D000D0D0D082D083D0F0D0E03203
:03003B00021E277B
:101E2700C0E0C0F0C083C082C0D075D000C000C081
:101E370001C002C003C004C005C006C007E5EC30FE
:101E4700E60A90009FE0B402037403F0E5EC30E18A
:101E570003122A32E5EC30E203122A2DE5EC30E3D7
:101E670003122A3775EC00D007D006D005D004D06E
:101E770003D002D001D000D0D0D082D083D0F0D010
:021E8700E03247
:101BB2007F0212136F12243212003E122781122862
:101BC200FB121FAB900096E06008E4F012176E1251
:101BD2002732900098E0600EE4F01225651228CBBF
:0C1BE200121F4C1216AF90009BE0602315
:101BEE00E4F01223CE12000E1222681227B39000D8
:101BFE00C0E004F0E0D394034009740AF09000BFF3
:031C0E00E004F0FF
:101C11001224BE900047EFF060ABE0FF121A0B8078
:011C2100A41E
:1027E3006F6666206272696768740A00706F776546
:0727F30072206F66660A0008
:10222D004100A0004100A1004100A200C10F4100EA
:02223D009E0001
:10278100E49000A1F01228369000A37401F09000AB
:092791007AF090009FF00218CBD1
:1028230053E9FB53E9FD53E9FE43ED4043EA4053CB
:03283300EBBF22D6
:1028360053E9FB53E9FD53E9FE53EDBF53EABF539A
:03284600EBBF22C3
:1018CB009000A3E024FE60281460592402600302F8
:1018DB001970E4FFFE120E64E4FFFE120B42122994
:1018EB00921229A71229B5122A021229C30229D151
:1018FB001229AE1229927F411226927F4212269212
:10190B007F431226927F44122692122A021229D169
:10191B0012280F7BFF7A2979CA1228D77BFF7A29E5
:10192B0079C380321229AE1229927F411226927FFF
:10193B00421226927F431226927F44122692122A3B
:10194B00021229C312280F7BFF7A2979D81228D7C4
:10195B007BFF7A2979D11228E3E4FBFA7D04FC7F23
:06196B0004FE122400221C
:101A9E001229929000A1E024FE601F046003021B35
:101AAE002C9000A3E0B402051229CA80719000A305
:101ABE00E0640370691229D880649000A0E024BE0F
:101ACE00601714602114602B24037039900072E0AB
:101ADE00FF1210B79000738025900074E0FF121073
:101AEE00B79000758018900076E0FF1210B7900046
:101AFE0077800B900078E0FF1210B7900079E0FF2E
:101B0E007E00120E649000A3E0B402051229CA8072
:101B1E000A9000A3E0B403031229D81229BC0229AB
:011B2E009224
:101C8E009000A1E024FE600804705E1229C3805605
:101C9E009000A0E070031229B59000A0E0B44108B6
:101CAE001229B57F411226929000A0E0B44208128C
:101CBE0029B57F421226929000A0E0B44308122963
:101CCE00B57F431226929000A0E0B444081229B5C5
:101CDE007F441226929000A3E0B402030229C3901F
:0A1CEE0000A3E0B403031229D12281
:1015C6009000A1E014700302169114700302169D98
:1015D6001470030216A6240360030216AE9000A33D
:1015E600E024FE603E14606F240260030216AEE43F
:1015F60090007CF0A3F0900081F0A3F090007CE0D6
:10160600FEA3E0FF120E64900081E0FEA3E0FF124D
:101616000B421229921229A71229B5122A0212295F
:10162600C38031E490007CF0A3F0900081F0A3F039
:10163600FF1210B7E4FFFE120E64E4FFFE120B4227
:101646001229921229AE90007BE0FF122692122AEE
:10165600021229CA0229D1E490007CF0A3F090007E
:1016660081F0A3F0FF1210B7E4FFFE120E64E4FF50
:10167600FE120B421229921229AE90007BE0FF1255
:101686002692122A021229C30229D812280F900084
:10169600A1E0601414F0229000A1E0600B14F02287
:0916A6009000A1E0600214F022A2
:101E89009000A1E0705B90007AE01470069000A1C8
:101E99007401F0E4FF1210B7E4FFFE120E64E4FFD0
:101EA900FE120B421229921229AE1229BC122A02E1
:101EB90090007AE09000A3F07402F09000A114F071
:101EC90012280F7BFF7A1A799E1228D77BFF7A1C7A
:101ED900798E1228E3E4FBFA7D04FC7F04FE1224C8
:021EE9000022D5
:101C22009000A1E024FE60270470609000A3E024ED
:101C3200FE600E146012240270519000A37402F030
:101C4200229000A37403F0229000A37401F022906A
:101C520000A3E024FD601B0470319000A0E070023C
:101C620080269000A0E004F0E0D3648094C4401B7E
:101C720080169000A0E07002800E9000A0E004F0B8
:0C1C8200E0D3648094C440037441F0225D
:1020C2009000A1E024FE602704704E9000A3E0245B
:1020D200FD600B04700E1229CA1229D18006122942
:1020E200C31229D89000A07441F0A37402F0229088
:1020F20000A3E024FE700912280F1229CA1229D166
:102102009000A3E090007AF09000A0E090007BF0B5
:0A211200E4A3F0A3F09000A1F02276
:032A400002276703
:062A0900122A460228B16A
:1025650090009FE0B4021B90009EE004F0E0C3944D
:10257500034014E4F0122A0F1227FA122823438786
:072585000222E490009EF029
:01258C00222C
:1023CE009000A2E004F0E0B4140ED20F122A467B65
:1023DE00FF7A2779E30208489000A2E0B41E121299
:1023EE002A097BFF7A2779EF12084890009F740222
:0223FE00F022CB
:062A0F00E49000A2F02299
:101A0B00900048EFF0122A0F300F0C90009FE0B4BB
:101A1B000105C20F022A49900048E014602E24FEF3
:101A2B00603814605B24FD605D24FD605F240870EA
:101A3B006190009FE064037059122A097BFF7A279B
:101A4B0079EF12084890009F7402F022122A4C90F2
:101A5B00009FE06401703B0215C6122A4C90009F58
:101A6B00E0B401067402F0022A0990009FE0B40270
:101A7B0002800790009FE0B403187401F0022A4023
:101A8B00122A4C021E89122A4C021C22122A4C12B8
:031A9B0020C22244
:10223F004800720A1414191E1E322841007100C181
:05224F000CC10AC10BE7
:10003E0090007A7401F0E4A3F0A3F0A3F0A3F0A370
:0C004E00F0A3F0A3F0A3F0900071F022EA
:1026040090007DE004F0700690007CE004F0D3902C
:10261400007DE0941090007CE094274004E4F0A353
:04262400F0D20C22C2
:0D000E00900071E0C394FF5003E004F02265
:0C28CB00300C08C20C122A0F12005E2212
:10005E00E49000A1F012280F90007AE024FE7003C5
:10006E000200F81470030202892402600302041FC6
:10007E0090007CE0FEA3E0FF7C007D0A1204B4ED4C
:10008E004C90004E700BF0A304F0FB7A007D1E80A6
:10009E000AE4F0A304F0FB7A007D0A7C00FF7E00E8
:1000AE001222A790007CE0FFA3E090007FCFF0A388
:1000BE00EFF090007DE025E0FE90007CE0339000B4
:1000CE0081F0A3CEF090007FE0FEA3E0FF120E645D
:1000DE00900081E0FEA3E0FF120B421227CB122903
:1000EE00A71229B51229C3020283300A4C90004E82
:1000FE00E4F0A304F0FB7A007D0A7C00FF7E001280
:10010E0022A790007BE0FF3395E0FEEF25E0FFEEA7
:10011E0033FE74F12FF58274FF3EF583E0FD74F02B
:10012E002FF58274FF3EF583E08DF0A4FF90007CE6
:10013E00E5F0F0A3EFF002025790007BE0FF33955D
:10014E00E0FEEF25E0FFEE33FE74F12FF58274FF33
:10015E003EF583E0FD74F02FF58274FF3EF583E0EB
:10016E008DF0A4FF90007CE0B5F019A3E0B5071464
:10017E00D20A90004EE4F0A304F0FB7A007D1E7CC0
:10018E0000FF804E90007BE0FF3395E0FEEF25E010
:10019E00FFEE33FE74F12FF58274FF3EF583E0FD22
:1001AE007C0090007CE0FEA3E0FF1204B4ED4C90C6
:1001BE00004E7011F0A37403F07B0A7A007D0A7C66
:1001CE00007F01800DE4F0A304F0FB7A007D0A7C31
:1001DE0000FF7E001222A7D20B90007BE0FF33952A
:1001EE00E0FEEF25E0FFEE33FE74F12FF58274FF93
:1001FE003EF583E0FD7C0090007CE0FEA3E0FF1264
:10020E0004B4A3EFF090007BE0FF3395E0FEEF2502
:10021E00E0FFEE33FE74F12FF58274FF3EF583E0BE
:10022E00FD7C0090007CE0FEA3E0FF1204B4900081
:10023E007FECF0A3EDF090007DE025E0FE90007CD9
:10024E00E033900081F0A3CEF090007EE0FF12101C
:10025E00B790007FE0FEA3E0FF120E64900081E0F5
:10026E00FEA3E0FF120B421229AE90007BE0FF12BC
:10027E0026921229CA1229D1020419300A4D900071
:10028E004EE4F0A304F0FB7A007D0A7C007FC87E6A
:10029E00001222A790007BE0FF3395E0FEEF25E0F1
:1002AE00FFEE33FE74F12FF58274FF3EF583E0FD11
:1002BE0074F02FF58274FF3EF583E08DF0A4FF906D
:1002CE00007CE5F0F0A3EFF00203EA90007BE0FF84
:1002DE003395E0FEEF25E0FFEE33FE74F12FF5824D
:1002EE0074FF3EF583E0FD74F02FF58274FF3EF54A
:1002FE0083E08DF0A4FF90007CE0B5F019A3E0B58B
:10030E000714D20A90004EE4F0A304F0FB7A007DAD
:10031E001E7C00FF804F90007BE0FF3395E0FEEFE8
:10032E0025E0FFEE33FE74F12FF58274FF3EF58368
:10033E00E0FD7C0090007CE0FEA3E0FF1204B4ED33
:10034E004C90004E7011F0A37403F07B0A7A007D7E
:10035E000A7C007F01800EE4F0A304F0FB7A007D9E
:10036E000A7C007FC87E001222A7D20B90007BE091
:10037E00FF3395E0FEEF25E0FFEE33FE74F12FF52F
:10038E008274FF3EF583E0FD7C0090007CE0FEA3CE
:10039E00E0FF1204B4A3EFF090007BE0FF3395E092
:1003AE00FEEF25E0FFEE33FE74F12FF58274FF3E73
:1003BE00F583E0FD7C0090007CE0FEA3E0FF1204DC
:1003CE00B490007FECF0A3EDF090007DE025E0FE10
:1003DE0090007CE033900081F0A3CEF090007EE0A0
:1003EE00FF1210B790007FE0FEA3E0FF120E6490A4
:1003FE000081E0FEA3E0FF120B421229AE90007BBB
:10040E00E0FF1226921229C31229D8122A021229AB
:01041E00924B
:01041F0022BA
:0C28D70090008FEBF0A3EAF0A3E9F022E0
:0C28E300900092EBF0A3EAF0A3E9F022D1
:1028910090008FA3E0FAA3E0F94A60031207202217
:1028A100900092A3E0FAA3E0F94A60031207202204
:10240000EF4E602D900085EEF0A3EFF0AF05A3EC4A
:10241000F0A3EFF0AF03A3EAF0A3EFF0E4A3F0A37F
:10242000F0A3F0A3F0900084F090008304F0122851
:022430009122F7
:10280F00E4900083F01228A17B007A00790012284F
:04281F00D70228E3D1
:1016AF0090009FE0B4020302280F900083E07003C4
:1016BF0002176D900087E0FEA3E0FF4E7003021744
:1016CF006D900084E07035D3EF9400EE94005003DA
:1016DF0002176D90008BE475F001120509FED3908F
:1016EF000086E095F0900085E09E50721228A1E4EC
:1016FF0090008BF0A3F090008404F022900084E01F
:10170F006401705A90008B75F001120509FED39099
:10171F000088E095F0900087E09E5042900089E0AD
:10172F00FEA3E0FF9400EE9400402590008DE47539
:10173F00F001120509FCD3EF95F0EE9C5005E490F3
:10174F000083F0900083E07007900087F0A3F022F1
:0F175F00E490008BF0A3F0900084F01228912208
:0A290600616463203D2025750A007E
:04225400C10DC10EE9
:0B28FB00E47824F643B18053B27F2242
:101F4C0090009FE0B40202805278240618E624FE2A
:101F5C00601D14602F146039240370427824E6C38A
:101F6C009405403AE4F6300D028011D20D802C78A5
:101F7C0024E6C3940A4027E4F6300D04C20D800E0B
:101F8C00D20D80177824E6C394094012E4F6022996
:0E1F9C00A07824E6C394094005E4F6122999C2
:011FAA002214
:10236000C200D281AFC37825760008A60718E6FE22
:1023700008E67802C333CE33CED8F9FF7825EEF6DF
:1023800008EFF6ADC2EE18F6EF4D08F6E5E220E4F0
:0923900004D2008002C200D20E4A
:012399002221
:1022680030870B782330D803760322760222300E8B
:102278002DC20EC37826E694EA18E6940178235016
:10228800047601800276047BFF7A2979067825E6B0
:0F229800FF08E690004CCFF0A3EFF012084822A9
:03225800011D0065
:01005A002283
:032A4300D2EE22AE
:1027B300781D06E6FFB40402C281EFC39405400707
:0727C300E4781DF6122A4321
:0127CA0022EC
:10243200A2AF9210C2AF75C7AA75C75553A37FA2A8
:102442001092AF1226F6122463122A21122A2712A0
:1024520029471226B412262812266F122880D2AFDC
:012462002257
:02225B00C111AF
:1026B40053ACFE43AD01C2B053CABF43CA2043CAA0
:1026C4001075D68075D78043CA80D2CBE4780FF6D4
:0126D40022E3
:062A150043CB40D2B022C9
:062A1B0053CBBFC2B02244
:1022A700ED4C603A7811A60608A607AE04AF0508FC
:1022B700A60608A607AE02AF0308A60608A607905B
:1022C700004EE0FEA3E0FF08A60608A607E408F60E
:0F22D70008F608F608F67810F6187601D21122EC
:07296800E4780FF6022A1BC0
:012A4C002267
:10176E00780FE6700302181F7816E618467003020B
:10177E00181F7812E61846600808E616187001164B
:10178E0022301105C211122A157810E6FF702ED3E1
:10179E007816E6940018E69400407678190806E666
:1017AE00187001068604C3781496EC1896406212DF
:1017BE002A1BE47819F608F67810760122EF6401F8
:1017CE00704F78190806E6187001068606C378165B
:1017DE0096EE1896403B7817E6FE08E6FFD3940087
:1017EE00EE94004020781B0806E618700106860469
:1017FE00C39FEC9E4004E4780FF6780FE6700678EF
:10180E0015F608F622E47819F608F67810F6122A7C
:02181E00152291
:09291A003086037F00227F0122B8
:092923003085037F00227F0122B0
:09292C003084037F00227F0122A8
:092935003083037F00227F0122A0
:0C28EF002084062086037F01227F002247
:062A210012182002279AA2
:10001E00900045E0243AF582E43400F583EFF09049
:0D002E000045E004F0C3940A4002E4F02213
:1024BE00900045E0FF900044E0FEB507037F002248
:1024CE00743A2EF582E43400F583E0FF900044E088
:0924DE0004F0C3940A4002E4F08A
:0124E70022D2
:10258D00900045E0FFA3E0FEB507037F0022743AFB
:10259D002EF582E43400F583E0FF900046E004F070
:0725AD00C3940A4002E4F0B0
:0125B4002204
:10286F00EF75F00BA4240BF582E43400F583E0FF41
:01287F002236
:10239A00EF75F00BA42409F582E43400F583ECF020
:1023AA00A3EDF0EF75F00BA4240CF582E43400F5EC
:1023BA0083EBF0EF75F00BA4240DF582E43400F5FD
:0423CA0083E4F02296
:09293E00900045E0900044F022F5
:10279A0043B10853B2F743B11053B2EF43B12053D8
:0927AA00B2DF43B14053B2BF227B
:10182000E4900044F0A3F0A3F0FFEF75F00BA424C4
:1018300009F582E43400F583E4F0A374C8F0EF7591
:10184000F00BA42406F582E43400F5837402F0EF73
:1018500075F00BA4240BF582E43400F583E4F0EF7B
:1018600075F00BA4240CF582E43400F583E4F0EF6A
:1018700075F00BA4240DF582E43400F583E4F00F39
:10188000EFB405A690000374FFF0A37429F0A374CD
:101890001AF090000E74FFF0A37429F0A37423F0E3
:1018A00090001974FFF0A37429F0A3742CF0900039
:1018B0002474FFF0A37429F0A37435F090002F7402
:0A18C000FFF0A37428F0A374EFF00A
:0118CA0022FB
:10121500900049EFF0E075F00BA42403F974003554
:10122500F0FA7B01900000EBF0A3EAF0A3E9F012DD
:101235000700120720EF7003021307900000E0FB80
:10124500A3E0FAA3E0F9900003120420FFC394057C
:101255005008900003740502136BEFC3940A5008FD
:10126500900003740102044D9000081204207014CC
:1012750090000804120492900049E075F003A4045C
:10128500FF12001E900000E0FBA3E0FAA3E0F99036
:10129500000612051FFFAEF0D39400EE9400500334
:1012A50002136E90000412051FC39FE5F09E5023A4
:1012B500900004E475F001120557FCE5F06F70022B
:1012C500EC6E600302136E900049E075F003A424F0
:1012D50003802B900009120420FFD39400500302D1
:1012E500136E90000A740112044DC39F407B900059
:1012F5000AE4120492900049E075F003A404FF0289
:10130500001E900000E0FBA3E0FAA3E0F9900003C3
:10131500120420FFD39405400A90000374051204BB
:1013250092802BEF600A90000374FF12044D801E1B
:10133500900008120420B40115900008E4120492EC
:10134500900049E075F003A42402FF12001E9000EE
:1013550000E0FBA3E0FAA3E0F9900004E4F5F01245
:0A13650005A490000AE4120492228D
:10273200E4900048F0900048E0FFC39405500B126B
:0A2742001215900048E004F080EB4F
:01274C00226A
:0929470053ACFB43AD04022A4924
:032A4600C2B222F7
:032A4900D2B222E4
:10262800E4F5B475B3FFF5B675B5FFF5DB75DAFFFC
:10263800F5F975FA0475E5FF75E6FF75E70743F9DF
:04264800800228B133
:0C28B100E4FF8FFBE4F5FC0FEFB413F61E
:0128BD0022F8
:07296F0075FB0A53FCFE2278
:0729760075FB0A43FC01227E
:07297D0075FB0C53FCFE2268
:0729840075FB0C43FC01226E
:07298B0075FB0853FCFE225E
:0729920075FB0843FC012264
:0729990075FB0E53FCFE224A
:0729A00075FB0E43FC012250
:0729A70075FB1053FCFE223A
:0729AE0075FB1043FC012240
:1027CB0075FB1253FCF175FB13E4F5FC75FB14530D
:0827DB00FCF175FB15F5FC2271
:1010B700EFD394634003021214EF75F00A84FEEF36
:1010C70075F00A84ADF0EFD394095003021172EE64
:1010D700B40A00400302117E9010E6F82828730234
:1010E700110402110C02111402112202112A021119
:1010F7003802114002114E02115C02116475FB0E99
:1011070075FC0A805E75FB0E53FCF1801C75FB0EA7
:1011170075FC0C75FB0F75FC0B805C75FB0E75FC85
:1011270004804075FB0E75FC0675FB0F75FC068089
:101137004675FB0E75FC06800675FB0E75FC0E7575
:10114700FB0F75FC0D803075FB0E53FCF175FB0F23
:1011570075FC07802275FB0E75FC0E800675FB0E6D
:1011670075FC0675FB0F75FC0F800C75FB0E53FCA9
:10117700F175FB0FE4F5FCEDB40A0040030212140D
:1011870090118EF82828730211AC0211B40211BC19
:101197000211C90211D10211DE0211E60211F30296
:1011A700120002120875FB1075FC0A805A75FB10B5
:1011B70053FCF1801B75FB1075FC0C75FB1175FC5E
:1011C7000B2275FB1075FC04803D75FB1075FC0642
:1011D70075FB1175FC062275FB1075FC06800675FC
:1011E700FB1075FC0E75FB1175FC0D2275FB10537A
:1011F700FCF175FB1175FC072275FB1075FC0E8061
:0D1207000675FB1075FC0675FB1175FC0FDC
:0112140022B7
:0729B50075FB12E4F5FC22A2
:0729BC0075FB1275FC0F22F0
:1026920075FB12EF24BE600E14600F146010240349
:1026A200700F75FC012275FC022275FC042275FC78
:0226B2000822FC
:10264C0075FB0853FCF175FB09E4F5FC75FB0A53AB
:10265C00FCF175FB0BF5FC75FB0C53FCF175FB0DDC
:03266C00F5FC2258
:040E6400AB07AA0628
:100E6800D3EB94E7EA940340030210B67C007D6458
:100E7800AF03AE021204B490004AEFF07C007D6428
:100E8800AF03AE021204B47E007F0ACFCDCFCECC22
:100E9800CE1204B4900049EFF07C007D0AAF03AE97
:100EA800021204B4A905D3EB9463EA940050030238
:100EB8000F57A3E0B40A004003020F63900ECBF86B
:100EC800282873020EE9020EF1020EF9020F07023A
:100ED8000F0F020F1D020F25020F33020F41020FE1
:100EE8004975FB0875FC0A805E75FB0853FCF180A8
:100EF8001C75FB0875FC0C75FB0975FC0B805C7593
:100F0800FB0875FC04804075FB0875FC0675FB0939
:100F180075FC06804675FB0875FC06800675FB089F
:100F280075FC0E75FB0975FC0D803075FB0853FCCC
:100F3800F175FB0975FC07802275FB0875FC0E80AE
:100F48000675FB0875FC0675FB0975FC0F800C75AA
:100F5800FB0853FCF175FB09E4F5FCD3EB9409EAB3
:100F68009400500302101443E60443E60890004935
:100F7800E0B40A004003021020900F88F828287374
:100F8800020FA6020FAE020FB6020FC4020FCC0268
:100F98000FDA020FE2020FF0020FFE02100675FBD5
:100FA8000A75FC0A805E75FB0A53FCF1801C75FB10
:100FB8000A75FC0C75FB0B75FC0B805C75FB0A75E0
:100FC800FC04804075FB0A75FC0675FB0B75FC0676
:100FD800804675FB0A75FC06800675FB0A75FC0ED3
:100FE80075FB0B75FC0D803075FB0A53FCF175FB26
:100FF8000B75FC07802275FB0A75FC0E800675FBD5
:101008000A75FC0675FB0B75FC0F800C75FB0A5303
:10101800FCF175FB0BE4F5FCE9B40A00400302108F
:10102800B6901030F828287302104E02105602109D
:101038005E02106B02107302108002108802109575
:101048000210A20210AA75FB0C75FC0A805A75FBE7
:101058000C53FCF1801B75FB0C75FC0C75FB0D75B6
:10106800FC0B2275FB0C75FC04803D75FB0C75FCB4
:101078000675FB0D75FC062275FB0C75FC068006D3
:1010880075FB0C75FC0E75FB0D75FC0D2275FB0CC4
:1010980053FCF175FB0D75FC072275FB0C75FC0EF6
:0E10A800800675FB0C75FC0675FB0D75FC0FC4
:0110B6002217
:0729C30075FB0253FCFE222C
:0729CA0075FB0243FC012232
:0729D10075FB0453FCFE221C
:0729D80075FB0475FC0122F0
:0729DF0075FB0853FCFE220A
:0729E60075FB0843FC012210
:0729ED00E4F5FB53FCFE22A0
:0729F400E4F5FB43FC0122A6
:10249100E4F5FB53FCF175FB01F5FC75FB0253FC04
:1024A100F175FB03F5FC75FB0453FCF175FB05F5B8
:0D24B100FC75FB0653FCF175FB07F5FC22E2
:040B4200AB07AA064D
:100B4600D3EB940FEA94274003020E637C037DE8FF
:100B5600AF03AE021204B490004BEFF07C037DE8C5
:100B6600AF03AE021204B47E007F64CFCDCFCECCED
:100B7600CE1204B490004AEFF07C007D64AF03AE61
:100B8600021204B47E007F0ACFCDCFCECCCE1204A3
:100B9600B4900049EFF07C007D0AAF03AE02120468
:100BA600B4A905D3EB94E7EA94035003020C5490DE
:100BB600004BE0B40A004003020C5F900BC8F82813
:100BC6002873020BE6020BEE020BF6020C04020C73
:100BD6000C020C1A020C22020C30020C3E020C46CD
:100BE600E4F5FB75FC0A805EE4F5FB53FCF1801C22
:100BF600E4F5FB75FC0C75FB0175FC0B805BE4F5FD
:100C0600FB75FC048040E4F5FB75FC0675FB01757D
:100C1600FC068045E4F5FB75FC068006E4F5FB75ED
:100C2600FC0E75FB0175FC0D802FE4F5FB53FCF102
:100C360075FB0175FC078021E4F5FB75FC0E80064B
:100C4600E4F5FB75FC0675FB0175FC0F800BE4F5FE
:100C5600FB53FCF175FB01F5FCD3EB9463EA9400BE
:100C66005003020D0A90004AE0B40A004003020D48
:100C760016900C7EF8282873020C9C020CA4020C19
:100C8600AC020CBA020CC2020CD0020CD8020CE662
:100C9600020CF4020CFC75FB0275FC0A805E75FB07
:100CA6000253FCF1801C75FB0275FC0C75FB037589
:100CB600FC0B805C75FB0275FC04804075FB0275BD
:100CC600FC0675FB0375FC06804675FB0275FC0683
:100CD600800675FB0275FC0E75FB0375FC0D8030F6
:100CE60075FB0253FCF175FB0375FC07802275FB4F
:100CF6000275FC0E800675FB0275FC0675FB037516
:100D0600FC0F800C75FB0253FCF175FB03E4F5FC4C
:100D1600D3EB9409EA94005003020DC1900049E018
:100D2600B40A004003020DCD900D35F82828730251
:100D36000D53020D5B020D63020D71020D79020D5A
:100D460087020D8F020D9D020DAB020DB375FB04DC
:100D560075FC0A805E75FB0453FCF1801C75FB0470
:100D660075FC0C75FB0575FC0B805C75FB0475FC4E
:100D760004804075FB0475FC0675FB0575FC068052
:100D86004675FB0475FC06800675FB0475FC0E753E
:100D9600FB0575FC0D803075FB0453FCF175FB05F6
:100DA60075FC07802275FB0475FC0E800675FB0436
:100DB60075FC0675FB0575FC0F800C75FB0453FC72
:100DC600F175FB05E4F5FCE9B40A004003020E6385
:100DD600900DDDF8282873020DFB020E03020E0BA0
:100DE600020E18020E20020E2D020E35020E4202CF
:100DF6000E4F020E5775FB0675FC0A805A75FB06E8
:100E060053FCF1801B75FB0675FC0C75FB0775FC26
:100E16000B2275FB0675FC04803D75FB0675FC060A
:100E260075FB0775FC062275FB0675FC06800675C4
:100E3600FB0675FC0E75FB0775FC0D2275FB06534C
:100E4600FCF175FB0775FC072275FB0675FC0E8029
:0D0E56000675FB0675FC0675FB0775FC0FA5
:010E6300226C
:0729FB0075FB0653FCFE22F0
:072A020075FB0643FC0122F5
:02225D00C112AC
:0D28BE0053DCEF43DD101225DD439B0222A9
:0A291000E49000BCF0A3F0A3F02255
:1025DD00C2DC43E90453E9FD43E90143ED0243ED58
:1025ED000443ED0843EA0243EA0443EA0853EBFDD2
:0725FD0053EBFB53EBF72247
:1027FA00D2DC53EDFD53EDFB53EDF753EAFD53EAFB
:05280A00FB53EAF72278
:062A27001228BE02291076
:1021CE009000BEE0FEC3EF9E64016007C3EE9FFE6B
:1021DE00BE02149000BD7401F09000BCE0C394FFE9
:1021EE005012E004F0800DE49000BDF09000BCE0D1
:1021FE00600214F09000BEEFF030120C9000BCE0C4
:10220E00C3940A5011C212229000BCE0D3946440D1
:06221E0005D21212260495
:012224002297
:052A2D007F010221CE33
:052A32007F020221CE2D
:052A37007F030221CE27
:1028800053DC7F43DD807F807E257D007C0002203D
:012890000A3D
:1028490030F80BE59A120480C2F8D2138002C21341
:02285900A213C8
:01285B00225A
:08225F0041009C0041009D00BC
:10266F001227165389F75389FB5389FD438901902C
:10267F00009C74FCF0A37466F0758CFCF58AD2A9EB
:03268F00D28C22C8
:10271600E4900095F0900097F0900099F0A3F09067
:0C2726000096F0900098F090009BF022CC
:03000B00021CF8DC
:101CF800C0E0C0F0C083C082C0D075D000C000C0B2
:101D08000690009CE0F58CA3E0F58A900095E0042D
:101D1800F0C3940A4005E4F0A304F0900097E004AF
:101D2800F0C394644005E4F0A304F0900099E475CE
:101D3800F001120509FEC3E5F094E8EE9403400AA9
:101D4800900099E4F0A3F0A304F0D006D000D0D01E
:091D5800D082D083D0F0D0E0323B
:10285C0053897F5389BF4389205389EF758DCE757A
:03286C008BCE22EE
:03001B00022A4D69
:012A4D003256
:1024630053B1FD43B202D28143E10175E80243B1A6
:102473000453B2FB43F60453E1BF43E12053E1EFBE
:0E24830043E22043E240E4F5E4F5E3D2AE226A
:10136F00EF14604414606F14700302140E147003B2
:10137F0002144A240460030214AEA2AF9210C2AF4B
:10138F0075C7AA75C755439780A21092AFA2AF92A7
:10139F0010C2AF75C7AA75C7555397BFA21092AFAA
:1013AF00E59630E7FB021475A2AF9210C2AF75C776
:1013BF00AA75C75553977FA21092AFA2AF9210C2D2
:1013CF00AF75C7AA75C755439740A21092AFE59660
:1013DF0030E6FB021475A2AF9210C2AF75C7AA75A3
:1013EF00C755439720A21092AFE59630E5FBA2AF09
:1013FF009210C2AF75C7AA75C7555396FB8027A227
:10140F00AF9210C2AF75C7AA75C755439710A210F8
:10141F0092AFE59630E4FBA2AF9210C2AF75C7AAA8
:10142F0075C755439604A21092AFA2AF9210C2AFE8
:10143F0075C7AA75C7555396FD804DA2AF9210C2BE
:10144F00AF75C7AA75C75553977FA21092AFA2AFBA
:10145F009210C2AF75C7AA75C7555397BFA2109206
:10146F00AFE59630E3FBA2AF9210C2AF75C7AA7576
:10147F00C7555396FBA21092AFA2AF9210C2AF7591
:10148F00C7AA75C755439602A21092AFA2AF92108A
:10149F00C2AF75C7AA75C7555396FEA21092AFE596
:0514AF009720E0FB2284
:10253C0075985243892053877F538EEF53C4DFAB7A
:10254C0007AA06A905A804E47F807E70FDFC12068C
:09255C000DEFF404F58DD28E227E
:1025B500759852438920438780538EEF53C4DFAB10
:1025C50007AA06A905A804E4FF7EE1FDFC12060D95
:0825D500EFF404F58DD28E2213
:1024E80075985243892053877F438E1053C4DFABBE
:1024F80007AA06A905A8047F007E467D057C001270
:0A250800060DEFF404F58DD28E22CB
:10251200759852438920438780438E1053C4DFABA2
:1025220007AA06A905A8047F007E8C7D0A7C0012FA
:0A253200060DEFF404F58DD28E22A1
:101D61009000A41206C375985253877F53C4F84359
:101D7100C4209000A4E0F8A3E0F9A3E0FAA3E0FBFB
:101D81007F007E467D057C0012060DC3E49FFFE4C3
:101D91009EFE74019DFDE49CFC78081206B08FC67E
:101DA1009000A4E0F8A3E0F9A3E0FAA3E0FB7F0030
:101DB1007E467D057C0012060DC3E49FFF8FC5435F
:031DC100C4082231
:101DC4009000A81206C375985243878053C4F84301
:101DD400C4209000A8E0F8A3E0F9A3E0FAA3E0FB94
:101DE4007F007E8C7D0A7C0012060DC3E49FFFE415
:101DF4009EFE74019DFDE49CFC78081206B08FC61B
:101E04009000A8E0F8A3E0F9A3E0FAA3E0FB7F00C8
:101E14007E8C7D0A7C0012060DC3E49FFF8FC543B0
:031E2400C40822CD
:10200A009000481206C375F85253C4F8900048E08D
:10201A00F8A3E0F9A3E0FAA3E0FB7F007E8C7D0A37
:10202A007C0012060DC3E49FFFE49EFE74019DFD31
:10203A00E49CFC78081206B08FC6900048E0F8A32A
:10204A00E0F9A3E0FAA3E0FB7F007E8C7D0A7C0026
:0D205A0012060DC3E49FFF8FC543C408228A
:070003003098FDAF99C2988F
:01000A0022D3
:08295000C2998F993099FD2214
:0729580030F8FDAF9AC2F850
:01295F002255
:08296000C2F98F9A30F9FD2243
:10274D00E4F5B1F5B2F5B3F5B4F5B5F5B6F5ACF50F
:0A275D00ADF5DAF5DBF5DCF5DD2261
:1026F60075B1FFE4F5B275B3FFF5B475B5FFF5B680
:1027060075ACFFF5AD75DAFFF5DB75DCFFF5DD229F
:1027670075C7AA75C755A2AF9210C2AF75C7AA752C
:0A277700C755439F80A21092AF22C5
:042A3C0043AD802204
:10232300EF640A701C30F811E59AB4130CC2F8304C
:10233300F8FDE59AB411F6C2F830F9FDC2F9759AC1
:102343000D30F811E59AB4130CC2F830F8FDE59A94
:0D235300B411F6C2F830F9FDC2F98F9A22DC
:061B2F0090FFF8120726EA
:101B3500850D83850E821206CF00000000E47FFF2D
:101B45007EFFFDFC850D83850E82E0F8A3E0F9A3F9
:101B5500E0FAA3E0FBC312069F504C900004120765
:101B65004AE0FCA3E0FDA3E0FEA3E02401FFE43E80
:101B7500FEE43DFDE43CFC90000412074A1206C356
:101B8500850D83850E82E0FCA3E0FDA3E0FEA3E0C6
:101B95002401FFE43EFEE43DFDE43CFC850D838528
:071BA5000E821206C38096B8
:061BAC009000080207266C
:1026D500538EF7438901D28CEF4E6012758AF775D8
:1026E5008CFF308DFDC28DEF1F70ED1E80EAC28C10
:0126F50022C2
:10211C009000AC1206C3538EF7438901D28CE4FFB6
:10212C00FEFDFC9000ACE0F8A3E0F9A3E0FAA3E01C
:10213C00FBC312069F602F758A65758CFC308DFD74
:10214C00C28D9000ACE0FCA3E0FDA3E0FEA3E02474
:10215C00FFFFEE34FFFEED34FFFDEC34FFFC90008E
:09216C00AC1206C380B8C28C223B
:102175009000B01206C3538EEF438910D28EE4FF50
:10218500FEFDFC9000B0E0F8A3E0F9A3E0FAA3E0BF
:10219500FBC312069F602F758B65758DFC308FFD17
:1021A500C28F9000B0E0FCA3E0FDA3E0FEA3E02415
:1021B500FFFFEE34FFFEED34FFFDEC34FFFC900035
:0921C500B01206C380B8C28E22DC
:102067009000B41206C375C40243C408E4FFFEFD22
:10207700FC9000B4E0F8A3E0F9A3E0FAA3E0FBC307
:1020870012069F603275C53375C6F5E5C430E4FBAB
:1020970053C4EF9000B4E0FCA3E0FDA3E0FEA3E08F
:1020A70024FFFFEE34FFFEED34FFFDEC34FFFC9020
:0B20B70000B41206C380B553C4F7222A
:101EEB009000B81206C3538FFB538FFD538FFEE444
:101EFB00F586538FDF438F08E4FFFEFDFC9000B89F
:101F0B00E0F8A3E0F9A3E0FAA3E0FBC312069F609D
:101F1B002CE58F30E4FB538FEF9000B8E0FCA3E08F
:101F2B00FDA3E0FEA3E024FFFFEE34FFFEED34FF44
:101F3B00FDEC34FFFC9000B81206C380BB538FF747
:011F4B002273
:1014B4000A3D3D3D3D3D3D3D3D3D3D3D3D3D3D3D8B
:1014C4003D3D3D3D3D3D3D3D3D3D3D3D3D3D3D3D48
:1014D4003D3D3D3D3D3D3D3D3D3D3D3D3D3D3D3D38
:1014E4003D3D3D3D3D3D3D3D3D3D3D3D3D3D3D3D28
:1014F4003D3D3D3D3D000A2A2020436F70797269CD
:101504006768742863292032303135204E75766F30
:10151400746F6E20546563686E6F6C6F67792043D7
:101524006F72702E20416C6C20726967687473202E
:1015340072657365727665642E2020000A2A202065
:10154400436F6E7461637420452D4D61696C3A205C
:101554004D6963726F432D38626974406E75766F9E
:10156400746F6E2E636F6D20202020202020202099
:101574002020202020202020202020202020202067
:1015840020000A2A202044656D6F20566572736915
:101594006F6E20203A202532642E2532642E2532A7
:1015A40064000A2A202046696E69736865642044D1
:1015B400617465203A202532642E2532642E25324A
:0215C4006400C1
:101FAB007BFF7A1479B41208487BFF7A1479FA1202
:101FBB0008487BFF7A1579401208487BFF7A157920
:101FCB008690004CE4F0A304F0E4A3F0A3F0A3F09C
:101FDB00A3F01208487BFF7A1579A690004C740782
:101FEB00F0A374DFF0A3E4F0A37405F0A3E4F0A373
:0F1FFB00741FF01208487BFF7A1479B40208486B
:0300000002197171
:10197100787FE4F6D8FD9000007FFF7E01E4F0A3BC
:0A198100DFFCDEFA7581260219C6AC
:10198B00021BB2E493A3F8E493A34003F68001F2A5
:10199B0008DFF48029E493A3F85407240CC8C3335D
:1019AB00C4540F4420C8834004F456800146F6DF2C
:1019BB00E4800B0102040810204080902225E47E75
:1019CB00019360BCA3FF543F30E509541FFEE49321
:1019DB00A360010ECF54C025E060A840B8E493A3E8
:1019EB00FAE493A3F8E493A3C8C582C8CAC583CA13
:1019FB00F0A3C8C582C8CAC583CADFE9DEE780BECB
:012267000076
:10042000BB010CE58229F582E5833AF583E0225091
:1004300006E92582F8E622BBFE06E92582F8E222DB
:0D044000E58229F582E5833AF583E49322F5
:10044D00BB010FF8E58229F582E5833AF583E028B3
:10045D00F0225009C58229F8E58226F622BBFE0955
:10046D00C58229F8E22582F222F8EA2583F583E98F
:03047D009328229F
:10048000BB010689828A83F0225002F722BBFE015B
:02049000F32255
:10049200F8BB010DE58229F582E5833AF583E8F0A0
:1004A200225006E92582C8F622BBFE05E92582C84C
:0204B200F22234
:1004B400BC000BBE0029EF8DF084FFADF022E4CC2C
:1004C400F875F008EF2FFFEE33FEEC33FCEE9DECF5
:1004D400984005FCEE9DFE0FD5F0E9E4CEFD22ED3B
:1004E400F8F5F0EE8420D21CFEADF075F008EF2F85
:1004F400FFED33FD4007985006D5F0F222C398FD76
:050504000FD5F0EA2212
:10050900C5F0F8A3E028F0C5F0F8E582158270027D
:060519001583E038F0221A
:10051F00BB0110E58229F582E5833AF583E0F5F01A
:10052F00A3E0225009E92582F886F008E622BBFEF7
:10053F000AE92582F8E2F5F008E222E5832AF5833D
:08054F00E993F5F0A3E9932202
:10055700BB010DC58229C582C5833AC5830205093A
:100567005011C58229F808E5F026F618F5F0E5825E
:1005770036F622BBFE11C58229F808E225F0F5F010
:10058700F218E23582F222F8E58229F582E5832A1C
:0D059700F58374019325F0F5F0E49338220C
:1005A400F8BB0111E58229F582E5833AF583E8F089
:1005B400E5F0A3F0225009E92582C8F608A6F02246
:0D05C400BBFE09E92582C8F2E5F008F2222D
:1005D10075F008758200EF2FFFEE33FECD33CDCCE1
:1005E10033CCC58233C5829BED9AEC99E582984064
:1005F1000CF582EE9BFEED9AFDEC99FC0FD5F0D641
:10060100E4CEFBE4CDFAE4CCF9A88222B800C1B96A
:100611000059BA002DEC8BF084CFCECDFCE5F0CBA8
:10062100F97818EF2FFFEE33FEED33FDEC33FCEBE1
:1006310033FB10D703994004EB99FB0FD8E5E4F99C
:10064100FA227818EF2FFFEE33FEED33FDEC33FC89
:10065100C933C910D7059BE99A4007EC9BFCE99A7D
:10066100F90FD8E0E4C9FAE4CCFB2275F010EF2FC2
:10067100FFEE33FEED33FDCC33CCC833C810D707C2
:100681009BEC9AE899400AED9BFDEC9AFCE899F8FD
:0E0691000FD5F0DAE4CDFBE4CCFAE4C8F92290
:10069F00EB9FF5F0EA9E42F0E99D42F0E89C45F0B1
:0106AF002228
:1006B000E8600FECC313FCED13FDEE13FEEF13FF28
:0306C000D8F1224C
:0C06C300ECF0A3EDF0A3EEF0A3EFF022AA
:1006CF00A8828583F0D083D0821206E61206E61246
:1006DF0006E61206E6E473E493A3C583C5F0C5836B
:1006EF00C8C582C8F0A3C583C5F0C583C8C582C875
:0106FF0022D8
:10070000BB010789828A830207795005E9F802074D
:1007100070BBFE05E9F80207A289828A830207AB53
:060720008A838982E47364
:10072600E50E2582F582E50D3583F583B50D048545
:10073600820E2210AF0685820EF50D2285820EF5F9
:040746000DD2AF22FF
:0D074A00E50E2582F582E50D3583F583224D
:1007DD00E508244CF582E43400F583E00508229009
:1007ED00004930080390004CE475F00112078202B5
:1007FD0007572001E97F2ED2018018EF540F249066
:10080D00D43440D4FF30050BEF24BFB41A0050038D
:10081D002461FFE50960021509050CE50C70020560
:10082D000B30080E900049E475F001120782EF02BB
:10083D0004800223237403D2088003E4C208F50860
:10084D00900049120799E4F509F50BF50CE50960DF
:10085D00077F2012082080F5750AFFC202C201C26F
:10086D0003C204C206C207C2091207ECFF700D30A5
:10087D0008057F00120831AF0CAE0B22B4255FC204
:10088D00D5C2051207ECFF24D0B40A00501A75F03A
:10089D000A780930D50508B6FF0106C6A426F6204C
:1008AD00D5047002D20480D924CFB41A00EF5004BD
:1008BD00C2E5D205020A32D20280C6D20180C0D270
:1008CD000380BCD2D580BAD20680B47F2012082016
:1008DD002003077401B5090040F11207DDFF12086E
:1008ED002002085AD209D20780951207DDFB1207A4
:1008FD00DDFA1207DDF94A4B700679037A0B7BFF9F
:10090D0020032EE509602A7E008E82758300120475
:10091D002060060EEE650A70F0C2D5EBC0E0EAC0AD
:10092D00E0E9C0E0EE120A79D0E0F9D0E0FAD0E0CB
:10093D00FB120757FF60AAEBC0E0EAC0E0E9C0E098
:10094D00120820D0E02401F9D0E03400FAD0E0FB09
:10095D00E50A0460DCD50AD980877BFF7A0A7975B0
:10096D00D203809C791080027908C207C2098008E1
:10097D00D2D5790A8004790AC2D5E50A047002F548
:10098D000AE4FAFDFEFF1207DDFC7B0820021312BC
:10099D0007DDFD7B1030010A1207DDFE1207DDFFBA
:1009AD007B20EC3382D592D55013C3E43001069FE2
:1009BD00FFE49EFEE42002039DFDE49CFCE4CBF8E5
:1009CD00C202EC700CCFCECDCCE824F8F870F380D9
:1009DD0017C3EF33FFEE33FEED33FDEC33FCEB339A
:1009ED00FB994002FB0FD8E9EB300205F8D0E0C4CB
:1009FD0048B202C0E00AEC4D4E4F78207B0070C229
:100A0D00EAB50A0040BCC0E0120A7BD0F0D0E0206D
:100A1D000204C4C0E0C4B202C0F0120809D0F0D57F
:100A2D00F0EB02085A1207B708F75309715808C8B6
:100A3D004C08C44209754F097D44097D4908DD43C1
:080A4D0009835509674609679A
:100A5500450967470B235008CC2D08D02E08F32BEA
:100A650008D42308F1200B0C2A088C48000008EB59
:100A75003F3F3F00790AA2D5200414300609B9107A
:100A8500020404B9080104A2D5200702500104207C
:100A950003689203B509005034C0E07F2030041983
:100AA5007F30A20372077206500F120AD2C203C228
:100AB50007C206C2097F30800F300603E9C0E01285
:100AC5000820300603D0E0F9D0E0B509CC30061790
:100AD5007F30B9100C1208207F583005077F7880C9
:100AE50003B908031208203003057F2D0208207F73
:100AF500202009F87F2B2007F322920380CF286E50
:100B0500756C6C2900D2021207DD3002F8C202783A
:100B15000930D50108F602088C2D504349581207B3
:100B2500DD2403B405004001E4900B1E9312081167
:0D0B3500743A120811D20475090402097106
:10075700BB010689828A83E0225002E722BBFE02A0
:09076700E32289828A83E49322D3
:09077000E6FB08E6FA08E6F922AE
:09077900E0FBA3E0FAA3E0F92281
:10078200F8E0FBA3A3E0F925F0F0E5821582700200
:070792001583E0FA38F022A4
:09079900EBF0A3EAF0A3E9F02261
:0907A200E2FB08E2FA08E2F92288
:0C07AB00E493FB740193FA740293F922AA
:1007B700D083D082F8E4937012740193700DA3A3D1
:1007C70093F8740193F5828883E4737402936860E5
:0607D700EFA3A3A380DFE5
:00000001FF
