:102C2F004920616D20726573757267656E63650A01
:012C3F000094
:082527004100C3004100C400A3
:03005B000226AAD0
:1026AA00C0E0C0F0C083C082C0D075D000C000C0F6
:1026BA0001C002C003C004C005C006C007122761DA
:1026CA00C2EFD007D006D005D004D003D002D00183
:0D26DA00D000D0D0D082D083D0F0D0E0323C
:03003B0002214A55
:10214A00C0E0C0F0C083C082C0D075D000C000C05B
:10215A0001C002C003C004C005C006C007E5EC30D8
:10216A00E60A9000A3E0B402037403F0E5EC30E160
:10217A0003122E23E5EC30E203122E1EE5EC30E3C7
:10218A0003122E2875EC00D007D006D005D004D053
:10219A0003D002D001D000D0D0D082D083D0F0D0EA
:0221AA00E03221
:101EC8007F0212148F122837122AE812262E122C9B
:101ED800DD7BFF7A2C792F12096390009AE0600865
:101EE800E4F0121A05122B2290009CE0600EE4F038
:101EF8001226E712242F12248712194690009FE019
:021F0800602651
:101F0A00E4F012266C12000E1225EF12003E122B7C
:101F1A00A29000C4E004F0E0D394034009740AF0EC
:061F2A009000C3E004F08A
:101F30001228C3900048EFF060A8E0FF1216E68078
:011F4000A1FF
:101E4B00706F776572206F66660A00706F776572C8
:101E5B00206F6E0A006F6666206272696768740A8B
:101E6B0000504F574552206C6F6E670A006B6579B7
:101E7B0020706F776572206F66660A00434C454190
:101E8B005220636C69636B0A00434C454152206CD2
:101E9B006F6E670A0053455420636C69636B0A00CD
:101EAB00534554206C6F6E670A004F4B20636C696F
:0D1EBB00636B0A004F4B206C6F6E670A00CE
:0C252F004100A700C1104100A200C10F34
:10262E00122BF61224DF9000A57401F09000A3F097
:10263E00A37404F09000A67441F0121F41122BCF28
:10264E007BFF7A1C7910122CB97BFF7A1F79B1129D
:0E265E002CC5E4FBFA7D04FC7F04FE02280577
:102BE30053E9FB53E9FD53E9FE43ED4043EA405308
:032BF300EBBF2213
:102BF60053E9FB53E9FD53E9FE53EDBF53EABF53D7
:032C0600EBBF22FF
:101F41009000A5E024FE6027146044240270601212
:101F51002B8AE4FFFE120F7FE4FFFE120C5D122DAF
:101F610083122D98122DA6122DF3122DB4801D125D
:101F71002D9F122D837F41122A247F42122A247F12
:101F810043122A247F44122A24122DF3022DC21255
:101F91002D9F122D837F41122A247F42122A247FF2
:101FA10043122A247F44122A24122DF3122DB42223
:101C1000122D839000A4E024FE601D046003021CCA
:101C2000A99000A5E024FE6005146007807B122DBA
:101C3000BB8076122DC980719000A6E024BF600F92
:101C400014601914602314602D2444703D803B906F
:101C50000076E0FF1211D29000778025900078E0A6
:101C6000FF1211D2900079801890007AE0FF1211D3
:101C7000D290007B800B90007CE0FF1211D290008C
:101C80007DE0FF7E00120F7F80069000A67441F079
:101C90009000A5E0B40205122DBB800A9000A5E0DB
:0C1CA000B40303122DC9122DAD022D83D8
:101FB1009000A4E024FE600804705E122DB48056E7
:101FC1009000A6E07003122DA69000A6E0B441088F
:101FD100122DA67F41122A249000A6E0B4420812D5
:101FE1002DA67F42122A249000A6E0B44308122DA8
:101FF100A67F43122A249000A6E0B44408122DA61D
:102001007F44122A249000A5E0B40203022DB4906B
:0A20110000A5E0B40303122DC22263
:101880009000A4E024FE6009146035146039021948
:10189000457F41122A247F42122A247F43122A24A0
:1018A0007F44122A24E4FF1211D2E4FFFE120F7FBC
:1018B000E4FFFE120C5D122DF39000A47401F022DF
:1018C0009000A47402F022E4900080F0A3F0900055
:1018D00085F0A3F0900080E0FEA3E0FF120F7F9060
:1018E0000085E0FEA3E0FF120C5D9000A5E024FE61
:1018F000601B1460342402704C122D83122D981238
:101900002B8A122DA6122DF3122DB48019122D83BD
:10191000122D9FE4FF1211D290007FE0FF122A24C3
:10192000122DF3122DBB022DC2122D83122D9FE416
:10193000FF1211D290007FE0FF122A24122DF31221
:061940002DB4122DC92296
:10256B009000A4E024FE6006146031240222900047
:10257B00A47401F07F41122A247F42122A247F4344
:10258B00122A247F44122A24E4FF1211D2E4FFFE04
:10259B00120F7FE4FFFE120C5D022DF39000A4746A
:0325AB0002F02219
:10279B009000A4E024FC6002802BE4900082F0A364
:1027AB00F0A3F0A3F0A3F0900082E0FF1211D290FF
:1027BB000083E0FEA3E0FF120F7F900085E0FEA3F5
:0627CB00E0FF120C5D228C
:101AB9009000A4E024FE6065046003021B649000AA
:101AC900A5E024FE601114603924026003021B643E
:101AD9009000A5740280059000A57403F0E4FF123C
:101AE90011D2122D9F122D837F41122A247F421277
:101AF9002A247F43122A247F44122A24122DF30216
:101B09002DC29000A57401F0122D83122D98122D6B
:101B1900A6122DF3122DB4122DC2022B8A9000A504
:101B2900E024FE600514601A80319000A6E070027E
:101B390080269000A6E004F0E0D3648094C4401BA2
:101B490080169000A6E07002800E9000A6E004F0D6
:0C1B5900E0D3648094C440037441F02287
:102A88009000A4E024FC600280159000A5E090006E
:102A9800A4B401057401F080037402F0122D5922C8
:101DC9009000A4E024FE60430470769000A5E0240E
:101DD900FE600F14601D240270289000A47403F0A3
:101DE90080209000A47402F0122D9F122DBB122D99
:101DF900C2800F9000A47402F0122D9F122DB4120C
:101E09002DC990007FE09000A6F0229000A5E02463
:101E1900FE600514600A800E122DBB122DC28006C9
:101E2900122DC9122DB49000A5E090007EF090000B
:101E3900A6E090007FF0E4A3F0A3F09000A474035F
:021E4900F02285
:080003009000A4E0FF022B575E
:032E3100022B571A
:062DFA00122E37022C9F8F
:1026E7009000A3E06402702F9000A2E004F0E0C322
:1026F70094034028E4F0122E00122BBA122BE37B2E
:10270700FF7A1E794B1209634387027BFF7A1E7992
:0C27170056120963022E31E49000A2F07B
:012723002293
:10266C009000A7E004F0E0FF7E00BE0111BF900EC9
:10267C00D210122E377BFF7A1E796002096390000C
:10268C00A7E0FF7E00BE0115BFF412122DFA7BFFEE
:0E269C007A1E794B1209639000A37402F0229B
:062E0000E49000A7F0229F
:0516E600900049EFF047
:1016EB00122E0030100C9000A3E0B40105C21002C2
:1016FB002E3A900049E024FDB40A0040030217B8CB
:10170B0090171975F003A4C58325F0C583730217D1
:10171B00380217B802175802176A0217B80217785F
:10172B0002178A0217B80217980217AA227BFF7AB0
:10173B001E796C1209639000A3E06401706F740250
:10174B00F07BFF7A1E7978120963022DFA300F03B2
:10175B00C20F227BFF7A1E798712096302256B7BEE
:10176B00FF7A1E7994120963D20F02279B300F0365
:10177B00C20F227BFF7A1E79A0120963021AB97B72
:10178B00FF7A1E79AB120963D20F022A88300F033E
:10179B00C20F227BFF7A1E79B5120963021DC97B2A
:0D17AB00FF7A1E79BF120963D20F120003EE
:0117B800220E
:102AA800636F6163682073657420626565700A00EE
:102AB800636F6163682067657420626565700A00EA
:10253B004800760A1414191E1E322841007500C17A
:0D254B000EC10D41007400C10AC10BC10C8E
:102AE80090007E7401F0A37441F0E4A3F0A3F0A376
:0E2AF800F0A3F0A3F0A3F0A3F0900075F0227D
:102324009000A4E0FFB40423900081E004F0700660
:10233400900080E004F0D3900081E094109000803D
:10234400E094274004E4F0A3F0D20EEFB403299004
:1023540000A47404F0900081E004F0700690008002
:10236400E004F0D3900081E09410900080E0942782
:092374004004E4F0A3F0D20E22B3
:0D000E00900075E0C394FF5003E004F02261
:03242F00300E2C40
:10243200C20E122E001205119000A4E0B4041B205B
:102442000A1AD20AE4900052F0A3F07B907A017D3E
:0C2452000AFC7F01FE1225AE8002C20AC7
:10245E00300D20900074E004F0E0D394064019C2D1
:10246E000D7BFF7A2A79A81209637B007A00790F17
:08247E00022C92E4900074F0BE
:012486002233
:1005110090007EE024FE70030205A314700302071D
:1005210034240260030208F7900080E0FEA3E0FF9C
:100531007C007D0A1201E8ED4C900052700BF0A393
:1005410004F0FB7A007D1E800AE4F0A304F0FB7A3C
:10055100007D0A7C00FF7E001225AE900080E0FF46
:10056100A3E0900083CFF0A3EFF0900081E025E0BD
:10057100FE900080E033900085F0A3CEF0900083E0
:10058100E0FEA3E0FF120F7F900085E0FEA3E0FFF5
:10059100120C5D122B8A122D98122DA6122DB40267
:1005A100072E300B4C900052E4F0A304F0FB7A00CC
:1005B1007D0A7C00FF7E001225AE90007FE0FF33B4
:1005C10095E0FEEF25E0FFEE33FE74F52FF5827422
:1005D100FF3EF583E0FD74F42FF58274FF3EF58351
:1005E100E08DF0A4FF900080E5F0F0A3EFF00207AA
:1005F1000290007FE0FF3395E0FEEF25E0FFEE3350
:10060100FE74F52FF58274FF3EF583E0FD74F42F3F
:10061100F58274FF3EF583E08DF0A4FF900080E049
:10062100B5F019A3E0B50714D20B900052E4F0A382
:1006310004F0FB7A007D1E7C00FF804E90007FE07D
:10064100FF3395E0FEEF25E0FFEE33FE74F52FF565
:100651008274FF3EF583E0FD7C00900080E0FEA304
:10066100E0FF1201E8ED4C9000527011F0A3740309
:10067100F07B0A7A007D0A7C007F01800DE4F0A303
:1006810004F0FB7A007D0A7C00FF7E001225AED2C9
:100691000C90007FE0FF3395E0FEEF25E0FFEE33A5
:1006A100FE74F52FF58274FF3EF583E0FD7C00902A
:1006B1000080E0FEA3E0FF1201E8A3EFF090007FCD
:1006C100E0FF3395E0FEEF25E0FFEE33FE74F52FFA
:1006D100F58274FF3EF583E0FD7C00900080E0FE32
:1006E100A3E0FF1201E8900083ECF0A3EDF090008D
:1006F10081E025E0FE900080E033900085F0A3CEFC
:10070100F0900082E0FF1211D2900083E0FEA3E09E
:10071100FF120F7F900085E0FEA3E0FF120C5D1237
:100721002D9F90007FE0FF122A24122DBB122DC2B3
:100731000208F1300B4D900052E4F0A304F0FB7A73
:10074100007D0A7C007FC87E001225AE90007FE00C
:10075100FF3395E0FEEF25E0FFEE33FE74F52FF554
:100761008274FF3EF583E0FD74F42FF58274FF3E41
:10077100F583E08DF0A4FF900080E5F0F0A3EFF0A9
:100781000208C290007FE0FF3395E0FEEF25E0FF15
:10079100EE33FE74F52FF58274FF3EF583E0FD74B0
:1007A100F42FF58274FF3EF583E08DF0A4FF9000F5
:1007B10080E0B5F019A3E0B50714D20B900052E424
:1007C100F0A304F0FB7A007D1E7C00FF807C90008A
:1007D1007FE0FF3395E0FEEF25E0FFEE33FE74F599
:1007E1002FF58274FF3EF583E0FD7C00900080E0F0
:0B07F100FEA3E0FF1201E8ED4C705485
:1007FC00F9900049C9F0A3F0A3E9F0D20D122D52E3
:10080C00900049EBF0A3EAF0A3E9F0780F7C007DAF
:10081C0000900049E0FBA3E0FAA3E0F97E007F0F13
:10082C0012012E7BFF7A2A79B8120963900052E4E8
:10083C00F0A37403F07B0A7A007D0A7C007F017EB2
:04084C00001225AEC3
:10085000D20C90007FE0FF3395E0FEEF25E0FFEE45
:1008600033FE74F52FF58274FF3EF583E0FD7C00C6
:10087000900080E0FEA3E0FF1201E8A3EFF09000FB
:100880007FE0FF3395E0FEEF25E0FFEE33FE74F5E9
:100890002FF58274FF3EF583E0FD7C00900080E040
:1008A000FEA3E0FF1201E8900083ECF0A3EDF090CE
:1008B0000081E025E0FE900080E033900085F0A309
:1008C000CEF0900082E0FF1211D2900083E0FEA3F0
:1008D000E0FF120F7F900085E0FEA3E0FF120C5DA9
:1008E000122D9F90007FE0FF122A24122DB4122DAA
:0708F000C9122DF3122D8344
:0108F70022DE
:0C2CB900900093EBF0A3EAF0A3E9F022F6
:0C2CC500900096EBF0A3EAF0A3E9F022E7
:102C6200900093A3E0FAA3E0F94A6003120454220D
:102C7200900096A3E0FAA3E0F94A600312045422FA
:10280500EF4E602D900089EEF0A3EFF0AF05A3EC3D
:10281500F0A3EFF0AF03A3EAF0A3EFF0E4A3F0A376
:10282500F0A3F0A3F0900088F090008704F0122C3C
:0228350062221D
:102BCF00E4900087F0122C727B007A007900122CAF
:042BDF00B9022CC546
:101946009000A3E0B40203022BCF900087E070035F
:10195600021A0490008BE0FEA3E0FF4E7003021A09
:1019660004900088E07035D3EF9400EE94005003A5
:10197600021A0490008FE475F00112023DFED39026
:10198600008AE095F0900089E09E5072122C72E475
:1019960090008FF0A3F090008804F022900088E079
:1019A6006401705A90008F75F00112023DFED390CB
:1019B600008CE095F090008BE09E504290008DE008
:1019C600FEA3E0FF9400EE94004025900091E4759C
:1019D600F00112023DFCD3EF95F0EE9C5005E49029
:1019E6000087F0900087E0700790008BF0A3F0224C
:0F19F600E490008FF0A3F0900088F0122C622292
:0A2CE800616463203D2025750A0099
:04255800C111C112DA
:0B2CDD00E47833F643B18053B27F224D
:102487009000A3E0B40202804B78330618E624FEDE
:10249700601F1460291460322403703B7833E6C34D
:1024A700940A4033E4F6301104C211800ED2118031
:1024B700237833E6C39409401EE4F6022D9178335E
:1024C700E6C394094011E4F6800A7833E6C3940919
:0724D7004005E4F6122D8A16
:0124DE0022DB
:10276100C200D281AFC37834760008A60718E6FE0E
:1027710008E67802C333CE33CED8F9FF7834EEF6CB
:1027810008EFF6ADC2EE18F6EF4D08F6E5E220E4EB
:0927910004D2008002C200D21241
:01279A00221C
:1025EF0030870B783230D8037603227602223012EE
:1025FF002DC212C37835E694FE18E6940178325056
:10260F00047601800276047BFF7A2C79E87834E631
:0F261F00FF08E690004FCFF0A3EFF012096322FF
:04255C004100C50075
:01005A002283
:032E3400D2EE22B9
:10003E009000C5E004F0E0FFB40402C281EFC39467
:0B004E00054008E49000C5F0122E34BD
:010059002284
:10283700A2AF9213C2AF75C7AA75C75553A37FA29C
:102847001392AF122AC8122868122E12122E1812CB
:102857002D29122A461229BA122A01122C51D2AF57
:01286700224E
:102A460053ACFE43AD01C2B053CABF43CA2043CA0A
:102A56001075D68075D78043CA80D2CBE47823F62A
:012A6600224D
:062E060043CB40D2B022D4
:062E0C0053CBBFC2B0224F
:1025AE00ED4C603C7825A60608A607AE04AF0508DC
:1025BE00A60608A607AE02AF0308A60608A6079051
:1025CE000052E0FEA3E0FF08A60608A607E408F600
:1025DE0008F608F608F67824F618760178317601B2
:0125EE0022CA
:072D52007B007A00792322C7
:0D2C920078237C007D007E007F0F02012E64
:072D5900E47823F6022E0CC2
:012E3D002272
:101A05007823E67003021AB8782AE61846700302AE
:101A15001AB87826E61846600808E6161870011602
:101A2500227831E66005E4F6122E067824E6FF708A
:101A35002ED3782AE6940018E694004076782D088F
:101A450006E6187001068604C3782896EC189640B9
:101A550062122E0CE4782DF608F67824760122EF32
:101A65006401704F782D0806E6187001068606C3D6
:101A7500782A96EE1896403B782BE6FE08E6FFD3CB
:101A85009400EE94004020782F0806E618700106B1
:101A95008604C39FEC9E4004E47823F67823E67021
:101AA500067829F608F622E4782DF608F67824F665
:041AB500122E0622C5
:092CFC003086037F00227F0122D3
:092D05003085037F00227F0122CA
:092D0E003084037F00227F0122C2
:092D17003083037F00227F0122BA
:0C2CD1002084062086037F01227F002261
:062E1200121B65022B718A
:10001E00900045E0243AF582E43400F583EFF09049
:0D002E000045E004F0C3940A4002E4F02213
:1028C300900045E0FF900044E0FEB507037F00223F
:1028D300743A2EF582E43400F583E0FF900044E07F
:0928E30004F0C3940A4002E4F081
:0128EC0022C9
:10296A00900045E0FFA3E0FEB507037F0022743A1A
:10297A002EF582E43400F583E0FF900046E004F08F
:07298A00C3940A4002E4F0CF
:012991002223
:102C4000EF75F00BA4240BF582E43400F583E0FF6C
:012C50002261
:1027D100EF75F00BA42409F582E43400F583ECF0E5
:1027E100A3EDF0EF75F00BA4240CF582E43400F5B1
:1027F10083EBF0EF75F00BA4240DF582E43400F5C2
:0428010083E4F0225A
:092D2000900045E0900044F0220F
:102B710043B10853B2F743B11053B2EF43B12053FD
:092B8100B2DF43B14053B2BF22A0
:101B6500E4900044F0A3F0A3F0FFEF75F00BA4247C
:101B750009F582E43400F583E4F0A374C8F0EF7549
:101B8500F00BA42406F582E43400F5837402F0EF2B
:101B950075F00BA4240BF582E43400F583E4F0EF33
:101BA50075F00BA4240CF582E43400F583E4F0EF22
:101BB50075F00BA4240DF582E43400F583E4F00FF1
:101BC500EFB405A690000374FFF0A3742CF0A37482
:101BD500FCF090000E74FFF0A3742DF0A37405F0D3
:101BE50090001974FFF0A3742DF0A3740EF090000B
:101BF5002474FFF0A3742DF0A37417F090002F74D4
:0A1C0500FFF0A3742CF0A374D1F0DB
:011C0F0022B2
:1013350090004AEFF0E075F00BA42403F974003532
:10134500F0FA7B01900000EBF0A3EAF0A3E9F012BC
:101355000434120454EF7003021427900000E0FBDC
:10136500A3E0FAA3E0F9900003120154FFC394052A
:101375005008900003740502148BEFC3940A5008BB
:101385009000037401020181900008120154701449
:10139500900008041201C690004AE075F003A40409
:1013A500FF12001E900000E0FBA3E0FAA3E0F99015
:1013B5000006120253FFAEF0D39400EE94005003E2
:1013C50002148E900004120253C39FE5F09E502331
:1013D500900004E475F00112028BFCE5F06F7002D9
:1013E500EC6E600302148E90004AE075F003A424AD
:1013F50003802B900009120154FFD394005003027F
:10140500148E90000A7401120181C39F407B9000E5
:101415000AE41201C690004AE075F003A404FF0235
:10142500001E900000E0FBA3E0FAA3E0F9900003A2
:10143500120154FFD39405400A900003740512016C
:10144500C6802BEF600A90000374FF120181801E95
:10145500900008120154B40115900008E41201C669
:1014650090004AE075F003A42402FF12001E9000CC
:1014750000E0FBA3E0FAA3E0F9900004E4F5F01224
:0A14850002D890000AE41201C6220A
:102B2200E4900049F0900049E0FFC39405500B1275
:0A2B32001335900049E004F080EB39
:012B3C002276
:092D290053ACFB43AD04022E3A49
:032E3700C2B22202
:032E3A00D2B222EF
:1029BA00E4F5B475B3FFF5B675B5FFF5DB75DAFF67
:1029CA00F5F975FA0475E5FF75E6FF75E70743F94A
:0429DA0080022C9FAC
:0C2C9F00E4FF8FFBE4F5FC0FEFB413F62C
:012CAB002206
:072D600075FB0A53FCFE2283
:072D670075FB0A43FC012289
:072D6E0075FB0C53FCFE2273
:072D750075FB0C43FC012279
:072D7C0075FB0853FCFE2269
:072D830075FB0843FC01226F
:072D8A0075FB0E53FCFE2255
:072D910075FB0E43FC01225B
:072D980075FB1053FCFE2245
:072D9F0075FB1043FC01224B
:102B8A0075FB11E4F5FC75FB1053FCF175FB0FF5B1
:082B9A00FC75FB0E53FCF12257
:1011D200EFD394634003021334EF75F00A84FEEFF9
:1011E20075F00A84ADF0EFD39409500302128DEE2C
:1011F200B40A004003021299901201F828287302DF
:10120200121F02122702122F02123D02124502126F
:101212005302125B02126902127702127F75FB0EF1
:1012220075FC0A805E75FB0E53FCF1801C75FB0E8B
:1012320075FC0C75FB0F75FC0B805C75FB0E75FC69
:1012420004804075FB0E75FC0675FB0F75FC06806D
:101252004675FB0E75FC06800675FB0E75FC0E7559
:10126200FB0F75FC0D803075FB0E53FCF175FB0F07
:1012720075FC07802275FB0E75FC0E800675FB0E51
:1012820075FC0675FB0F75FC0F800C75FB0E53FC8D
:10129200F175FB0FE4F5FCEDB40A004003021334D0
:1012A2009012A9F82828730212C70212CF0212D78D
:1012B2000212E40212F10212FE02130602131302D8
:1012C200132002132875FB1043FC0A801B75FB10C8
:1012D20053FCF1802075FB1043FC0C75FB1143FCA1
:1012E2000B2275FB1075FC0475FB1175FC0F227542
:1012F200FB1043FC0675FB1143FC062275FB1043F1
:10130200FC06800675FB1043FC0E75FB1143FC0DB9
:101312002275FB1053FCF175FB1143FC072275FB90
:101322001043FC0E800675FB1043FC0675FB11434F
:02133200FC0FAE
:011334002296
:072DA60075FB12E4F5FC22AD
:072DAD0075FB1275FC0F22FB
:102A240075FB12EF24BE600E14600F1460102403B3
:102A3400700F43FC012243FC022243FC042243FCAA
:022A4400082266
:1029DE0075FB0853FCF175FB09E4F5FC75FB0A5316
:1029EE00FCF175FB0BF5FC75FB0C53FCF175FB0D47
:0329FE00F5FC22C3
:040F7F00AB07AA060C
:100F8300D3EB94E7EA940340030211D17C007D6420
:100F9300AF03AE021201E890004DEFF07C007D64D8
:100FA300AF03AE021201E87E007F0ACFCDCFCECCD5
:100FB300CE1201E890004CEFF07C007D0AAF03AE47
:100FC300021201E8A905D3EB9463EA9400500302EB
:100FD3001072A3E0B40A00400302107E900FE6F8FB
:100FE30028287302100402100C02101402102202AB
:100FF300102A02103802104002104E02105C021038
:101003006475FB0875FC0A805E75FB0853FCF18070
:101013001C75FB0875FC0C75FB0975FC0B805C7576
:10102300FB0875FC04804075FB0875FC0675FB091D
:1010330075FC06804675FB0875FC06800675FB0883
:1010430075FC0E75FB0975FC0D803075FB0853FCB0
:10105300F175FB0975FC07802275FB0875FC0E8092
:101063000675FB0875FC0675FB0975FC0F800C758E
:10107300FB0853FCF175FB09E4F5FCD3EB9409EA97
:101083009400500302112F43E60443E60890004CFA
:10109300E0B40A00400302113B9010A3F828287320
:1010A3000210C10210C90210D10210DF0210E702C0
:1010B30010F50210FD02110B02111902112175FB2B
:1010C3000A75FC0A805E75FB0A53FCF1801C75FBF4
:1010D3000A75FC0C75FB0B75FC0B805C75FB0A75C4
:1010E300FC04804075FB0A75FC0675FB0B75FC065A
:1010F300804675FB0A75FC06800675FB0A75FC0EB7
:1011030075FB0B75FC0D803075FB0A53FCF175FB09
:101113000B75FC07802275FB0A75FC0E800675FBB8
:101123000A75FC0675FB0B75FC0F800C75FB0A53E7
:10113300FCF175FB0BE4F5FCE9B40A004003021172
:10114300D190114BF8282873021169021171021111
:101153007902118602118E02119B0211A30211B0B2
:101163000211BD0211C575FB0C75FC0A805A75FB93
:101173000C53FCF1801B75FB0C75FC0C75FB0D759A
:10118300FC0B2275FB0C75FC04803D75FB0C75FC98
:101193000675FB0D75FC062275FB0C75FC068006B7
:1011A30075FB0C75FC0E75FB0D75FC0D2275FB0CA8
:1011B30053FCF175FB0D75FC072275FB0C75FC0EDA
:0E11C300800675FB0C75FC0675FB0D75FC0FA8
:0111D10022FB
:072DB40075FB0253FCFE2237
:072DBB0075FB0243FC01223D
:072DC20075FB0453FCFE2227
:072DC90075FB0475FC0122FB
:072DD00075FB0853FCFE2215
:072DD70075FB0843FC01221B
:072DDE00E4F5FB53FCFE22AB
:072DE500E4F5FB43FC0122B1
:10289600E4F5FB53FCF175FB01F5FC75FB0253FCFB
:1028A600F175FB03F5FC75FB0453FCF175FB05F5AF
:0D28B600FC75FB0653FCF175FB07F5FC22D9
:040C5D00AB07AA0631
:100C6100D3EB940FEA94274003020F7E7C037DE8C7
:100C7100AF03AE021201E890004EEFF07C037DE875
:100C8100AF03AE021201E87E007F64CFCDCFCECCA0
:100C9100CE1201E890004DEFF07C007D64AF03AE11
:100CA100021201E87E007F0ACFCDCFCECCCE120159
:100CB100E890004CEFF07C007D0AAF03AE02120118
:100CC100E8A905D3EB94E7EA94035003020D6F9072
:100CD100004EE0B40A004003020D7A900CE3F828BC
:100CE1002873020D01020D09020D11020D1F020DE3
:100CF10027020D35020D3D020D4B020D59020D610A
:100D0100E4F5FB75FC0A805EE4F5FB53FCF1801C05
:100D1100E4F5FB75FC0C75FB0175FC0B805BE4F5E0
:100D2100FB75FC048040E4F5FB75FC0675FB017561
:100D3100FC068045E4F5FB75FC068006E4F5FB75D1
:100D4100FC0E75FB0175FC0D802FE4F5FB53FCF1E6
:100D510075FB0175FC078021E4F5FB75FC0E80062F
:100D6100E4F5FB75FC0675FB0175FC0F800BE4F5E2
:100D7100FB53FCF175FB01F5FCD3EB9463EA9400A2
:100D81005003020E2590004DE0B40A004003020E0C
:100D910031900D99F8282873020DB7020DBF020D8D
:100DA100C7020DD5020DDD020DEB020DF3020E019E
:100DB100020E0F020E1775FB0275FC0A805E75FBB1
:100DC1000253FCF1801C75FB0275FC0C75FB03756D
:100DD100FC0B805C75FB0275FC04804075FB0275A1
:100DE100FC0675FB0375FC06804675FB0275FC0667
:100DF100800675FB0275FC0E75FB0375FC0D8030DA
:100E010075FB0253FCF175FB0375FC07802275FB32
:100E11000275FC0E800675FB0275FC0675FB0375F9
:100E2100FC0F800C75FB0253FCF175FB03E4F5FC30
:100E3100D3EB9409EA94005003020EDC90004CE0DD
:100E4100B40A004003020EE8900E50F828287302FD
:100E51000E6E020E76020E7E020E8C020E94020EB1
:100E6100A2020EAA020EB8020EC6020ECE75FB0435
:100E710075FC0A805E75FB0453FCF1801C75FB0454
:100E810075FC0C75FB0575FC0B805C75FB0475FC32
:100E910004804075FB0475FC0675FB0575FC068036
:100EA1004675FB0475FC06800675FB0475FC0E7522
:100EB100FB0575FC0D803075FB0453FCF175FB05DA
:100EC10075FC07802275FB0475FC0E800675FB041A
:100ED10075FC0675FB0575FC0F800C75FB0453FC56
:100EE100F175FB05E4F5FCE9B40A004003020F7E4D
:100EF100900EF8F8282873020F16020F1E020F2613
:100F0100020F33020F3B020F48020F50020F5D0226
:100F11000F6A020F7275FB0675FC0A805A75FB0693
:100F210053FCF1801B75FB0675FC0C75FB0775FC0A
:100F31000B2275FB0675FC04803D75FB0675FC06EE
:100F410075FB0775FC062275FB0675FC06800675A8
:100F5100FB0675FC0E75FB0775FC0D2275FB065330
:100F6100FCF175FB0775FC072275FB0675FC0E800D
:0D0F71000675FB0675FC0675FB0775FC0F89
:010F7E002250
:072DEC0075FB0653FCFE22FB
:072DF30075FB0643FC012201
:102C82006D6574657220636F756E742025640A0029
:02256000C114A4
:0D2CAC0053DCEF43DD101224DF439B0222B6
:0A2CF200E49000C0F0A3F0A3F0226C
:1024DF00C2DC43E90453E9FD43E90153EDFE43ED4B
:1024EF000243ED0443ED0853EDEF53EDDF53EDBF22
:1024FF0053ED7F53EAFE43EA0243EA0443EA0853EB
:10250F00EAEF53EADF53EABF53EA7FE4F5EB53EB0D
:08251F00FD53EBFB53EBF72227
:102BBA00D2DC53EDFD53EDFB53EDF753EAFD53EA37
:052BCA00FB53EAF722B5
:062E1800122CAC022CF2AA
:102BA2007BFF7A2C79829000C0E0FE3395E09000A2
:082BB2004FF0A3CEF00209630D
:0517B900900047EFF075
:1017BE00E49000A7F0122E3A900047E0FF14602844
:1017CE0014604D240270739000C2E0FE700A900007
:1017DE00C1E06060E4F08062EEB40102802290000D
:1017EE00C2E06402705480219000C2E0FEB4010C8D
:1017FE009000C1E06004E4F080408038EEB4020353
:10180E00E480249000C2E070319000C104F0802A80
:10181E009000C2E0FEB4020C9000C1E06004E4F05F
:10182E0080188010EE70069000C1F0800D9000C2FE
:10183E00E0B401069000C17401F09000C2EFF09088
:10184E0000C1E09000C06005E004F08003E014F0F9
:10185E0030140E9000C0E0C3648094855013C214FF
:10186E00229000C0E0D36480948C4005D2141223E1
:01187E002445
:01187F002246
:052E1E00E4FF0217B9FA
:052E23007F010217B958
:052E28007F020217B952
:102C510053DC7F43DD807F807E257D007C00022266
:012C61006C06
:102C090030F80BE59A1201B4C2F8D2158002C21548
:022C1900A21502
:012C1B002296
:082562004100A0004100A100AE
:102A0100122B065389F75389FB5389FD43890190A2
:102A110000A074FCF0A37466F0758CFCF58AD2A951
:032A2100D28C2232
:102B0600E4900099F090009BF090009DF0A3F09067
:0C2B1600009AF090009CF090009FF022CC
:03000B0002201BB5
:10201B00C0E0C0F0C083C082C0D075D000C000C08B
:10202B00069000A0E0F58CA3E0F58A900099E004FF
:10203B00F0C3940A4005E4F0A304F090009BE00485
:10204B00F0C394644005E4F0A304F090009DE475A4
:10205B00F00112023DFEC3E5F094E8EE9403400A52
:10206B0090009DE4F0A3F0A304F0D006D000D0D0F4
:09207B00D082D083D0F0D0E03215
:102C1C0053897F5389BF4389205389EF758DCE75B6
:032C2C008BCE222A
:03001B00022E3E74
:012E3E003261
:1028680053B1FD43B202D28143E10175E80243B19D
:102878000453B2FB43F60453E1BF43E12053E1EFB5
:0E28880043E22043E240E4F5E4F5E3D2AE2261
:10148F00EF14604414606F14700302152E14700370
:10149F0002156A240460030215CEA2AF9213C2AFE5
:1014AF0075C7AA75C755439780A21392AFA2AF9283
:1014BF0013C2AF75C7AA75C7555397BFA21392AF83
:1014CF00E59630E7FB021595A2AF9213C2AF75C731
:1014DF00AA75C75553977FA21392AFA2AF9213C2AB
:1014EF00AF75C7AA75C755439740A21392AFE5963C
:1014FF0030E6FB021595A2AF9213C2AF75C7AA755E
:10150F00C755439720A21392AFE59630E5FBA2AFE4
:10151F009213C2AF75C7AA75C7555396FB8027A202
:10152F00AF9213C2AF75C7AA75C755439710A213D1
:10153F0092AFE59630E4FBA2AF9213C2AF75C7AA84
:10154F0075C755439604A21392AFA2AF9213C2AFC1
:10155F0075C7AA75C7555396FD804DA2AF9213C29A
:10156F00AF75C7AA75C75553977FA21392AFA2AF96
:10157F009213C2AF75C7AA75C7555397BFA21392DF
:10158F00AFE59630E3FBA2AF9213C2AF75C7AA7552
:10159F00C7555396FBA21392AFA2AF9213C2AF756A
:1015AF00C7AA75C755439602A21392AFA2AF921363
:1015BF00C2AF75C7AA75C7555396FEA21392AFE572
:0515CF009720E0FB2263
:1029410075985243892053877F538EEF53C4DFAB71
:1029510007AA06A905A804E47F807E70FDFC120386
:0929610041EFF404F58DD28E2241
:10299200759852438920438780538EEF53C4DFAB2F
:1029A20007AA06A905A804E4FF7EE1FDFC12034183
:0829B200EFF404F58DD28E2232
:1028ED0075985243892053877F438E1053C4DFABB5
:1028FD0007AA06A905A8047F007E467D057C001267
:0A290D000341EFF404F58DD28E2291
:10291700759852438920438780438E1053C4DFAB99
:1029270007AA06A905A8047F007E8C7D0A7C0012F1
:0A2937000341EFF404F58DD28E2267
:102084009000A81203F775985253877F53C4F843FE
:10209400C4209000A8E0F8A3E0F9A3E0FAA3E0FBD1
:1020A4007F007E467D057C00120341C3E49FFFE46C
:1020B4009EFE74019DFDE49CFC78081203E48FC627
:1020C4009000A8E0F8A3E0F9A3E0FAA3E0FB7F0006
:1020D4007E467D057C00120341C3E49FFF8FC54308
:0320E400C408220B
:1020E7009000AC1203F775985243878053C4F843A6
:1020F700C4209000ACE0F8A3E0F9A3E0FAA3E0FB6A
:102107007F007E8C7D0A7C00120341C3E49FFFE4BD
:102117009EFE74019DFDE49CFC78081203E48FC6C3
:102127009000ACE0F8A3E0F9A3E0FAA3E0FB7F009E
:102137007E8C7D0A7C00120341C3E49FFF8FC54359
:03214700C40822A7
:10226C009000491203F775F85253C4F8900049E0F6
:10227C00F8A3E0F9A3E0FAA3E0FB7F007E8C7D0AD3
:10228C007C00120341C3E49FFFE49EFE74019DFD9C
:10229C00E49CFC78081203E48FC6900049E0F8A394
:1022AC00E0F9A3E0FAA3E0FB7F007E8C7D0A7C00C2
:0D22BC00120341C3E49FFF8FC543C40822F5
:072D32003098FDAF99C29833
:012D39002277
:082D3A00C2998F993099FD2226
:072D420030F8FDAF9AC2F862
:012D49002267
:082D4A00C2F98F9A30F9FD2255
:102B3D00E4F5B1F5B2F5B3F5B4F5B5F5B6F5ACF51B
:0A2B4D00ADF5DAF5DBF5DCF5DD226D
:102AC80075B1FFE4F5B275B3FFF5B475B5FFF5B6AA
:102AD80075ACFFF5AD75DAFFF5DB75DCFFF5DD22CA
:102B570075C7AA75C755A2AF9213C2AF75C7AA7535
:0A2B6700C755439F80A21392AF22CE
:042E2D0043AD80220F
:10272400EF640A701C30F811E59AB4130CC2F83047
:10273400F8FDE59AB411F6C2F830F9FDC2F9759ABC
:102744000D30F811E59AB4130CC2F830F8FDE59A8F
:0D275400B411F6C2F830F9FDC2F98F9A22D7
:061D460090FFF812045AA0
:101D4C00850D83850E8212040300000000E47FFFE2
:101D5C007EFFFDFC850D83850E82E0F8A3E0F9A3E0
:101D6C00E0FAA3E0FBC31203D3504C90000412041E
:101D7C007EE0FCA3E0FDA3E0FEA3E02401FFE43E33
:101D8C00FEE43DFDE43CFC90000412047E1203F7DB
:101D9C00850D83850E82E0FCA3E0FDA3E0FEA3E0AD
:101DAC002401FFE43EFEE43DFDE43CFC850D83850F
:071DBC000E821203F780966E
:061DC30090000802045A22
:102A6700538EF7438901D28CEF4E6012758AF77542
:102A77008CFF308DFDC28DEF1F70ED1E80EAC28C7A
:012A8700222C
:10237D009000B01203F7538EF7438901D28CE4FF1E
:10238D00FEFDFC9000B0E0F8A3E0F9A3E0FAA3E0B5
:10239D00FBC31203D3602F758A65758CFC308DFDE0
:1023AD00C28D9000B0E0FCA3E0FDA3E0FEA3E0240D
:1023BD00FFFFEE34FFFEED34FFFDEC34FFFC90002B
:0923CD00B01203F780B8C28C22A3
:1023D6009000B41203F7538EEF438910D28EE4FFB8
:1023E600FEFDFC9000B4E0F8A3E0F9A3E0FAA3E058
:1023F600FBC31203D3602F758B65758DFC308FFD83
:10240600C28F9000B4E0FCA3E0FDA3E0FEA3E024AD
:10241600FFFFEE34FFFEED34FFFDEC34FFFC9000D1
:09242600B41203F780B8C28E2243
:1022C9009000B81203F775C40243C408E4FFFEFD89
:1022D900FC9000B8E0F8A3E0F9A3E0FAA3E0FBC39F
:1022E9001203D3603275C53375C6F5E5C430E4FB16
:1022F90053C4EF9000B8E0FCA3E0FDA3E0FEA3E027
:1023090024FFFFEE34FFFEED34FFFDEC34FFFC90BB
:0B23190000B81203F780B553C4F72290
:1021AC009000BC1203F7538FFB538FFD538FFEE44B
:1021BC00F586538FDF438F08E4FFFEFDFC9000BCD7
:1021CC00E0F8A3E0F9A3E0FAA3E0FBC31203D360A9
:1021DC002CE58F30E4FB538FEF9000BCE0FCA3E0C8
:1021EC00FDA3E0FEA3E024FFFFEE34FFFEED34FF81
:1021FC00FDEC34FFFC9000BC1203F780BB538FF74F
:01220C0022AF
:1015D4000A3D3D3D3D3D3D3D3D3D3D3D3D3D3D3D6A
:1015E4003D3D3D3D3D3D3D3D3D3D3D3D3D3D3D3D27
:1015F4003D3D3D3D3D3D3D3D3D3D3D3D3D3D3D3D17
:101604003D3D3D3D3D3D3D3D3D3D3D3D3D3D3D3D06
:101614003D3D3D3D3D000A2A2020436F70797269AB
:101624006768742863292032303135204E75766F0F
:10163400746F6E20546563686E6F6C6F67792043B6
:101644006F72702E20416C6C20726967687473200D
:1016540072657365727665642E2020000A2A202044
:10166400436F6E7461637420452D4D61696C3A203B
:101674004D6963726F432D38626974406E75766F7D
:10168400746F6E2E636F6D20202020202020202078
:101694002020202020202020202020202020202046
:1016A40020000A2A202044656D6F205665727369F4
:1016B4006F6E20203A202532642E2532642E253286
:1016C40064000A2A202046696E69736865642044B0
:1016D400617465203A202532642E2532642E253229
:0216E4006400A0
:10220D007BFF7A1579D41209637BFF7A16791A123E
:10221D0009637BFF7A1679601209637BFF7A167961
:10222D00A690004FE4F0A304F0E4A3F0A3F0A3F014
:10223D00A3F01209637BFF7A1679C690004F7407DD
:10224D00F0A374DFF0A3E4F0A37405F0A3E4F0A30E
:0F225D00741FF01209637BFF7A1579D4020963AD
:03000000021CAC33
:101CAC00787FE4F6D8FD9000007FFF7E01E4F0A37E
:0A1CBC00DFFCDEFA758135021D0120
:101CC600021EC8E493A3F8E493A34003F68001F24E
:101CD60008DFF48029E493A3F85407240CC8C3331F
:101CE600C4540F4420C8834004F456800146F6DFEE
:101CF600E4800B0102040810204080902527E47E32
:101D0600019360BCA3FF543F30E509541FFEE493E2
:101D1600A360010ECF54C025E060A840B8E493A3A9
:101D2600FAE493A3F8E493A3C8C582C8CAC583CAD4
:101D3600F0A3C8C582C8CAC583CADFE9DEE780BE8C
:01256A000070
:10005E00E709F608DFFA8046E709F208DFFA803E84
:10006E0088828C83E709F0A3DFFA8032E309F60871
:10007E00DFFA8078E309F208DFFA807088828C83D9
:10008E00E309F0A3DFFA806489828A83E0A3F6088D
:10009E00DFFA805889828A83E0A3F208DFFA804C67
:1000AE0080D280FA80C680D4806980F2803380103E
:1000BE0080A680EA809A80A880DA80E280CA8033A7
:1000CE0089828A83ECFAE493A3C8C582C8CCC5831F
:1000DE00CCF0A3C8C582C8CCC583CCDFE9DEE780EF
:1000EE000D89828A83E493A3F608DFF9ECFAA9F06E
:1000FE00EDFB2289828A83ECFAE0A3C8C582C8CCC4
:10010E00C583CCF0A3C8C582C8CCC583CCDFEADEDC
:10011E00E880DB89828A83E493A3F208DFF980CC3E
:10012E0088F0EF60010E4E60C388F0ED2402B40437
:10013E000050B9F582EB2402B4040050AF232345DE
:06014E0082239000AE7355
:10015400BB010CE58229F582E5833AF583E0225060
:1001640006E92582F8E622BBFE06E92582F8E222AA
:0D017400E58229F582E5833AF583E49322C4
:10018100BB010FF8E58229F582E5833AF583E02882
:10019100F0225009C58229F8E58226F622BBFE0924
:1001A100C58229F8E22582F222F8EA2583F583E95E
:0301B1009328226E
:1001B400BB010689828A83F0225002F722BBFE012A
:0201C400F32224
:1001C600F8BB010DE58229F582E5833AF583E8F06F
:1001D600225006E92582C8F622BBFE05E92582C81B
:0201E600F22203
:1001E800BC000BBE0029EF8DF084FFADF022E4CCFB
:1001F800F875F008EF2FFFEE33FEEC33FCEE9DECC4
:10020800984005FCEE9DFE0FD5F0E9E4CEFD22ED09
:10021800F8F5F0EE8420D21CFEADF075F008EF2F53
:10022800FFED33FD4007985006D5F0F222C398FD44
:050238000FD5F0EA22E1
:10023D00C5F0F8A3E028F0C5F0F8E582158270024C
:06024D001583E038F022E9
:10025300BB0110E58229F582E5833AF583E0F5F0E9
:10026300A3E0225009E92582F886F008E622BBFEC6
:100273000AE92582F8E2F5F008E222E5832AF5830C
:08028300E993F5F0A3E99322D1
:10028B00BB010DC58229C582C5833AC58302023DD8
:10029B005011C58229F808E5F026F618F5F0E5822D
:1002AB0036F622BBFE11C58229F808E225F0F5F0DF
:1002BB00F218E23582F222F8E58229F582E5832AEB
:0D02CB00F58374019325F0F5F0E4933822DB
:1002D800F8BB0111E58229F582E5833AF583E8F058
:1002E800E5F0A3F0225009E92582C8F608A6F02215
:0D02F800BBFE09E92582C8F2E5F008F222FC
:1003050075F008758200EF2FFFEE33FECD33CDCCAF
:1003150033CCC58233C5829BED9AEC99E582984032
:100325000CF582EE9BFEED9AFDEC99FC0FD5F0D60F
:10033500E4CEFBE4CDFAE4CCF9A88222B800C1B939
:100345000059BA002DEC8BF084CFCECDFCE5F0CB77
:10035500F97818EF2FFFEE33FEED33FDEC33FCEBB0
:1003650033FB10D703994004EB99FB0FD8E5E4F96B
:10037500FA227818EF2FFFEE33FEED33FDEC33FC58
:10038500C933C910D7059BE99A4007EC9BFCE99A4C
:10039500F90FD8E0E4C9FAE4CCFB2275F010EF2F91
:1003A500FFEE33FEED33FDCC33CCC833C810D70791
:1003B5009BEC9AE899400AED9BFDEC9AFCE899F8CC
:0E03C5000FD5F0DAE4CDFBE4CCFAE4C8F9225F
:1003D300EB9FF5F0EA9E42F0E99D42F0E89C45F080
:0103E30022F7
:1003E400E8600FECC313FCED13FDEE13FEEF13FFF7
:0303F400D8F1221B
:0C03F700ECF0A3EDF0A3EEF0A3EFF02279
:10040300A8828583F0D083D08212041A12041A12B0
:10041300041A12041AE473E493A3C583C5F0C583D5
:10042300C8C582C8F0A3C583C5F0C583C8C582C843
:0104330022A6
:10043400BB010789828A830204AD5005E9F80204EE
:10044400A4BBFE05E9F80204D689828A830204DF8C
:060454008A838982E47333
:10045A00E50E2582F582E50D3583F583B50D048514
:10046A00820E2210AF0685820EF50D2285820EF5C8
:04047A000DD2AF22CE
:0D047E00E50E2582F582E50D3583F583221C
:1008F800E508244FF582E43400F583E005082290EA
:10090800004C30080390004FE475F0011204B60261
:10091800048B2001E97F2ED2018018EF540F249018
:10092800D43440D4FF30050BEF24BFB41A00500371
:100938002461FFE50960021509050CE50C70020544
:100948000B30080E90004CE475F0011204B6EF026B
:1009580001B40227247403D2088003E4C208F5080E
:1009680090004C1204CDE4F509F50BF50CE509608F
:10097800077F2012093B80F5750AFFC202C201C237
:1009880003C204C206C207C209120907FF700D306C
:1009980008057F0012094CAF0CAE0B22B4255FC2CC
:1009A800D5C205120907FF24D0B40A00501A75F001
:1009B8000A780930D50508B6FF0106C6A426F62030
:1009C800D5047002D20480D924CFB41A00EF5004A1
:1009D800C2E5D205020B4DD20280C6D20180C0D238
:1009E8000380BCD2D580BAD20680B47F2012093BDE
:1009F8002003077401B5090040F11208F8FF120935
:100A08003B020975D209D20780951208F8FB120833
:100A1800F8FA1208F8F94A4B7006791E7A0C7BFF2F
:100A280020032EE509602A7E008E8275830012015C
:100A38005460060EEE650A70F0C2D5EBC0E0EAC05D
:100A4800E0E9C0E0EE120B94D0E0F9D0E0FAD0E093
:100A5800FB12048BFF60AAEBC0E0EAC0E0E9C0E04B
:100A680012093BD0E02401F9D0E03400FAD0E0FBD1
:100A7800E50A0460DCD50AD980877BFF7A0B799078
:100A8800D203809C791080027908C207C2098008C5
:100A9800D2D5790A8004790AC2D5E50A047002F52C
:100AA8000AE4FAFDFEFF1208F8FC7B082002131284
:100AB80008F8FD7B1030010A1208F8FE1208F8FF4A
:100AC8007B20EC3382D592D55013C3E43001069FC6
:100AD800FFE49EFEE42002039DFDE49CFCE4CBF8C9
:100AE800C202EC700CCFCECDCCE824F8F870F380BD
:100AF80017C3EF33FFEE33FEED33FDEC33FCEB337E
:100B0800FB994002FB0FD8E9EB300205F8D0E0C4AE
:100B180048B202C0E00AEC4D4E4F78207B0070C20C
:100B2800EAB50A0040BCC0E0120B96D0F0D0E02035
:100B38000204C4C0E0C4B202C0F0120924D0F0D547
:100B4800F0EB0209751204EB0A12530A8C5809E3F8
:100B58004C09DF420A904F0A98440A984909F84319
:080B68000A9E550A82460A822A
:100B7000450A82470C3E5009E72D09EB2E0A0E2B41
:100B800009EF230A0C200C272A09A74800000A06AF
:100B90003F3F3F00790AA2D5200414300609B9105E
:100BA000020404B9080104A2D52007025001042060
:100BB00003689203B509005034C0E07F2030041967
:100BC0007F30A20372077206500F120BEDC203C2F0
:100BD00007C206C2097F30800F300603E9C0E01269
:100BE000093B300603D0E0F9D0E0B509CC30061758
:100BF0007F30B9100C12093B7F583005077F788091
:100C000003B9080312093B3003057F2D02093B7F1E
:100C1000202009F87F2B2007F322920380CF286E33
:100C2000756C6C2900D2021208F83002F8C2027802
:100C30000930D50108F60209A72D5043495812087A
:100C4000F82403B405004001E4900C399312092CF8
:0D0C5000743A12092CD204750904020A8CB2
:10048B00BB010689828A83E0225002E722BBFE026F
:09049B00E32289828A83E49322A2
:0904A400E6FB08E6FA08E6F9227D
:0904AD00E0FBA3E0FAA3E0F92250
:1004B600F8E0FBA3A3E0F925F0F0E58215827002CF
:0704C6001583E0FA38F02273
:0904CD00EBF0A3EAF0A3E9F02230
:0904D600E2FB08E2FA08E2F92257
:0C04DF00E493FB740193FA740293F92279
:1004EB00D083D082F8E4937012740193700DA3A3A0
:1004FB0093F8740193F5828883E4737402936860B4
:06050B00EFA3A3A380DFB3
:00000001FF
