:0822F5004100C1004100C200DC
:03005B000223B7C6
:1023B700C0E0C0F0C083C082C0D075D000C000C0EC
:1023C70001C002C003C004C005C006C00712243103
:1023D700C2EFD007D006D005D004D003D002D00179
:0D23E700D000D0D0D082D083D0F0D0E03232
:03003B00021F0D94
:101F0D00C0E0C0F0C083C082C0D075D000C000C09A
:101F1D0001C002C003C004C005C006C007E5EC3017
:101F2D00E60A9000A0E0B402037403F0E5EC30E1A2
:101F3D0003122B0EE5EC30E203122B09E5EC30E336
:101F4D0003122B1375EC00D007D006D005D004D0AA
:101F5D0003D002D001D000D0D0D082D083D0F0D029
:021F6D00E03260
:101C98007F0212136F1225031227C012003E122969
:101CA800E1900097E06008E4F012185412281490AC
:101CB8000099E0600EE4F01226361229A51222558A
:091CC80012179590009CE06026C3
:101CD100E4F012249F12000E1223391227DC12287D
:101CE100949000C2E004F0E0D394034009740AF038
:061CF1009000C1E004F0C8
:101CF70012258F900048EFF060A8E0FF121AF180DC
:011D0700A13A
:1028AC006F6666206272696768740A00706F77657C
:0728BC0072206F66660A003E
:1022FD004100A1004100A2004100A300C10F410017
:02230D009F002F
:10003E00E49000A2F01228FF1222AD9000A47401E9
:0C004E00F090007BF09000A0F00219B1CF
:1028EC0053E9FB53E9FD53E9FE43ED4043EA405302
:0328FC00EBBF220D
:1028FF0053E9FB53E9FD53E9FE53EDBF53EABF53D1
:03290F00EBBF22F9
:1019B1009000A4E024FE6028146059240260030210
:1019C1001A56E4FFFE120E64E4FFFE120B42122AC5
:1019D1006E122A83122A91122ADE122A9F022AAD3E
:1019E100122A8A122A6E7F4112273C7F4212273C1B
:1019F1007F4312273C7F4412273C122ADE122AAD74
:101A01001228D87BFF7A2A79A61229B17BFF7A2A7C
:101A1100799F8032122A8A122A6E7F4112273C7FD7
:101A21004212273C7F4312273C7F4412273C122A53
:101A3100DE122A9F1228D87BFF7A2A79B41229B1A3
:101A41007BFF7A2A79AD1229BDE4FBFA7D04FC7F84
:061A510004FE1224D12264
:101B8400122A6E9000A2E024FE601F046003021C6F
:101B9400129000A4E0B40205122AA680719000A459
:101BA400E064037069122AB480649000A1E024BE4A
:101BB400601714602114602B24037039900073E0C3
:101BC400FF1210B79000748025900075E0FF12108A
:101BD400B79000768018900077E0FF1210B790005D
:101BE40078800B900079E0FF1210B790007AE0FF44
:101BF4007E00120E649000A4E0B40205122AA680AE
:101C04000A9000A4E0B40303122AB4122A98022A08
:011C14006E61
:101D74009000A2E024FE600804705E122A9F805640
:101D84009000A1E07003122A919000A1E0B44108F0
:101D9400122A917F4112273C9000A1E0B44208121C
:101DA4002A917F4212273C9000A1E0B44308122AF2
:101DB400917F4312273C9000A1E0B44408122A9179
:101DC4007F4412273C9000A4E0B40203022A9F90AF
:0A1DD40000A4E0B40303122AAD22BC
:1015C6009000A2E014700302169114700302169D97
:1015D6001470030216A6240360030216AE9000A43C
:1015E600E024FE603E14606F240260030216AEE43F
:1015F60090007DF0A3F0900082F0A3F090007DE0D3
:10160600FEA3E0FF120E64900082E0FEA3E0FF124C
:101616000B42122A6E122A83122A91122ADE122AEB
:101626009F8031E490007DF0A3F0900082F0A3F05B
:10163600FF1210B7E4FFFE120E64E4FFFE120B4227
:10164600122A6E122A8A90007CE0FF12273C122A88
:10165600DE122AA6022AADE490007DF0A3F09000E7
:1016660082F0A3F0FF1210B7E4FFFE120E64E4FF4F
:10167600FE120B42122A6E122A8A90007CE0FF129A
:10168600273C122ADE122A9F022AB41228D890007A
:10169600A2E0601414F0229000A2E0600B14F02285
:0916A6009000A2E0600214F022A1
:101F6F009000A2E0705B90007BE01470069000A2DE
:101F7F007401F0E4FF1210B7E4FFFE120E64E4FFE9
:101F8F00FE120B42122A6E122A8A122A98122ADE87
:101F9F0090007BE09000A4F07402F09000A214F087
:101FAF001228D87BFF7A1B79841229B17BFF7A1D07
:101FBF0079741229BDE4FBFA7D04FC7F04FE122420
:021FCF00D1221D
:101D08009000A2E024FE60270470609000A4E02404
:101D1800FE600E146012240270519000A47402F048
:101D2800229000A47403F0229000A47401F0229081
:101D380000A4E024FD601B0470319000A1E0700253
:101D480080269000A1E004F0E0D3648094C4401B96
:101D580080169000A1E07002800E9000A1E004F0CF
:0C1D6800E0D3648094C440037441F02276
:102149009000A2E024FE602704704E9000A4E024D1
:10215900FD600B04700E122AA6122AAD8006122AFF
:102169009F122AB49000A17441F0A37402F0229046
:1021790000A4E024FE70091228D8122AA6122AAD5A
:102189009000A4E090007BF09000A1E090007CF02A
:0A219900E4A3F0A3F09000A2F022EE
:032B1C0002284943
:062AE500122B2202298BD6
:102636009000A0E0B4021B90009FE004F0E0C39479
:10264600034014E4F0122AEB1228C31228EC438745
:072656000222E490009FF056
:01265D00225A
:10249F009000A3E004F0E0B4140ED20F122B227BB5
:1024AF00FF7A2879AC0208489000A3E0B41E1212FC
:1024BF002AE57BFF7A2879B81208489000A07402A9
:0224CF00F022F9
:062AEB00E49000A3F022BC
:101AF100900049EFF0122AEB300F0C9000A0E0B4F7
:101B01000105C20F022B25900049E014602E24FE2E
:101B1100603814605B24FD605D24FD605F24087003
:101B2100619000A0E064037059122AE57BFF7A28D6
:101B310079B81208489000A07402F022122B289064
:101B410000A0E06401703B0215C6122B289000A092
:101B5100E0B401067402F0022AE59000A0E0B402AC
:101B61000280079000A0E0B403187401F0022B1C5E
:101B7100122B28021F6F122B28021D08122B28126C
:031B8100214922D5
:10230F004800730A1414191E1E322841007200C1AE
:05231F000CC10AC10B16
:1027C00090007B7401F0E4A3F0A3F0A3F0A3F0A3C6
:0C27D000F0A3F0A3F0A3F0900072F02240
:1026AE0090007EE004F0700690007DE004F0D39080
:1026BE00007EE0941090007DE094274004E4F0A3A7
:0426CE00F0D20C2218
:0D000E00900072E0C394FF5003E004F02264
:0C29A500300C08C20C122AEB12005E225B
:10005E00E49000A2F01228D890007BE024FE7003FA
:10006E000200F81470030202892402600302041FC6
:10007E0090007DE0FEA3E0FF7C007D0A1204B4ED4B
:10008E004C90004F700BF0A304F0FB7A007D1E80A5
:10009E000AE4F0A304F0FB7A007D0A7C00FF7E00E8
:1000AE0012237890007DE0FFA3E0900080CFF0A3B4
:1000BE00EFF090007EE025E0FE90007DE0339000B2
:1000CE0082F0A3CEF0900080E0FEA3E0FF120E645B
:1000DE00900082E0FEA3E0FF120B4212287C122A4F
:1000EE0083122A91122A9F020283300A4C90004FEB
:1000FE00E4F0A304F0FB7A007D0A7C00FF7E001280
:10010E00237890007CE0FF3395E0FEEF25E0FFEED4
:10011E0033FE74F22FF58274FF3EF583E0FD74F129
:10012E002FF58274FF3EF583E08DF0A4FF90007DE5
:10013E00E5F0F0A3EFF002025790007CE0FF33955C
:10014E00E0FEEF25E0FFEE33FE74F22FF58274FF32
:10015E003EF583E0FD74F12FF58274FF3EF583E0EA
:10016E008DF0A4FF90007DE0B5F019A3E0B5071463
:10017E00D20A90004FE4F0A304F0FB7A007D1E7CBF
:10018E0000FF804E90007CE0FF3395E0FEEF25E00F
:10019E00FFEE33FE74F22FF58274FF3EF583E0FD21
:1001AE007C0090007DE0FEA3E0FF1204B4ED4C90C5
:1001BE00004F7011F0A37403F07B0A7A007D0A7C65
:1001CE00007F01800DE4F0A304F0FB7A007D0A7C31
:1001DE0000FF7E00122378D20B90007CE0FF339557
:1001EE00E0FEEF25E0FFEE33FE74F22FF58274FF92
:1001FE003EF583E0FD7C0090007DE0FEA3E0FF1263
:10020E0004B4A3EFF090007CE0FF3395E0FEEF2501
:10021E00E0FFEE33FE74F22FF58274FF3EF583E0BD
:10022E00FD7C0090007DE0FEA3E0FF1204B4900080
:10023E0080ECF0A3EDF090007EE025E0FE90007DD6
:10024E00E033900082F0A3CEF090007FE0FF12101A
:10025E00B7900080E0FEA3E0FF120E64900082E0F3
:10026E00FEA3E0FF120B42122A8A90007CE0FF12DE
:10027E00273C122AA6122AAD020419300A4D90000C
:10028E004FE4F0A304F0FB7A007D0A7C007FC87E69
:10029E000012237890007CE0FF3395E0FEEF25E01E
:1002AE00FFEE33FE74F22FF58274FF3EF583E0FD10
:1002BE0074F12FF58274FF3EF583E08DF0A4FF906C
:1002CE00007DE5F0F0A3EFF00203EA90007CE0FF82
:1002DE003395E0FEEF25E0FFEE33FE74F22FF5824C
:1002EE0074FF3EF583E0FD74F12FF58274FF3EF549
:1002FE0083E08DF0A4FF90007DE0B5F019A3E0B58A
:10030E000714D20A90004FE4F0A304F0FB7A007DAC
:10031E001E7C00FF804F90007CE0FF3395E0FEEFE7
:10032E0025E0FFEE33FE74F22FF58274FF3EF58367
:10033E00E0FD7C0090007DE0FEA3E0FF1204B4ED32
:10034E004C90004F7011F0A37403F07B0A7A007D7D
:10035E000A7C007F01800EE4F0A304F0FB7A007D9E
:10036E000A7C007FC87E00122378D20B90007CE0BE
:10037E00FF3395E0FEEF25E0FFEE33FE74F22FF52E
:10038E008274FF3EF583E0FD7C0090007DE0FEA3CD
:10039E00E0FF1204B4A3EFF090007CE0FF3395E091
:1003AE00FEEF25E0FFEE33FE74F22FF58274FF3E72
:1003BE00F583E0FD7C0090007DE0FEA3E0FF1204DB
:1003CE00B4900080ECF0A3EDF090007EE025E0FE0E
:1003DE0090007DE033900082F0A3CEF090007FE09D
:1003EE00FF1210B7900080E0FEA3E0FF120E6490A3
:1003FE000082E0FEA3E0FF120B42122A8A90007CDC
:10040E00E0FF12273C122A9F122AB4122ADE122A69
:01041E006E6F
:01041F0022BA
:0C29B100900090EBF0A3EAF0A3E9F02204
:0C29BD00900093EBF0A3EAF0A3E9F022F5
:10296B00900090A3E0FAA3E0F94A6003120720223B
:10297B00900093A3E0FAA3E0F94A60031207202228
:1024D100EF4E602D900086EEF0A3EFF0AF05A3EC78
:1024E100F0A3EFF0AF03A3EAF0A3EFF0E4A3F0A3AE
:1024F100F0A3F0A3F0900085F090008404F012297D
:022501006B224B
:1028D800E4900084F012297B7B007A0079001229A9
:0428E800B10229BD53
:101795009000A0E0B402030228D8900084E0700312
:1017A500021853900088E0FEA3E0FF4E7003021874
:1017B50053900085E07035D3EF9400EE940050030C
:1017C50002185390008CE475F001120509FED390C0
:1017D5000087E095F0900086E09E507212297BE428
:1017E50090008CF0A3F090008504F022900085E035
:1017F5006401705A90008C75F001120509FED390B2
:101805000089E095F0900088E09E504290008AE0C3
:10181500FEA3E0FF9400EE9400402590008EE47551
:10182500F001120509FCD3EF95F0EE9C5005E4900C
:101835000084F0900084E07007900088F0A3F02207
:0F184500E490008CF0A3F0900085F012296B2244
:0A29EC00616463203D2025750A0098
:04232400C10DC10E18
:0B29E100E47824F643B18053B27F225B
:102255009000A0E0B40202804B78240618E624FE24
:10226500601F1460291460322403703B7824E6C390
:10227500940A4033E4F6300D04C20D800ED20D8071
:10228500237824E6C39409401EE4F6022A7C7824C8
:10229500E6C394094011E4F6800A7824E6C394095C
:0722A5004005E4F6122A7562
:0122AC00220F
:10243100C200D281AFC37825760008A60718E6FE50
:1024410008E67802C333CE33CED8F9FF7825EEF60D
:1024510008EFF6ADC2EE18F6EF4D08F6E5E220E41E
:0924610004D2008002C200D20E78
:01246A00224F
:1023390030870B782330D803760322760222300EB9
:102349002DC20EC37826E694EA18E6940178235044
:10235900047601800276047BFF7A2979EC7825E6F8
:0F236900FF08E690004DCFF0A3EFF012084822D6
:042328004100C300AD
:01005A002283
:032B1F00D2EE22D1
:1027DC009000C3E004F0E0FFB40402C281EFC394A4
:0B27EC00054008E49000C3F0122B1F12
:0127F70022BF
:10250300A2AF9210C2AF75C7AA75C75553A37FA2D6
:102513001092AF1227A0122534122AFD122B031298
:102523002A2312275E1226D212271912295AD2AF52
:012533002285
:02232C00C111DD
:10275E0053ACFE43AD01C2B053CABF43CA2043CAF5
:10276E001075D68075D78043CA80D2CBE4780FF629
:01277E002238
:062AF10043CB40D2B022ED
:062AF70053CBBFC2B02268
:10237800ED4C603A7811A60608A607AE04AF05082A
:10238800A60608A607AE02AF0308A60608A6079089
:10239800004FE0FEA3E0FF08A60608A607E408F63B
:0F23A80008F608F608F67810F6187601D211221A
:072A4400E4780FF6022AF707
:012B2800228A
:10185400780FE670030219057816E618467003023D
:1018640019057812E61846600808E616187001167D
:1018740022301105C211122AF17810E6FF702ED31E
:101884007816E6940018E69400407678190806E67F
:10189400187001068604C3781496EC1896406212F8
:1018A4002AF7E47819F608F67810760122EF640135
:1018B400704F78190806E6187001068606C3781674
:1018C40096EE1896403B7817E6FE08E6FFD39400A0
:1018D400EE94004020781B0806E618700106860482
:1018E400C39FEC9E4004E4780FF6780FE670067808
:1018F40015F608F622E47819F608F67810F6122A96
:02190400F122CE
:0929F6003086037F00227F0122DC
:0929FF003085037F00227F0122D4
:092A08003084037F00227F0122CB
:092A11003083037F00227F0122C3
:0C29C9002084062086037F01227F00226C
:062AFD0012190602286315
:10001E00900045E0243AF582E43400F583EFF09049
:0D002E000045E004F0C3940A4002E4F02213
:10258F00900045E0FF900044E0FEB507037F002276
:10259F00743A2EF582E43400F583E0FF900044E0B6
:0925AF0004F0C3940A4002E4F0B8
:0125B8002200
:10265E00900045E0FFA3E0FEB507037F0022743A29
:10266E002EF582E43400F583E0FF900046E004F09E
:07267E00C3940A4002E4F0DE
:012685002232
:10293800EF75F00BA4240BF582E43400F583E0FF77
:01294800226C
:10246B00EF75F00BA42409F582E43400F583ECF04E
:10247B00A3EDF0EF75F00BA4240CF582E43400F51A
:10248B0083EBF0EF75F00BA4240DF582E43400F52B
:04249B0083E4F022C4
:092A1A00900045E0900044F02218
:1028630043B10853B2F743B11053B2EF43B120530E
:09287300B2DF43B14053B2BF22B1
:10190600E4900044F0A3F0A3F0FFEF75F00BA424DD
:1019160009F582E43400F583E4F0A374C8F0EF75AA
:10192600F00BA42406F582E43400F5837402F0EF8C
:1019360075F00BA4240BF582E43400F583E4F0EF94
:1019460075F00BA4240CF582E43400F583E4F0EF83
:1019560075F00BA4240DF582E43400F583E4F00F52
:10196600EFB405A690000374FFF0A37429F0A374E6
:10197600F6F090000E74FFF0A37429F0A374FFF044
:1019860090001974FFF0A3742AF0A37408F0900075
:101996002474FFF0A3742AF0A37411F090002F743E
:0A19A600FFF0A37429F0A374C9F048
:0119B0002214
:1012150090004AEFF0E075F00BA42403F974003553
:10122500F0FA7B01900000EBF0A3EAF0A3E9F012DD
:101235000700120720EF7003021307900000E0FB80
:10124500A3E0FAA3E0F9900003120420FFC394057C
:101255005008900003740502136BEFC3940A5008FD
:10126500900003740102044D9000081204207014CC
:101275009000080412049290004AE075F003A4045B
:10128500FF12001E900000E0FBA3E0FAA3E0F99036
:10129500000612051FFFAEF0D39400EE9400500334
:1012A50002136E90000412051FC39FE5F09E5023A4
:1012B500900004E475F001120557FCE5F06F70022B
:1012C500EC6E600302136E90004AE075F003A424EF
:1012D50003802B900009120420FFD39400500302D1
:1012E500136E90000A740112044DC39F407B900059
:1012F5000AE412049290004AE075F003A404FF0288
:10130500001E900000E0FBA3E0FAA3E0F9900003C3
:10131500120420FFD39405400A90000374051204BB
:1013250092802BEF600A90000374FF12044D801E1B
:10133500900008120420B40115900008E4120492EC
:1013450090004AE075F003A42402FF12001E9000ED
:1013550000E0FBA3E0FAA3E0F9900004E4F5F01245
:0A13650005A490000AE4120492228D
:10281400E4900049F0900049E0FFC39405500B1286
:0A2824001215900049E004F080EB6B
:01282E002287
:092A230053ACFB43AD04022B256A
:032B2200C2B2221A
:032B2500D2B22207
:1026D200E4F5B475B3FFF5B675B5FFF5DB75DAFF52
:1026E200F5F975FA0475E5FF75E6FF75E70743F935
:0426F2008002298BAE
:0C298B00E4FF8FFBE4F5FC0FEFB413F643
:01299700221D
:072A4B0075FB0A53FCFE229B
:072A520075FB0A43FC0122A1
:072A590075FB0C53FCFE228B
:072A600075FB0C43FC012291
:072A670075FB0853FCFE2281
:072A6E0075FB0843FC012287
:072A750075FB0E53FCFE226D
:072A7C0075FB0E43FC012273
:072A830075FB1053FCFE225D
:072A8A0075FB1043FC012263
:10287C0075FB1253FCF175FB13E4F5FC75FB14535B
:08288C00FCF175FB15F5FC22BF
:1010B700EFD394634003021214EF75F00A84FEEF36
:1010C70075F00A84ADF0EFD394095003021172EE64
:1010D700B40A00400302117E9010E6F82828730234
:1010E700110402110C02111402112202112A021119
:1010F7003802114002114E02115C02116475FB0E99
:1011070075FC0A805E75FB0E53FCF1801C75FB0EA7
:1011170075FC0C75FB0F75FC0B805C75FB0E75FC85
:1011270004804075FB0E75FC0675FB0F75FC068089
:101137004675FB0E75FC06800675FB0E75FC0E7575
:10114700FB0F75FC0D803075FB0E53FCF175FB0F23
:1011570075FC07802275FB0E75FC0E800675FB0E6D
:1011670075FC0675FB0F75FC0F800C75FB0E53FCA9
:10117700F175FB0FE4F5FCEDB40A0040030212140D
:1011870090118EF82828730211AC0211B40211BC19
:101197000211C90211D10211DE0211E60211F30296
:1011A700120002120875FB1075FC0A805A75FB10B5
:1011B70053FCF1801B75FB1075FC0C75FB1175FC5E
:1011C7000B2275FB1075FC04803D75FB1075FC0642
:1011D70075FB1175FC062275FB1075FC06800675FC
:1011E700FB1075FC0E75FB1175FC0D2275FB10537A
:1011F700FCF175FB1175FC072275FB1075FC0E8061
:0D1207000675FB1075FC0675FB1175FC0FDC
:0112140022B7
:072A910075FB12E4F5FC22C5
:072A980075FB1275FC0F2213
:10273C0075FB12EF24BE600E14600F14601024039E
:10274C00700F75FC012275FC022275FC042275FCCD
:02275C00082251
:1026F60075FB0853FCF175FB09E4F5FC75FB0A5301
:10270600FCF175FB0BF5FC75FB0C53FCF175FB0D31
:03271600F5FC22AD
:040E6400AB07AA0628
:100E6800D3EB94E7EA940340030210B67C007D6458
:100E7800AF03AE021204B490004BEFF07C007D6427
:100E8800AF03AE021204B47E007F0ACFCDCFCECC22
:100E9800CE1204B490004AEFF07C007D0AAF03AE96
:100EA800021204B4A905D3EB9463EA940050030238
:100EB8000F57A3E0B40A004003020F63900ECBF86B
:100EC800282873020EE9020EF1020EF9020F07023A
:100ED8000F0F020F1D020F25020F33020F41020FE1
:100EE8004975FB0875FC0A805E75FB0853FCF180A8
:100EF8001C75FB0875FC0C75FB0975FC0B805C7593
:100F0800FB0875FC04804075FB0875FC0675FB0939
:100F180075FC06804675FB0875FC06800675FB089F
:100F280075FC0E75FB0975FC0D803075FB0853FCCC
:100F3800F175FB0975FC07802275FB0875FC0E80AE
:100F48000675FB0875FC0675FB0975FC0F800C75AA
:100F5800FB0853FCF175FB09E4F5FCD3EB9409EAB3
:100F68009400500302101443E60443E60890004A34
:100F7800E0B40A004003021020900F88F828287374
:100F8800020FA6020FAE020FB6020FC4020FCC0268
:100F98000FDA020FE2020FF0020FFE02100675FBD5
:100FA8000A75FC0A805E75FB0A53FCF1801C75FB10
:100FB8000A75FC0C75FB0B75FC0B805C75FB0A75E0
:100FC800FC04804075FB0A75FC0675FB0B75FC0676
:100FD800804675FB0A75FC06800675FB0A75FC0ED3
:100FE80075FB0B75FC0D803075FB0A53FCF175FB26
:100FF8000B75FC07802275FB0A75FC0E800675FBD5
:101008000A75FC0675FB0B75FC0F800C75FB0A5303
:10101800FCF175FB0BE4F5FCE9B40A00400302108F
:10102800B6901030F828287302104E02105602109D
:101038005E02106B02107302108002108802109575
:101048000210A20210AA75FB0C75FC0A805A75FBE7
:101058000C53FCF1801B75FB0C75FC0C75FB0D75B6
:10106800FC0B2275FB0C75FC04803D75FB0C75FCB4
:101078000675FB0D75FC062275FB0C75FC068006D3
:1010880075FB0C75FC0E75FB0D75FC0D2275FB0CC4
:1010980053FCF175FB0D75FC072275FB0C75FC0EF6
:0E10A800800675FB0C75FC0675FB0D75FC0FC4
:0110B6002217
:072A9F0075FB0253FCFE224F
:072AA60075FB0243FC012255
:072AAD0075FB0453FCFE223F
:072AB40075FB0475FC012213
:072ABB0075FB0853FCFE222D
:072AC20075FB0843FC012233
:072AC900E4F5FB53FCFE22C3
:072AD000E4F5FB43FC0122C9
:10256200E4F5FB53FCF175FB01F5FC75FB0253FC32
:10257200F175FB03F5FC75FB0453FCF175FB05F5E6
:0D258200FC75FB0653FCF175FB07F5FC2210
:040B4200AB07AA064D
:100B4600D3EB940FEA94274003020E637C037DE8FF
:100B5600AF03AE021204B490004CEFF07C037DE8C4
:100B6600AF03AE021204B47E007F64CFCDCFCECCED
:100B7600CE1204B490004BEFF07C007D64AF03AE60
:100B8600021204B47E007F0ACFCDCFCECCCE1204A3
:100B9600B490004AEFF07C007D0AAF03AE02120467
:100BA600B4A905D3EB94E7EA94035003020C5490DE
:100BB600004CE0B40A004003020C5F900BC8F82812
:100BC6002873020BE6020BEE020BF6020C04020C73
:100BD6000C020C1A020C22020C30020C3E020C46CD
:100BE600E4F5FB75FC0A805EE4F5FB53FCF1801C22
:100BF600E4F5FB75FC0C75FB0175FC0B805BE4F5FD
:100C0600FB75FC048040E4F5FB75FC0675FB01757D
:100C1600FC068045E4F5FB75FC068006E4F5FB75ED
:100C2600FC0E75FB0175FC0D802FE4F5FB53FCF102
:100C360075FB0175FC078021E4F5FB75FC0E80064B
:100C4600E4F5FB75FC0675FB0175FC0F800BE4F5FE
:100C5600FB53FCF175FB01F5FCD3EB9463EA9400BE
:100C66005003020D0A90004BE0B40A004003020D47
:100C760016900C7EF8282873020C9C020CA4020C19
:100C8600AC020CBA020CC2020CD0020CD8020CE662
:100C9600020CF4020CFC75FB0275FC0A805E75FB07
:100CA6000253FCF1801C75FB0275FC0C75FB037589
:100CB600FC0B805C75FB0275FC04804075FB0275BD
:100CC600FC0675FB0375FC06804675FB0275FC0683
:100CD600800675FB0275FC0E75FB0375FC0D8030F6
:100CE60075FB0253FCF175FB0375FC07802275FB4F
:100CF6000275FC0E800675FB0275FC0675FB037516
:100D0600FC0F800C75FB0253FCF175FB03E4F5FC4C
:100D1600D3EB9409EA94005003020DC190004AE017
:100D2600B40A004003020DCD900D35F82828730251
:100D36000D53020D5B020D63020D71020D79020D5A
:100D460087020D8F020D9D020DAB020DB375FB04DC
:100D560075FC0A805E75FB0453FCF1801C75FB0470
:100D660075FC0C75FB0575FC0B805C75FB0475FC4E
:100D760004804075FB0475FC0675FB0575FC068052
:100D86004675FB0475FC06800675FB0475FC0E753E
:100D9600FB0575FC0D803075FB0453FCF175FB05F6
:100DA60075FC07802275FB0475FC0E800675FB0436
:100DB60075FC0675FB0575FC0F800C75FB0453FC72
:100DC600F175FB05E4F5FCE9B40A004003020E6385
:100DD600900DDDF8282873020DFB020E03020E0BA0
:100DE600020E18020E20020E2D020E35020E4202CF
:100DF6000E4F020E5775FB0675FC0A805A75FB06E8
:100E060053FCF1801B75FB0675FC0C75FB0775FC26
:100E16000B2275FB0675FC04803D75FB0675FC060A
:100E260075FB0775FC062275FB0675FC06800675C4
:100E3600FB0675FC0E75FB0775FC0D2275FB06534C
:100E4600FCF175FB0775FC072275FB0675FC0E8029
:0D0E56000675FB0675FC0675FB0775FC0FA5
:010E6300226C
:072AD70075FB0653FCFE2213
:072ADE0075FB0643FC012219
:102949006D6574657220636F756E742025640D0A58
:01295900007D
:02232E00C112DA
:0D29980053DCEF43DD101222AD439B022201
:0C29D500E49000A5F0A3F0A3F0A3F02212
:1022AD00C2DC43E90453E9FD43E90153EDFE43ED7F
:1022BD000243ED0443ED0853EDEF53EDDF53EDBF56
:1022CD0053ED7F53EAFE43EA0243EA0443EA08531F
:1022DD00EAEF53EADF53EABF53EA7FE4F5EB53EB42
:0822ED00FD53EBFB53EBF7225C
:1028C300D2DC53EDFD53EDFB53EDF753EAFD53EA31
:0528D300FB53EAF722AF
:062B03001229980229D5F9
:102894007BFF7A2979499000A5E0FFA3E090004DE1
:0828A400CFF0A3EFF002084899
:0516AF00900047EFF080
:1016B400E49000A3F0122B25900047E0FF1460286B
:1016C40014604D240270739000A8E0FE700A90002C
:1016D400A7E06060E4F08062EEB401028022900032
:1016E400A8E06402705480219000A8E0FEB4010CCC
:1016F4009000A7E06004E4F080408038EEB4020378
:10170400E480249000A8E070319000A704F0802ABF
:101714009000A8E0FEB4020C9000A7E06004E4F09E
:1017240080188010EE70069000A7F0800D9000A83D
:10173400E0B401069000A77401F09000A8EFF090C7
:1017440000A7E060109000A6E004F070169000A5D9
:10175400E004F0800E9000A6E024FFF09000A5E0E5
:1017640034FFF0301214C39000A6E094059000A555
:10177400E0648094805019C21222D39000A6E094B1
:101784000C9000A5E0648094804005D2121226AE2D
:011794002232
:052B0900E4FF0216AF1D
:052B0E007F010216AF7B
:052B13007F020216AF75
:10295A0053DC7F43DD807F807E257D007C00022062
:01296A0091DB
:1029120030F80BE59A120480C2F8D2138002C21377
:02292200A213FE
:012924002290
:0823300041009D0041009E00E8
:102719001227F85389F75389FB5389FD438901909F
:10272900009D74FCF0A37466F0758CFCF58AD2A93F
:03273900D28C221D
:1027F800E4900096F0900098F090009AF0A3F09082
:0C2808000097F0900099F090009CF022E6
:03000B00021DDEF5
:101DDE00C0E0C0F0C083C082C0D075D000C000C0CB
:101DEE000690009DE0F58CA3E0F58A900096E00445
:101DFE00F0C3940A4005E4F0A304F0900098E004C8
:101E0E00F0C394644005E4F0A304F090009AE475E6
:101E1E00F001120509FEC3E5F094E8EE9403400AC2
:101E2E0090009AE4F0A3F0A304F0D006D000D0D036
:091E3E00D082D083D0F0D0E03254
:1029250053897F5389BF4389205389EF758DCE75B0
:032935008BCE2224
:03001B00022B298C
:012B29003279
:1025340053B1FD43B202D28143E10175E80243B1D4
:102544000453B2FB43F60453E1BF43E12053E1EFEC
:0E25540043E22043E240E4F5E4F5E3D2AE2298
:10136F00EF14604414606F14700302140E147003B2
:10137F0002144A240460030214AEA2AF9210C2AF4B
:10138F0075C7AA75C755439780A21092AFA2AF92A7
:10139F0010C2AF75C7AA75C7555397BFA21092AFAA
:1013AF00E59630E7FB021475A2AF9210C2AF75C776
:1013BF00AA75C75553977FA21092AFA2AF9210C2D2
:1013CF00AF75C7AA75C755439740A21092AFE59660
:1013DF0030E6FB021475A2AF9210C2AF75C7AA75A3
:1013EF00C755439720A21092AFE59630E5FBA2AF09
:1013FF009210C2AF75C7AA75C7555396FB8027A227
:10140F00AF9210C2AF75C7AA75C755439710A210F8
:10141F0092AFE59630E4FBA2AF9210C2AF75C7AAA8
:10142F0075C755439604A21092AFA2AF9210C2AFE8
:10143F0075C7AA75C7555396FD804DA2AF9210C2BE
:10144F00AF75C7AA75C75553977FA21092AFA2AFBA
:10145F009210C2AF75C7AA75C7555397BFA2109206
:10146F00AFE59630E3FBA2AF9210C2AF75C7AA7576
:10147F00C7555396FBA21092AFA2AF9210C2AF7591
:10148F00C7AA75C755439602A21092AFA2AF92108A
:10149F00C2AF75C7AA75C7555396FEA21092AFE596
:0514AF009720E0FB2284
:10260D0075985243892053877F538EEF53C4DFABA8
:10261D0007AA06A905A804E47F807E70FDFC1206BA
:09262D000DEFF404F58DD28E22AC
:10268600759852438920438780538EEF53C4DFAB3E
:1026960007AA06A905A804E4FF7EE1FDFC12060DC3
:0826A600EFF404F58DD28E2241
:1025B90075985243892053877F438E1053C4DFABEC
:1025C90007AA06A905A8047F007E467D057C00129E
:0A25D900060DEFF404F58DD28E22FA
:1025E300759852438920438780438E1053C4DFABD1
:1025F30007AA06A905A8047F007E8C7D0A7C001229
:0A260300060DEFF404F58DD28E22CF
:101E47009000A91206C375985253877F53C4F8436D
:101E5700C4209000A9E0F8A3E0F9A3E0FAA3E0FB0F
:101E67007F007E467D057C0012060DC3E49FFFE4DC
:101E77009EFE74019DFDE49CFC78081206B08FC697
:101E87009000A9E0F8A3E0F9A3E0FAA3E0FB7F0044
:101E97007E467D057C0012060DC3E49FFF8FC54378
:031EA700C408224A
:101EAA009000AD1206C375985243878053C4F84315
:101EBA00C4209000ADE0F8A3E0F9A3E0FAA3E0FBA8
:101ECA007F007E8C7D0A7C0012060DC3E49FFFE42E
:101EDA009EFE74019DFDE49CFC78081206B08FC634
:101EEA009000ADE0F8A3E0F9A3E0FAA3E0FB7F00DD
:101EFA007E8C7D0A7C0012060DC3E49FFF8FC543CA
:031F0A00C40822E6
:102091009000491206C375F85253C4F8900049E004
:1020A100F8A3E0F9A3E0FAA3E0FB7F007E8C7D0AB0
:1020B1007C0012060DC3E49FFFE49EFE74019DFDAA
:1020C100E49CFC78081206B08FC6900049E0F8A3A2
:1020D100E0F9A3E0FAA3E0FB7F007E8C7D0A7C009F
:0D20E10012060DC3E49FFF8FC543C4082203
:070003003098FDAF99C2988F
:01000A0022D3
:082A2C00C2998F993099FD2237
:072A340030F8FDAF9AC2F873
:012A3B002278
:082A3C00C2F98F9A30F9FD2266
:10282F00E4F5B1F5B2F5B3F5B4F5B5F5B6F5ACF52C
:0A283F00ADF5DAF5DBF5DCF5DD227E
:1027A00075B1FFE4F5B275B3FFF5B475B5FFF5B6D5
:1027B00075ACFFF5AD75DAFFF5DB75DCFFF5DD22F5
:1028490075C7AA75C755A2AF9210C2AF75C7AA7549
:0A285900C755439F80A21092AF22E2
:042B180043AD802227
:1023F400EF640A701C30F811E59AB4130CC2F8307B
:10240400F8FDE59AB411F6C2F830F9FDC2F9759AEF
:102414000D30F811E59AB4130CC2F830F8FDE59AC2
:0D242400B411F6C2F830F9FDC2F98F9A220A
:061C150090FFF812072603
:101C1B00850D83850E821206CF00000000E47FFF46
:101C2B007EFFFDFC850D83850E82E0F8A3E0F9A312
:101C3B00E0FAA3E0FBC312069F504C90000412077E
:101C4B004AE0FCA3E0FDA3E0FEA3E02401FFE43E99
:101C5B00FEE43DFDE43CFC90000412074A1206C36F
:101C6B00850D83850E82E0FCA3E0FDA3E0FEA3E0DF
:101C7B002401FFE43EFEE43DFDE43CFC850D838541
:071C8B000E821206C38096D1
:061C920090000802072685
:10277F00538EF7438901D28CEF4E6012758AF7752D
:10278F008CFF308DFDC28DEF1F70ED1E80EAC28C65
:01279F002217
:1021A3009000B11206C3538EF7438901D28CE4FF2A
:1021B300FEFDFC9000B1E0F8A3E0F9A3E0FAA3E090
:1021C300FBC312069F602F758A65758CFC308DFDED
:1021D300C28D9000B1E0FCA3E0FDA3E0FEA3E024E8
:1021E300FFFFEE34FFFEED34FFFDEC34FFFC900007
:0921F300B11206C380B8C28C22AF
:1021FC009000B51206C3538EEF438910D28EE4FFC4
:10220C00FEFDFC9000B5E0F8A3E0F9A3E0FAA3E032
:10221C00FBC312069F602F758B65758DFC308FFD8F
:10222C00C28F9000B5E0FCA3E0FDA3E0FEA3E02488
:10223C00FFFFEE34FFFEED34FFFDEC34FFFC9000AD
:09224C00B51206C380B8C28E224F
:1020EE009000B91206C375C40243C408E4FFFEFD96
:1020FE00FC9000B9E0F8A3E0F9A3E0FAA3E0FBC37B
:10210E0012069F603275C53375C6F5E5C430E4FB23
:10211E0053C4EF9000B9E0FCA3E0FDA3E0FEA3E002
:10212E0024FFFFEE34FFFEED34FFFDEC34FFFC9098
:0B213E0000B91206C380B553C4F7229D
:101FD1009000BD1206C3538FFB538FFD538FFEE458
:101FE100F586538FDF438F08E4FFFEFDFC9000BDB3
:101FF100E0F8A3E0F9A3E0FAA3E0FBC312069F60B7
:102001002CE58F30E4FB538FEF9000BDE0FCA3E0A3
:10201100FDA3E0FEA3E024FFFFEE34FFFEED34FF5D
:10202100FDEC34FFFC9000BD1206C380BB538FF75B
:01203100228C
:1014B4000A3D3D3D3D3D3D3D3D3D3D3D3D3D3D3D8B
:1014C4003D3D3D3D3D3D3D3D3D3D3D3D3D3D3D3D48
:1014D4003D3D3D3D3D3D3D3D3D3D3D3D3D3D3D3D38
:1014E4003D3D3D3D3D3D3D3D3D3D3D3D3D3D3D3D28
:1014F4003D3D3D3D3D000A2A2020436F70797269CD
:101504006768742863292032303135204E75766F30
:10151400746F6E20546563686E6F6C6F67792043D7
:101524006F72702E20416C6C20726967687473202E
:1015340072657365727665642E2020000A2A202065
:10154400436F6E7461637420452D4D61696C3A205C
:101554004D6963726F432D38626974406E75766F9E
:10156400746F6E2E636F6D20202020202020202099
:101574002020202020202020202020202020202067
:1015840020000A2A202044656D6F20566572736915
:101594006F6E20203A202532642E2532642E2532A7
:1015A40064000A2A202046696E69736865642044D1
:1015B400617465203A202532642E2532642E25324A
:0215C4006400C1
:102032007BFF7A1479B41208487BFF7A1479FA127A
:1020420008487BFF7A1579401208487BFF7A157998
:102052008690004DE4F0A304F0E4A3F0A3F0A3F013
:10206200A3F01208487BFF7A1579A690004D7407F9
:10207200F0A374DFF0A3E4F0A37405F0A3E4F0A3EB
:0F208200741FF01208487BFF7A1479B4020848E3
:03000000021A578A
:101A5700787FE4F6D8FD9000007FFF7E01E4F0A3D5
:0A1A6700DFFCDEFA758126021AACDE
:101A7100021C98E493A3F8E493A34003F68001F2D7
:101A810008DFF48029E493A3F85407240CC8C33376
:101A9100C4540F4420C8834004F456800146F6DF45
:101AA100E4800B01020408102040809022F5E47EBE
:101AB100019360BCA3FF543F30E509541FFEE4933A
:101AC100A360010ECF54C025E060A840B8E493A301
:101AD100FAE493A3F8E493A3C8C582C8CAC583CA2C
:101AE100F0A3C8C582C8CAC583CADFE9DEE780BEE4
:0123380000A4
:10042000BB010CE58229F582E5833AF583E0225091
:1004300006E92582F8E622BBFE06E92582F8E222DB
:0D044000E58229F582E5833AF583E49322F5
:10044D00BB010FF8E58229F582E5833AF583E028B3
:10045D00F0225009C58229F8E58226F622BBFE0955
:10046D00C58229F8E22582F222F8EA2583F583E98F
:03047D009328229F
:10048000BB010689828A83F0225002F722BBFE015B
:02049000F32255
:10049200F8BB010DE58229F582E5833AF583E8F0A0
:1004A200225006E92582C8F622BBFE05E92582C84C
:0204B200F22234
:1004B400BC000BBE0029EF8DF084FFADF022E4CC2C
:1004C400F875F008EF2FFFEE33FEEC33FCEE9DECF5
:1004D400984005FCEE9DFE0FD5F0E9E4CEFD22ED3B
:1004E400F8F5F0EE8420D21CFEADF075F008EF2F85
:1004F400FFED33FD4007985006D5F0F222C398FD76
:050504000FD5F0EA2212
:10050900C5F0F8A3E028F0C5F0F8E582158270027D
:060519001583E038F0221A
:10051F00BB0110E58229F582E5833AF583E0F5F01A
:10052F00A3E0225009E92582F886F008E622BBFEF7
:10053F000AE92582F8E2F5F008E222E5832AF5833D
:08054F00E993F5F0A3E9932202
:10055700BB010DC58229C582C5833AC5830205093A
:100567005011C58229F808E5F026F618F5F0E5825E
:1005770036F622BBFE11C58229F808E225F0F5F010
:10058700F218E23582F222F8E58229F582E5832A1C
:0D059700F58374019325F0F5F0E49338220C
:1005A400F8BB0111E58229F582E5833AF583E8F089
:1005B400E5F0A3F0225009E92582C8F608A6F02246
:0D05C400BBFE09E92582C8F2E5F008F2222D
:1005D10075F008758200EF2FFFEE33FECD33CDCCE1
:1005E10033CCC58233C5829BED9AEC99E582984064
:1005F1000CF582EE9BFEED9AFDEC99FC0FD5F0D641
:10060100E4CEFBE4CDFAE4CCF9A88222B800C1B96A
:100611000059BA002DEC8BF084CFCECDFCE5F0CBA8
:10062100F97818EF2FFFEE33FEED33FDEC33FCEBE1
:1006310033FB10D703994004EB99FB0FD8E5E4F99C
:10064100FA227818EF2FFFEE33FEED33FDEC33FC89
:10065100C933C910D7059BE99A4007EC9BFCE99A7D
:10066100F90FD8E0E4C9FAE4CCFB2275F010EF2FC2
:10067100FFEE33FEED33FDCC33CCC833C810D707C2
:100681009BEC9AE899400AED9BFDEC9AFCE899F8FD
:0E0691000FD5F0DAE4CDFBE4CCFAE4C8F92290
:10069F00EB9FF5F0EA9E42F0E99D42F0E89C45F0B1
:0106AF002228
:1006B000E8600FECC313FCED13FDEE13FEEF13FF28
:0306C000D8F1224C
:0C06C300ECF0A3EDF0A3EEF0A3EFF022AA
:1006CF00A8828583F0D083D0821206E61206E61246
:1006DF0006E61206E6E473E493A3C583C5F0C5836B
:1006EF00C8C582C8F0A3C583C5F0C583C8C582C875
:0106FF0022D8
:10070000BB010789828A830207795005E9F802074D
:1007100070BBFE05E9F80207A289828A830207AB53
:060720008A838982E47364
:10072600E50E2582F582E50D3583F583B50D048545
:10073600820E2210AF0685820EF50D2285820EF5F9
:040746000DD2AF22FF
:0D074A00E50E2582F582E50D3583F583224D
:1007DD00E508244DF582E43400F583E00508229008
:1007ED00004A30080390004DE475F00112078202B3
:1007FD0007572001E97F2ED2018018EF540F249066
:10080D00D43440D4FF30050BEF24BFB41A0050038D
:10081D002461FFE50960021509050CE50C70020560
:10082D000B30080E90004AE475F001120782EF02BA
:10083D0004800223F47403D2088003E4C208F5088F
:10084D0090004A120799E4F509F50BF50CE50960DE
:10085D00077F2012082080F5750AFFC202C201C26F
:10086D0003C204C206C207C2091207ECFF700D30A5
:10087D0008057F00120831AF0CAE0B22B4255FC204
:10088D00D5C2051207ECFF24D0B40A00501A75F03A
:10089D000A780930D50508B6FF0106C6A426F6204C
:1008AD00D5047002D20480D924CFB41A00EF5004BD
:1008BD00C2E5D205020A32D20280C6D20180C0D270
:1008CD000380BCD2D580BAD20680B47F2012082016
:1008DD002003077401B5090040F11207DDFF12086E
:1008ED002002085AD209D20780951207DDFB1207A4
:1008FD00DDFA1207DDF94A4B700679037A0B7BFF9F
:10090D0020032EE509602A7E008E82758300120475
:10091D002060060EEE650A70F0C2D5EBC0E0EAC0AD
:10092D00E0E9C0E0EE120A79D0E0F9D0E0FAD0E0CB
:10093D00FB120757FF60AAEBC0E0EAC0E0E9C0E098
:10094D00120820D0E02401F9D0E03400FAD0E0FB09
:10095D00E50A0460DCD50AD980877BFF7A0A7975B0
:10096D00D203809C791080027908C207C2098008E1
:10097D00D2D5790A8004790AC2D5E50A047002F548
:10098D000AE4FAFDFEFF1207DDFC7B0820021312BC
:10099D0007DDFD7B1030010A1207DDFE1207DDFFBA
:1009AD007B20EC3382D592D55013C3E43001069FE2
:1009BD00FFE49EFEE42002039DFDE49CFCE4CBF8E5
:1009CD00C202EC700CCFCECDCCE824F8F870F380D9
:1009DD0017C3EF33FFEE33FEED33FDEC33FCEB339A
:1009ED00FB994002FB0FD8E9EB300205F8D0E0C4CB
:1009FD0048B202C0E00AEC4D4E4F78207B0070C229
:100A0D00EAB50A0040BCC0E0120A7BD0F0D0E0206D
:100A1D000204C4C0E0C4B202C0F0120809D0F0D57F
:100A2D00F0EB02085A1207B708F75309715808C8B6
:100A3D004C08C44209754F097D44097D4908DD43C1
:080A4D0009835509674609679A
:100A5500450967470B235008CC2D08D02E08F32BEA
:100A650008D42308F1200B0C2A088C48000008EB59
:100A75003F3F3F00790AA2D5200414300609B9107A
:100A8500020404B9080104A2D5200702500104207C
:100A950003689203B509005034C0E07F2030041983
:100AA5007F30A20372077206500F120AD2C203C228
:100AB50007C206C2097F30800F300603E9C0E01285
:100AC5000820300603D0E0F9D0E0B509CC30061790
:100AD5007F30B9100C1208207F583005077F7880C9
:100AE50003B908031208203003057F2D0208207F73
:100AF500202009F87F2B2007F322920380CF286E50
:100B0500756C6C2900D2021207DD3002F8C202783A
:100B15000930D50108F602088C2D504349581207B3
:100B2500DD2403B405004001E4900B1E9312081167
:0D0B3500743A120811D20475090402097106
:10075700BB010689828A83E0225002E722BBFE02A0
:09076700E32289828A83E49322D3
:09077000E6FB08E6FA08E6F922AE
:09077900E0FBA3E0FAA3E0F92281
:10078200F8E0FBA3A3E0F925F0F0E5821582700200
:070792001583E0FA38F022A4
:09079900EBF0A3EAF0A3E9F02261
:0907A200E2FB08E2FA08E2F92288
:0C07AB00E493FB740193FA740293F922AA
:1007B700D083D082F8E4937012740193700DA3A3D1
:1007C70093F8740193F5828883E4737402936860E5
:0607D700EFA3A3A380DFE5
:00000001FF
