:102DD7004920616D20726573757267656E63650A58
:012DE70000EB
:082675004100CC004100CD0042
:03005B000228AECA
:1028AE00C0E0C0F0C083C082C0D075D000C000C0F0
:1028BE0001C002C003C004C005C006C0071229280B
:1028CE00C2EFD007D006D005D004D003D002D0017D
:0D28DE00D000D0D0D082D083D0F0D0E03236
:03003B000222D4CA
:1022D400C0E0C0F0C083C082C0D075D000C000C0D0
:1022E40001C002C003C004C005C006C007E5EC304D
:1022F400E60A9000AFE0B402037403F0E5EC30E1C9
:1023040003122FCBE5EC30E203122FC6E5EC30E3E9
:1023140003122FD075EC00D007D006D005D004D01E
:1023240003D002D001D000D0D0D082D083D0F0D05E
:02233400E03295
:101FD9007F021215921229FC122C8F122832122E0E
:101FE900857BFF7A2D79D7120CFD9000A6E0600859
:101FF900E4F0121B08122CC99000A8E0600EE4F06E
:1020090012296212233612261D121A499000ABE0DA
:0220190060263F
:10201B00E4F012287012000E1227F312003E122D5C
:10202B004A9000CDE004F0E0D394034009740AF029
:06203B009000CCE004F06F
:10204100122A88900048EFF060A8E0FF1217E9809B
:01205100A1ED
:101F5C00706F776572206F6E0A006F666620627212
:101F6C00696768740A00706F776572206F66660A1D
:101F7C0000504F574552206C6F6E670A006B6579A5
:101F8C0020706F776572206F66660A00434C45417E
:101F9C005220636C69636B0A00434C454152206CC0
:101FAC006F6E670A0053455420636C69636B0A00BB
:101FBC00534554206C6F6E670A004F4B20636C695D
:0D1FCC00636B0A004F4B206C6F6E670A00BC
:0C267D004100B300C1104100AE00C10FCD
:10283200122D9E12276A9000B17401F09000AFF041
:10284200A37404F09000B27441F01220CB122D77E1
:102852007BFF7A1D7913122E617BFF7A21793B125D
:0E2862002E6DE4FBFA7D04FC7F04FE0229CA01
:102D8B0053E9FB53E9FD53E9FE43ED4043EA40535E
:032D9B00EBBF2269
:102D9E0053E9FB53E9FD53E9FE53EDBF53EABF532D
:032DAE00EBBF2256
:1020CB009000B1E024FE602714604424027060127B
:1020DB002D31E4FFFE120FF7E4FFFE1208F8122F6A
:1020EB002B122F40122F4E122F9B122F5C801D1282
:1020FB002F47122F2B7F41122BEB7F42122BEB7FA3
:10210B0043122BEB7F44122BEB122F9B022F6A12E5
:10211B002F47122F2B7F41122BEB7F42122BEB7F82
:10212B0043122BEB7F44122BEB122F9B122F5C22B3
:101D1300122F2B9000B0E024FE601D046003021D0F
:101D2300AC9000B1E024FE6005146007807B122FA5
:101D3300638076122F7180719000B2E024BF600F30
:101D430014601914602314602D2444703D803B906B
:101D53000076E0FF12129E9000778025900078E0D5
:101D6300FF12129E900079801890007AE0FF121201
:101D73009E90007B800B90007CE0FF12129E9000EF
:101D83007DE0FF7E00120FF780069000B27441F0F1
:101D93009000B1E0B40205122F63800A9000B1E015
:0C1DA300B40303122F71122F55022F2BD6
:10213B009000B0E024FE600804705E122F5C8056A5
:10214B009000B2E07003122F4E9000B2E0B4410841
:10215B00122F4E7F41122BEB9000B2E0B4420812CB
:10216B002F4E7F42122BEB9000B2E0B44308122F9C
:10217B004E7F43122BEB9000B2E0B44408122F4E6B
:10218B007F44122BEB9000B1E0B40203022F5C9062
:0A219B0000B1E0B40303122F6A2222
:101983009000B0E024FE6009146035146039021A37
:10199300487F41122BEB7F42122BEB7F43122BEB41
:1019A3007F44122BEBE4FF12129EE4FFFE120FF7AB
:1019B300E4FFFE1208F8122F9B9000B07401F0228E
:1019C3009000B07402F022E4900080F0A3F0900045
:1019D30085F0A3F0900080E0FEA3E0FF120FF790E4
:1019E3000085E0FEA3E0FF1208F89000B1E024FEBA
:1019F300601B1460342402704C122F2B122F4012E0
:101A03002D31122F4E122F9B122F5C8019122F2B68
:101A1300122F47E4FF12129E90007FE0FF122BEB80
:101A2300122F9B122F63022F6A122F2B122F47E4C0
:101A3300FF12129E90007FE0FF122BEB122F9B12DE
:061A43002F5C122F71223E
:10271A009000B0E024FE600614603124022290008A
:10272A00B07401F07F41122BEB7F42122BEB7F43F7
:10273A00122BEB7F44122BEBE4FF12129EE4FFFEF6
:10274A00120FF7E4FFFE1208F8022F9B9000B074F4
:10275A0002F090007EE01470069000B07401F0223E
:1026C8009000B0E024FC60028047E4900082F0A310
:1026D800F0A3F0A3F0A3F0900080F0A3F09000B175
:1026E800E06401600A900082E0FF12129E800312EB
:1026F8002D31900083E0FEA3E0FF120FF7900085D4
:10270800E0FEA3E0FF1208F8122F019000B0740356
:02271800F022AD
:101BBC009000B0E024FE6065046003021C67900096
:101BCC00B1E024FE601114603924026003021C672A
:101BDC009000B1740280059000B17403F0E4FF1220
:101BEC00129E122F47122F2B7F41122BEB7F42128A
:101BFC002BEB7F43122BEB7F44122BEB122F9B0210
:101C0C002F6A9000B17401F0122F2B122F40122F5B
:101C1C004E122F9B122F5C122F6A022D319000B1A5
:101C2C00E024FE600514601A80319000B2E070026E
:101C3C0080269000B2E004F0E0D3648094C4401B92
:101C4C0080169000B2E07002800E9000B2E004F0BA
:0C1C5C00E0D3648094C440037441F02283
:102052009000B0E024FC6002806E9000B1E0B40118
:102062000A7402F09000B014F0800E90007EE090AE
:1020720000B1F09000B07402F0E4900082F0A3F09E
:10208200A3F0A3F0A3F0900080F0A3F0A3E0FF126E
:10209200129E900083E0FEA3E0FF120FF7900085EE
:1020A200E0FEA3E0FF1208F8122F9B122F47122F17
:1020B2002B7F41122BEB7F42122BEB7F43122BEB38
:0920C2007F44122BEB122F0122C6
:101E49009000B0E024FE6046046003021ED89000B2
:101E5900B1E024FE600F14601D240270289000B0C8
:101E69007403F080209000B07402F0122F47122FF3
:101E790063122F6A800F9000B07402F0122F47127C
:101E89002F5C122F7190007FE09000B2F022900039
:101E9900B1E024FE600514600A800E122F63122F30
:101EA9006A8006122F71122F5C9000B1E090007EBB
:101EB900F09000B2E090007FF0E4A3F0A3F090006E
:101EC900B07403F0122F4E9000B2E0FF122BEB22F8
:080003009000B0E0FF022CFEAA
:032FD900022CFEC9
:062FA200122FE2022E478F
:102962009000AFE0640270269000AEE004F0E0C395
:102972009402401FE4F0122FA8122D62122D8B43F5
:1029820087027BFF7A1F795C120CFD022FD9E4903B
:0329920000AEF0A4
:01299500221F
:102870009000B3E004F0E0FF7E00BE0111BF900EB7
:10288000D210122FE27BFF7A1F7966020CFD9000B6
:10289000B3E0FF7E00BE0115BFF412122FA27BFF32
:0E28A0007A1F7972120CFD9000AF7402F022C4
:062FA800E49000B3F022EA
:0517E900900049EFF043
:1017EE00122FA830100C9000AFE0B40105C2100209
:1017FE002FDF900049E024FDB40A0040030218BB1D
:10180E0090181C75F003A4C58325F0C583730218C8
:10181E003B0218BB02185B02186D0218BB02187B44
:10182E0002188D0218BB02189B0218AD227BFF7A9C
:10183E001F797D120CFD9000AFE06401706F740291
:10184E00F07BFF7A1F7989120CFD022FA2300F0355
:10185E00C20F227BFF7A1F7998120CFD02271A7B8A
:10186E00FF7A1F79A5120CFDD20F0226C8300F0386
:10187E00C20F227BFF7A1F79B1120CFD021BBC7BBB
:10188E00FF7A1F79BC120CFDD20F022052300F03CB
:10189E00C20F227BFF7A1F79C6120CFD021E497BF6
:0D18AE00FF7A1F79D0120CFDD20F1200033B
:0118BB00220A
:102C4F00636F6163682073657420626565700A0045
:102C5F00636F6163682067657420626565700A0041
:102689004800760A1414191E1E322841007500C12B
:0D2699000DC10CC10E41007400C10AC10B3F
:102C8F0090007E7401F0A37441F0E4A3F0A3F0A3CD
:0E2C9F00F0A3F0A3F0A3F0A3F0900075F022D4
:1024B5009000B0E0FFB40423900081E004F07006C2
:1024C500900080E004F0D3900081E09410900080AB
:1024D500E094274004E4F0A3F0D20DEFB4032B9071
:1024E50000B07404F0900081E004F0700690008064
:1024F500E004F0D3900081E09410900080E09427F0
:0B2505004004E4F0A3F0C20ED20D224F
:0D000E00900075E0C394FF5003E004F02261
:10233600300D36C20D122FA89000B0E0B40428204C
:102346000E20D20E90007EE024FD60028014E49000
:102356000052F0A3F07B2C7A017D0AFC7F01FE126D
:1023660027B21205118002C20E300C20900074E0D4
:1023760004F0E0D394064019C20C7BFF7A2C794F07
:10238600120CFD7B007A00790F022E3AE49000745D
:01239600F056
:012397002223
:1005110090007EE024FE70030205A314700302071D
:1005210034240260030208F7900080E0FEA3E0FF9C
:100531007C007D0A1201E8ED4C900052700BF0A393
:1005410004F0FB7A007D1E800AE4F0A304F0FB7A3C
:10055100007D0A7C00FF7E001227B2900080E0FF40
:10056100A3E0900083CFF0A3EFF0900081E025E0BD
:10057100FE900080E033900085F0A3CEF0900083E0
:10058100E0FEA3E0FF120FF7900085E0FEA3E0FF7D
:100591001208F8122D31122F40122F4E122F5C0229
:1005A100072E300A4C900052E4F0A304F0FB7A00CD
:1005B1007D0A7C00FF7E001227B290007FE0FF33AE
:1005C10095E0FEEF25E0FFEE33FE74F52FF5827422
:1005D100FF3EF583E0FD74F42FF58274FF3EF58351
:1005E100E08DF0A4FF900080E5F0F0A3EFF00207AA
:1005F1000290007FE0FF3395E0FEEF25E0FFEE3350
:10060100FE74F52FF58274FF3EF583E0FD74F42F3F
:10061100F58274FF3EF583E08DF0A4FF900080E049
:10062100B5F019A3E0B50714D20A900052E4F0A383
:1006310004F0FB7A007D1E7C00FF804E90007FE07D
:10064100FF3395E0FEEF25E0FFEE33FE74F52FF565
:100651008274FF3EF583E0FD7C00900080E0FEA304
:10066100E0FF1201E8ED4C9000527011F0A3740309
:10067100F07B0A7A007D0A7C007F01800DE4F0A303
:1006810004F0FB7A007D0A7C00FF7E001227B2D2C3
:100691000B90007FE0FF3395E0FEEF25E0FFEE33A6
:1006A100FE74F52FF58274FF3EF583E0FD7C00902A
:1006B1000080E0FEA3E0FF1201E8A3EFF090007FCD
:1006C100E0FF3395E0FEEF25E0FFEE33FE74F52FFA
:1006D100F58274FF3EF583E0FD7C00900080E0FE32
:1006E100A3E0FF1201E8900083ECF0A3EDF090008D
:1006F10081E025E0FE900080E033900085F0A3CEFC
:10070100F0900082E0FF12129E900083E0FEA3E0D1
:10071100FF120FF7900085E0FEA3E0FF1208F81228
:100721002F4790007FE0FF122BEB122F63122F6AED
:100731000208F1300A4D900052E4F0A304F0FB7A74
:10074100007D0A7C007FC87E001227B290007FE006
:10075100FF3395E0FEEF25E0FFEE33FE74F52FF554
:100761008274FF3EF583E0FD74F42FF58274FF3E41
:10077100F583E08DF0A4FF900080E5F0F0A3EFF0A9
:100781000208C290007FE0FF3395E0FEEF25E0FF15
:10079100EE33FE74F52FF58274FF3EF583E0FD74B0
:1007A100F42FF58274FF3EF583E08DF0A4FF9000F5
:1007B10080E0B5F019A3E0B50714D20A900052E425
:1007C100F0A304F0FB7A007D1E7C00FF807C90008A
:1007D1007FE0FF3395E0FEEF25E0FFEE33FE74F599
:1007E1002FF58274FF3EF583E0FD7C00900080E0F0
:0B07F100FEA3E0FF1201E8ED4C705485
:1007FC00F9900049C9F0A3F0A3E9F0D20C122EFA3B
:10080C00900049EBF0A3EAF0A3E9F0780F7C007DAF
:10081C0000900049E0FBA3E0FAA3E0F97E007F0F13
:10082C0012012E7BFF7A2C795F120CFD900052E4A2
:10083C00F0A37403F07B0A7A007D0A7C007F017EB2
:04084C00001227B2BD
:10085000D20B90007FE0FF3395E0FEEF25E0FFEE46
:1008600033FE74F52FF58274FF3EF583E0FD7C00C6
:10087000900080E0FEA3E0FF1201E8A3EFF09000FB
:100880007FE0FF3395E0FEEF25E0FFEE33FE74F5E9
:100890002FF58274FF3EF583E0FD7C00900080E040
:1008A000FEA3E0FF1201E8900083ECF0A3EDF090CE
:1008B0000081E025E0FE900080E033900085F0A309
:1008C000CEF0900082E0FF12129E900083E0FEA323
:1008D000E0FF120FF7900085E0FEA3E0FF1208F89A
:1008E000122F4790007FE0FF122BEB122F5C122F8C
:0708F00071122F9B122F2B48
:0108F70022DE
:0C2E6100900093EBF0A3EAF0A3E9F0224C
:0C2E6D00900096EBF0A3EAF0A3E9F0223D
:102E0A00900093A3E0FAA3E0F94A60031204542263
:102E1A00900096A3E0FAA3E0F94A60031204542250
:1029CA00EF4E602D900089EEF0A3EFF0AF05A3EC77
:1029DA00F0A3EFF0AF03A3EAF0A3EFF0E4A3F0A3B0
:1029EA00F0A3F0A3F0900088F090008704F0122E74
:0229FA000A22AF
:102D7700E4900087F0122E1A7B007A007900122E59
:042D870061022E6D4A
:101A49009000AFE0B40203022D77900087E07003A5
:101A5900021B0790008BE0FEA3E0FF4E7003021B00
:101A690007900088E07035D3EF9400EE940050039E
:101A7900021B0790008FE475F00112023DFED3901E
:101A8900008AE095F0900089E09E5072122E1AE4C7
:101A990090008FF0A3F090008804F022900088E075
:101AA9006401705A90008F75F00112023DFED390C7
:101AB900008CE095F090008BE09E504290008DE004
:101AC900FEA3E0FF9400EE94004025900091E47598
:101AD900F00112023DFCD3EF95F0EE9C5005E49025
:101AE9000087F0900087E0700790008BF0A3F02248
:0F1AF900E490008FF0A3F0900088F0122E0A22E4
:0A2E9000616463203D2025750A00EF
:0426A600C111C1128B
:0B2E8500E47833F643B18053B27F22A3
:10261D009000AFE0B40202804B78330618E624FE3A
:10262D00601F1460291460322403703B7833E6C3B5
:10263D00940A4033E4F6301104C211800ED2118099
:10264D00237833E6C39409401EE4F6022F3978331C
:10265D00E6C394094011E4F6800A7833E6C3940981
:07266D004005E4F6122F32D4
:012674002243
:10292800C200D281AFC37834760008A60718E6FE45
:1029380008E67802C333CE33CED8F9FF7834EEF602
:1029480008EFF6ADC2EE18F6EF4D08F6E5E220E422
:0929580004D2008002C200D21278
:012961002253
:1027F30030870B783230D8037603227602223012E8
:102803002DC212C37835E694FE18E694017832504F
:10281300047601800276047BFF7A2E79907834E681
:0F282300FF08E690004FCFF0A3EFF0120CFD225C
:0426AA004100CE001D
:01005A002283
:032FDC00D2EE2210
:10003E009000CEE004F0E0FFB40402C281EFC3945E
:0B004E00054008E49000CEF0122FDC0B
:010059002284
:1029FC00A2AF9213C2AF75C7AA75C75553A37FA2D6
:102A0C001392AF122C6F122A2D122FBA122FC01242
:102A1C002ED1122C0D122BA4122BC8122DF9D2AFC1
:012A2C002287
:102C0D0053ACFE43AD01C2B053CABF43CA2043CA41
:102C1D001075D68075D78043CA80D2CBE47823F661
:012C2D002284
:062FAE0043CB40D2B0222B
:062FB40053CBBFC2B022A6
:1027B200ED4C603C7825A60608A607AE04AF0508D6
:1027C200A60608A607AE02AF0308A60608A607904B
:1027D2000052E0FEA3E0FF08A60608A607E408F6FA
:1027E20008F608F608F67824F618760178317601AC
:0127F20022C4
:072EFA007B007A007923221E
:0D2E3A0078237C007D007E007F0F02012EBA
:072F0100E47823F6022FB46F
:012FE50022C9
:101B08007823E67003021BBB782AE61846700302A6
:101B18001BBB7826E61846600808E61618700116FA
:101B2800227831E66005E4F6122FAE7824E6FF70DD
:101B38002ED3782AE6940018E694004076782D088B
:101B480006E6187001068604C3782896EC189640B5
:101B580062122FB4E4782DF608F67824760122EF85
:101B68006401704F782D0806E6187001068606C3D2
:101B7800782A96EE1896403B782BE6FE08E6FFD3C7
:101B88009400EE94004020782F0806E618700106AD
:101B98008604C39FEC9E4004E47823F67823E6701D
:101BA800067829F608F622E4782DF608F67824F661
:041BB800122FAE2218
:092EA4003086037F00227F012229
:092EAD003085037F00227F012221
:092EB6003084037F00227F012219
:092EBF003083037F00227F012211
:0C2E79002084062086037F01227F0022B7
:062FBA00121C68022D1834
:10001E00900045E0243AF582E43400F583EFF09049
:0D002E000045E004F0C3940A4002E4F02213
:102A8800900045E0FF900044E0FEB507037F002278
:102A9800743A2EF582E43400F583E0FF900044E0B8
:092AA80004F0C3940A4002E4F0BA
:012AB1002202
:102B2F00900045E0FFA3E0FEB507037F0022743A53
:102B3F002EF582E43400F583E0FF900046E004F0C8
:072B4F00C3940A4002E4F008
:012B5600225C
:102DE800EF75F00BA4240BF582E43400F583E0FFC3
:012DF80022B8
:10299600EF75F00BA42409F582E43400F583ECF01E
:1029A600A3EDF0EF75F00BA4240CF582E43400F5EA
:1029B60083EBF0EF75F00BA4240DF582E43400F5FB
:0429C60083E4F02294
:092EC800900045E0900044F02266
:102D180043B10853B2F743B11053B2EF43B1205354
:092D2800B2DF43B14053B2BF22F7
:101C6800E4900044F0A3F0A3F0FFEF75F00BA42478
:101C780009F582E43400F583E4F0A374C8F0EF7545
:101C8800F00BA42406F582E43400F5837402F0EF27
:101C980075F00BA4240BF582E43400F583E4F0EF2F
:101CA80075F00BA4240CF582E43400F583E4F0EF1E
:101CB80075F00BA4240DF582E43400F583E4F00FED
:101CC800EFB405A690000374FFF0A3742EF0A3747C
:101CD800A4F090000E74FFF0A3742EF0A374ADF07E
:101CE80090001974FFF0A3742EF0A374B6F090005E
:101CF8002474FFF0A3742EF0A374BFF090002F7427
:0A1D0800FFF0A3742EF0A37479F02D
:011D120022AE
:1014380090004AEFF0E075F00BA42403F97400352E
:10144800F0FA7B01900000EBF0A3EAF0A3E9F012B8
:101458000434120454EF700302152A900000E0FBD4
:10146800A3E0FAA3E0F9900003120154FFC3940526
:101478005008900003740502158EEFC3940A5008B3
:101488009000037401020181900008120154701445
:10149800900008041201C690004AE075F003A40405
:1014A800FF12001E900000E0FBA3E0FAA3E0F99011
:1014B8000006120253FFAEF0D39400EE94005003DE
:1014C800021591900004120253C39FE5F09E502329
:1014D800900004E475F00112028BFCE5F06F7002D5
:1014E800EC6E600302159190004AE075F003A424A5
:1014F80003802B900009120154FFD394005003027B
:10150800159190000A7401120181C39F407B9000DD
:101518000AE41201C690004AE075F003A404FF0231
:10152800001E900000E0FBA3E0FAA3E0F99000039E
:10153800120154FFD39405400A9000037405120168
:10154800C6802BEF600A90000374FF120181801E91
:10155800900008120154B40115900008E41201C665
:1015680090004AE075F003A42402FF12001E9000C8
:1015780000E0FBA3E0FAA3E0F9900004E4F5F01220
:0A15880002D890000AE41201C62206
:102CC900E4900049F0900049E0FFC39405500B12CD
:0A2CD9001438900049E004F080EB8D
:012CE30022CE
:092ED10053ACFB43AD04022FDFFA
:032FDF00C2B22259
:032FE200D2B22246
:102BA400E4F5B475B3FFF5B675B5FFF5DB75DAFF7B
:102BB400F5F975FA0475E5FF75E6FF75E70743F95E
:042BC40080022E4716
:0C2E4700E4FF8FFBE4F5FC0FEFB413F682
:012E5300225C
:072F080075FB0A53FCFE22D9
:072F0F0075FB0A43FC0122DF
:072F160075FB0C53FCFE22C9
:072F1D0075FB0C43FC0122CF
:072F240075FB0853FCFE22BF
:072F2B0075FB0843FC0122C5
:072F320075FB0E53FCFE22AB
:072F390075FB0E43FC0122B1
:072F400075FB1053FCFE229B
:072F470075FB1043FC0122A1
:102D310075FB1153FCF075FB1053FCF175FB0F5340
:092D4100FCF075FB0E53FCF122BD
:10129E00EFD394634003021437EF75F00A84FEEF28
:1012AE0075F00A84ADF0EFD394095003021377EE74
:1012BE00B40A0040030213839012CDF8282873025B
:1012CE0012EB0212F60212FE02131202131D021389
:1012DE003102133C02134D02135E02136675FB0EB0
:1012EE0043FC0A53FCFB807975FB0E53FCF18028FE
:1012FE0075FB0E43FC0C53FCFD75FB0F43FC0B53AF
:10130E00FCFB807175FB0E43FC0453FCF58052759B
:10131E00FB0E43FC0653FCF775FB0F43FC0653FC18
:10132E00F6805275FB0E43FC0653FCF7800675FBE8
:10133E000E43FC0E75FB0F43FC0D53FCFD80367502
:10134E00FB0E53FCF175FB0F43FC0753FCF7802596
:10135E0075FB0E43FC0E800975FB0E43FC0653FC19
:10136E00F775FB0F43FC0F800C75FB0E53FCF175EC
:10137E00FB0F53FCF0EDB40A004003021437901338
:10138E0093F82828730213B10213BC0213C402137C
:10139E00D70213E20213F5021400021410021420F5
:1013AE0002142875FB1043FC0A53FCFB807575FB79
:1013BE001053FCF1802775FB1043FC0C53FCFD759C
:1013CE00FB1143FC0B53FCFB2275FB1043FC045337
:1013DE00FCF5804F75FB1043FC0653FCF775FB11B3
:1013EE0043FC0653FCF62275FB1043FC0653FCF738
:1013FE00800675FB1043FC0E75FB1143FC0D53FC70
:10140E00FD2275FB1053FCF175FB1143FC0753FCD9
:10141E00F72275FB1043FC0E800975FB1043FC068A
:09142E0053FCF775FB1143FC0FA0
:011437002292
:072F4E0075FB1253FCF02299
:072F550075FB1243FC0F2283
:102BEB0075FB12EF24BE600E14600F1460102403EB
:102BFB00700F43FC012243FC022243FC042243FCE2
:022C0B0008229D
:102B7F0075FB0853FCF175FB0953FCF075FB0A5309
:102B8F00FCF175FB0B53FCF075FB0C53FCF175FB63
:052B9F000D53FCF022C3
:040FF700AB07AA0694
:100FFB00D3EB94E7EA9403400302129D7C007D64DB
:10100B00AF03AE021201E890004DEFF07C007D645F
:10101B00AF03AE021201E87E007F0ACFCDCFCECC5C
:10102B00CE1201E890004CEFF07C007D0AAF03AECE
:10103B00021201E8A905D3EB9463EA940050030272
:10104B001108A3E0B40A00400302111490105EF8DB
:10105B0028287302107C02108702108F0210A30243
:10106B0010AE0210C20210CD0210DE0210EF021001
:10107B00F775FB0843FC0A53FCFB807975FB08539F
:10108B00FCF1802875FB0843FC0C53FCFD75FB0938
:10109B0043FC0B53FCFB807175FB0843FC0453FCB6
:1010AB00F5805275FB0843FC0653FCF775FB0943AF
:1010BB00FC0653FCF6805275FB0843FC0653FCF709
:1010CB00800675FB0843FC0E75FB0943FC0D53FCB6
:1010DB00FD803675FB0853FCF175FB0943FC075388
:1010EB00FCF7802575FB0843FC0E800975FB084354
:1010FB00FC0653FCF775FB0943FC0F800C75FB08D2
:10110B0053FCF175FB0953FCF0D3EB9409EA940003
:10111B0050030211DD90004CE0B40A0040030211B1
:10112B00E9901133F828287302115102115C021156
:10113B00640211780211830211970211A20211B3FA
:10114B000211C40211CC75FB0A43FC0A53FCFB8051
:10115B007975FB0A53FCF1802875FB0A43FC0C5391
:10116B00FCFD75FB0B43FC0B53FCFB807175FB0A01
:10117B0043FC0453FCF5805275FB0A43FC0653FCFD
:10118B00F775FB0B43FC0653FCF6805275FB0A43C9
:10119B00FC0653FCF7800675FB0A43FC0E75FB0B34
:1011AB0043FC0D53FCFD803675FB0A53FCF175FBBC
:1011BB000B43FC0753FCF7802575FB0A43FC0E80A1
:1011CB000975FB0A43FC0653FCF775FB0B43FC0F3D
:1011DB00800C75FB0A53FCF175FB0BE4F5FCE9B4D1
:1011EB000A00400302129D9011F9F828287302128D
:1011FB001702122202122A02123D02124802125B3D
:10120B0002126602127602128602128E75FB0C43D4
:10121B00FC0A53FCFB807575FB0C53FCF1802775A6
:10122B00FB0C43FC0C53FCFD75FB0D43FC0B53FCFF
:10123B00FB2275FB0C43FC0453FCF5804F75FB0C38
:10124B0043FC0653FCF775FB0D43FC0653FCF622DF
:10125B0075FB0C43FC0653FCF7800675FB0C43FC3B
:10126B000E75FB0D43FC0D53FCFD2275FB0C53FC63
:10127B00F175FB0D43FC0753FCF72275FB0C43FC8C
:10128B000E800975FB0C43FC0653FCF775FB0D43F5
:02129B00FC0F46
:01129D00222E
:072F5C0075FB0253FCFE228D
:072F630075FB0243FC012293
:072F6A0075FB0453FCFE227D
:072F710075FB0443FC012283
:072F780075FB0853FCFE226B
:072F7F0075FB0843FC012271
:072F8600E4F5FB53FCFE2201
:072F8D00E4F5FB43FC012207
:102A5B00E4F5FB53FCF175FB01F5FC75FB0253FC34
:102A6B00F175FB03F5FC75FB0453FCF175FB05F5E8
:0D2A7B00FC75FB0653FCF175FB07F5FC2212
:0408F800AB07AA069A
:1008FC00D3EB940FEA94274003020C917C037DE820
:10090C00AF03AE021201E890004EEFF07C037DE8DD
:10091C00AF03AE021201E87E007F64CFCDCFCECC08
:10092C00CE1201E890004DEFF07C007D64AF03AE79
:10093C00021201E87E007F0ACFCDCFCECCCE1201C1
:10094C00E890004CEFF07C007D0AAF03AE02120180
:10095C00E8A905D3EB94E7EA94035003020A289024
:10096C00004EE0B40A004003020A3390097EF828D6
:10097C00287302099C0209A70209AF0209C30209E4
:10098C00CE0209E20209ED0209FE020A0F020A1761
:10099C00E4F5FB43FC0A53FCFB8079E4F5FB53FCC8
:1009AC00F18028E4F5FB43FC0C53FCFD75FB014383
:1009BC00FC0B53FCFB8070E4F5FB43FC0453FCF58F
:1009CC008052E4F5FB43FC0653FCF775FB0143FC3A
:1009DC000653FCF68051E4F5FB43FC0653FCF78010
:1009EC0006E4F5FB75FC0E75FB0143FC0D53FCFD99
:1009FC008035E4F5FB53FCF175FB0143FC0753FC1C
:100A0C00F78024E4F5FB43FC0E8009E4F5FB43FC82
:100A1C000653FCF775FB0143FC0F800BE4F5FB530D
:100A2C00FCF175FB01F5FCD3EB9463EA94005003E5
:100A3C00020AFC90004DE0B40A004003020B08903F
:100A4C000A52F8282873020A70020A7B020A8302EF
:100A5C000A97020AA2020AB6020AC1020AD2020AC2
:100A6C00E3020AEB75FB0243FC0A53FCFB8079752D
:100A7C00FB0253FCF1802875FB0243FC0C53FCFD7C
:100A8C0075FB0343FC0B53FCFB807175FB0243FCB1
:100A9C000453FCF5805275FB0243FC0653FCF775BE
:100AAC00FB0343FC0653FCF6805275FB0243FC0629
:100ABC0053FCF7800675FB0243FC0E75FB0343FCED
:100ACC000D53FCFD803675FB0253FCF175FB0343A3
:100ADC00FC0753FCF7802575FB0243FC0E8009755F
:100AEC00FB0243FC0653FCF775FB0343FC0F800C25
:100AFC0075FB0253FCF175FB03E4F5FCD3EB940995
:100B0C00EA94005003020BD190004CE0B40A004070
:100B1C0003020BDD900B27F8282873020B45020B00
:100B2C0050020B58020B6C020B77020B8B020B96CC
:100B3C00020BA7020BB8020BC075FB0443FC0A5353
:100B4C00FCFB807975FB0453FCF1802875FB044396
:100B5C00FC0C53FCFD75FB0543FC0B53FCFB80713B
:100B6C0075FB0443FC0453FCF5805275FB0443FCF9
:100B7C000653FCF775FB0543FC0653FCF6805275D7
:100B8C00FB0443FC0653FCF7800675FB0443FC0E88
:100B9C0075FB0543FC0D53FCFD803675FB0453FCC3
:100BAC00F175FB0543FC0753FCF7802575FB0443EB
:100BBC00FC0E800975FB0443FC0653FCF775FB0522
:100BCC0043FC0F800C75FB0453FCF175FB05E4F53D
:100BDC00FCE9B40A004003020C91900BEDF82828B4
:100BEC0073020C0B020C16020C1E020C31020C3C94
:100BFC00020C4F020C5A020C6A020C7A020C82751F
:100C0C00FB0643FC0A53FCFB807575FB0653FCF199
:100C1C00802775FB0643FC0C53FCFD75FB0743FC5E
:100C2C000B53FCFB2275FB0643FC0453FCF5804F75
:100C3C0075FB0643FC0653FCF775FB0743FC065398
:100C4C00FCF62275FB0643FC0653FCF7800675FB8D
:100C5C000643FC0E75FB0743FC0D53FCFD2275FB94
:100C6C000653FCF175FB0743FC0753FCF72275FB9D
:100C7C000643FC0E800975FB0643FC0653FCF77516
:050C8C00FB0743FC0F13
:010C91002240
:072F940075FB0653FCFE2251
:072F9B0075FB0643FC012257
:102E2A006D6574657220636F756E742025640A007F
:1026AE004100A40048009C0000000000000000C192
:0126BE001407
:0D2E540053DCEF43DD1012276A439B02227E
:0A2E9A00E4900099F0A3F0A3F022E9
:10276A00C2DC43E90453E9FD43E90153EDFE43EDBD
:10277A000243ED0443ED0853EDEF53EDDF53EDBF94
:10278A0053ED7F53EAFE43EA0243EA0443EA08535D
:10279A00EAEF53EADF53EABF53EA7FE4F5EB53EB80
:0827AA00FD53EBFB53EBF7229A
:102D6200D2DC53EDFD53EDFB53EDF753EAFD53EA8D
:052D7200FB53EAF7220B
:062FC000122E54022E9AAD
:102D4A007BFF7A2E792A900099E0FE3395E0900075
:082D5A004FF0A3CEF0020CFDC6
:0518BC00900047EFF071
:1018C100E49000B3F0122FDF900047E0FF1460288E
:1018D10014604D2402707390009BE0FE700A90002A
:1018E1009AE06060E4F08062EEB401028022900030
:1018F1009BE064027054802190009BE0FEB4010CD7
:1019010090009AE06004E4F080408038EEB4020375
:10191100E4802490009BE0703190009A04F0802ACA
:1019210090009BE0FEB4020C90009AE06004E4F0A9
:1019310080188010EE700690009AF0800D90009B48
:10194100E0B4010690009A7401F090009BEFF090D2
:10195100009AE09000996005E004F08003E014F043
:1019610030140E900099E0C3648094855013C21422
:1019710022900099E0D36480948C4005D214122403
:01198100B5B0
:011982002242
:052FC600E4FF0218BC4D
:052FCB007F010218BCAB
:052FD0007F020218BCA5
:102DF90053DC7F43DD807F807E257D007C000224BB
:012E09005870
:102DB10030F80BE59A1201B4C2F8D2158002C2159F
:022DC100A21559
:012DC30022ED
:0826BF004100AC004100AD0038
:102BC800122CAD5389F75389FB5389FD4389019032
:102BD80000AC74FCF0A37466F0758CFCF58AD2A97D
:032BE800D28C226A
:102CAD00E49000A5F09000A7F09000A9F0A3F0909B
:0C2CBD0000A6F09000A8F09000ABF02200
:03000B000221A52A
:1021A500C0E0C0F0C083C082C0D075D000C000C000
:1021B500069000ACE0F58CA3E0F58A9000A5E0045C
:1021C500F0C3940A4005E4F0A304F09000A7E004EE
:1021D500F0C394644005E4F0A304F09000A9E4750D
:1021E500F00112023DFEC3E5F094E8EE9403400AC7
:1021F5009000A9E4F0A3F0A304F0D006D000D0D05D
:09220500D082D083D0F0D0E03289
:102DC40053897F5389BF4389205389EF758DCE750D
:032DD4008BCE2281
:03001B00022FE6CB
:012FE60032B8
:102A2D0053B1FD43B202D28143E10175E80243B1D6
:102A3D000453B2FB43F60453E1BF43E12053E1EFEE
:0E2A4D0043E22043E240E4F5E4F5E3D2AE229A
:10159200EF14604414606F14700302163114700368
:1015A20002166D240460030216D1A2AF9213C2AFD9
:1015B20075C7AA75C755439780A21392AFA2AF927F
:1015C20013C2AF75C7AA75C7555397BFA21392AF7F
:1015D200E59630E7FB021698A2AF9213C2AF75C729
:1015E200AA75C75553977FA21392AFA2AF9213C2A7
:1015F200AF75C7AA75C755439740A21392AFE59638
:1016020030E6FB021698A2AF9213C2AF75C7AA7555
:10161200C755439720A21392AFE59630E5FBA2AFE0
:101622009213C2AF75C7AA75C7555396FB8027A2FE
:10163200AF9213C2AF75C7AA75C755439710A213CD
:1016420092AFE59630E4FBA2AF9213C2AF75C7AA80
:1016520075C755439604A21392AFA2AF9213C2AFBD
:1016620075C7AA75C7555396FD804DA2AF9213C296
:10167200AF75C7AA75C75553977FA21392AFA2AF92
:101682009213C2AF75C7AA75C7555397BFA21392DB
:10169200AFE59630E3FBA2AF9213C2AF75C7AA754E
:1016A200C7555396FBA21392AFA2AF9213C2AF7566
:1016B200C7AA75C755439602A21392AFA2AF92135F
:1016C200C2AF75C7AA75C7555396FEA21392AFE56E
:0516D2009720E0FB225F
:102B060075985243892053877F538EEF53C4DFABAA
:102B160007AA06A905A804E47F807E70FDFC1203BF
:092B260041EFF404F58DD28E227A
:102B5700759852438920438780538EEF53C4DFAB68
:102B670007AA06A905A804E4FF7EE1FDFC120341BC
:082B7700EFF404F58DD28E226B
:102AB20075985243892053877F438E1053C4DFABEE
:102AC20007AA06A905A8047F007E467D057C0012A0
:0A2AD2000341EFF404F58DD28E22CB
:102ADC00759852438920438780438E1053C4DFABD3
:102AEC0007AA06A905A8047F007E8C7D0A7C00122B
:0A2AFC000341EFF404F58DD28E22A1
:10220E009000B41203F775985253877F53C4F84366
:10221E00C4209000B4E0F8A3E0F9A3E0FAA3E0FB39
:10222E007F007E467D057C00120341C3E49FFFE4E0
:10223E009EFE74019DFDE49CFC78081203E48FC69B
:10224E009000B4E0F8A3E0F9A3E0FAA3E0FB7F006E
:10225E007E467D057C00120341C3E49FFF8FC5437C
:03226E00C408227F
:102271009000B81203F775985243878053C4F8430E
:10228100C4209000B8E0F8A3E0F9A3E0FAA3E0FBD2
:102291007F007E8C7D0A7C00120341C3E49FFFE432
:1022A1009EFE74019DFDE49CFC78081203E48FC638
:1022B1009000B8E0F8A3E0F9A3E0FAA3E0FB7F0007
:1022C1007E8C7D0A7C00120341C3E49FFF8FC543CE
:0322D100C408221C
:102458009000491203F775F85253C4F8900049E008
:10246800F8A3E0F9A3E0FAA3E0FB7F007E8C7D0AE5
:102478007C00120341C3E49FFFE49EFE74019DFDAE
:10248800E49CFC78081203E48FC6900049E0F8A3A6
:10249800E0F9A3E0FAA3E0FB7F007E8C7D0A7C00D4
:0D24A800120341C3E49FFF8FC543C4082207
:072EDA003098FDAF99C2988A
:012EE10022CE
:082EE200C2998F993099FD227D
:072EEA0030F8FDAF9AC2F8B9
:012EF10022BE
:082EF200C2F98F9A30F9FD22AC
:102CE400E4F5B1F5B2F5B3F5B4F5B5F5B6F5ACF573
:0A2CF400ADF5DAF5DBF5DCF5DD22C5
:102C6F0075B1FFE4F5B275B3FFF5B475B5FFF5B601
:102C7F0075ACFFF5AD75DAFFF5DB75DCFFF5DD2221
:102CFE0075C7AA75C755A2AF9213C2AF75C7AA758D
:0A2D0E00C755439F80A21392AF2225
:042FD50043AD802266
:1028EB00EF640A701C30F811E59AB4130CC2F8307F
:1028FB00F8FDE59AB411F6C2F830F9FDC2F9759AF4
:10290B000D30F811E59AB4130CC2F830F8FDE59AC6
:0D291B00B411F6C2F830F9FDC2F98F9A220E
:061ED90090FFF812045A0C
:101EDF00850D83850E8212040300000000E47FFF4E
:101EEF007EFFFDFC850D83850E82E0F8A3E0F9A34C
:101EFF00E0FAA3E0FBC31203D3504C90000412048A
:101F0F007EE0FCA3E0FDA3E0FEA3E02401FFE43E9E
:101F1F00FEE43DFDE43CFC90000412047E1203F746
:101F2F00850D83850E82E0FCA3E0FDA3E0FEA3E018
:101F3F002401FFE43EFEE43DFDE43CFC850D83857A
:071F4F000E821203F78096D9
:061F560090000802045A8D
:102C2E00538EF7438901D28CEF4E6012758AF77579
:102C3E008CFF308DFDC28DEF1F70ED1E80EAC28CB1
:012C4E002263
:10256B009000BC1203F7538EF7438901D28CE4FF22
:10257B00FEFDFC9000BCE0F8A3E0F9A3E0FAA3E0B9
:10258B00FBC31203D3602F758A65758CFC308DFDF0
:10259B00C28D9000BCE0FCA3E0FDA3E0FEA3E02411
:1025AB00FFFFEE34FFFEED34FFFDEC34FFFC90003B
:0925BB00BC1203F780B8C28C22A7
:1025C4009000C01203F7538EEF438910D28EE4FFBC
:1025D400FEFDFC9000C0E0F8A3E0F9A3E0FAA3E05C
:1025E400FBC31203D3602F758B65758DFC308FFD93
:1025F400C28F9000C0E0FCA3E0FDA3E0FEA3E024B2
:10260400FFFFEE34FFFEED34FFFDEC34FFFC9000E1
:09261400C01203F780B8C28E2247
:102510009000C41203F775C40243C408E4FFFEFD33
:10252000FC9000C4E0F8A3E0F9A3E0FAA3E0FBC349
:102530001203D3603275C53375C6F5E5C430E4FBCC
:1025400053C4EF9000C4E0FCA3E0FDA3E0FEA3E0D1
:1025500024FFFFEE34FFFEED34FFFDEC34FFFC9072
:0B25600000C41203F780B553C4F7223B
:102398009000C81203F7538FFB538FFD538FFEE451
:1023A800F586538FDF438F08E4FFFEFDFC9000C8DD
:1023B800E0F8A3E0F9A3E0FAA3E0FBC31203D360BB
:1023C8002CE58F30E4FB538FEF9000C8E0FCA3E0CE
:1023D800FDA3E0FEA3E024FFFFEE34FFFEED34FF93
:1023E800FDEC34FFFC9000C81203F780BB538FF755
:0123F80022C2
:1016D7000A3D3D3D3D3D3D3D3D3D3D3D3D3D3D3D66
:1016E7003D3D3D3D3D3D3D3D3D3D3D3D3D3D3D3D23
:1016F7003D3D3D3D3D3D3D3D3D3D3D3D3D3D3D3D13
:101707003D3D3D3D3D3D3D3D3D3D3D3D3D3D3D3D02
:101717003D3D3D3D3D000A2A2020436F70797269A7
:101727006768742863292032303135204E75766F0B
:10173700746F6E20546563686E6F6C6F67792043B2
:101747006F72702E20416C6C207269676874732009
:1017570072657365727665642E2020000A2A202040
:10176700436F6E7461637420452D4D61696C3A2037
:101777004D6963726F432D38626974406E75766F79
:10178700746F6E2E636F6D20202020202020202074
:101797002020202020202020202020202020202042
:1017A70020000A2A202044656D6F205665727369F0
:1017B7006F6E20203A202532642E2532642E253282
:1017C70064000A2A202046696E69736865642044AC
:1017D700617465203A202532642E2532642E253225
:0217E70064009C
:1023F9007BFF7A1679D7120CFD7BFF7A17791D12AC
:102409000CFD7BFF7A177963120CFD7BFF7A177934
:10241900A990004FE4F0A304F0E4A3F0A3F0A3F023
:10242900A3F0120CFD7BFF7A1779C990004F74074E
:10243900F0A374DFF0A3E4F0A37405F0A3E4F0A320
:0F244900741FF0120CFD7BFF7A1679D7020CFD81
:03000000021DAF2F
:101DAF00787FE4F6D8FD9000007FFF7E01E4F0A37A
:0A1DBF00DFFCDEFA758135021E0418
:101DC900021FD9E493A3F8E493A34003F68001F238
:101DD90008DFF48029E493A3F85407240CC8C3331B
:101DE900C4540F4420C8834004F456800146F6DFEA
:101DF900E4800B0102040810204080902675E47EDF
:101E0900019360BCA3FF543F30E509541FFEE493DE
:101E1900A360010ECF54C025E060A840B8E493A3A5
:101E2900FAE493A3F8E493A3C8C582C8CAC583CAD0
:101E3900F0A3C8C582C8CAC583CADFE9DEE780BE88
:0126C7000012
:10005E00E709F608DFFA8046E709F208DFFA803E84
:10006E0088828C83E709F0A3DFFA8032E309F60871
:10007E00DFFA8078E309F208DFFA807088828C83D9
:10008E00E309F0A3DFFA806489828A83E0A3F6088D
:10009E00DFFA805889828A83E0A3F208DFFA804C67
:1000AE0080D280FA80C680D4806980F2803380103E
:1000BE0080A680EA809A80A880DA80E280CA8033A7
:1000CE0089828A83ECFAE493A3C8C582C8CCC5831F
:1000DE00CCF0A3C8C582C8CCC583CCDFE9DEE780EF
:1000EE000D89828A83E493A3F608DFF9ECFAA9F06E
:1000FE00EDFB2289828A83ECFAE0A3C8C582C8CCC4
:10010E00C583CCF0A3C8C582C8CCC583CCDFEADEDC
:10011E00E880DB89828A83E493A3F208DFF980CC3E
:10012E0088F0EF60010E4E60C388F0ED2402B40437
:10013E000050B9F582EB2402B4040050AF232345DE
:06014E0082239000AE7355
:10015400BB010CE58229F582E5833AF583E0225060
:1001640006E92582F8E622BBFE06E92582F8E222AA
:0D017400E58229F582E5833AF583E49322C4
:10018100BB010FF8E58229F582E5833AF583E02882
:10019100F0225009C58229F8E58226F622BBFE0924
:1001A100C58229F8E22582F222F8EA2583F583E95E
:0301B1009328226E
:1001B400BB010689828A83F0225002F722BBFE012A
:0201C400F32224
:1001C600F8BB010DE58229F582E5833AF583E8F06F
:1001D600225006E92582C8F622BBFE05E92582C81B
:0201E600F22203
:1001E800BC000BBE0029EF8DF084FFADF022E4CCFB
:1001F800F875F008EF2FFFEE33FEEC33FCEE9DECC4
:10020800984005FCEE9DFE0FD5F0E9E4CEFD22ED09
:10021800F8F5F0EE8420D21CFEADF075F008EF2F53
:10022800FFED33FD4007985006D5F0F222C398FD44
:050238000FD5F0EA22E1
:10023D00C5F0F8A3E028F0C5F0F8E582158270024C
:06024D001583E038F022E9
:10025300BB0110E58229F582E5833AF583E0F5F0E9
:10026300A3E0225009E92582F886F008E622BBFEC6
:100273000AE92582F8E2F5F008E222E5832AF5830C
:08028300E993F5F0A3E99322D1
:10028B00BB010DC58229C582C5833AC58302023DD8
:10029B005011C58229F808E5F026F618F5F0E5822D
:1002AB0036F622BBFE11C58229F808E225F0F5F0DF
:1002BB00F218E23582F222F8E58229F582E5832AEB
:0D02CB00F58374019325F0F5F0E4933822DB
:1002D800F8BB0111E58229F582E5833AF583E8F058
:1002E800E5F0A3F0225009E92582C8F608A6F02215
:0D02F800BBFE09E92582C8F2E5F008F222FC
:1003050075F008758200EF2FFFEE33FECD33CDCCAF
:1003150033CCC58233C5829BED9AEC99E582984032
:100325000CF582EE9BFEED9AFDEC99FC0FD5F0D60F
:10033500E4CEFBE4CDFAE4CCF9A88222B800C1B939
:100345000059BA002DEC8BF084CFCECDFCE5F0CB77
:10035500F97818EF2FFFEE33FEED33FDEC33FCEBB0
:1003650033FB10D703994004EB99FB0FD8E5E4F96B
:10037500FA227818EF2FFFEE33FEED33FDEC33FC58
:10038500C933C910D7059BE99A4007EC9BFCE99A4C
:10039500F90FD8E0E4C9FAE4CCFB2275F010EF2F91
:1003A500FFEE33FEED33FDCC33CCC833C810D70791
:1003B5009BEC9AE899400AED9BFDEC9AFCE899F8CC
:0E03C5000FD5F0DAE4CDFBE4CCFAE4C8F9225F
:1003D300EB9FF5F0EA9E42F0E99D42F0E89C45F080
:0103E30022F7
:1003E400E8600FECC313FCED13FDEE13FEEF13FFF7
:0303F400D8F1221B
:0C03F700ECF0A3EDF0A3EEF0A3EFF02279
:10040300A8828583F0D083D08212041A12041A12B0
:10041300041A12041AE473E493A3C583C5F0C583D5
:10042300C8C582C8F0A3C583C5F0C583C8C582C843
:0104330022A6
:10043400BB010789828A830204AD5005E9F80204EE
:10044400A4BBFE05E9F80204D689828A830204DF8C
:060454008A838982E47333
:10045A00E50E2582F582E50D3583F583B50D048514
:10046A00820E2210AF0685820EF50D2285820EF5C8
:04047A000DD2AF22CE
:0D047E00E50E2582F582E50D3583F583221C
:100C9200E508244FF582E43400F583E0050822904C
:100CA200004C30080390004FE475F0011204B602C4
:100CB200048B2001E97F2ED2018018EF540F24907B
:100CC200D43440D4FF30050BEF24BFB41A005003D4
:100CD2002461FFE50960021509050CE50C700205A7
:100CE2000B30080E90004CE475F0011204B6EF02CE
:100CF20001B40228EB7403D2088003E4C208F508A9
:100D020090004C1204CDE4F509F50BF50CE50960F1
:100D1200077F20120CD580F5750AFFC202C201C2FC
:100D220003C204C206C207C209120CA1FF700D3031
:100D320008057F00120CE6AF0CAE0B22B4255FC291
:100D4200D5C205120CA1FF24D0B40A00501A75F0C6
:100D52000A780930D50508B6FF0106C6A426F62092
:100D6200D5047002D20480D924CFB41A00EF500403
:100D7200C2E5D205020EE7D20280C6D20180C0D2FD
:100D82000380BCD2D580BAD20680B47F20120CD5A3
:100D92002003077401B5090040F1120C92FF120CF6
:100DA200D5020D0FD209D2078095120C92FB120CBC
:100DB20092FA120C92F94A4B700679B87A0F7BFFBD
:100DC20020032EE509602A7E008E827583001201BF
:100DD2005460060EEE650A70F0C2D5EBC0E0EAC0C0
:100DE200E0E9C0E0EE120F2ED0E0F9D0E0FAD0E058
:100DF200FB12048BFF60AAEBC0E0EAC0E0E9C0E0AE
:100E0200120CD5D0E02401F9D0E03400FAD0E0FB96
:100E1200E50A0460DCD50AD980877BFF7A0F792A3C
:100E2200D203809C791080027908C207C209800827
:100E3200D2D5790A8004790AC2D5E50A047002F58E
:100E42000AE4FAFDFEFF120C92FC7B082002131248
:100E52000C92FD7B1030010A120C92FE120C92FFD2
:100E62007B20EC3382D592D55013C3E43001069F28
:100E7200FFE49EFEE42002039DFDE49CFCE4CBF82B
:100E8200C202EC700CCFCECDCCE824F8F870F3801F
:100E920017C3EF33FFEE33FEED33FDEC33FCEB33E0
:100EA200FB994002FB0FD8E9EB300205F8D0E0C411
:100EB20048B202C0E00AEC4D4E4F78207B0070C26F
:100EC200EAB50A0040BCC0E0120F30D0F0D0E020FA
:100ED2000204C4C0E0C4B202C0F0120CBED0F0D50D
:100EE200F0EB020D0F1204EB0DAC530E26580D7DE4
:100EF2004C0D79420E2A4F0E32440E32490D924366
:080F02000E38550E1C460E1CB2
:100F0A00450E1C470FD8500D812D0D852E0DA82B8F
:100F1A000D89230DA6200FC12A0D414800000DA0FE
:100F2A003F3F3F00790AA2D5200414300609B910C0
:100F3A00020404B9080104A2D520070250010420C2
:100F4A0003689203B509005034C0E07F20300419C9
:100F5A007F30A20372077206500F120F87C203C2B4
:100F6A0007C206C2097F30800F300603E9C0E012CB
:100F7A000CD5300603D0E0F9D0E0B509CC3006171D
:100F8A007F30B9100C120CD57F583005077F788056
:100F9A0003B90803120CD53003057F2D020CD57F47
:100FAA00202009F87F2B2007F322920380CF286E96
:100FBA00756C6C2900D202120C923002F8C20278C7
:100FCA000930D50108F6020D412D50434958120C3B
:100FDA00922403B405004001E4900FD393120CC687
:0D0FEA00743A120CC6D204750904020E26DA
:10048B00BB010689828A83E0225002E722BBFE026F
:09049B00E32289828A83E49322A2
:0904A400E6FB08E6FA08E6F9227D
:0904AD00E0FBA3E0FAA3E0F92250
:1004B600F8E0FBA3A3E0F925F0F0E58215827002CF
:0704C6001583E0FA38F02273
:0904CD00EBF0A3EAF0A3E9F02230
:0904D600E2FB08E2FA08E2F92257
:0C04DF00E493FB740193FA740293F92279
:1004EB00D083D082F8E4937012740193700DA3A3A0
:1004FB0093F8740193F5828883E4737402936860B4
:06050B00EFA3A3A380DFB3
:00000001FF
