:102AA8004920616D20726573757267656E63650A8A
:012AB800001D
:08248D004100C1004100C20042
:03005B0002254734
:10254700C0E0C0F0C083C082C0D075D000C000C05A
:1025570001C002C003C004C005C006C0071225FEA3
:10256700C2EFD007D006D005D004D003D002D001E7
:0D257700D000D0D0D082D083D0F0D0E032A0
:03003B0002204759
:10204700C0E0C0F0C083C082C0D075D000C000C05F
:1020570001C002C003C004C005C006C007E5EC30DC
:10206700E60A9000A0E0B402037403F0E5EC30E167
:1020770003122C97E5EC30E203122C92E5EC30E3E7
:1020870003122C9C75EC00D007D006D005D004D0E5
:1020970003D002D001D000D0D0D082D083D0F0D0EE
:0220A700E03225
:101DC5007F0212136F1226D41229451224CB122B2F
:101DD500627BFF7A2A79A8120843900097E0600891
:101DE500E4F012190412299B900099E0600EE4F0CA
:101DF500122584122B2612232C12184590009CE0E4
:021E0500602655
:101E0700E4F012250912000E12240F122963122A78
:101E17001B9000C2E004F0E0D394034009740AF079
:061E27009000C1E004F090
:101E2D00122760900048EFF060A8E0FF1216AC801A
:011E3D00A103
:101D4800706F776572206F66660A00706F776572CC
:101D5800206F6E0A006F6666206272696768740A8F
:101D680000504F574552206C6F6E670A006B6579BB
:101D780020706F776572206F66660A00434C454194
:101D88005220636C69636B0A00434C454152206CD6
:101D98006F6E670A0053455420636C69636B0A00D1
:101DA800534554206C6F6E670A004F4B20636C6973
:0D1DB800636B0A004F4B206C6F6E670A00D2
:0C2495004100A400C10E41009F00C10DD9
:1024CB00122A6F1223849000A27401F09000A0F0E6
:1024DB00A37404F09000A37441F0121E3E122A481C
:1024EB007BFF7A1B790D122B327BFF7A1E79AE1292
:0E24FB002B3EE4FBFA7D04FC7F04FE0226A2C9
:102A5C0053E9FB53E9FD53E9FE43ED4043EA405390
:032A6C00EBBF229B
:102A6F0053E9FB53E9FD53E9FE53EDBF53EABF535F
:032A7F00EBBF2288
:101E3E009000A2E024FE6027146044240270601219
:101E4E002A03E4FFFE120E5FE4FFFE120B3D122B7F
:101E5E00F7122C0C122C1A122C67122C28801D1221
:101E6E002C13122BF77F411228C17F421228C17FFB
:101E7E00431228C17F441228C1122C67022C36123D
:101E8E002C13122BF77F411228C17F421228C17FDB
:101E9E00431228C17F441228C1122C67122C28220B
:101B0D00122BF79000A1E024FE601D046003021B60
:101B1D00A69000A2E024FE6005146007807B122CC5
:101B2D002F8076122C3D80719000A3E024BF600FB2
:101B3D0014601914602314602D2444703D803B9073
:101B4D000073E0FF1210B29000748025900075E0D4
:101B5D00FF1210B29000768018900077E0FF1210FF
:101B6D00B2900078800B900079E0FF1210B29000D7
:101B7D007AE0FF7E00120E5F80069000A37441F0A4
:101B8D009000A2E0B40205122C2F800A9000A2E072
:0C1B9D00B40303122C3D122C21022BF784
:101EAE009000A1E024FE600804705E122C2880567B
:101EBE009000A3E07003122C1A9000A3E0B4410826
:101ECE00122C1A7F411228C19000A3E0B4420812CE
:101EDE002C1A7F421228C19000A3E0B44308122CA2
:101EEE001A7F431228C19000A3E0B44408122C1AA2
:101EFE007F441228C19000A2E0B40203022C289065
:0A1F0E0000A2E0B40303122C3622F7
:10177F009000A1E024FE600914603514603902184E
:10178F00447F411228C17F421228C17F431228C1D2
:10179F007F441228C1E4FF1210B2E4FFFE120E5F65
:1017AF00E4FFFE120B3D122C679000A17401F02292
:1017BF009000A17402F022E490007DF0A3F090005D
:1017CF0082F0A3F090007DE0FEA3E0FF120E5F9089
:1017DF000082E0FEA3E0FF120B3D9000A2E024FE8A
:1017EF00601B1460342402704C122BF7122C0C1255
:1017FF002A03122C1A122C67122C288019122BF77D
:10180F00122C13E4FF1210B290007CE0FF1228C1DB
:10181F00122C67122C2F022C36122BF7122C13E4DA
:10182F00FF1210B290007CE0FF1228C1122C671239
:06183F002C28122C3D22B2
:1023CC009000A1E024FE60061460312402229000EB
:1023DC00A17401F07F411228C17F421228C17F43B2
:1023EC001228C17F441228C1E4FF1210B2E4FFFE90
:1023FC00120E5FE4FFFE120B3D022C679000A174DD
:03240C0002F022B9
:102638009000A1E024FC6002802BE490007FF0A3CE
:10264800F0A3F0A3F0A3F090007FE0FF1210B29087
:102658000080E0FEA3E0FF120E5F900082E0FEA380
:06266800E0FF120B3D2211
:1019B6009000A1E024FE6065046003021A619000B5
:1019C600A2E024FE601114603924026003021A6149
:1019D6009000A2740280059000A27403F0E4FF1246
:1019E60010B2122C13122BF77F411228C17F42121C
:1019F60028C17F431228C17F441228C1122C6702D6
:101A06002C369000A27401F0122BF7122C0C122C1B
:101A16001A122C67122C28122C36022A039000A2C6
:101A2600E024FE600514601A80319000A3E0700285
:101A360080269000A3E004F0E0D3648094C4401BA9
:101A460080169000A3E07002800E9000A3E004F0E0
:0C1A5600E0D3648094C440037441F0228B
:10003E009000A1E024FC600280119000A2E09000EC
:0C004E00A1B401047401F0227402F0223D
:101CC6009000A1E024FE60430470769000A2E02418
:101CD600FE600F14601D240270289000A17403F0AA
:101CE60080209000A17402F0122C13122C2F122CBB
:101CF60036800F9000A17402F0122C13122C2812B9
:101D06002C3D90007CE09000A3F0229000A2E024FD
:101D1600FE600514600A800E122C2F122C368006E7
:101D2600122C3D122C289000A2E090007BF090002F
:101D3600A3E090007CF0E4A3F0A3F09000A174036C
:021D4600F02289
:080003009000A1E0FF0229D0EA
:032CA5000229D031
:062C6E00122CAB022B0C3E
:102584009000A0E06402702F90009FE004F0E0C38C
:1025940094034028E4F0122C74122A33122A5C7B30
:1025A400FF7A1D79481208434387027BFF7A1D791D
:0C25B40053120843022CA5E490009FF095
:0125C00022F8
:102509009000A4E004F0E0FF7E00BE0111BF900E30
:10251900D20E122CAB7BFF7A1D795D020843900025
:10252900A4E0FF7E00BE0115BFF412122C6E7BFFE2
:0E2539007A1D79481208439000A07402F02227
:062C7400E49000A4F02230
:0516AC00900049EFF081
:1016B100122C74300E0C9000A0E0B40105C20E0291
:1016C1002CAE900049E024FDB40A00400302177ECD
:1016D1009016DF75F003A4C58325F0C58373021648
:1016E100FE02177E02171E02173002177E02173EF6
:1016F10002175002177E02175E021770227BFF7AD3
:101701001D79691208439000A0E06401706F7402B2
:10171100F07BFF7A1D7975120843022C6E300D03A0
:10172100C20D227BFF7A1D79841208430223CC7BF0
:10173100FF7A1D7991120843D20D022638300D032C
:10174100C20D227BFF7A1D799D1208430219B67BD7
:10175100FF7A1D79A8120843D20D02003E300D0315
:10176100C20D227BFF7A1D79B2120843021CC67B8F
:0D177100FF7A1D79BC120843D20D1200034F
:01177E002248
:1024A1004800730A1414191E1E322841007200C11B
:0524B1000CC10AC10B83
:1029450090007B7401F0A37441F0E4A3F0A3F0A31D
:0E295500F0A3F0A3F0A3F0A3F0900072F02224
:102221009000A1E0FFB4042390007EE004F070066A
:1022310090007DE004F0D390007EE0941090007D4A
:10224100E094274004E4F0A3F0D20CEFB40329900A
:1022510000A17404F090007EE004F0700690007D0F
:10226100E004F0D390007EE0941090007DE094278C
:092271004004E4F0A3F0D20C22B9
:0D000E00900072E0C394FF5003E004F02264
:0C2B2600300C08C20C122C7412005E224D
:10005E00122A4890007BE024FE70030200F3147015
:10006E00030202842402600302041A90007DE0FE63
:10007E00A3E0FF7C007D0A1204AFED4C90004F70A0
:10008E000BF0A304F0FB7A007D1E800AE4F0A304BB
:10009E00F0FB7A007D0A7C00FF7E0012244E900059
:1000AE007DE0FFA3E0900080CFF0A3EFF090007E04
:1000BE00E025E0FE90007DE033900082F0A3CEF0CC
:1000CE00900080E0FEA3E0FF120E5F900082E0FE43
:1000DE00A3E0FF120B3D122A03122C0C122C1A1243
:1000EE002C2802027E300A4C90004FE4F0A304F05C
:1000FE00FB7A007D0A7C00FF7E0012244E90007C6D
:10010E00E0FF3395E0FEEF25E0FFEE33FE74F22FB5
:10011E00F58274FF3EF583E0FD74F12FF58274FFD6
:10012E003EF583E08DF0A4FF90007DE5F0F0A3EFA7
:10013E00F002025290007CE0FF3395E0FEEF25E0E6
:10014E00FFEE33FE74F22FF58274FF3EF583E0FD71
:10015E0074F12FF58274FF3EF583E08DF0A4FF90CD
:10016E00007DE0B5F019A3E0B50714D20A90004F58
:10017E00E4F0A304F0FB7A007D1E7C00FF804E901D
:10018E00007CE0FF3395E0FEEF25E0FFEE33FE74DA
:10019E00F22FF58274FF3EF583E0FD7C0090007D2A
:1001AE00E0FEA3E0FF1204AFED4C90004F7011F093
:1001BE00A37403F07B0A7A007D0A7C007F01800D18
:1001CE00E4F0A304F0FB7A007D0A7C00FF7E0012AF
:1001DE00244ED20B90007CE0FF3395E0FEEF25E03D
:1001EE00FFEE33FE74F22FF58274FF3EF583E0FDD1
:1001FE007C0090007DE0FEA3E0FF1204AFA3EFF0C1
:10020E0090007CE0FF3395E0FEEF25E0FFEE33FE3D
:10021E0074F22FF58274FF3EF583E0FD7C009000B2
:10022E007DE0FEA3E0FF1204AF900080ECF0A3EDA2
:10023E00F090007EE025E0FE90007DE0339000829D
:10024E00F0A3CEF090007FE0FF1210B2900080E09D
:10025E00FEA3E0FF120E5F900082E0FEA3E0FF120D
:10026E000B3D122C1390007CE0FF1228C1122C2F94
:10027E00122C36020414300A4D90004FE4F0A30401
:10028E00F0FB7A007D0A7C007FC87E0012244E901F
:10029E00007CE0FF3395E0FEEF25E0FFEE33FE74C9
:1002AE00F22FF58274FF3EF583E0FD74F12FF58297
:1002BE0074FF3EF583E08DF0A4FF90007DE5F0F035
:1002CE00A3EFF00203E590007CE0FF3395E0FEEF34
:1002DE0025E0FFEE33FE74F22FF58274FF3EF583B8
:1002EE00E0FD74F12FF58274FF3EF583E08DF0A4EE
:1002FE00FF90007DE0B5F019A3E0B50714D20A9087
:10030E00004FE4F0A304F0FB7A007D1E7C00FF801A
:10031E004F90007CE0FF3395E0FEEF25E0FFEE33DB
:10032E00FE74F22FF58274FF3EF583E0FD7C0090A3
:10033E00007DE0FEA3E0FF1204AFED4C90004F7085
:10034E0011F0A37403F07B0A7A007D0A7C007F0112
:10035E00800EE4F0A304F0FB7A007D0A7C007FC8D7
:10036E007E0012244ED20B90007CE0FF3395E0FE0F
:10037E00EF25E0FFEE33FE74F22FF58274FF3EF5AB
:10038E0083E0FD7C0090007DE0FEA3E0FF1204AF51
:10039E00A3EFF090007CE0FF3395E0FEEF25E0FF49
:1003AE00EE33FE74F22FF58274FF3EF583E0FD7C92
:1003BE000090007DE0FEA3E0FF1204AF900080EC01
:1003CE00F0A3EDF090007EE025E0FE90007DE0339E
:1003DE00900082F0A3CEF090007FE0FF1210B2905A
:1003EE000080E0FEA3E0FF120E5F900082E0FEA30D
:1003FE00E0FF120B3D122C1390007CE0FF1228C17F
:0C040E00122C28122C3D122C67122BF728
:01041A0022BF
:0C2B3200900090EBF0A3EAF0A3E9F02281
:0C2B3E00900093EBF0A3EAF0A3E9F02272
:102AEC00900090A3E0FAA3E0F94A600312071B22BE
:102AFC00900093A3E0FAA3E0F94A600312071B22AB
:1026A200EF4E602D900086EEF0A3EFF0AF05A3ECA5
:1026B200F0A3EFF0AF03A3EAF0A3EFF0E4A3F0A3DB
:1026C200F0A3F0A3F0900085F090008404F0122AA9
:0226D200EC22F8
:102A4800E4900084F0122AFC7B007A007900122BB3
:042A580032022B3EDD
:101845009000A0E0B40203022A48900084E07003EF
:10185500021903900088E0FEA3E0FF4E7003021911
:1018650003900085E07035D3EF9400EE94005003AB
:1018750002190390008CE475F001120504FED39063
:101885000087E095F0900086E09E5072122AFCE4F5
:1018950090008CF0A3F090008504F022900085E084
:1018A5006401705A90008C75F001120504FED39006
:1018B5000089E095F0900088E09E504290008AE013
:1018C500FEA3E0FF9400EE9400402590008EE475A1
:1018D500F001120504FCD3EF95F0EE9C5005E49061
:1018E5000084F0900084E07007900088F0A3F02257
:0F18F500E490008CF0A3F0900085F0122AEC2212
:0A2B6D00616463203D2025750A0015
:0424B600C10FC11081
:0B2B6200E47824F643B18053B27F22D8
:10232C009000A0E0B40202804B78240618E624FE4C
:10233C00601F1460291460322403703B7824E6C3B8
:10234C00940A4033E4F6300F04C20F800ED20F8093
:10235C00237824E6C39409401EE4F6022C05782465
:10236C00E6C394094011E4F6800A7824E6C3940984
:07237C004005E4F6122BFE00
:012383002237
:1025FE00C200D281AFC37825760008A60718E6FE82
:10260E0008E67802C333CE33CED8F9FF7825EEF63E
:10261E0008EFF6ADC2EE18F6EF4D08F6E5E220E44F
:09262E0004D2008002C200D210A7
:012637002280
:10240F0030870B782330D8037603227602223010E0
:10241F002DC210C37826E694FE18E6940178235057
:10242F00047601800276047BFF7A2B796D7825E69E
:0F243F00FF08E690004DCFF0A3EFF01208432204
:0424BA004100C3001A
:01005A002283
:032CA800D2EE2247
:102963009000C3E004F0E0FFB40402C281EFC3941B
:0B297300054008E49000C3F0122CA8FF
:01297E002236
:1026D400A2AF9211C2AF75C7AA75C75553A37FA203
:1026E4001192AF122925122705122C86122C8C1256
:1026F4002BA41228E312285712289E122ADBD2AFE9
:0127040022B2
:0224BE00C11249
:1028E30053ACFE43AD01C2B053CABF43CA2043CA6F
:1028F3001075D68075D78043CA80D2CBE4780FF6A3
:0129030022B1
:062C7A0043CB40D2B02262
:062C800053CBBFC2B022DD
:10244E00ED4C603A7811A60608A607AE04AF050853
:10245E00A60608A607AE02AF0308A60608A60790B2
:10246E00004FE0FEA3E0FF08A60608A607E408F664
:0F247E0008F608F608F67810F6187601D2122242
:072BCD00E4780FF6022C80F2
:012CB1002200
:10190400780FE670030219B57816E61846700302DC
:1019140019B57812E61846600808E616187001161C
:1019240022301205C212122C7A7810E6FF702ED3E0
:101934007816E6940018E69400407678190806E6CE
:10194400187001068604C3781496EC189640621247
:101954002C80E47819F608F67810760122EF6401F9
:10196400704F78190806E6187001068606C37816C3
:1019740096EE1896403B7817E6FE08E6FFD39400EF
:10198400EE94004020781B0806E6187001068604D1
:10199400C39FEC9E4004E4780FF6780FE670067857
:1019A40015F608F622E47819F608F67810F6122CE3
:0219B4007A2295
:092B77003086037F00227F012259
:092B80003085037F00227F012251
:092B89003084037F00227F012249
:092B92003083037F00227F012241
:0C2B4A002084062086037F01227F0022E9
:062C8600121A620229EAA5
:10001E00900045E0243AF582E43400F583EFF09049
:0D002E000045E004F0C3940A4002E4F02213
:10276000900045E0FF900044E0FEB507037F0022A3
:10277000743A2EF582E43400F583E0FF900044E0E3
:0927800004F0C3940A4002E4F0E5
:01278900222D
:10280700900045E0FFA3E0FEB507037F0022743A7E
:102817002EF582E43400F583E0FF900046E004F0F3
:07282700C3940A4002E4F033
:01282E002287
:102AB900EF75F00BA4240BF582E43400F583E0FFF5
:012AC90022EA
:10266E00EF75F00BA42409F582E43400F583ECF049
:10267E00A3EDF0EF75F00BA4240CF582E43400F515
:10268E0083EBF0EF75F00BA4240DF582E43400F526
:04269E0083E4F022BF
:092B9B00900045E0900044F02296
:1029EA0043B10853B2F743B11053B2EF43B1205386
:0929FA00B2DF43B14053B2BF2229
:101A6200E4900044F0A3F0A3F0FFEF75F00BA42480
:101A720009F582E43400F583E4F0A374C8F0EF754D
:101A8200F00BA42406F582E43400F5837402F0EF2F
:101A920075F00BA4240BF582E43400F583E4F0EF37
:101AA20075F00BA4240CF582E43400F583E4F0EF26
:101AB20075F00BA4240DF582E43400F583E4F00FF5
:101AC200EFB405A690000374FFF0A3742BF0A37487
:101AD20077F090000E74FFF0A3742BF0A37480F0E3
:101AE20090001974FFF0A3742BF0A37489F0900096
:101AF2002474FFF0A3742BF0A37492F090002F745F
:0A1B0200FFF0A3742BF0A3744AF067
:011B0C0022B6
:1012150090004AEFF0E075F00BA42403F974003553
:10122500F0FA7B01900000EBF0A3EAF0A3E9F012DD
:1012350006FB12071BEF7003021307900000E0FB8B
:10124500A3E0FAA3E0F990000312041BFFC3940581
:101255005008900003740502136BEFC3940A5008FD
:10126500900003740102044890000812041B7014D6
:101275009000080412048D90004AE075F003A40460
:10128500FF12001E900000E0FBA3E0FAA3E0F99036
:10129500000612051AFFAEF0D39400EE9400500339
:1012A50002136E90000412051AC39FE5F09E5023A9
:1012B500900004E475F001120552FCE5F06F700230
:1012C500EC6E600302136E90004AE075F003A424EF
:1012D50003802B90000912041BFFD39400500302D6
:1012E500136E90000A7401120448C39F407B90005E
:1012F5000AE412048D90004AE075F003A404FF028D
:10130500001E900000E0FBA3E0FAA3E0F9900003C3
:1013150012041BFFD39405400A90000374051204C0
:101325008D802BEF600A90000374FF120448801E25
:1013350090000812041BB40115900008E412048DF6
:1013450090004AE075F003A42402FF12001E9000ED
:1013550000E0FBA3E0FAA3E0F9900004E4F5F01245
:0A136500059F90000AE412048D2297
:10299B00E4900049F0900049E0FFC39405500B12FE
:0A29AB001215900049E004F080EBE3
:0129B50022FF
:092BA40053ACFB43AD04022CAE5E
:032CAB00C2B22290
:032CAE00D2B2227D
:10285700E4F5B475B3FFF5B675B5FFF5DB75DAFFCB
:10286700F5F975FA0475E5FF75E6FF75E70743F9AE
:0428770080022B0CA4
:0C2B0C00E4FF8FFBE4F5FC0FEFB413F6C0
:012B1800229A
:072BD40075FB0A53FCFE2211
:072BDB0075FB0A43FC012217
:072BE20075FB0C53FCFE2201
:072BE90075FB0C43FC012207
:072BF00075FB0853FCFE22F7
:072BF70075FB0843FC0122FD
:072BFE0075FB0E53FCFE22E3
:072C050075FB0E43FC0122E8
:072C0C0075FB1053FCFE22D2
:072C130075FB1043FC0122D8
:102A030075FB11E4F5FC75FB1053FCF175FB0FF539
:082A1300FC75FB0E53FCF122DF
:1010B200EFD394634003021214EF75F00A84FEEF3B
:1010C20075F00A84ADF0EFD39409500302116DEE6E
:1010D200B40A0040030211799010E1F82828730243
:1010E20010FF02110702110F02111D021125021138
:1010F2003302113B02114902115702115F75FB0EB7
:1011020075FC0A805E75FB0E53FCF1801C75FB0EAC
:1011120075FC0C75FB0F75FC0B805C75FB0E75FC8A
:1011220004804075FB0E75FC0675FB0F75FC06808E
:101132004675FB0E75FC06800675FB0E75FC0E757A
:10114200FB0F75FC0D803075FB0E53FCF175FB0F28
:1011520075FC07802275FB0E75FC0E800675FB0E72
:1011620075FC0675FB0F75FC0F800C75FB0E53FCAE
:10117200F175FB0FE4F5FCEDB40A00400302121412
:10118200901189F82828730211A70211AF0211B732
:101192000211C40211D10211DE0211E60211F302A0
:1011A200120002120875FB1043FC0A801B75FB102B
:1011B20053FCF1802075FB1043FC0C75FB1143FCC2
:1011C2000B2275FB1075FC0475FB1175FC0F227563
:1011D200FB1043FC0675FB1143FC062275FB104312
:1011E200FC06800675FB1043FC0E75FB1143FC0DDB
:1011F2002275FB1053FCF175FB1143FC072275FBB2
:101202001043FC0E800675FB1043FC0675FB114370
:02121200FC0FCF
:0112140022B7
:072C1A0075FB12E4F5FC223A
:072C210075FB1275FC0F2288
:1028C10075FB12EF24BE600E14600F146010240318
:1028D100700F43FC012243FC022243FC042243FC0F
:0228E1000822CB
:10287B0075FB0853FCF175FB09E4F5FC75FB0A537A
:10288B00FCF175FB0BF5FC75FB0C53FCF175FB0DAB
:03289B00F5FC2227
:040E5F00AB07AA062D
:100E6300D3EB94E7EA940340030210B17C007D6462
:100E7300AF03AE021204AF90004BEFF07C007D6431
:100E8300AF03AE021204AF7E007F0ACFCDCFCECC2C
:100E9300CE1204AF90004AEFF07C007D0AAF03AEA0
:100EA300021204AFA905D3EB9463EA940050030242
:100EB3000F52A3E0B40A004003020F5E900EC6F87F
:100EC300282873020EE4020EEC020EF4020F020253
:100ED3000F0A020F18020F20020F2E020F3C020FFF
:100EE3004475FB0875FC0A805E75FB0853FCF180B2
:100EF3001C75FB0875FC0C75FB0975FC0B805C7598
:100F0300FB0875FC04804075FB0875FC0675FB093E
:100F130075FC06804675FB0875FC06800675FB08A4
:100F230075FC0E75FB0975FC0D803075FB0853FCD1
:100F3300F175FB0975FC07802275FB0875FC0E80B3
:100F43000675FB0875FC0675FB0975FC0F800C75AF
:100F5300FB0853FCF175FB09E4F5FCD3EB9409EAB8
:100F63009400500302100F43E60443E60890004A3E
:100F7300E0B40A00400302101B900F83F828287383
:100F8300020FA1020FA9020FB1020FBF020FC70286
:100F93000FD5020FDD020FEB020FF902100175FBF3
:100FA3000A75FC0A805E75FB0A53FCF1801C75FB15
:100FB3000A75FC0C75FB0B75FC0B805C75FB0A75E5
:100FC300FC04804075FB0A75FC0675FB0B75FC067B
:100FD300804675FB0A75FC06800675FB0A75FC0ED8
:100FE30075FB0B75FC0D803075FB0A53FCF175FB2B
:100FF3000B75FC07802275FB0A75FC0E800675FBDA
:101003000A75FC0675FB0B75FC0F800C75FB0A5308
:10101300FCF175FB0BE4F5FCE9B40A004003021094
:10102300B190102BF82828730210490210510210B6
:101033005902106602106E02107B02108302109098
:1010430002109D0210A575FB0C75FC0A805A75FBF6
:101053000C53FCF1801B75FB0C75FC0C75FB0D75BB
:10106300FC0B2275FB0C75FC04803D75FB0C75FCB9
:101073000675FB0D75FC062275FB0C75FC068006D8
:1010830075FB0C75FC0E75FB0D75FC0D2275FB0CC9
:1010930053FCF175FB0D75FC072275FB0C75FC0EFB
:0E10A300800675FB0C75FC0675FB0D75FC0FC9
:0110B100221C
:072C280075FB0253FCFE22C4
:072C2F0075FB0243FC0122CA
:072C360075FB0453FCFE22B4
:072C3D0075FB0475FC012288
:072C440075FB0853FCFE22A2
:072C4B0075FB0843FC0122A8
:072C5200E4F5FB53FCFE2238
:072C5900E4F5FB43FC01223E
:10273300E4F5FB53FCF175FB01F5FC75FB0253FC5F
:10274300F175FB03F5FC75FB0453FCF175FB05F513
:0D275300FC75FB0653FCF175FB07F5FC223D
:040B3D00AB07AA0652
:100B4100D3EB940FEA94274003020E5E7C037DE809
:100B5100AF03AE021204AF90004CEFF07C037DE8CE
:100B6100AF03AE021204AF7E007F64CFCDCFCECCF7
:100B7100CE1204AF90004BEFF07C007D64AF03AE6A
:100B8100021204AF7E007F0ACFCDCFCECCCE1204AD
:100B9100AF90004AEFF07C007D0AAF03AE02120471
:100BA100AFA905D3EB94E7EA94035003020C4F90ED
:100BB100004CE0B40A004003020C5A900BC3F82821
:100BC1002873020BE1020BE9020BF1020BFF020C8D
:100BD10007020C15020C1D020C2B020C39020C41F0
:100BE100E4F5FB75FC0A805EE4F5FB53FCF1801C27
:100BF100E4F5FB75FC0C75FB0175FC0B805BE4F502
:100C0100FB75FC048040E4F5FB75FC0675FB017582
:100C1100FC068045E4F5FB75FC068006E4F5FB75F2
:100C2100FC0E75FB0175FC0D802FE4F5FB53FCF107
:100C310075FB0175FC078021E4F5FB75FC0E800650
:100C4100E4F5FB75FC0675FB0175FC0F800BE4F503
:100C5100FB53FCF175FB01F5FCD3EB9463EA9400C3
:100C61005003020D0590004BE0B40A004003020D51
:100C710011900C79F8282873020C97020C9F020C32
:100C8100A7020CB5020CBD020CCB020CD3020CE185
:100C9100020CEF020CF775FB0275FC0A805E75FB16
:100CA1000253FCF1801C75FB0275FC0C75FB03758E
:100CB100FC0B805C75FB0275FC04804075FB0275C2
:100CC100FC0675FB0375FC06804675FB0275FC0688
:100CD100800675FB0275FC0E75FB0375FC0D8030FB
:100CE10075FB0253FCF175FB0375FC07802275FB54
:100CF1000275FC0E800675FB0275FC0675FB03751B
:100D0100FC0F800C75FB0253FCF175FB03E4F5FC51
:100D1100D3EB9409EA94005003020DBC90004AE021
:100D2100B40A004003020DC8900D30F82828730260
:100D31000D4E020D56020D5E020D6C020D74020D78
:100D410082020D8A020D98020DA6020DAE75FB04FA
:100D510075FC0A805E75FB0453FCF1801C75FB0475
:100D610075FC0C75FB0575FC0B805C75FB0475FC53
:100D710004804075FB0475FC0675FB0575FC068057
:100D81004675FB0475FC06800675FB0475FC0E7543
:100D9100FB0575FC0D803075FB0453FCF175FB05FB
:100DA10075FC07802275FB0475FC0E800675FB043B
:100DB10075FC0675FB0575FC0F800C75FB0453FC77
:100DC100F175FB05E4F5FCE9B40A004003020E5E8F
:100DD100900DD8F8282873020DF6020DFE020E06BA
:100DE100020E13020E1B020E28020E30020E3D02ED
:100DF1000E4A020E5275FB0675FC0A805A75FB06F7
:100E010053FCF1801B75FB0675FC0C75FB0775FC2B
:100E11000B2275FB0675FC04803D75FB0675FC060F
:100E210075FB0775FC062275FB0675FC06800675C9
:100E3100FB0675FC0E75FB0775FC0D2275FB065351
:100E4100FCF175FB0775FC072275FB0675FC0E802E
:0D0E51000675FB0675FC0675FB0775FC0FAA
:010E5E002271
:072C600075FB0653FCFE2288
:072C670075FB0643FC01228E
:102ACA006D6574657220636F756E742025640D0AD6
:012ADA0000FB
:0224C000C11346
:0D2B190053DCEF43DD10122384439B0222A6
:0C2B5600E49000A5F0A3F0A3F0A3F0228F
:10238400C2DC43E90453E9FD43E90153EDFE43EDA7
:102394000243ED0443ED0853EDEF53EDDF53EDBF7E
:1023A40053ED7F53EAFE43EA0243EA0443EA085347
:1023B400EAEF53EADF53EABF53EA7FE4F5EB53EB6A
:0823C400FD53EBFB53EBF72284
:102A3300D2DC53EDFD53EDFB53EDF753EAFD53EABF
:052A4300FB53EAF7223D
:062C8C00122B19022B5669
:102A1B007BFF7A2A79CA9000A5E0FFA3E090004DD6
:082A2B00CFF0A3EFF002084315
:0515C600900047EFF06A
:1015CB00E49000A4F0122CAE900047E0FF146028CA
:1015DB0014604D240270739000A8E0FE700A900016
:1015EB00A7E06060E4F08062EEB40102802290001C
:1015FB00A8E06402705480219000A8E0FEB4010CB6
:10160B009000A7E06004E4F080408038EEB4020361
:10161B00E480249000A8E070319000A704F0802AA9
:10162B009000A8E0FEB4020C9000A7E06004E4F088
:10163B0080188010EE70069000A7F0800D9000A827
:10164B00E0B401069000A77401F09000A8EFF090B1
:10165B0000A7E060109000A6E004F070169000A5C3
:10166B00E004F0800E9000A6E024FFF09000A5E0CF
:10167B0034FFF0301314C39000A6E094059000A53E
:10168B00E0648094805019C21322D39000A6E0949A
:10169B000C9000A5E0648094804005D213122221A7
:0116AB00221C
:052C9200E4FF0215C67D
:052C97007F010215C6DB
:052C9C007F020215C6D5
:102ADB0053DC7F43DD807F807E257D007C000221DF
:012AEB006981
:102A820030F80BE59A12047BC2F8D2148002C21409
:022A9200A2148C
:012A9400221F
:0824C20041009D0041009E0055
:10289E0012297F5389F75389FB5389FD4389019090
:1028AE00009D74FCF0A37466F0758CFCF58AD2A9B9
:0328BE00D28C2297
:10297F00E4900096F0900098F090009AF0A3F090F9
:0C298F000097F0900099F090009CF0225E
:03000B00021F18B9
:101F1800C0E0C0F0C083C082C0D075D000C000C08F
:101F28000690009DE0F58CA3E0F58A900096E00409
:101F3800F0C3940A4005E4F0A304F0900098E0048C
:101F4800F0C394644005E4F0A304F090009AE475AB
:101F5800F001120504FEC3E5F094E8EE9403400A8C
:101F680090009AE4F0A3F0A304F0D006D000D0D0FB
:091F7800D082D083D0F0D0E03219
:102A950053897F5389BF4389205389EF758DCE753F
:032AA5008BCE22B3
:03001B00022CB202
:012CB20032EF
:1027050053B1FD43B202D28143E10175E80243B101
:102715000453B2FB43F60453E1BF43E12053E1EF19
:0E27250043E22043E240E4F5E4F5E3D2AE22C5
:10136F00EF14604414606F14700302140E147003B2
:10137F0002144A240460030214AEA2AF9211C2AF4A
:10138F0075C7AA75C755439780A21192AFA2AF92A6
:10139F0011C2AF75C7AA75C7555397BFA21192AFA8
:1013AF00E59630E7FB021475A2AF9211C2AF75C775
:1013BF00AA75C75553977FA21192AFA2AF9211C2D0
:1013CF00AF75C7AA75C755439740A21192AFE5965F
:1013DF0030E6FB021475A2AF9211C2AF75C7AA75A2
:1013EF00C755439720A21192AFE59630E5FBA2AF08
:1013FF009211C2AF75C7AA75C7555396FB8027A226
:10140F00AF9211C2AF75C7AA75C755439710A211F6
:10141F0092AFE59630E4FBA2AF9211C2AF75C7AAA7
:10142F0075C755439604A21192AFA2AF9211C2AFE6
:10143F0075C7AA75C7555396FD804DA2AF9211C2BD
:10144F00AF75C7AA75C75553977FA21192AFA2AFB9
:10145F009211C2AF75C7AA75C7555397BFA2119204
:10146F00AFE59630E3FBA2AF9211C2AF75C7AA7575
:10147F00C7555396FBA21192AFA2AF9211C2AF758F
:10148F00C7AA75C755439602A21192AFA2AF921188
:10149F00C2AF75C7AA75C7555396FEA21192AFE595
:0514AF009720E0FB2284
:1027DE0075985243892053877F538EEF53C4DFABD6
:1027EE0007AA06A905A804E47F807E70FDFC1206E8
:0927FE0008EFF404F58DD28E22DF
:10282F00759852438920438780538EEF53C4DFAB93
:10283F0007AA06A905A804E4FF7EE1FDFC1206081D
:08284F00EFF404F58DD28E2296
:10278A0075985243892053877F438E1053C4DFAB19
:10279A0007AA06A905A8047F007E467D057C0012CB
:0A27AA000608EFF404F58DD28E222C
:1027B400759852438920438780438E1053C4DFABFE
:1027C40007AA06A905A8047F007E8C7D0A7C001256
:0A27D4000608EFF404F58DD28E2202
:101F81009000A91206BE75985253877F53C4F84337
:101F9100C4209000A9E0F8A3E0F9A3E0FAA3E0FBD4
:101FA1007F007E467D057C00120608C3E49FFFE4A6
:101FB1009EFE74019DFDE49CFC78081206AB8FC661
:101FC1009000A9E0F8A3E0F9A3E0FAA3E0FB7F0009
:101FD1007E467D057C00120608C3E49FFF8FC54342
:031FE100C408220F
:101FE4009000AD1206BE75985243878053C4F843DF
:101FF400C4209000ADE0F8A3E0F9A3E0FAA3E0FB6D
:102004007F007E8C7D0A7C00120608C3E49FFFE4F7
:102014009EFE74019DFDE49CFC78081206AB8FC6FD
:102024009000ADE0F8A3E0F9A3E0FAA3E0FB7F00A1
:102034007E8C7D0A7C00120608C3E49FFF8FC54393
:03204400C40822AB
:102169009000491206BE75F85253C4F8900049E030
:10217900F8A3E0F9A3E0FAA3E0FB7F007E8C7D0AD7
:102189007C00120608C3E49FFFE49EFE74019DFDD6
:10219900E49CFC78081206AB8FC6900049E0F8A3CE
:1021A900E0F9A3E0FAA3E0FB7F007E8C7D0A7C00C6
:0D21B900120608C3E49FFF8FC543C408222F
:072BAD003098FDAF99C298BA
:012BB40022FE
:082BB500C2998F993099FD22AD
:072BBD0030F8FDAF9AC2F8E9
:012BC40022EE
:082BC500C2F98F9A30F9FD22DC
:1029B600E4F5B1F5B2F5B3F5B4F5B5F5B6F5ACF5A4
:0A29C600ADF5DAF5DBF5DCF5DD22F6
:1029250075B1FFE4F5B275B3FFF5B475B5FFF5B64E
:1029350075ACFFF5AD75DAFFF5DB75DCFFF5DD226E
:1029D00075C7AA75C755A2AF9211C2AF75C7AA75C0
:0A29E000C755439F80A21192AF2259
:042CA10043AD80229D
:1025C100EF640A701C30F811E59AB4130CC2F830AC
:1025D100F8FDE59AB411F6C2F830F9FDC2F9759A21
:1025E1000D30F811E59AB4130CC2F830F8FDE59AF4
:0D25F100B411F6C2F830F9FDC2F98F9A223C
:061C430090FFF8120721DA
:101C4900850D83850E821206CA00000000E47FFF1D
:101C59007EFFFDFC850D83850E82E0F8A3E0F9A3E4
:101C6900E0FAA3E0FBC312069A504C900004120755
:101C790045E0FCA3E0FDA3E0FEA3E02401FFE43E70
:101C8900FEE43DFDE43CFC9000041207451206BE4B
:101C9900850D83850E82E0FCA3E0FDA3E0FEA3E0B1
:101CA9002401FFE43EFEE43DFDE43CFC850D838513
:071CB9000E821206BE8096A8
:061CC0009000080207215C
:10290400538EF7438901D28CEF4E6012758AF775A6
:102914008CFF308DFDC28DEF1F70ED1E80EAC28CDE
:012924002290
:10227A009000B11206BE538EF7438901D28CE4FF57
:10228A00FEFDFC9000B1E0F8A3E0F9A3E0FAA3E0B8
:10229A00FBC312069A602F758A65758CFC308DFD1A
:1022AA00C28D9000B1E0FCA3E0FDA3E0FEA3E02410
:1022BA00FFFFEE34FFFEED34FFFDEC34FFFC90002F
:0922CA00B11206BE80B8C28C22DC
:1022D3009000B51206BE538EEF438910D28EE4FFF1
:1022E300FEFDFC9000B5E0F8A3E0F9A3E0FAA3E05B
:1022F300FBC312069A602F758B65758DFC308FFDBD
:10230300C28F9000B5E0FCA3E0FDA3E0FEA3E024B0
:10231300FFFFEE34FFFEED34FFFDEC34FFFC9000D5
:09232300B51206BE80B8C28E227C
:1021C6009000B91206BE75C40243C408E4FFFEFDC2
:1021D600FC9000B9E0F8A3E0F9A3E0FAA3E0FBC3A2
:1021E60012069A603275C53375C6F5E5C430E4FB50
:1021F60053C4EF9000B9E0FCA3E0FDA3E0FEA3E02A
:1022060024FFFFEE34FFFEED34FFFDEC34FFFC90BF
:0B22160000B91206BE80B553C4F722C9
:1020A9009000BD1206BE538FFB538FFD538FFEE484
:1020B900F586538FDF438F08E4FFFEFDFC9000BDDA
:1020C900E0F8A3E0F9A3E0FAA3E0FBC312069A60E3
:1020D9002CE58F30E4FB538FEF9000BDE0FCA3E0CB
:1020E900FDA3E0FEA3E024FFFFEE34FFFEED34FF85
:1020F900FDEC34FFFC9000BD1206BE80BB538FF788
:0121090022B3
:1014B4000A3D3D3D3D3D3D3D3D3D3D3D3D3D3D3D8B
:1014C4003D3D3D3D3D3D3D3D3D3D3D3D3D3D3D3D48
:1014D4003D3D3D3D3D3D3D3D3D3D3D3D3D3D3D3D38
:1014E4003D3D3D3D3D3D3D3D3D3D3D3D3D3D3D3D28
:1014F4003D3D3D3D3D000A2A2020436F70797269CD
:101504006768742863292032303135204E75766F30
:10151400746F6E20546563686E6F6C6F67792043D7
:101524006F72702E20416C6C20726967687473202E
:1015340072657365727665642E2020000A2A202065
:10154400436F6E7461637420452D4D61696C3A205C
:101554004D6963726F432D38626974406E75766F9E
:10156400746F6E2E636F6D20202020202020202099
:101574002020202020202020202020202020202067
:1015840020000A2A202044656D6F20566572736915
:101594006F6E20203A202532642E2532642E2532A7
:1015A40064000A2A202046696E69736865642044D1
:1015B400617465203A202532642E2532642E25324A
:0215C4006400C1
:10210A007BFF7A1479B41208437BFF7A1479FA12A6
:10211A0008437BFF7A1579401208437BFF7A1579C9
:10212A008690004DE4F0A304F0E4A3F0A3F0A3F03A
:10213A00A3F01208437BFF7A1579A690004D740725
:10214A00F0A374DFF0A3E4F0A37405F0A3E4F0A312
:0F215A00741FF01208437BFF7A1479B402084314
:03000000021BA937
:101BA900787FE4F6D8FD9000007FFF7E01E4F0A382
:0A1BB900DFFCDEFA758126021BFE38
:101BC300021DC5E493A3F8E493A34003F68001F256
:101BD30008DFF48029E493A3F85407240CC8C33323
:101BE300C4540F4420C8834004F456800146F6DFF2
:101BF300E4800B010204081020408090248DE47ED1
:101C0300019360BCA3FF543F30E509541FFEE493E6
:101C1300A360010ECF54C025E060A840B8E493A3AD
:101C2300FAE493A3F8E493A3C8C582C8CAC583CAD8
:101C3300F0A3C8C582C8CAC583CADFE9DEE780BE90
:0124CA000011
:10041B00BB010CE58229F582E5833AF583E0225096
:10042B0006E92582F8E622BBFE06E92582F8E222E0
:0D043B00E58229F582E5833AF583E49322FA
:10044800BB010FF8E58229F582E5833AF583E028B8
:10045800F0225009C58229F8E58226F622BBFE095A
:10046800C58229F8E22582F222F8EA2583F583E994
:03047800932822A4
:10047B00BB010689828A83F0225002F722BBFE0160
:02048B00F3225A
:10048D00F8BB010DE58229F582E5833AF583E8F0A5
:10049D00225006E92582C8F622BBFE05E92582C851
:0204AD00F22239
:1004AF00BC000BBE0029EF8DF084FFADF022E4CC31
:1004BF00F875F008EF2FFFEE33FEEC33FCEE9DECFA
:1004CF00984005FCEE9DFE0FD5F0E9E4CEFD22ED40
:1004DF00F8F5F0EE8420D21CFEADF075F008EF2F8A
:1004EF00FFED33FD4007985006D5F0F222C398FD7B
:0504FF000FD5F0EA2218
:10050400C5F0F8A3E028F0C5F0F8E5821582700282
:060514001583E038F0221F
:10051A00BB0110E58229F582E5833AF583E0F5F01F
:10052A00A3E0225009E92582F886F008E622BBFEFC
:10053A000AE92582F8E2F5F008E222E5832AF58342
:08054A00E993F5F0A3E9932207
:10055200BB010DC58229C582C5833AC58302050444
:100562005011C58229F808E5F026F618F5F0E58263
:1005720036F622BBFE11C58229F808E225F0F5F015
:10058200F218E23582F222F8E58229F582E5832A21
:0D059200F58374019325F0F5F0E493382211
:10059F00F8BB0111E58229F582E5833AF583E8F08E
:1005AF00E5F0A3F0225009E92582C8F608A6F0224B
:0D05BF00BBFE09E92582C8F2E5F008F22232
:1005CC0075F008758200EF2FFFEE33FECD33CDCCE6
:1005DC0033CCC58233C5829BED9AEC99E582984069
:1005EC000CF582EE9BFEED9AFDEC99FC0FD5F0D646
:1005FC00E4CEFBE4CDFAE4CCF9A88222B800C1B970
:10060C000059BA002DEC8BF084CFCECDFCE5F0CBAD
:10061C00F97818EF2FFFEE33FEED33FDEC33FCEBE6
:10062C0033FB10D703994004EB99FB0FD8E5E4F9A1
:10063C00FA227818EF2FFFEE33FEED33FDEC33FC8E
:10064C00C933C910D7059BE99A4007EC9BFCE99A82
:10065C00F90FD8E0E4C9FAE4CCFB2275F010EF2FC7
:10066C00FFEE33FEED33FDCC33CCC833C810D707C7
:10067C009BEC9AE899400AED9BFDEC9AFCE899F802
:0E068C000FD5F0DAE4CDFBE4CCFAE4C8F92295
:10069A00EB9FF5F0EA9E42F0E99D42F0E89C45F0B6
:0106AA00222D
:1006AB00E8600FECC313FCED13FDEE13FEEF13FF2D
:0306BB00D8F12251
:0C06BE00ECF0A3EDF0A3EEF0A3EFF022AF
:1006CA00A8828583F0D083D0821206E11206E11255
:1006DA0006E11206E1E473E493A3C583C5F0C5837A
:1006EA00C8C582C8F0A3C583C5F0C583C8C582C87A
:0106FA0022DD
:1006FB00BB010789828A830207745005E9F8020758
:10070B006BBBFE05E9F802079D89828A830207A667
:06071B008A838982E47369
:10072100E50E2582F582E50D3583F583B50D04854A
:10073100820E2210AF0685820EF50D2285820EF5FE
:040741000DD2AF2204
:0D074500E50E2582F582E50D3583F5832252
:1007D800E508244DF582E43400F583E0050822900D
:1007E800004A30080390004DE475F00112077D02BD
:1007F80007522001E97F2ED2018018EF540F249070
:10080800D43440D4FF30050BEF24BFB41A00500392
:100818002461FFE50960021509050CE50C70020565
:100828000B30080E90004AE475F00112077DEF02C4
:10083800047B0225C17403D2088003E4C208F508CA
:1008480090004A120794E4F509F50BF50CE50960E8
:10085800077F2012081B80F5750AFFC202C201C279
:1008680003C204C206C207C2091207E7FF700D30AF
:1008780008057F0012082CAF0CAE0B22B4255FC20E
:10088800D5C2051207E7FF24D0B40A00501A75F044
:100898000A780930D50508B6FF0106C6A426F62051
:1008A800D5047002D20480D924CFB41A00EF5004C2
:1008B800C2E5D205020A2DD20280C6D20180C0D27A
:1008C8000380BCD2D580BAD20680B47F2012081B20
:1008D8002003077401B5090040F11207D8FF120878
:1008E8001B020855D209D20780951207D8FB1207B8
:1008F800D8FA1207D8F94A4B700679FE7A0A7BFFB4
:1009080020032EE509602A7E008E8275830012047A
:100918001B60060EEE650A70F0C2D5EBC0E0EAC0B7
:10092800E0E9C0E0EE120A74D0E0F9D0E0FAD0E0D5
:10093800FB120752FF60AAEBC0E0EAC0E0E9C0E0A2
:1009480012081BD0E02401F9D0E03400FAD0E0FB13
:10095800E50A0460DCD50AD980877BFF7A0A7970BA
:10096800D203809C791080027908C207C2098008E6
:10097800D2D5790A8004790AC2D5E50A047002F54D
:100988000AE4FAFDFEFF1207D8FC7B0820021312C6
:1009980007D8FD7B1030010A1207D8FE1207D8FFCE
:1009A8007B20EC3382D592D55013C3E43001069FE7
:1009B800FFE49EFEE42002039DFDE49CFCE4CBF8EA
:1009C800C202EC700CCFCECDCCE824F8F870F380DE
:1009D80017C3EF33FFEE33FEED33FDEC33FCEB339F
:1009E800FB994002FB0FD8E9EB300205F8D0E0C4D0
:1009F80048B202C0E00AEC4D4E4F78207B0070C22E
:100A0800EAB50A0040BCC0E0120A76D0F0D0E02077
:100A18000204C4C0E0C4B202C0F0120804D0F0D589
:100A2800F0EB0208551207B208F253096C5808C3D4
:100A38004C08BF4209704F09784409784908D843DF
:080A4800097E550962460962AE
:100A5000450962470B1E5008C72D08CB2E08EE2B08
:100A600008CF2308EC200B072A088748000008E677
:100A70003F3F3F00790AA2D5200414300609B9107F
:100A8000020404B9080104A2D52007025001042081
:100A900003689203B509005034C0E07F2030041988
:100AA0007F30A20372077206500F120ACDC203C232
:100AB00007C206C2097F30800F300603E9C0E0128A
:100AC000081B300603D0E0F9D0E0B509CC3006179A
:100AD0007F30B9100C12081B7F583005077F7880D3
:100AE00003B9080312081B3003057F2D02081B7F82
:100AF000202009F87F2B2007F322920380CF286E55
:100B0000756C6C2900D2021207D83002F8C2027844
:100B10000930D50108F60208872D504349581207BD
:100B2000D82403B405004001E4900B199312080C7B
:0D0B3000743A12080CD20475090402096C15
:10075200BB010689828A83E0225002E722BBFE02A5
:09076200E32289828A83E49322D8
:09076B00E6FB08E6FA08E6F922B3
:09077400E0FBA3E0FAA3E0F92286
:10077D00F8E0FBA3A3E0F925F0F0E5821582700205
:07078D001583E0FA38F022A9
:09079400EBF0A3EAF0A3E9F02266
:09079D00E2FB08E2FA08E2F9228D
:0C07A600E493FB740193FA740293F922AF
:1007B200D083D082F8E4937012740193700DA3A3D6
:1007C20093F8740193F5828883E4737402936860EA
:0607D200EFA3A3A380DFEA
:00000001FF
