:102DB3004920616D20726573757267656E63650A7C
:012DC300000F
:0826C4004100C3004100C40005
:03005B0002288AEE
:10288A00C0E0C0F0C083C082C0D075D000C000C014
:10289A0001C002C003C004C005C006C00712290453
:1028AA00C2EFD007D006D005D004D003D002D001A1
:0D28BA00D000D0D0D082D083D0F0D0E0325A
:03003B000222DBC3
:1022DB00C0E0C0F0C083C082C0D075D000C000C0C9
:1022EB0001C002C003C004C005C006C007E5EC3046
:1022FB00E60A9000A3E0B402037403F0E5EC30E1CE
:10230B0003122FA7E5EC30E203122FA2E5EC30E32A
:10231B0003122FAC75EC00D007D006D005D004D03B
:10232B0003D002D001D000D0D0D082D083D0F0D057
:02233B00E0328E
:101FE0007F021215991229D8122C6B12280E122E6C
:101FF000617BFF7A2D79B3120D0490009AE060089E
:10200000E4F0121B0F122CA590009CE0600EE4F08F
:1020100012293E12233D122624121A5090009FE0EE
:02202000602638
:10202200E4F012284C12000E1227CF12003E122D9D
:10203200269000C4E004F0E0D394034009740AF04F
:062042009000C3E004F071
:10204800122A64900048EFF060A8E0FF1217F080B1
:01205800A1E6
:101F6300706F776572206F6E0A006F66662062720B
:101F7300696768740A00706F776572206F66660A16
:101F830000504F574552206C6F6E670A006B65799E
:101F930020706F776572206F66660A00434C454177
:101FA3005220636C69636B0A00434C454152206CB9
:101FB3006F6E670A0053455420636C69636B0A00B4
:101FC300534554206C6F6E670A004F4B20636C6956
:0D1FD300636B0A004F4B206C6F6E670A00B5
:0C26CC004100A700C1104100A200C10F96
:10280E00122D7A12267C9000A57401F09000A3F090
:10281E00A37404F09000A67441F01220D2122D532E
:10282E007BFF7A1D791A122E3D7BFF7A2179421297
:0E283E002E49E4FBFA7D04FC7F04FE0229A66D
:102D670053E9FB53E9FD53E9FE43ED4043EA405382
:032D7700EBBF228D
:102D7A0053E9FB53E9FD53E9FE53EDBF53EABF5351
:032D8A00EBBF227A
:1020D2009000A5E024FE6027146044240270601280
:1020E2002D0DE4FFFE120FFEE4FFFE1208F8122F80
:1020F20007122F1C122F2A122F77122F38801D122F
:102102002F23122F077F41122BC77F42122BC77F2B
:1021120043122BC77F44122BC7122F77022F46126E
:102122002F23122F077F41122BC77F42122BC77F0B
:1021320043122BC77F44122BC7122F77122F38223C
:101D1A00122F079000A4E024FE601D046003021D38
:101D2A00B39000A5E024FE6005146007807B122FA3
:101D3A003F8076122F4D80719000A6E024BF600F7D
:101D4A0014601914602314602D2444703D803B9064
:101D5A000076E0FF1212A59000778025900078E0C7
:101D6A00FF1212A5900079801890007AE0FF1212F3
:101D7A00A590007B800B90007CE0FF1212A59000DA
:101D8A007DE0FF7E00120FFE80069000A67441F0EF
:101D9A009000A5E0B40205122F3F800A9000A5E04A
:0C1DAA00B40303122F4D122F31022F073B
:102142009000A4E024FE600804705E122F388056CE
:102152009000A6E07003122F2A9000A6E0B4410876
:10216200122F2A7F41122BC79000A6E0B442081218
:102172002F2A7F42122BC79000A6E0B44308122FE9
:102182002A7F43122BC79000A6E0B44408122F2ADC
:102192007F44122BC79000A5E0B40203022F3890AF
:0A21A20000A5E0B40303122F46224B
:10198A009000A4E024FE6009146035146039021A3C
:10199A004F7F41122BC77F42122BC77F43122BC79F
:1019AA007F44122BC7E4FF1212A5E4FFFE120FFEBA
:1019BA00E4FFFE1208F8122F779000A47401F022B7
:1019CA009000A47402F022E4900080F0A3F090004A
:1019DA0085F0A3F0900080E0FEA3E0FF120FFE90D6
:1019EA000085E0FEA3E0FF1208F89000A5E024FEBF
:1019FA00601B1460342402704C122F07122F1C1221
:101A0A002D0D122F2A122F77122F388019122F0715
:101A1A00122F23E4FF1212A590007FE0FF122BC7BA
:101A2A00122F77122F3F022F46122F07122F23E46D
:101A3A00FF1212A590007FE0FF122BC7122F771218
:061A4A002F38122F4D227F
:102708009000A4E024FE60061460312402229000A8
:10271800A47401F07F41122BC77F42122BC77F435D
:10272800122BC77F44122BC7E4FF1212A5E4FFFE49
:10273800120FFEE4FFFE1208F8022F779000A4742F
:0327480002F0227A
:10274B009000A4E024FC60028038E4900082F0A3A7
:10275B00F0A3F0A3F0A3F0900080F0A3F0A3E0FFB0
:10276B001212A5900083E0FEA3E0FF120FFE900073
:10277B0085E0FEA3E0FF1208F8122EDD9000A47492
:03278B0003F02236
:101BC3009000A4E024FE6065046003021C6E900094
:101BD300A5E024FE601114603924026003021C6E28
:101BE3009000A5740280059000A57403F0E4FF1231
:101BF30012A5122F23122F077F41122BC77F4212E8
:101C03002BC77F43122BC77F44122BC7122F770298
:101C13002F469000A57401F0122F07122F1C122FCC
:101C23002A122F77122F38122F46022D0D9000A55E
:101C3300E024FE600514601A80319000A6E0700273
:101C430080269000A6E004F0E0D3648094C4401B97
:101C530080169000A6E07002800E9000A6E004F0CB
:0C1C6300E0D3648094C440037441F0227C
:102059009000A4E024FC6002806E9000A5E0B40129
:102069000A7402F09000A414F0800E90007EE090B3
:1020790000A5F09000A47402F0E4900082F0A3F0AF
:10208900A3F0A3F0A3F0900080F0A3F0A3E0FF1267
:1020990012A5900083E0FEA3E0FF120FFE900085D9
:1020A900E0FEA3E0FF1208F8122F77122F23122F58
:1020B900077F41122BC77F42122BC77F43122BC7C1
:0920C9007F44122BC7122EDD2208
:101E50009000A4E024FE6046046003021EDF9000B0
:101E6000A5E024FE600F14601D240270289000A4D9
:101E70007403F080209000A47402F0122F23122F1C
:101E80003F122F46800F9000A47402F0122F2312ED
:101E90002F38122F4D90007FE09000A6F022900086
:101EA000A5E024FE600514600A800E122F3F122F59
:101EB000468006122F4D122F389000A5E090007E2C
:101EC000F09000A6E090007FF0E4A3F0A3F0900073
:101ED000A47403F0122F2A9000A6E0FF122BC72251
:080003009000A4E0FF022CDADA
:032FB500022CDA11
:062F7E00122FBB022E23FE
:10293E009000A3E0640270269000A2E004F0E0C3D1
:10294E009402401FE4F0122F84122D3E122D674385
:10295E0087027BFF7A1F7963120D04022FB5E49074
:03296E0000A2F0D4
:012971002243
:10284C009000A7E004F0E0FF7E00BE0111BF900EE7
:10285C00D210122FBB7BFF7A1F796D020D049000F2
:10286C00A7E0FF7E00BE0115BFF412122F7E7BFF86
:0E287C007A1F7979120D049000A37402F022E5
:062F8400E49000A7F0221A
:0517F000900049EFF03C
:1017F500122F8430100C9000A3E0B40105C2100232
:101805002FBE900049E024FDB40A0040030218C22F
:1018150090182375F003A4C58325F0C583730218BA
:10182500420218C20218620218740218C202188213
:101835000218940218C20218A20218B4227BFF7A79
:101845001F7984120D049000A3E06401706F740287
:10185500F07BFF7A1F7990120D04022F7E300F0363
:10186500C20F227BFF7A1F799F120D040227087B86
:10187500FF7A1F79AC120D04D20F02274B300F03EC
:10188500C20F227BFF7A1F79B8120D04021BC37B9E
:10189500FF7A1F79C3120D04D20F022059300F03AE
:1018A500C20F227BFF7A1F79CD120D04021E507BD9
:0D18B500FF7A1F79D7120D04D20F12000325
:0118C2002203
:102C2B00636F6163682073657420626565700A0069
:102C3B00636F6163682067657420626565700A0065
:1026D8004800760A1414191E1E322841007500C1DC
:0D26E8000DC10CC10E41007400C10AC10BF0
:102C6B0090007E7401F0A37441F0E4A3F0A3F0A3F1
:0E2C7B00F0A3F0A3F0A3F0A3F0900075F022F8
:1024BC009000A4E0FFB40423900081E004F07006C7
:1024CC00900080E004F0D3900081E09410900080A4
:1024DC00E094274004E4F0A3F0D20DEFB4032B906A
:1024EC0000A47404F0900081E004F0700690008069
:1024FC00E004F0D3900081E09410900080E09427E9
:0B250C004004E4F0A3F0C20ED20D2248
:0D000E00900075E0C394FF5003E004F02261
:10233D00300D36C20D122F849000A4E0B404282075
:10234D000E20D20E90007EE024FD60028014E490F9
:10235D000052F0A3F07B2C7A017D0AFC7F01FE1266
:10236D00278E1205118002C20E300C20900074E0F1
:10237D0004F0E0D394064019C20C7BFF7A2C792B24
:10238D00120D047B007A00790F022E16E490007472
:01239D00F04F
:01239E00221C
:1005110090007EE024FE70030205A314700302071D
:1005210034240260030208F7900080E0FEA3E0FF9C
:100531007C007D0A1201E8ED4C900052700BF0A393
:1005410004F0FB7A007D1E800AE4F0A304F0FB7A3C
:10055100007D0A7C00FF7E0012278E900080E0FF64
:10056100A3E0900083CFF0A3EFF0900081E025E0BD
:10057100FE900080E033900085F0A3CEF0900083E0
:10058100E0FEA3E0FF120FFE900085E0FEA3E0FF76
:100591001208F8122D0D122F1C122F2A122F3802B9
:1005A100072E300A4C900052E4F0A304F0FB7A00CD
:1005B1007D0A7C00FF7E0012278E90007FE0FF33D2
:1005C10095E0FEEF25E0FFEE33FE74F52FF5827422
:1005D100FF3EF583E0FD74F42FF58274FF3EF58351
:1005E100E08DF0A4FF900080E5F0F0A3EFF00207AA
:1005F1000290007FE0FF3395E0FEEF25E0FFEE3350
:10060100FE74F52FF58274FF3EF583E0FD74F42F3F
:10061100F58274FF3EF583E08DF0A4FF900080E049
:10062100B5F019A3E0B50714D20A900052E4F0A383
:1006310004F0FB7A007D1E7C00FF804E90007FE07D
:10064100FF3395E0FEEF25E0FFEE33FE74F52FF565
:100651008274FF3EF583E0FD7C00900080E0FEA304
:10066100E0FF1201E8ED4C9000527011F0A3740309
:10067100F07B0A7A007D0A7C007F01800DE4F0A303
:1006810004F0FB7A007D0A7C00FF7E0012278ED2E7
:100691000B90007FE0FF3395E0FEEF25E0FFEE33A6
:1006A100FE74F52FF58274FF3EF583E0FD7C00902A
:1006B1000080E0FEA3E0FF1201E8A3EFF090007FCD
:1006C100E0FF3395E0FEEF25E0FFEE33FE74F52FFA
:1006D100F58274FF3EF583E0FD7C00900080E0FE32
:1006E100A3E0FF1201E8900083ECF0A3EDF090008D
:1006F10081E025E0FE900080E033900085F0A3CEFC
:10070100F0900082E0FF1212A5900083E0FEA3E0CA
:10071100FF120FFE900085E0FEA3E0FF1208F81221
:100721002F2390007FE0FF122BC7122F3F122F467D
:100731000208F1300A4D900052E4F0A304F0FB7A74
:10074100007D0A7C007FC87E0012278E90007FE02A
:10075100FF3395E0FEEF25E0FFEE33FE74F52FF554
:100761008274FF3EF583E0FD74F42FF58274FF3E41
:10077100F583E08DF0A4FF900080E5F0F0A3EFF0A9
:100781000208C290007FE0FF3395E0FEEF25E0FF15
:10079100EE33FE74F52FF58274FF3EF583E0FD74B0
:1007A100F42FF58274FF3EF583E08DF0A4FF9000F5
:1007B10080E0B5F019A3E0B50714D20A900052E425
:1007C100F0A304F0FB7A007D1E7C00FF807C90008A
:1007D1007FE0FF3395E0FEEF25E0FFEE33FE74F599
:1007E1002FF58274FF3EF583E0FD7C00900080E0F0
:0B07F100FEA3E0FF1201E8ED4C705485
:1007FC00F9900049C9F0A3F0A3E9F0D20C122ED65F
:10080C00900049EBF0A3EAF0A3E9F0780F7C007DAF
:10081C0000900049E0FBA3E0FAA3E0F97E007F0F13
:10082C0012012E7BFF7A2C793B120D04900052E4BE
:10083C00F0A37403F07B0A7A007D0A7C007F017EB2
:04084C000012278EE1
:10085000D20B90007FE0FF3395E0FEEF25E0FFEE46
:1008600033FE74F52FF58274FF3EF583E0FD7C00C6
:10087000900080E0FEA3E0FF1201E8A3EFF09000FB
:100880007FE0FF3395E0FEEF25E0FFEE33FE74F5E9
:100890002FF58274FF3EF583E0FD7C00900080E040
:1008A000FEA3E0FF1201E8900083ECF0A3EDF090CE
:1008B0000081E025E0FE900080E033900085F0A309
:1008C000CEF0900082E0FF1212A5900083E0FEA31C
:1008D000E0FF120FFE900085E0FEA3E0FF1208F893
:1008E000122F2390007FE0FF122BC7122F38122FF8
:0708F0004D122F77122F07B4
:0108F70022DE
:0C2E3D00900093EBF0A3EAF0A3E9F02270
:0C2E4900900096EBF0A3EAF0A3E9F02261
:102DE600900093A3E0FAA3E0F94A60031204542288
:102DF600900096A3E0FAA3E0F94A60031204542275
:1029A600EF4E602D900089EEF0A3EFF0AF05A3EC9B
:1029B600F0A3EFF0AF03A3EAF0A3EFF0E4A3F0A3D4
:1029C600F0A3F0A3F0900088F090008704F0122D99
:0229D600E622F7
:102D5300E4900087F0122DF67B007A007900122EA2
:042D63003D022E49B6
:101A50009000A3E0B40203022D53900087E07003CE
:101A6000021B0E90008BE0FEA3E0FF4E7003021BF2
:101A70000E900088E07035D3EF9400EE9400500390
:101A8000021B0E90008FE475F00112023DFED39010
:101A9000008AE095F0900089E09E5072122DF6E4E5
:101AA00090008FF0A3F090008804F022900088E06E
:101AB0006401705A90008F75F00112023DFED390C0
:101AC000008CE095F090008BE09E504290008DE0FD
:101AD000FEA3E0FF9400EE94004025900091E47591
:101AE000F00112023DFCD3EF95F0EE9C5005E4901E
:101AF0000087F0900087E0700790008BF0A3F02241
:0F1B0000E490008FF0A3F0900088F0122DE62201
:0A2E6C00616463203D2025750A0013
:0426F500C111C1123C
:0B2E6100E47833F643B18053B27F22C7
:102624009000A3E0B40202804B78330618E624FE3F
:10263400601F1460291460322403703B7833E6C3AE
:10264400940A4033E4F6301104C211800ED2118092
:10265400237833E6C39409401EE4F6022F15783339
:10266400E6C394094011E4F6800A7833E6C394097A
:072674004005E4F6122F0EF1
:01267B00223C
:10290400C200D281AFC37834760008A60718E6FE69
:1029140008E67802C333CE33CED8F9FF7834EEF626
:1029240008EFF6ADC2EE18F6EF4D08F6E5E220E446
:0929340004D2008002C200D2129C
:01293D002277
:1027CF0030870B783230D80376032276022230120C
:1027DF002DC212C37835E694FE18E6940178325074
:1027EF00047601800276047BFF7A2E796C7834E6CA
:0F27FF00FF08E690004FCFF0A3EFF0120D042279
:0426F9004100C500D7
:01005A002283
:032FB800D2EE2234
:10003E009000C5E004F0E0FFB40402C281EFC39467
:0B004E00054008E49000C5F0122FB838
:010059002284
:1029D800A2AF9213C2AF75C7AA75C75553A37FA2FA
:1029E8001392AF122C4B122A09122F96122F9C12F7
:1029F8002EAD122BE9122B80122BA4122DD5D2AF9B
:012A080022AB
:102BE90053ACFE43AD01C2B053CABF43CA2043CA66
:102BF9001075D68075D78043CA80D2CBE47823F686
:012C090022A8
:062F8A0043CB40D2B0224F
:062F900053CBBFC2B022CA
:10278E00ED4C603C7825A60608A607AE04AF0508FA
:10279E00A60608A607AE02AF0308A60608A607906F
:1027AE000052E0FEA3E0FF08A60608A607E408F61E
:1027BE0008F608F608F67824F618760178317601D0
:0127CE0022E8
:072ED6007B007A0079232242
:0D2E160078237C007D007E007F0F02012EDE
:072EDD00E47823F6022F90B8
:012FC10022ED
:101B0F007823E67003021BC2782AE6184670030298
:101B1F001BC27826E61846600808E61618700116EC
:101B2F00227831E66005E4F6122F8A7824E6FF70FA
:101B3F002ED3782AE6940018E694004076782D0884
:101B4F0006E6187001068604C3782896EC189640AE
:101B5F0062122F90E4782DF608F67824760122EFA2
:101B6F006401704F782D0806E6187001068606C3CB
:101B7F00782A96EE1896403B782BE6FE08E6FFD3C0
:101B8F009400EE94004020782F0806E618700106A6
:101B9F008604C39FEC9E4004E47823F67823E67016
:101BAF00067829F608F622E4782DF608F67824F65A
:041BBF00122F8A2235
:092E80003086037F00227F01224D
:092E89003085037F00227F012245
:092E92003084037F00227F01223D
:092E9B003083037F00227F012235
:0C2E55002084062086037F01227F0022DB
:062F9600121C6F022CF476
:10001E00900045E0243AF582E43400F583EFF09049
:0D002E000045E004F0C3940A4002E4F02213
:102A6400900045E0FF900044E0FEB507037F00229C
:102A7400743A2EF582E43400F583E0FF900044E0DC
:092A840004F0C3940A4002E4F0DE
:012A8D002226
:102B0B00900045E0FFA3E0FEB507037F0022743A77
:102B1B002EF582E43400F583E0FF900046E004F0EC
:072B2B00C3940A4002E4F02C
:012B32002280
:102DC400EF75F00BA4240BF582E43400F583E0FFE7
:012DD40022DC
:10297200EF75F00BA42409F582E43400F583ECF042
:10298200A3EDF0EF75F00BA4240CF582E43400F50E
:1029920083EBF0EF75F00BA4240DF582E43400F51F
:0429A20083E4F022B8
:092EA400900045E0900044F0228A
:102CF40043B10853B2F743B11053B2EF43B1205379
:092D0400B2DF43B14053B2BF221B
:101C6F00E4900044F0A3F0A3F0FFEF75F00BA42471
:101C7F0009F582E43400F583E4F0A374C8F0EF753E
:101C8F00F00BA42406F582E43400F5837402F0EF20
:101C9F0075F00BA4240BF582E43400F583E4F0EF28
:101CAF0075F00BA4240CF582E43400F583E4F0EF17
:101CBF0075F00BA4240DF582E43400F583E4F00FE6
:101CCF00EFB405A690000374FFF0A3742EF0A37475
:101CDF0080F090000E74FFF0A3742EF0A37489F0BF
:101CEF0090001974FFF0A3742EF0A37492F090007B
:101CFF002474FFF0A3742EF0A3749BF090002F7444
:0A1D0F00FFF0A3742EF0A37455F04A
:011D190022A7
:10143F0090004AEFF0E075F00BA42403F974003527
:10144F00F0FA7B01900000EBF0A3EAF0A3E9F012B1
:10145F000434120454EF7003021531900000E0FBC6
:10146F00A3E0FAA3E0F9900003120154FFC394051F
:10147F0050089000037405021595EFC3940A5008A5
:10148F00900003740102018190000812015470143E
:10149F00900008041201C690004AE075F003A404FE
:1014AF00FF12001E900000E0FBA3E0FAA3E0F9900A
:1014BF000006120253FFAEF0D39400EE94005003D7
:1014CF00021598900004120253C39FE5F09E50231B
:1014DF00900004E475F00112028BFCE5F06F7002CE
:1014EF00EC6E600302159890004AE075F003A42497
:1014FF0003802B900009120154FFD3940050030274
:10150F00159890000A7401120181C39F407B9000CF
:10151F000AE41201C690004AE075F003A404FF022A
:10152F00001E900000E0FBA3E0FAA3E0F990000397
:10153F00120154FFD39405400A9000037405120161
:10154F00C6802BEF600A90000374FF120181801E8A
:10155F00900008120154B40115900008E41201C65E
:10156F0090004AE075F003A42402FF12001E9000C1
:10157F0000E0FBA3E0FAA3E0F9900004E4F5F01219
:0A158F0002D890000AE41201C622FF
:102CA500E4900049F0900049E0FFC39405500B12F1
:0A2CB500143F900049E004F080EBAA
:012CBF0022F2
:092EAD0053ACFB43AD04022FBE3F
:032FBB00C2B2227D
:032FBE00D2B2226A
:102B8000E4F5B475B3FFF5B675B5FFF5DB75DAFF9F
:102B9000F5F975FA0475E5FF75E6FF75E70743F982
:042BA00080022E235E
:0C2E2300E4FF8FFBE4F5FC0FEFB413F6A6
:012E2F002280
:072EE40075FB0A53FCFE22FE
:072EEB0075FB0A43FC012204
:072EF20075FB0C53FCFE22EE
:072EF90075FB0C43FC0122F4
:072F000075FB0853FCFE22E3
:072F070075FB0843FC0122E9
:072F0E0075FB0E53FCFE22CF
:072F150075FB0E43FC0122D5
:072F1C0075FB1053FCFE22BF
:072F230075FB1043FC0122C5
:102D0D0075FB1153FCF075FB1053FCF175FB0F5364
:092D1D00FCF075FB0E53FCF122E1
:1012A500EFD39463400302143EEF75F00A84FEEF1A
:1012B50075F00A84ADF0EFD39409500302137EEE66
:1012C500B40A00400302138A9012D4F82828730246
:1012D50012F20212FD02130502131902132402135E
:1012E5003802134302135402136502136D75FB0E86
:1012F50043FC0A53FCFB807975FB0E53FCF18028F7
:1013050075FB0E43FC0C53FCFD75FB0F43FC0B53A7
:10131500FCFB807175FB0E43FC0453FCF580527594
:10132500FB0E43FC0653FCF775FB0F43FC0653FC11
:10133500F6805275FB0E43FC0653FCF7800675FBE1
:101345000E43FC0E75FB0F43FC0D53FCFD803675FB
:10135500FB0E53FCF175FB0F43FC0753FCF780258F
:1013650075FB0E43FC0E800975FB0E43FC0653FC12
:10137500F775FB0F43FC0F800C75FB0E53FCF175E5
:10138500FB0F53FCF0EDB40A00400302143E90132A
:101395009AF82828730213B80213C30213CB021359
:1013A500DE0213E90213FC021407021417021427C4
:1013B50002142F75FB1043FC0A53FCFB807575FB6B
:1013C5001053FCF1802775FB1043FC0C53FCFD7595
:1013D500FB1143FC0B53FCFB2275FB1043FC045330
:1013E500FCF5804F75FB1043FC0653FCF775FB11AC
:1013F50043FC0653FCF62275FB1043FC0653FCF731
:10140500800675FB1043FC0E75FB1143FC0D53FC68
:10141500FD2275FB1053FCF175FB1143FC0753FCD2
:10142500F72275FB1043FC0E800975FB1043FC0683
:0914350053FCF775FB1143FC0F99
:01143E00228B
:072F2A0075FB1253FCF022BD
:072F310075FB1243FC0F22A7
:102BC70075FB12EF24BE600E14600F14601024030F
:102BD700700F43FC012243FC022243FC042243FC06
:022BE7000822C2
:102B5B0075FB0853FCF175FB0953FCF075FB0A532D
:102B6B00FCF175FB0B53FCF075FB0C53FCF175FB87
:052B7B000D53FCF022E7
:040FFE00AB07AA068D
:10100200D3EB94E7EA940340030212A47C007D64CC
:10101200AF03AE021201E890004DEFF07C007D6458
:10102200AF03AE021201E87E007F0ACFCDCFCECC55
:10103200CE1201E890004CEFF07C007D0AAF03AEC7
:10104200021201E8A905D3EB9463EA94005003026B
:10105200110FA3E0B40A00400302111B901065F8BF
:1010620028287302108302108E0210960210AA0220
:1010720010B50210C90210D40210E50210F60210D7
:10108200FE75FB0843FC0A53FCFB807975FB085391
:10109200FCF1802875FB0843FC0C53FCFD75FB0931
:1010A20043FC0B53FCFB807175FB0843FC0453FCAF
:1010B200F5805275FB0843FC0653FCF775FB0943A8
:1010C200FC0653FCF6805275FB0843FC0653FCF702
:1010D200800675FB0843FC0E75FB0943FC0D53FCAF
:1010E200FD803675FB0853FCF175FB0943FC075381
:1010F200FCF7802575FB0843FC0E800975FB08434D
:10110200FC0653FCF775FB0943FC0F800C75FB08CA
:1011120053FCF175FB0953FCF0D3EB9409EA9400FC
:1011220050030211E490004CE0B40A0040030211A3
:10113200F090113AF8282873021158021163021133
:101142006B02117F02118A02119E0211A90211BAC9
:101152000211CB0211D375FB0A43FC0A53FCFB803C
:101162007975FB0A53FCF1802875FB0A43FC0C538A
:10117200FCFD75FB0B43FC0B53FCFB807175FB0AFA
:1011820043FC0453FCF5805275FB0A43FC0653FCF6
:10119200F775FB0B43FC0653FCF6805275FB0A43C2
:1011A200FC0653FCF7800675FB0A43FC0E75FB0B2D
:1011B20043FC0D53FCFD803675FB0A53FCF175FBB5
:1011C2000B43FC0753FCF7802575FB0A43FC0E809A
:1011D2000975FB0A43FC0653FCF775FB0B43FC0F36
:1011E200800C75FB0A53FCF175FB0BE4F5FCE9B4CA
:1011F2000A0040030212A4901200F8282873021277
:101202001E02122902123102124402124F0212620B
:1012120002126D02127D02128D02129575FB0C43B1
:10122200FC0A53FCFB807575FB0C53FCF18027759F
:10123200FB0C43FC0C53FCFD75FB0D43FC0B53FCF8
:10124200FB2275FB0C43FC0453FCF5804F75FB0C31
:1012520043FC0653FCF775FB0D43FC0653FCF622D8
:1012620075FB0C43FC0653FCF7800675FB0C43FC34
:101272000E75FB0D43FC0D53FCFD2275FB0C53FC5C
:10128200F175FB0D43FC0753FCF72275FB0C43FC85
:101292000E800975FB0C43FC0653FCF775FB0D43EE
:0212A200FC0F3F
:0112A4002227
:072F380075FB0253FCFE22B1
:072F3F0075FB0243FC0122B7
:072F460075FB0453FCFE22A1
:072F4D0075FB0475FC012275
:072F540075FB0853FCFE228F
:072F5B0075FB0843FC012295
:072F6200E4F5FB53FCFE2225
:072F6900E4F5FB43FC01222B
:102A3700E4F5FB53FCF175FB01F5FC75FB0253FC58
:102A4700F175FB03F5FC75FB0453FCF175FB05F50C
:0D2A5700FC75FB0653FCF175FB07F5FC2236
:0408F800AB07AA069A
:1008FC00D3EB940FEA94274003020C987C037DE819
:10090C00AF03AE021201E890004EEFF07C037DE8DD
:10091C00AF03AE021201E87E007F64CFCDCFCECC08
:10092C00CE1201E890004DEFF07C007D64AF03AE79
:10093C00021201E87E007F0ACFCDCFCECCCE1201C1
:10094C00E890004CEFF07C007D0AAF03AE02120180
:10095C00E8A905D3EB94E7EA94035003020A289024
:10096C00004EE0B40A004003020A3390097EF828D6
:10097C00287302099C0209A70209AF0209C30209E4
:10098C00CE0209E20209ED0209FE020A0F020A1761
:10099C00E4F5FB75FC0A53FCFB8079E4F5FB53FC96
:1009AC00F18028E4F5FB75FC0C53FCFD75FB01751F
:1009BC00FC0B53FCFB8070E4F5FB75FC0453FCF55D
:1009CC008052E4F5FB75FC0653FCF775FB0175FCD6
:1009DC000653FCF68051E4F5FB75FC0653FCF780DE
:1009EC0006E4F5FB75FC0E75FB0175FC0D53FCFD67
:1009FC008035E4F5FB53FCF175FB0175FC0753FCEA
:100A0C00F78024E4F5FB75FC0E8009E4F5FB75FC1E
:100A1C000653FCF775FB0175FC0F800BE4F5FB53DB
:100A2C00FCF175FB01F5FCD3EB9463EA94005003E5
:100A3C00020B0390004DE0B40A004003020B0F9030
:100A4C000A52F8282873020A70020A7C020A8402ED
:100A5C000A98020AA9020ABD020AC8020AD9020AA5
:100A6C00EA020AF275FB0275FC0A53FCFB020AFB54
:100A7C0075FB0253FCF1802E75FB0275FC0C53FCCC
:100A8C00FD75FB0343FC0B53FCFB807775FB0243AA
:100A9C00FC0453FCF575FB0343FC0F806675FB02ED
:100AAC0075FC0653FCF775FB0375FC0653FCF680CE
:100ABC005275FB0275FC0653FCF7800675FB02753C
:100ACC00FC0E75FB0375FC0D53FCFD803675FB02AB
:100ADC0053FCF175FB0375FC0753FCF7802575FB84
:100AEC000275FC0E800975FB0275FC0653FCF7754C
:100AFC00FB0375FC0F800C75FB0253FCF175FB03BB
:100B0C00E4F5FCD3EB9409EA94005003020BD89063
:100B1C00004CE0B40A004003020BE4900B2EF828C2
:100B2C002873020B4C020B57020B5F020B73020B68
:100B3C007E020B92020B9D020BAE020BBF020BC787
:100B4C0075FB0475FC0A53FCFB807975FB0453FCA4
:100B5C00F1802875FB0475FC0C53FCFD75FB0575C9
:100B6C00FC0B53FCFB807175FB0475FC0453FCF50A
:100B7C00805275FB0475FC0653FCF775FB0575FC80
:100B8C000653FCF6805275FB0475FC0653FCF7808B
:100B9C000675FB0475FC0E75FB0575FC0D53FCFD11
:100BAC00803675FB0453FCF175FB0575FC0753FC93
:100BBC00F7802575FB0475FC0E800975FB0475FC2C
:100BCC000653FCF775FB0575FC0F800C75FB045385
:100BDC00FCF175FB05E4F5FCE9B40A004003020CDA
:100BEC0098900BF4F8282873020C12020C1D020CBE
:100BFC0025020C38020C43020C56020C61020C71DB
:100C0C00020C81020C8975FB0675FC0A53FCFB80F7
:100C1C007575FB0653FCF1802775FB0675FC0C53B0
:100C2C00FCFD75FB0775FC0B53FCFB2275FB067575
:100C3C00FC0453FCF5804F75FB0675FC0653FCF762
:100C4C0075FB0775FC0653FCF62275FB0675FC0656
:100C5C0053FCF7800675FB0675FC0E75FB0775FCDF
:100C6C000D53FCFD2275FB0653FCF175FB0775FC5F
:100C7C000753FCF72275FB0675FC0E800975FB0605
:0C0C8C0075FC0653FCF775FB0775FC0FA8
:010C98002239
:072F700075FB0653FCFE2275
:072F770075FB0643FC01227B
:102E06006D6574657220636F756E742025640A00A3
:0226FD00C11406
:0D2E300053DCEF43DD1012267C439B022291
:0A2E7600E49000C0F0A3F0A3F022E6
:10267C00C2DC43E90453E9FD43E90153EDFE43EDAC
:10268C000243ED0443ED0853EDEF53EDDF53EDBF83
:10269C0053ED7F53EAFE43EA0243EA0443EA08534C
:1026AC00EAEF53EADF53EABF53EA7FE4F5EB53EB6F
:0826BC00FD53EBFB53EBF72289
:102D3E00D2DC53EDFD53EDFB53EDF753EAFD53EAB1
:052D4E00FB53EAF7222F
:062F9C00122E30022E7619
:102D26007BFF7A2E79069000C0E0FE3395E0900096
:082D36004FF0A3CEF0020D04E2
:0518C300900047EFF06A
:1018C800E49000A7F0122FBE900047E0FF146028B4
:1018D80014604D240270739000C2E0FE700A9000FC
:1018E800C1E06060E4F08062EEB401028022900002
:1018F800C2E06402705480219000C2E0FEB4010C82
:101908009000C1E06004E4F080408038EEB4020347
:10191800E480249000C2E070319000C104F0802A75
:101928009000C2E0FEB4020C9000C1E06004E4F054
:1019380080188010EE70069000C1F0800D9000C2F3
:10194800E0B401069000C17401F09000C2EFF0907D
:1019580000C1E09000C06005E004F08003E014F0EE
:1019680030140E9000C0E0C3648094855013C214F4
:10197800229000C0E0D36480948C4005D2141224D5
:01198800BCA2
:01198900223B
:052FA200E4FF0218C36A
:052FA7007F010218C3C8
:052FAC007F020218C3C2
:102DD50053DC7F43DD807F807E257D007C000224DF
:012DE5005F8E
:102D8D0030F80BE59A1201B4C2F8D2158002C215C3
:022D9D00A2157D
:012D9F002211
:0826FF004100A0004100A10010
:102BA400122C895389F75389FB5389FD438901907A
:102BB40000A074FCF0A37466F0758CFCF58AD2A9AD
:032BC400D28C228E
:102C8900E4900099F090009BF090009DF0A3F090E3
:0C2C9900009AF090009CF090009FF02248
:03000B000221AC23
:1021AC00C0E0C0F0C083C082C0D075D000C000C0F9
:1021BC00069000A0E0F58CA3E0F58A900099E0046D
:1021CC00F0C3940A4005E4F0A304F090009BE004F3
:1021DC00F0C394644005E4F0A304F090009DE47512
:1021EC00F00112023DFEC3E5F094E8EE9403400AC0
:1021FC0090009DE4F0A3F0A304F0D006D000D0D062
:09220C00D082D083D0F0D0E03282
:102DA00053897F5389BF4389205389EF758DCE7531
:032DB0008BCE22A5
:03001B00022FC2EF
:012FC20032DC
:102A090053B1FD43B202D28143E10175E80243B1FA
:102A19000453B2FB43F60453E1BF43E12053E1EF12
:0E2A290043E22043E240E4F5E4F5E3D2AE22BE
:10159900EF14604414606F1470030216381470035A
:1015A900021674240460030216D8A2AF9213C2AFC4
:1015B90075C7AA75C755439780A21392AFA2AF9278
:1015C90013C2AF75C7AA75C7555397BFA21392AF78
:1015D900E59630E7FB02169FA2AF9213C2AF75C71B
:1015E900AA75C75553977FA21392AFA2AF9213C2A0
:1015F900AF75C7AA75C755439740A21392AFE59631
:1016090030E6FB02169FA2AF9213C2AF75C7AA7547
:10161900C755439720A21392AFE59630E5FBA2AFD9
:101629009213C2AF75C7AA75C7555396FB8027A2F7
:10163900AF9213C2AF75C7AA75C755439710A213C6
:1016490092AFE59630E4FBA2AF9213C2AF75C7AA79
:1016590075C755439604A21392AFA2AF9213C2AFB6
:1016690075C7AA75C7555396FD804DA2AF9213C28F
:10167900AF75C7AA75C75553977FA21392AFA2AF8B
:101689009213C2AF75C7AA75C7555397BFA21392D4
:10169900AFE59630E3FBA2AF9213C2AF75C7AA7547
:1016A900C7555396FBA21392AFA2AF9213C2AF755F
:1016B900C7AA75C755439602A21392AFA2AF921358
:1016C900C2AF75C7AA75C7555396FEA21392AFE567
:0516D9009720E0FB2258
:102AE20075985243892053877F538EEF53C4DFABCF
:102AF20007AA06A905A804E47F807E70FDFC1203E4
:092B020041EFF404F58DD28E229E
:102B3300759852438920438780538EEF53C4DFAB8C
:102B430007AA06A905A804E4FF7EE1FDFC120341E0
:082B5300EFF404F58DD28E228F
:102A8E0075985243892053877F438E1053C4DFAB12
:102A9E0007AA06A905A8047F007E467D057C0012C4
:0A2AAE000341EFF404F58DD28E22EF
:102AB800759852438920438780438E1053C4DFABF7
:102AC80007AA06A905A8047F007E8C7D0A7C00124F
:0A2AD8000341EFF404F58DD28E22C5
:102215009000A81203F775985253877F53C4F8436B
:10222500C4209000A8E0F8A3E0F9A3E0FAA3E0FB3E
:102235007F007E467D057C00120341C3E49FFFE4D9
:102245009EFE74019DFDE49CFC78081203E48FC694
:102255009000A8E0F8A3E0F9A3E0FAA3E0FB7F0073
:102265007E467D057C00120341C3E49FFF8FC54375
:03227500C4082278
:102278009000AC1203F775985243878053C4F84313
:10228800C4209000ACE0F8A3E0F9A3E0FAA3E0FBD7
:102298007F007E8C7D0A7C00120341C3E49FFFE42B
:1022A8009EFE74019DFDE49CFC78081203E48FC631
:1022B8009000ACE0F8A3E0F9A3E0FAA3E0FB7F000C
:1022C8007E8C7D0A7C00120341C3E49FFF8FC543C7
:0322D800C4082215
:10245F009000491203F775F85253C4F8900049E001
:10246F00F8A3E0F9A3E0FAA3E0FB7F007E8C7D0ADE
:10247F007C00120341C3E49FFFE49EFE74019DFDA7
:10248F00E49CFC78081203E48FC6900049E0F8A39F
:10249F00E0F9A3E0FAA3E0FB7F007E8C7D0A7C00CD
:0D24AF00120341C3E49FFF8FC543C4082200
:072EB6003098FDAF99C298AE
:012EBD0022F2
:082EBE00C2998F993099FD22A1
:072EC60030F8FDAF9AC2F8DD
:012ECD0022E2
:082ECE00C2F98F9A30F9FD22D0
:102CC000E4F5B1F5B2F5B3F5B4F5B5F5B6F5ACF597
:0A2CD000ADF5DAF5DBF5DCF5DD22E9
:102C4B0075B1FFE4F5B275B3FFF5B475B5FFF5B625
:102C5B0075ACFFF5AD75DAFFF5DB75DCFFF5DD2245
:102CDA0075C7AA75C755A2AF9213C2AF75C7AA75B1
:0A2CEA00C755439F80A21392AF224A
:042FB10043AD80228A
:1028C700EF640A701C30F811E59AB4130CC2F830A3
:1028D700F8FDE59AB411F6C2F830F9FDC2F9759A18
:1028E7000D30F811E59AB4130CC2F830F8FDE59AEB
:0D28F700B411F6C2F830F9FDC2F98F9A2233
:061EE00090FFF812045A05
:101EE600850D83850E8212040300000000E47FFF47
:101EF6007EFFFDFC850D83850E82E0F8A3E0F9A345
:101F0600E0FAA3E0FBC31203D3504C900004120482
:101F16007EE0FCA3E0FDA3E0FEA3E02401FFE43E97
:101F2600FEE43DFDE43CFC90000412047E1203F73F
:101F3600850D83850E82E0FCA3E0FDA3E0FEA3E011
:101F46002401FFE43EFEE43DFDE43CFC850D838573
:071F56000E821203F78096D2
:061F5D0090000802045A86
:102C0A00538EF7438901D28CEF4E6012758AF7759D
:102C1A008CFF308DFDC28DEF1F70ED1E80EAC28CD5
:012C2A002287
:102572009000B01203F7538EF7438901D28CE4FF27
:10258200FEFDFC9000B0E0F8A3E0F9A3E0FAA3E0BE
:10259200FBC31203D3602F758A65758CFC308DFDE9
:1025A200C28D9000B0E0FCA3E0FDA3E0FEA3E02416
:1025B200FFFFEE34FFFEED34FFFDEC34FFFC900034
:0925C200B01203F780B8C28C22AC
:1025CB009000B41203F7538EEF438910D28EE4FFC1
:1025DB00FEFDFC9000B4E0F8A3E0F9A3E0FAA3E061
:1025EB00FBC31203D3602F758B65758DFC308FFD8C
:1025FB00C28F9000B4E0FCA3E0FDA3E0FEA3E024B7
:10260B00FFFFEE34FFFEED34FFFDEC34FFFC9000DA
:09261B00B41203F780B8C28E224C
:102517009000B81203F775C40243C408E4FFFEFD38
:10252700FC9000B8E0F8A3E0F9A3E0FAA3E0FBC34E
:102537001203D3603275C53375C6F5E5C430E4FBC5
:1025470053C4EF9000B8E0FCA3E0FDA3E0FEA3E0D6
:1025570024FFFFEE34FFFEED34FFFDEC34FFFC906B
:0B25670000B81203F780B553C4F72240
:10239F009000BC1203F7538FFB538FFD538FFEE456
:1023AF00F586538FDF438F08E4FFFEFDFC9000BCE2
:1023BF00E0F8A3E0F9A3E0FAA3E0FBC31203D360B4
:1023CF002CE58F30E4FB538FEF9000BCE0FCA3E0D3
:1023DF00FDA3E0FEA3E024FFFFEE34FFFEED34FF8C
:1023EF00FDEC34FFFC9000BC1203F780BB538FF75A
:0123FF0022BB
:1016DE000A3D3D3D3D3D3D3D3D3D3D3D3D3D3D3D5F
:1016EE003D3D3D3D3D3D3D3D3D3D3D3D3D3D3D3D1C
:1016FE003D3D3D3D3D3D3D3D3D3D3D3D3D3D3D3D0C
:10170E003D3D3D3D3D3D3D3D3D3D3D3D3D3D3D3DFB
:10171E003D3D3D3D3D000A2A2020436F70797269A0
:10172E006768742863292032303135204E75766F04
:10173E00746F6E20546563686E6F6C6F67792043AB
:10174E006F72702E20416C6C207269676874732002
:10175E0072657365727665642E2020000A2A202039
:10176E00436F6E7461637420452D4D61696C3A2030
:10177E004D6963726F432D38626974406E75766F72
:10178E00746F6E2E636F6D2020202020202020206D
:10179E00202020202020202020202020202020203B
:1017AE0020000A2A202044656D6F205665727369E9
:1017BE006F6E20203A202532642E2532642E25327B
:1017CE0064000A2A202046696E69736865642044A5
:1017DE00617465203A202532642E2532642E25321E
:0217EE00640095
:102400007BFF7A1679DE120D047BFF7A177924128E
:102410000D047BFF7A17796A120D047BFF7A177916
:10242000B090004FE4F0A304F0E4A3F0A3F0A3F015
:10243000A3F0120D047BFF7A1779D090004F740738
:10244000F0A374DFF0A3E4F0A37405F0A3E4F0A319
:0F245000741FF0120D047BFF7A1679DE020D0463
:03000000021DB628
:101DB600787FE4F6D8FD9000007FFF7E01E4F0A373
:0A1DC600DFFCDEFA758135021E0B0A
:101DD000021FE0E493A3F8E493A34003F68001F22A
:101DE00008DFF48029E493A3F85407240CC8C33314
:101DF000C4540F4420C8834004F456800146F6DFE3
:101E0000E4800B01020408102040809026C4E47E88
:101E1000019360BCA3FF543F30E509541FFEE493D7
:101E2000A360010ECF54C025E060A840B8E493A39E
:101E3000FAE493A3F8E493A3C8C582C8CAC583CAC9
:101E4000F0A3C8C582C8CAC583CADFE9DEE780BE81
:0127070000D1
:10005E00E709F608DFFA8046E709F208DFFA803E84
:10006E0088828C83E709F0A3DFFA8032E309F60871
:10007E00DFFA8078E309F208DFFA807088828C83D9
:10008E00E309F0A3DFFA806489828A83E0A3F6088D
:10009E00DFFA805889828A83E0A3F208DFFA804C67
:1000AE0080D280FA80C680D4806980F2803380103E
:1000BE0080A680EA809A80A880DA80E280CA8033A7
:1000CE0089828A83ECFAE493A3C8C582C8CCC5831F
:1000DE00CCF0A3C8C582C8CCC583CCDFE9DEE780EF
:1000EE000D89828A83E493A3F608DFF9ECFAA9F06E
:1000FE00EDFB2289828A83ECFAE0A3C8C582C8CCC4
:10010E00C583CCF0A3C8C582C8CCC583CCDFEADEDC
:10011E00E880DB89828A83E493A3F208DFF980CC3E
:10012E0088F0EF60010E4E60C388F0ED2402B40437
:10013E000050B9F582EB2402B4040050AF232345DE
:06014E0082239000AE7355
:10015400BB010CE58229F582E5833AF583E0225060
:1001640006E92582F8E622BBFE06E92582F8E222AA
:0D017400E58229F582E5833AF583E49322C4
:10018100BB010FF8E58229F582E5833AF583E02882
:10019100F0225009C58229F8E58226F622BBFE0924
:1001A100C58229F8E22582F222F8EA2583F583E95E
:0301B1009328226E
:1001B400BB010689828A83F0225002F722BBFE012A
:0201C400F32224
:1001C600F8BB010DE58229F582E5833AF583E8F06F
:1001D600225006E92582C8F622BBFE05E92582C81B
:0201E600F22203
:1001E800BC000BBE0029EF8DF084FFADF022E4CCFB
:1001F800F875F008EF2FFFEE33FEEC33FCEE9DECC4
:10020800984005FCEE9DFE0FD5F0E9E4CEFD22ED09
:10021800F8F5F0EE8420D21CFEADF075F008EF2F53
:10022800FFED33FD4007985006D5F0F222C398FD44
:050238000FD5F0EA22E1
:10023D00C5F0F8A3E028F0C5F0F8E582158270024C
:06024D001583E038F022E9
:10025300BB0110E58229F582E5833AF583E0F5F0E9
:10026300A3E0225009E92582F886F008E622BBFEC6
:100273000AE92582F8E2F5F008E222E5832AF5830C
:08028300E993F5F0A3E99322D1
:10028B00BB010DC58229C582C5833AC58302023DD8
:10029B005011C58229F808E5F026F618F5F0E5822D
:1002AB0036F622BBFE11C58229F808E225F0F5F0DF
:1002BB00F218E23582F222F8E58229F582E5832AEB
:0D02CB00F58374019325F0F5F0E4933822DB
:1002D800F8BB0111E58229F582E5833AF583E8F058
:1002E800E5F0A3F0225009E92582C8F608A6F02215
:0D02F800BBFE09E92582C8F2E5F008F222FC
:1003050075F008758200EF2FFFEE33FECD33CDCCAF
:1003150033CCC58233C5829BED9AEC99E582984032
:100325000CF582EE9BFEED9AFDEC99FC0FD5F0D60F
:10033500E4CEFBE4CDFAE4CCF9A88222B800C1B939
:100345000059BA002DEC8BF084CFCECDFCE5F0CB77
:10035500F97818EF2FFFEE33FEED33FDEC33FCEBB0
:1003650033FB10D703994004EB99FB0FD8E5E4F96B
:10037500FA227818EF2FFFEE33FEED33FDEC33FC58
:10038500C933C910D7059BE99A4007EC9BFCE99A4C
:10039500F90FD8E0E4C9FAE4CCFB2275F010EF2F91
:1003A500FFEE33FEED33FDCC33CCC833C810D70791
:1003B5009BEC9AE899400AED9BFDEC9AFCE899F8CC
:0E03C5000FD5F0DAE4CDFBE4CCFAE4C8F9225F
:1003D300EB9FF5F0EA9E42F0E99D42F0E89C45F080
:0103E30022F7
:1003E400E8600FECC313FCED13FDEE13FEEF13FFF7
:0303F400D8F1221B
:0C03F700ECF0A3EDF0A3EEF0A3EFF02279
:10040300A8828583F0D083D08212041A12041A12B0
:10041300041A12041AE473E493A3C583C5F0C583D5
:10042300C8C582C8F0A3C583C5F0C583C8C582C843
:0104330022A6
:10043400BB010789828A830204AD5005E9F80204EE
:10044400A4BBFE05E9F80204D689828A830204DF8C
:060454008A838982E47333
:10045A00E50E2582F582E50D3583F583B50D048514
:10046A00820E2210AF0685820EF50D2285820EF5C8
:04047A000DD2AF22CE
:0D047E00E50E2582F582E50D3583F583221C
:100C9900E508244FF582E43400F583E00508229045
:100CA900004C30080390004FE475F0011204B602BD
:100CB900048B2001E97F2ED2018018EF540F249074
:100CC900D43440D4FF30050BEF24BFB41A005003CD
:100CD9002461FFE50960021509050CE50C700205A0
:100CE9000B30080E90004CE475F0011204B6EF02C7
:100CF90001B40228C77403D2088003E4C208F508C6
:100D090090004C1204CDE4F509F50BF50CE50960EA
:100D1900077F20120CDC80F5750AFFC202C201C2EE
:100D290003C204C206C207C209120CA8FF700D3023
:100D390008057F00120CEDAF0CAE0B22B4255FC283
:100D4900D5C205120CA8FF24D0B40A00501A75F0B8
:100D59000A780930D50508B6FF0106C6A426F6208B
:100D6900D5047002D20480D924CFB41A00EF5004FC
:100D7900C2E5D205020EEED20280C6D20180C0D2EF
:100D89000380BCD2D580BAD20680B47F20120CDC95
:100D99002003077401B5090040F1120C99FF120CE8
:100DA900DC020D16D209D2078095120C99FB120CA0
:100DB90099FA120C99F94A4B700679BF7A0F7BFFA1
:100DC90020032EE509602A7E008E827583001201B8
:100DD9005460060EEE650A70F0C2D5EBC0E0EAC0B9
:100DE900E0E9C0E0EE120F35D0E0F9D0E0FAD0E04A
:100DF900FB12048BFF60AAEBC0E0EAC0E0E9C0E0A7
:100E0900120CDCD0E02401F9D0E03400FAD0E0FB88
:100E1900E50A0460DCD50AD980877BFF7A0F79312E
:100E2900D203809C791080027908C207C209800820
:100E3900D2D5790A8004790AC2D5E50A047002F587
:100E49000AE4FAFDFEFF120C99FC7B08200213123A
:100E59000C99FD7B1030010A120C99FE120C99FFB6
:100E69007B20EC3382D592D55013C3E43001069F21
:100E7900FFE49EFEE42002039DFDE49CFCE4CBF824
:100E8900C202EC700CCFCECDCCE824F8F870F38018
:100E990017C3EF33FFEE33FEED33FDEC33FCEB33D9
:100EA900FB994002FB0FD8E9EB300205F8D0E0C40A
:100EB90048B202C0E00AEC4D4E4F78207B0070C268
:100EC900EAB50A0040BCC0E0120F37D0F0D0E020EC
:100ED9000204C4C0E0C4B202C0F0120CC5D0F0D5FF
:100EE900F0EB020D161204EB0DB3530E2D580D84C1
:100EF9004C0D80420E314F0E39440E39490D99433C
:080F09000E3F550E23460E2396
:100F1100450E23470FDF500D882D0D8C2E0DAF2B65
:100F21000D90230DAD200FC82A0D484800000DA7D4
:100F31003F3F3F00790AA2D5200414300609B910B9
:100F4100020404B9080104A2D520070250010420BB
:100F510003689203B509005034C0E07F20300419C2
:100F61007F30A20372077206500F120F8EC203C2A6
:100F710007C206C2097F30800F300603E9C0E012C4
:100F81000CDC300603D0E0F9D0E0B509CC3006170F
:100F91007F30B9100C120CDC7F583005077F788048
:100FA10003B90803120CDC3003057F2D020CDC7F32
:100FB100202009F87F2B2007F322920380CF286E8F
:100FC100756C6C2900D202120C993002F8C20278B9
:100FD1000930D50108F6020D482D50434958120C2D
:100FE100992403B405004001E4900FDA93120CCD6B
:0D0FF100743A120CCDD204750904020E2DC5
:10048B00BB010689828A83E0225002E722BBFE026F
:09049B00E32289828A83E49322A2
:0904A400E6FB08E6FA08E6F9227D
:0904AD00E0FBA3E0FAA3E0F92250
:1004B600F8E0FBA3A3E0F925F0F0E58215827002CF
:0704C6001583E0FA38F02273
:0904CD00EBF0A3EAF0A3E9F02230
:0904D600E2FB08E2FA08E2F92257
:0C04DF00E493FB740193FA740293F92279
:1004EB00D083D082F8E4937012740193700DA3A3A0
:1004FB0093F8740193F5828883E4737402936860B4
:06050B00EFA3A3A380DFB3
:00000001FF
