:0822F0004100C0004100C100E3
:03005B000223B2CB
:1023B200C0E0C0F0C083C082C0D075D000C000C0F1
:1023C20001C002C003C004C005C006C00712242C0D
:1023D200C2EFD007D006D005D004D003D002D0017E
:0D23E200D000D0D0D082D083D0F0D0E03237
:03003B00021F0899
:101F0800C0E0C0F0C083C082C0D075D000C000C09F
:101F180001C002C003C004C005C006C007E5EC301C
:101F2800E60A90009FE0B402037403F0E5EC30E1A8
:101F380003122B09E5EC30E203122B04E5EC30E345
:101F480003122B0E75EC00D007D006D005D004D0B4
:101F580003D002D001D000D0D0D082D083D0F0D02E
:021F6800E03265
:101C93007F0212136F1224FE1227BB12003E122979
:101CA300DC900096E06008E4F012184F12280F90C1
:101CB3000098E0600EE4F01226311229A01222509F
:091CC30012179090009BE06026CE
:101CCC00E4F012249A12000E1223341227D7122891
:101CDC008F9000C1E004F0E0D394034009740AF043
:061CEC009000C0E004F0CE
:101CF20012258A900047EFF060A8E0FF121AEC80EC
:011D0200A13F
:1028A7006F6666206272696768740A00706F776581
:0728B70072206F66660A0043
:1022F8004100A0004100A1004100A200C10F41001F
:022308009E0035
:10003E00E49000A1F01228FA1222A89000A37401F5
:0C004E00F090007AF090009FF00219ACD6
:1028E70053E9FB53E9FD53E9FE43ED4043EA405307
:0328F700EBBF2212
:1028FA0053E9FB53E9FD53E9FE53EDBF53EABF53D6
:03290A00EBBF22FE
:1019AC009000A3E024FE6028146059240260030216
:1019BC001A51E4FFFE120E64E4FFFE120B42122ACF
:1019CC0069122A7E122A8C122AD9122A9A022AA861
:1019DC00122A85122A697F411227377F4212273734
:1019EC007F431227377F44122737122AD9122AA88D
:1019FC001228D37BFF7A2A79A11229AC7BFF7A2A91
:101A0C00799A8032122A85122A697F411227377FF0
:101A1C00421227377F431227377F44122737122A67
:101A2C00D9122A9A1228D37BFF7A2A79AF1229ACC1
:101A3C007BFF7A2A79A81229B8E4FBFA7D04FC7F93
:061A4C0004FE1224CC226E
:101B7F00122A699000A1E024FE601F046003021C7A
:101B8F000D9000A3E0B40205122AA180719000A36A
:101B9F00E064037069122AAF80649000A0E024BE55
:101BAF00601714602114602B24037039900072E0C9
:101BBF00FF1210B79000738025900074E0FF121091
:101BCF00B79000758018900076E0FF1210B7900064
:101BDF0077800B900078E0FF1210B7900079E0FF4C
:101BEF007E00120E649000A3E0B40205122AA180B9
:101BFF000A9000A3E0B40303122AAF122A93022A19
:011C0F00696B
:101D6F009000A1E024FE600804705E122A9A80564B
:101D7F009000A0E07003122A8C9000A0E0B44108FC
:101D8F00122A8C7F411227379000A0E0B44208122C
:101D9F002A8C7F421227379000A0E0B44308122A02
:101DAF008C7F431227379000A0E0B44408122A8C8E
:101DBF007F441227379000A3E0B40203022A9A90BF
:0A1DCF0000A3E0B40303122AA822C7
:1015C6009000A1E014700302169114700302169D98
:1015D6001470030216A6240360030216AE9000A33D
:1015E600E024FE603E14606F240260030216AEE43F
:1015F60090007CF0A3F0900081F0A3F090007CE0D6
:10160600FEA3E0FF120E64900081E0FEA3E0FF124D
:101616000B42122A69122A7E122A8C122AD9122AFF
:101626009A8031E490007CF0A3F0900081F0A3F062
:10163600FF1210B7E4FFFE120E64E4FFFE120B4227
:10164600122A69122A8590007BE0FF122737122A98
:10165600D9122AA1022AA8E490007CF0A3F09000F7
:1016660081F0A3F0FF1210B7E4FFFE120E64E4FF50
:10167600FE120B42122A69122A8590007BE0FF12A5
:101686002737122AD9122A9A022AAF1228D3900093
:10169600A1E0601414F0229000A1E0600B14F02287
:0916A6009000A1E0600214F022A2
:101F6A009000A1E0705B90007AE01470069000A1E6
:101F7A007401F0E4FF1210B7E4FFFE120E64E4FFEE
:101F8A00FE120B42122A69122A85122A93122AD9A0
:101F9A0090007AE09000A3F07402F09000A114F08F
:101FAA001228D37BFF7A1B797F1229AC7BFF7A1D1B
:101FBA00796F1229B8E4FBFA7D04FC7F04FE12242F
:021FCA00CC2227
:101D03009000A1E024FE60270470609000A3E0240B
:101D1300FE600E146012240270519000A37402F04E
:101D2300229000A37403F0229000A37401F0229088
:101D330000A3E024FD601B0470319000A0E070025A
:101D430080269000A0E004F0E0D3648094C4401B9C
:101D530080169000A0E07002800E9000A0E004F0D6
:0C1D6300E0D3648094C440037441F0227B
:102144009000A1E024FE602704704E9000A3E024D8
:10215400FD600B04700E122AA1122AA88006122A0E
:102164009A122AAF9000A07441F0A37402F0229056
:1021740000A3E024FE70091228D3122AA1122AA86F
:102184009000A3E090007AF09000A0E090007BF033
:0A219400E4A3F0A3F09000A1F022F4
:032B17000228444D
:062AE000122B1D022986E5
:1026310090009FE0B4021B90009EE004F0E0C39480
:10264100034014E4F0122AE61228BE1228E7438759
:072651000222E490009EF05C
:01265800225F
:10249A009000A2E004F0E0B4140ED20F122B1D7BC0
:1024AA00FF7A2879A70208489000A2E0B41E121207
:1024BA002AE07BFF7A2879B312084890009F7402B9
:0224CA00F022FE
:062AE600E49000A2F022C2
:101AEC00900048EFF0122AE6300F0C90009FE0B403
:101AFC000105C20F022B20900048E014602E24FE3A
:101B0C00603814605B24FD605D24FD605F24087008
:101B1C006190009FE064037059122AE07BFF7A28E1
:101B2C0079B312084890009F7402F022122B239074
:101B3C00009FE06401703B0215C6122B2390009F9E
:101B4C00E0B401067402F0022AE090009FE0B402B7
:101B5C0002800790009FE0B403187401F0022B1769
:101B6C00122B23021F6A122B23021D03122B23128A
:031B7C00214422DF
:10230A004800720A1414191E1E322841007100C1B5
:05231A000CC10AC10B1B
:1027BB0090007A7401F0E4A3F0A3F0A3F0A3F0A3CC
:0C27CB00F0A3F0A3F0A3F0900071F02246
:1026A90090007DE004F0700690007CE004F0D39087
:1026B900007DE0941090007CE094274004E4F0A3AE
:0426C900F0D20C221D
:0D000E00900071E0C394FF5003E004F02265
:0C29A000300C08C20C122AE612005E2265
:10005E00E49000A1F01228D390007AE024FE700301
:10006E000200F81470030202892402600302041FC6
:10007E0090007CE0FEA3E0FF7C007D0A1204B4ED4C
:10008E004C90004E700BF0A304F0FB7A007D1E80A6
:10009E000AE4F0A304F0FB7A007D0A7C00FF7E00E8
:1000AE0012237390007CE0FFA3E090007FCFF0A3BB
:1000BE00EFF090007DE025E0FE90007CE0339000B4
:1000CE0081F0A3CEF090007FE0FEA3E0FF120E645D
:1000DE00900081E0FEA3E0FF120B42122877122A55
:1000EE007E122A8C122A9A020283300A4C90004EFB
:1000FE00E4F0A304F0FB7A007D0A7C00FF7E001280
:10010E00237390007BE0FF3395E0FEEF25E0FFEEDA
:10011E0033FE74F12FF58274FF3EF583E0FD74F02B
:10012E002FF58274FF3EF583E08DF0A4FF90007CE6
:10013E00E5F0F0A3EFF002025790007BE0FF33955D
:10014E00E0FEEF25E0FFEE33FE74F12FF58274FF33
:10015E003EF583E0FD74F02FF58274FF3EF583E0EB
:10016E008DF0A4FF90007CE0B5F019A3E0B5071464
:10017E00D20A90004EE4F0A304F0FB7A007D1E7CC0
:10018E0000FF804E90007BE0FF3395E0FEEF25E010
:10019E00FFEE33FE74F12FF58274FF3EF583E0FD22
:1001AE007C0090007CE0FEA3E0FF1204B4ED4C90C6
:1001BE00004E7011F0A37403F07B0A7A007D0A7C66
:1001CE00007F01800DE4F0A304F0FB7A007D0A7C31
:1001DE0000FF7E00122373D20B90007BE0FF33955D
:1001EE00E0FEEF25E0FFEE33FE74F12FF58274FF93
:1001FE003EF583E0FD7C0090007CE0FEA3E0FF1264
:10020E0004B4A3EFF090007BE0FF3395E0FEEF2502
:10021E00E0FFEE33FE74F12FF58274FF3EF583E0BE
:10022E00FD7C0090007CE0FEA3E0FF1204B4900081
:10023E007FECF0A3EDF090007DE025E0FE90007CD9
:10024E00E033900081F0A3CEF090007EE0FF12101C
:10025E00B790007FE0FEA3E0FF120E64900081E0F5
:10026E00FEA3E0FF120B42122A8590007BE0FF12E4
:10027E002737122AA1122AA8020419300A4D90001B
:10028E004EE4F0A304F0FB7A007D0A7C007FC87E6A
:10029E000012237390007BE0FF3395E0FEEF25E024
:1002AE00FFEE33FE74F12FF58274FF3EF583E0FD11
:1002BE0074F02FF58274FF3EF583E08DF0A4FF906D
:1002CE00007CE5F0F0A3EFF00203EA90007BE0FF84
:1002DE003395E0FEEF25E0FFEE33FE74F12FF5824D
:1002EE0074FF3EF583E0FD74F02FF58274FF3EF54A
:1002FE0083E08DF0A4FF90007CE0B5F019A3E0B58B
:10030E000714D20A90004EE4F0A304F0FB7A007DAD
:10031E001E7C00FF804F90007BE0FF3395E0FEEFE8
:10032E0025E0FFEE33FE74F12FF58274FF3EF58368
:10033E00E0FD7C0090007CE0FEA3E0FF1204B4ED33
:10034E004C90004E7011F0A37403F07B0A7A007D7E
:10035E000A7C007F01800EE4F0A304F0FB7A007D9E
:10036E000A7C007FC87E00122373D20B90007BE0C4
:10037E00FF3395E0FEEF25E0FFEE33FE74F12FF52F
:10038E008274FF3EF583E0FD7C0090007CE0FEA3CE
:10039E00E0FF1204B4A3EFF090007BE0FF3395E092
:1003AE00FEEF25E0FFEE33FE74F12FF58274FF3E73
:1003BE00F583E0FD7C0090007CE0FEA3E0FF1204DC
:1003CE00B490007FECF0A3EDF090007DE025E0FE10
:1003DE0090007CE033900081F0A3CEF090007EE0A0
:1003EE00FF1210B790007FE0FEA3E0FF120E6490A4
:1003FE000081E0FEA3E0FF120B42122A8590007BE3
:10040E00E0FF122737122A9A122AAF122AD9122A7D
:01041E006974
:01041F0022BA
:0C29AC0090008FEBF0A3EAF0A3E9F0220A
:0C29B800900092EBF0A3EAF0A3E9F022FB
:1029660090008FA3E0FAA3E0F94A60031207202241
:10297600900092A3E0FAA3E0F94A6003120720222E
:1024CC00EF4E602D900085EEF0A3EFF0AF05A3EC7E
:1024DC00F0A3EFF0AF03A3EAF0A3EFF0E4A3F0A3B3
:1024EC00F0A3F0A3F0900084F090008304F0122984
:0224FC00662256
:1028D300E4900083F01229767B007A0079001229B4
:0428E300AC0229B862
:1017900090009FE0B402030228D3900083E070031E
:1017A00002184E900087E0FEA3E0FF4E700302187F
:1017B0004E900084E07035D3EF9400EE9400500317
:1017C00002184E90008BE475F001120509FED390CB
:1017D0000086E095F0900085E09E5072122976E434
:1017E00090008BF0A3F090008404F022900084E03D
:1017F0006401705A90008B75F001120509FED390B8
:101800000088E095F0900087E09E5042900089E0CB
:10181000FEA3E0FF9400EE9400402590008DE47557
:10182000F001120509FCD3EF95F0EE9C5005E49011
:101830000083F0900083E07007900087F0A3F0220F
:0F184000E490008BF0A3F0900084F01229662250
:0A29E700616463203D2025750A009D
:04231F00C10DC10E1D
:0B29DC00E47824F643B18053B27F2260
:1022500090009FE0B40202804B78240618E624FE2A
:10226000601F1460291460322403703B7824E6C395
:10227000940A4033E4F6300D04C20D800ED20D8076
:10228000237824E6C39409401EE4F6022A777824D2
:10229000E6C394094011E4F6800A7824E6C3940961
:0722A0004005E4F6122A706C
:0122A7002214
:10242C00C200D281AFC37825760008A60718E6FE55
:10243C0008E67802C333CE33CED8F9FF7825EEF612
:10244C0008EFF6ADC2EE18F6EF4D08F6E5E220E423
:09245C0004D2008002C200D20E7D
:012465002254
:1023340030870B782330D803760322760222300EBE
:102344002DC20EC37826E694EA18E6940178235049
:10235400047601800276047BFF7A2979E77825E602
:0F236400FF08E690004CCFF0A3EFF012084822DC
:042323004100C200B3
:01005A002283
:032B1A00D2EE22D6
:1027D7009000C2E004F0E0FFB40402C281EFC394AA
:0B27E700054008E49000C2F0122B1A1D
:0127F20022C4
:1024FE00A2AF9210C2AF75C7AA75C75553A37FA2DC
:10250E001092AF12279B12252F122AF8122AFE12B2
:10251E002A1E1227591226CD122714122955D2AF70
:01252E00228A
:02232700C111E2
:1027590053ACFE43AD01C2B053CABF43CA2043CAFA
:102769001075D68075D78043CA80D2CBE4780FF62E
:01277900223D
:062AEC0043CB40D2B022F2
:062AF20053CBBFC2B0226D
:10237300ED4C603A7811A60608A607AE04AF05082F
:10238300A60608A607AE02AF0308A60608A607908E
:10239300004EE0FEA3E0FF08A60608A607E408F641
:0F23A30008F608F608F67810F6187601D211221F
:072A3F00E4780FF6022AF211
:012B2300228F
:10184F00780FE670030219007816E6184670030247
:10185F0019007812E61846600808E6161870011687
:10186F0022301105C211122AEC7810E6FF702ED328
:10187F007816E6940018E69400407678190806E684
:10188F00187001068604C3781496EC1896406212FD
:10189F002AF2E47819F608F67810760122EF64013F
:1018AF00704F78190806E6187001068606C3781679
:1018BF0096EE1896403B7817E6FE08E6FFD39400A5
:1018CF00EE94004020781B0806E618700106860487
:1018DF00C39FEC9E4004E4780FF6780FE67006780D
:1018EF0015F608F622E47819F608F67810F6122A9B
:0218FF00EC22D9
:0929F1003086037F00227F0122E1
:0929FA003085037F00227F0122D9
:092A03003084037F00227F0122D0
:092A0C003083037F00227F0122C8
:0C29C4002084062086037F01227F002271
:062AF80012190102285E24
:10001E00900045E0243AF582E43400F583EFF09049
:0D002E000045E004F0C3940A4002E4F02213
:10258A00900045E0FF900044E0FEB507037F00227B
:10259A00743A2EF582E43400F583E0FF900044E0BB
:0925AA0004F0C3940A4002E4F0BD
:0125B3002205
:10265900900045E0FFA3E0FEB507037F0022743A2E
:102669002EF582E43400F583E0FF900046E004F0A3
:07267900C3940A4002E4F0E3
:012680002237
:10293300EF75F00BA4240BF582E43400F583E0FF7C
:012943002271
:10246600EF75F00BA42409F582E43400F583ECF053
:10247600A3EDF0EF75F00BA4240CF582E43400F51F
:1024860083EBF0EF75F00BA4240DF582E43400F530
:0424960083E4F022C9
:092A1500900045E0900044F0221D
:10285E0043B10853B2F743B11053B2EF43B1205313
:09286E00B2DF43B14053B2BF22B6
:10190100E4900044F0A3F0A3F0FFEF75F00BA424E2
:1019110009F582E43400F583E4F0A374C8F0EF75AF
:10192100F00BA42406F582E43400F5837402F0EF91
:1019310075F00BA4240BF582E43400F583E4F0EF99
:1019410075F00BA4240CF582E43400F583E4F0EF88
:1019510075F00BA4240DF582E43400F583E4F00F57
:10196100EFB405A690000374FFF0A37429F0A374EB
:10197100F1F090000E74FFF0A37429F0A374FAF053
:1019810090001974FFF0A3742AF0A37403F090007F
:101991002474FFF0A3742AF0A3740CF090002F7448
:0A19A100FFF0A37429F0A374C4F052
:0119AB002219
:10121500900049EFF0E075F00BA42403F974003554
:10122500F0FA7B01900000EBF0A3EAF0A3E9F012DD
:101235000700120720EF7003021307900000E0FB80
:10124500A3E0FAA3E0F9900003120420FFC394057C
:101255005008900003740502136BEFC3940A5008FD
:10126500900003740102044D9000081204207014CC
:1012750090000804120492900049E075F003A4045C
:10128500FF12001E900000E0FBA3E0FAA3E0F99036
:10129500000612051FFFAEF0D39400EE9400500334
:1012A50002136E90000412051FC39FE5F09E5023A4
:1012B500900004E475F001120557FCE5F06F70022B
:1012C500EC6E600302136E900049E075F003A424F0
:1012D50003802B900009120420FFD39400500302D1
:1012E500136E90000A740112044DC39F407B900059
:1012F5000AE4120492900049E075F003A404FF0289
:10130500001E900000E0FBA3E0FAA3E0F9900003C3
:10131500120420FFD39405400A90000374051204BB
:1013250092802BEF600A90000374FF12044D801E1B
:10133500900008120420B40115900008E4120492EC
:10134500900049E075F003A42402FF12001E9000EE
:1013550000E0FBA3E0FAA3E0F9900004E4F5F01245
:0A13650005A490000AE4120492228D
:10280F00E4900048F0900048E0FFC39405500B128D
:0A281F001215900048E004F080EB71
:01282900228C
:092A1E0053ACFB43AD04022B2074
:032B1D00C2B2221F
:032B2000D2B2220C
:1026CD00E4F5B475B3FFF5B675B5FFF5DB75DAFF57
:1026DD00F5F975FA0475E5FF75E6FF75E70743F93A
:0426ED0080022986B8
:0C298600E4FF8FFBE4F5FC0FEFB413F648
:012992002222
:072A460075FB0A53FCFE22A0
:072A4D0075FB0A43FC0122A6
:072A540075FB0C53FCFE2290
:072A5B0075FB0C43FC012296
:072A620075FB0853FCFE2286
:072A690075FB0843FC01228C
:072A700075FB0E53FCFE2272
:072A770075FB0E43FC012278
:072A7E0075FB1053FCFE2262
:072A850075FB1043FC012268
:1028770075FB1253FCF175FB13E4F5FC75FB145360
:08288700FCF175FB15F5FC22C4
:1010B700EFD394634003021214EF75F00A84FEEF36
:1010C70075F00A84ADF0EFD394095003021172EE64
:1010D700B40A00400302117E9010E6F82828730234
:1010E700110402110C02111402112202112A021119
:1010F7003802114002114E02115C02116475FB0E99
:1011070075FC0A805E75FB0E53FCF1801C75FB0EA7
:1011170075FC0C75FB0F75FC0B805C75FB0E75FC85
:1011270004804075FB0E75FC0675FB0F75FC068089
:101137004675FB0E75FC06800675FB0E75FC0E7575
:10114700FB0F75FC0D803075FB0E53FCF175FB0F23
:1011570075FC07802275FB0E75FC0E800675FB0E6D
:1011670075FC0675FB0F75FC0F800C75FB0E53FCA9
:10117700F175FB0FE4F5FCEDB40A0040030212140D
:1011870090118EF82828730211AC0211B40211BC19
:101197000211C90211D10211DE0211E60211F30296
:1011A700120002120875FB1075FC0A805A75FB10B5
:1011B70053FCF1801B75FB1075FC0C75FB1175FC5E
:1011C7000B2275FB1075FC04803D75FB1075FC0642
:1011D70075FB1175FC062275FB1075FC06800675FC
:1011E700FB1075FC0E75FB1175FC0D2275FB10537A
:1011F700FCF175FB1175FC072275FB1075FC0E8061
:0D1207000675FB1075FC0675FB1175FC0FDC
:0112140022B7
:072A8C0075FB12E4F5FC22CA
:072A930075FB1275FC0F2218
:1027370075FB12EF24BE600E14600F1460102403A3
:10274700700F75FC012275FC022275FC042275FCD2
:02275700082256
:1026F10075FB0853FCF175FB09E4F5FC75FB0A5306
:10270100FCF175FB0BF5FC75FB0C53FCF175FB0D36
:03271100F5FC22B2
:040E6400AB07AA0628
:100E6800D3EB94E7EA940340030210B67C007D6458
:100E7800AF03AE021204B490004AEFF07C007D6428
:100E8800AF03AE021204B47E007F0ACFCDCFCECC22
:100E9800CE1204B4900049EFF07C007D0AAF03AE97
:100EA800021204B4A905D3EB9463EA940050030238
:100EB8000F57A3E0B40A004003020F63900ECBF86B
:100EC800282873020EE9020EF1020EF9020F07023A
:100ED8000F0F020F1D020F25020F33020F41020FE1
:100EE8004975FB0875FC0A805E75FB0853FCF180A8
:100EF8001C75FB0875FC0C75FB0975FC0B805C7593
:100F0800FB0875FC04804075FB0875FC0675FB0939
:100F180075FC06804675FB0875FC06800675FB089F
:100F280075FC0E75FB0975FC0D803075FB0853FCCC
:100F3800F175FB0975FC07802275FB0875FC0E80AE
:100F48000675FB0875FC0675FB0975FC0F800C75AA
:100F5800FB0853FCF175FB09E4F5FCD3EB9409EAB3
:100F68009400500302101443E60443E60890004935
:100F7800E0B40A004003021020900F88F828287374
:100F8800020FA6020FAE020FB6020FC4020FCC0268
:100F98000FDA020FE2020FF0020FFE02100675FBD5
:100FA8000A75FC0A805E75FB0A53FCF1801C75FB10
:100FB8000A75FC0C75FB0B75FC0B805C75FB0A75E0
:100FC800FC04804075FB0A75FC0675FB0B75FC0676
:100FD800804675FB0A75FC06800675FB0A75FC0ED3
:100FE80075FB0B75FC0D803075FB0A53FCF175FB26
:100FF8000B75FC07802275FB0A75FC0E800675FBD5
:101008000A75FC0675FB0B75FC0F800C75FB0A5303
:10101800FCF175FB0BE4F5FCE9B40A00400302108F
:10102800B6901030F828287302104E02105602109D
:101038005E02106B02107302108002108802109575
:101048000210A20210AA75FB0C75FC0A805A75FBE7
:101058000C53FCF1801B75FB0C75FC0C75FB0D75B6
:10106800FC0B2275FB0C75FC04803D75FB0C75FCB4
:101078000675FB0D75FC062275FB0C75FC068006D3
:1010880075FB0C75FC0E75FB0D75FC0D2275FB0CC4
:1010980053FCF175FB0D75FC072275FB0C75FC0EF6
:0E10A800800675FB0C75FC0675FB0D75FC0FC4
:0110B6002217
:072A9A0075FB0253FCFE2254
:072AA10075FB0243FC01225A
:072AA80075FB0453FCFE2244
:072AAF0075FB0475FC012218
:072AB60075FB0853FCFE2232
:072ABD0075FB0843FC012238
:072AC400E4F5FB53FCFE22C8
:072ACB00E4F5FB43FC0122CE
:10255D00E4F5FB53FCF175FB01F5FC75FB0253FC37
:10256D00F175FB03F5FC75FB0453FCF175FB05F5EB
:0D257D00FC75FB0653FCF175FB07F5FC2215
:040B4200AB07AA064D
:100B4600D3EB940FEA94274003020E637C037DE8FF
:100B5600AF03AE021204B490004BEFF07C037DE8C5
:100B6600AF03AE021204B47E007F64CFCDCFCECCED
:100B7600CE1204B490004AEFF07C007D64AF03AE61
:100B8600021204B47E007F0ACFCDCFCECCCE1204A3
:100B9600B4900049EFF07C007D0AAF03AE02120468
:100BA600B4A905D3EB94E7EA94035003020C5490DE
:100BB600004BE0B40A004003020C5F900BC8F82813
:100BC6002873020BE6020BEE020BF6020C04020C73
:100BD6000C020C1A020C22020C30020C3E020C46CD
:100BE600E4F5FB75FC0A805EE4F5FB53FCF1801C22
:100BF600E4F5FB75FC0C75FB0175FC0B805BE4F5FD
:100C0600FB75FC048040E4F5FB75FC0675FB01757D
:100C1600FC068045E4F5FB75FC068006E4F5FB75ED
:100C2600FC0E75FB0175FC0D802FE4F5FB53FCF102
:100C360075FB0175FC078021E4F5FB75FC0E80064B
:100C4600E4F5FB75FC0675FB0175FC0F800BE4F5FE
:100C5600FB53FCF175FB01F5FCD3EB9463EA9400BE
:100C66005003020D0A90004AE0B40A004003020D48
:100C760016900C7EF8282873020C9C020CA4020C19
:100C8600AC020CBA020CC2020CD0020CD8020CE662
:100C9600020CF4020CFC75FB0275FC0A805E75FB07
:100CA6000253FCF1801C75FB0275FC0C75FB037589
:100CB600FC0B805C75FB0275FC04804075FB0275BD
:100CC600FC0675FB0375FC06804675FB0275FC0683
:100CD600800675FB0275FC0E75FB0375FC0D8030F6
:100CE60075FB0253FCF175FB0375FC07802275FB4F
:100CF6000275FC0E800675FB0275FC0675FB037516
:100D0600FC0F800C75FB0253FCF175FB03E4F5FC4C
:100D1600D3EB9409EA94005003020DC1900049E018
:100D2600B40A004003020DCD900D35F82828730251
:100D36000D53020D5B020D63020D71020D79020D5A
:100D460087020D8F020D9D020DAB020DB375FB04DC
:100D560075FC0A805E75FB0453FCF1801C75FB0470
:100D660075FC0C75FB0575FC0B805C75FB0475FC4E
:100D760004804075FB0475FC0675FB0575FC068052
:100D86004675FB0475FC06800675FB0475FC0E753E
:100D9600FB0575FC0D803075FB0453FCF175FB05F6
:100DA60075FC07802275FB0475FC0E800675FB0436
:100DB60075FC0675FB0575FC0F800C75FB0453FC72
:100DC600F175FB05E4F5FCE9B40A004003020E6385
:100DD600900DDDF8282873020DFB020E03020E0BA0
:100DE600020E18020E20020E2D020E35020E4202CF
:100DF6000E4F020E5775FB0675FC0A805A75FB06E8
:100E060053FCF1801B75FB0675FC0C75FB0775FC26
:100E16000B2275FB0675FC04803D75FB0675FC060A
:100E260075FB0775FC062275FB0675FC06800675C4
:100E3600FB0675FC0E75FB0775FC0D2275FB06534C
:100E4600FCF175FB0775FC072275FB0675FC0E8029
:0D0E56000675FB0675FC0675FB0775FC0FA5
:010E6300226C
:072AD20075FB0653FCFE2218
:072AD90075FB0643FC01221E
:102944006D6574657220636F756E742025750D0A4C
:012954000082
:02232900C112DF
:0D29930053DCEF43DD101222A8439B02220B
:0C29D000E49000A4F0A3F0A3F0A3F02218
:1022A800C2DC43E90453E9FD43E90153EDFE43ED84
:1022B8000243ED0443ED0853EDEF53EDDF53EDBF5B
:1022C80053ED7F53EAFE43EA0243EA0443EA085324
:1022D800EAEF53EADF53EABF53EA7FE4F5EB53EB47
:0822E800FD53EBFB53EBF72261
:1028BE00D2DC53EDFD53EDFB53EDF753EAFD53EA36
:0528CE00FB53EAF722B4
:062AFE001229930229D009
:10288F007BFF7A2979449000A4E0FFA3E090004CED
:08289F00CFF0A3EFF00208489E
:1016AF00E49000A2F0EF14602814604C24027074D0
:1016BF009000A7E0FE700A9000A6E06061E4F08061
:1016CF0063EEB4010280499000A7E0640270558078
:1016DF00209000A7E0FEB4010C9000A6E06004E4A7
:1016EF00F080418039EEB4020280259000A7E070AF
:1016FF00339000A604F0802C9000A7E0FEB4020CFB
:10170F009000A6E06004E4F0801A8012EEB40207A5
:10171F00E49000A6F0800D9000A7E0B401069000C1
:10172F00A67401F09000A7EFF09000A6E060109073
:10173F0000A5E004F070209000A4E004F080189061
:10174F0000A4E07002A3E0600E9000A5E024FFF07B
:10175F009000A4E034FFF0301212C39000A5E09483
:10176F00069000A4E094005017C21222D39000A557
:10177F00E094129000A4E094004005D2121226A922
:01178F002237
:052B0400E4FF0216AF22
:052B09007F010216AF80
:052B0E007F020216AF7A
:1029550053DC7F43DD807F807E257D007C00022067
:012965008CE5
:10290D0030F80BE59A120480C2F8D2138002C2137C
:02291D00A21303
:01291F002295
:08232B0041009C0041009D00EF
:102714001227F35389F75389FB5389FD43890190A9
:10272400009C74FCF0A37466F0758CFCF58AD2A945
:03273400D28C2222
:1027F300E4900095F0900097F0900099F0A3F0908A
:0C2803000096F0900098F090009BF022EE
:03000B00021DD9FA
:101DD900C0E0C0F0C083C082C0D075D000C000C0D0
:101DE9000690009CE0F58CA3E0F58A900095E0044C
:101DF900F0C3940A4005E4F0A304F0900097E004CE
:101E0900F0C394644005E4F0A304F0900099E475EC
:101E1900F001120509FEC3E5F094E8EE9403400AC7
:101E2900900099E4F0A3F0A304F0D006D000D0D03C
:091E3900D082D083D0F0D0E03259
:1029200053897F5389BF4389205389EF758DCE75B5
:032930008BCE2229
:03001B00022B2491
:012B2400327E
:10252F0053B1FD43B202D28143E10175E80243B1D9
:10253F000453B2FB43F60453E1BF43E12053E1EFF1
:0E254F0043E22043E240E4F5E4F5E3D2AE229D
:10136F00EF14604414606F14700302140E147003B2
:10137F0002144A240460030214AEA2AF9210C2AF4B
:10138F0075C7AA75C755439780A21092AFA2AF92A7
:10139F0010C2AF75C7AA75C7555397BFA21092AFAA
:1013AF00E59630E7FB021475A2AF9210C2AF75C776
:1013BF00AA75C75553977FA21092AFA2AF9210C2D2
:1013CF00AF75C7AA75C755439740A21092AFE59660
:1013DF0030E6FB021475A2AF9210C2AF75C7AA75A3
:1013EF00C755439720A21092AFE59630E5FBA2AF09
:1013FF009210C2AF75C7AA75C7555396FB8027A227
:10140F00AF9210C2AF75C7AA75C755439710A210F8
:10141F0092AFE59630E4FBA2AF9210C2AF75C7AAA8
:10142F0075C755439604A21092AFA2AF9210C2AFE8
:10143F0075C7AA75C7555396FD804DA2AF9210C2BE
:10144F00AF75C7AA75C75553977FA21092AFA2AFBA
:10145F009210C2AF75C7AA75C7555397BFA2109206
:10146F00AFE59630E3FBA2AF9210C2AF75C7AA7576
:10147F00C7555396FBA21092AFA2AF9210C2AF7591
:10148F00C7AA75C755439602A21092AFA2AF92108A
:10149F00C2AF75C7AA75C7555396FEA21092AFE596
:0514AF009720E0FB2284
:1026080075985243892053877F538EEF53C4DFABAD
:1026180007AA06A905A804E47F807E70FDFC1206BF
:092628000DEFF404F58DD28E22B1
:10268100759852438920438780538EEF53C4DFAB43
:1026910007AA06A905A804E4FF7EE1FDFC12060DC8
:0826A100EFF404F58DD28E2246
:1025B40075985243892053877F438E1053C4DFABF1
:1025C40007AA06A905A8047F007E467D057C0012A3
:0A25D400060DEFF404F58DD28E22FF
:1025DE00759852438920438780438E1053C4DFABD6
:1025EE0007AA06A905A8047F007E8C7D0A7C00122E
:0A25FE00060DEFF404F58DD28E22D5
:101E42009000A81206C375985253877F53C4F84373
:101E5200C4209000A8E0F8A3E0F9A3E0FAA3E0FB15
:101E62007F007E467D057C0012060DC3E49FFFE4E1
:101E72009EFE74019DFDE49CFC78081206B08FC69C
:101E82009000A8E0F8A3E0F9A3E0FAA3E0FB7F004A
:101E92007E467D057C0012060DC3E49FFF8FC5437D
:031EA200C408224F
:101EA5009000AC1206C375985243878053C4F8431B
:101EB500C4209000ACE0F8A3E0F9A3E0FAA3E0FBAE
:101EC5007F007E8C7D0A7C0012060DC3E49FFFE433
:101ED5009EFE74019DFDE49CFC78081206B08FC639
:101EE5009000ACE0F8A3E0F9A3E0FAA3E0FB7F00E3
:101EF5007E8C7D0A7C0012060DC3E49FFF8FC543CF
:031F0500C40822EB
:10208C009000481206C375F85253C4F8900048E00B
:10209C00F8A3E0F9A3E0FAA3E0FB7F007E8C7D0AB5
:1020AC007C0012060DC3E49FFFE49EFE74019DFDAF
:1020BC00E49CFC78081206B08FC6900048E0F8A3A8
:1020CC00E0F9A3E0FAA3E0FB7F007E8C7D0A7C00A4
:0D20DC0012060DC3E49FFF8FC543C4082208
:070003003098FDAF99C2988F
:01000A0022D3
:082A2700C2998F993099FD223C
:072A2F0030F8FDAF9AC2F878
:012A3600227D
:082A3700C2F98F9A30F9FD226B
:10282A00E4F5B1F5B2F5B3F5B4F5B5F5B6F5ACF531
:0A283A00ADF5DAF5DBF5DCF5DD2283
:10279B0075B1FFE4F5B275B3FFF5B475B5FFF5B6DA
:1027AB0075ACFFF5AD75DAFFF5DB75DCFFF5DD22FA
:1028440075C7AA75C755A2AF9210C2AF75C7AA754E
:0A285400C755439F80A21092AF22E7
:042B130043AD80222C
:1023EF00EF640A701C30F811E59AB4130CC2F83080
:1023FF00F8FDE59AB411F6C2F830F9FDC2F9759AF5
:10240F000D30F811E59AB4130CC2F830F8FDE59AC7
:0D241F00B411F6C2F830F9FDC2F98F9A220F
:061C100090FFF812072608
:101C1600850D83850E821206CF00000000E47FFF4B
:101C26007EFFFDFC850D83850E82E0F8A3E0F9A317
:101C3600E0FAA3E0FBC312069F504C900004120783
:101C46004AE0FCA3E0FDA3E0FEA3E02401FFE43E9E
:101C5600FEE43DFDE43CFC90000412074A1206C374
:101C6600850D83850E82E0FCA3E0FDA3E0FEA3E0E4
:101C76002401FFE43EFEE43DFDE43CFC850D838546
:071C86000E821206C38096D6
:061C8D009000080207268A
:10277A00538EF7438901D28CEF4E6012758AF77532
:10278A008CFF308DFDC28DEF1F70ED1E80EAC28C6A
:01279A00221C
:10219E009000B01206C3538EF7438901D28CE4FF30
:1021AE00FEFDFC9000B0E0F8A3E0F9A3E0FAA3E096
:1021BE00FBC312069F602F758A65758CFC308DFDF2
:1021CE00C28D9000B0E0FCA3E0FDA3E0FEA3E024EE
:1021DE00FFFFEE34FFFEED34FFFDEC34FFFC90000C
:0921EE00B01206C380B8C28C22B5
:1021F7009000B41206C3538EEF438910D28EE4FFCA
:10220700FEFDFC9000B4E0F8A3E0F9A3E0FAA3E038
:10221700FBC312069F602F758B65758DFC308FFD94
:10222700C28F9000B4E0FCA3E0FDA3E0FEA3E0248E
:10223700FFFFEE34FFFEED34FFFDEC34FFFC9000B2
:09224700B41206C380B8C28E2255
:1020E9009000B81206C375C40243C408E4FFFEFD9C
:1020F900FC9000B8E0F8A3E0F9A3E0FAA3E0FBC381
:1021090012069F603275C53375C6F5E5C430E4FB28
:1021190053C4EF9000B8E0FCA3E0FDA3E0FEA3E008
:1021290024FFFFEE34FFFEED34FFFDEC34FFFC909D
:0B21390000B81206C380B553C4F722A3
:101FCC009000BC1206C3538FFB538FFD538FFEE45E
:101FDC00F586538FDF438F08E4FFFEFDFC9000BCB9
:101FEC00E0F8A3E0F9A3E0FAA3E0FBC312069F60BC
:101FFC002CE58F30E4FB538FEF9000BCE0FCA3E0AA
:10200C00FDA3E0FEA3E024FFFFEE34FFFEED34FF62
:10201C00FDEC34FFFC9000BC1206C380BB538FF761
:01202C002291
:1014B4000A3D3D3D3D3D3D3D3D3D3D3D3D3D3D3D8B
:1014C4003D3D3D3D3D3D3D3D3D3D3D3D3D3D3D3D48
:1014D4003D3D3D3D3D3D3D3D3D3D3D3D3D3D3D3D38
:1014E4003D3D3D3D3D3D3D3D3D3D3D3D3D3D3D3D28
:1014F4003D3D3D3D3D000A2A2020436F70797269CD
:101504006768742863292032303135204E75766F30
:10151400746F6E20546563686E6F6C6F67792043D7
:101524006F72702E20416C6C20726967687473202E
:1015340072657365727665642E2020000A2A202065
:10154400436F6E7461637420452D4D61696C3A205C
:101554004D6963726F432D38626974406E75766F9E
:10156400746F6E2E636F6D20202020202020202099
:101574002020202020202020202020202020202067
:1015840020000A2A202044656D6F20566572736915
:101594006F6E20203A202532642E2532642E2532A7
:1015A40064000A2A202046696E69736865642044D1
:1015B400617465203A202532642E2532642E25324A
:0215C4006400C1
:10202D007BFF7A1479B41208487BFF7A1479FA127F
:10203D0008487BFF7A1579401208487BFF7A15799D
:10204D008690004CE4F0A304F0E4A3F0A3F0A3F019
:10205D00A3F01208487BFF7A1579A690004C7407FF
:10206D00F0A374DFF0A3E4F0A37405F0A3E4F0A3F0
:0F207D00741FF01208487BFF7A1479B4020848E8
:03000000021A528F
:101A5200787FE4F6D8FD9000007FFF7E01E4F0A3DA
:0A1A6200DFFCDEFA758126021AA7E8
:101A6C00021C93E493A3F8E493A34003F68001F2E1
:101A7C0008DFF48029E493A3F85407240CC8C3337B
:101A8C00C4540F4420C8834004F456800146F6DF4A
:101A9C00E4800B01020408102040809022F0E47EC8
:101AAC00019360BCA3FF543F30E509541FFEE4933F
:101ABC00A360010ECF54C025E060A840B8E493A306
:101ACC00FAE493A3F8E493A3C8C582C8CAC583CA31
:101ADC00F0A3C8C582C8CAC583CADFE9DEE780BEE9
:0123330000A9
:10042000BB010CE58229F582E5833AF583E0225091
:1004300006E92582F8E622BBFE06E92582F8E222DB
:0D044000E58229F582E5833AF583E49322F5
:10044D00BB010FF8E58229F582E5833AF583E028B3
:10045D00F0225009C58229F8E58226F622BBFE0955
:10046D00C58229F8E22582F222F8EA2583F583E98F
:03047D009328229F
:10048000BB010689828A83F0225002F722BBFE015B
:02049000F32255
:10049200F8BB010DE58229F582E5833AF583E8F0A0
:1004A200225006E92582C8F622BBFE05E92582C84C
:0204B200F22234
:1004B400BC000BBE0029EF8DF084FFADF022E4CC2C
:1004C400F875F008EF2FFFEE33FEEC33FCEE9DECF5
:1004D400984005FCEE9DFE0FD5F0E9E4CEFD22ED3B
:1004E400F8F5F0EE8420D21CFEADF075F008EF2F85
:1004F400FFED33FD4007985006D5F0F222C398FD76
:050504000FD5F0EA2212
:10050900C5F0F8A3E028F0C5F0F8E582158270027D
:060519001583E038F0221A
:10051F00BB0110E58229F582E5833AF583E0F5F01A
:10052F00A3E0225009E92582F886F008E622BBFEF7
:10053F000AE92582F8E2F5F008E222E5832AF5833D
:08054F00E993F5F0A3E9932202
:10055700BB010DC58229C582C5833AC5830205093A
:100567005011C58229F808E5F026F618F5F0E5825E
:1005770036F622BBFE11C58229F808E225F0F5F010
:10058700F218E23582F222F8E58229F582E5832A1C
:0D059700F58374019325F0F5F0E49338220C
:1005A400F8BB0111E58229F582E5833AF583E8F089
:1005B400E5F0A3F0225009E92582C8F608A6F02246
:0D05C400BBFE09E92582C8F2E5F008F2222D
:1005D10075F008758200EF2FFFEE33FECD33CDCCE1
:1005E10033CCC58233C5829BED9AEC99E582984064
:1005F1000CF582EE9BFEED9AFDEC99FC0FD5F0D641
:10060100E4CEFBE4CDFAE4CCF9A88222B800C1B96A
:100611000059BA002DEC8BF084CFCECDFCE5F0CBA8
:10062100F97818EF2FFFEE33FEED33FDEC33FCEBE1
:1006310033FB10D703994004EB99FB0FD8E5E4F99C
:10064100FA227818EF2FFFEE33FEED33FDEC33FC89
:10065100C933C910D7059BE99A4007EC9BFCE99A7D
:10066100F90FD8E0E4C9FAE4CCFB2275F010EF2FC2
:10067100FFEE33FEED33FDCC33CCC833C810D707C2
:100681009BEC9AE899400AED9BFDEC9AFCE899F8FD
:0E0691000FD5F0DAE4CDFBE4CCFAE4C8F92290
:10069F00EB9FF5F0EA9E42F0E99D42F0E89C45F0B1
:0106AF002228
:1006B000E8600FECC313FCED13FDEE13FEEF13FF28
:0306C000D8F1224C
:0C06C300ECF0A3EDF0A3EEF0A3EFF022AA
:1006CF00A8828583F0D083D0821206E61206E61246
:1006DF0006E61206E6E473E493A3C583C5F0C5836B
:1006EF00C8C582C8F0A3C583C5F0C583C8C582C875
:0106FF0022D8
:10070000BB010789828A830207795005E9F802074D
:1007100070BBFE05E9F80207A289828A830207AB53
:060720008A838982E47364
:10072600E50E2582F582E50D3583F583B50D048545
:10073600820E2210AF0685820EF50D2285820EF5F9
:040746000DD2AF22FF
:0D074A00E50E2582F582E50D3583F583224D
:1007DD00E508244CF582E43400F583E00508229009
:1007ED00004930080390004CE475F00112078202B5
:1007FD0007572001E97F2ED2018018EF540F249066
:10080D00D43440D4FF30050BEF24BFB41A0050038D
:10081D002461FFE50960021509050CE50C70020560
:10082D000B30080E900049E475F001120782EF02BB
:10083D0004800223EF7403D2088003E4C208F50894
:10084D00900049120799E4F509F50BF50CE50960DF
:10085D00077F2012082080F5750AFFC202C201C26F
:10086D0003C204C206C207C2091207ECFF700D30A5
:10087D0008057F00120831AF0CAE0B22B4255FC204
:10088D00D5C2051207ECFF24D0B40A00501A75F03A
:10089D000A780930D50508B6FF0106C6A426F6204C
:1008AD00D5047002D20480D924CFB41A00EF5004BD
:1008BD00C2E5D205020A32D20280C6D20180C0D270
:1008CD000380BCD2D580BAD20680B47F2012082016
:1008DD002003077401B5090040F11207DDFF12086E
:1008ED002002085AD209D20780951207DDFB1207A4
:1008FD00DDFA1207DDF94A4B700679037A0B7BFF9F
:10090D0020032EE509602A7E008E82758300120475
:10091D002060060EEE650A70F0C2D5EBC0E0EAC0AD
:10092D00E0E9C0E0EE120A79D0E0F9D0E0FAD0E0CB
:10093D00FB120757FF60AAEBC0E0EAC0E0E9C0E098
:10094D00120820D0E02401F9D0E03400FAD0E0FB09
:10095D00E50A0460DCD50AD980877BFF7A0A7975B0
:10096D00D203809C791080027908C207C2098008E1
:10097D00D2D5790A8004790AC2D5E50A047002F548
:10098D000AE4FAFDFEFF1207DDFC7B0820021312BC
:10099D0007DDFD7B1030010A1207DDFE1207DDFFBA
:1009AD007B20EC3382D592D55013C3E43001069FE2
:1009BD00FFE49EFEE42002039DFDE49CFCE4CBF8E5
:1009CD00C202EC700CCFCECDCCE824F8F870F380D9
:1009DD0017C3EF33FFEE33FEED33FDEC33FCEB339A
:1009ED00FB994002FB0FD8E9EB300205F8D0E0C4CB
:1009FD0048B202C0E00AEC4D4E4F78207B0070C229
:100A0D00EAB50A0040BCC0E0120A7BD0F0D0E0206D
:100A1D000204C4C0E0C4B202C0F0120809D0F0D57F
:100A2D00F0EB02085A1207B708F75309715808C8B6
:100A3D004C08C44209754F097D44097D4908DD43C1
:080A4D0009835509674609679A
:100A5500450967470B235008CC2D08D02E08F32BEA
:100A650008D42308F1200B0C2A088C48000008EB59
:100A75003F3F3F00790AA2D5200414300609B9107A
:100A8500020404B9080104A2D5200702500104207C
:100A950003689203B509005034C0E07F2030041983
:100AA5007F30A20372077206500F120AD2C203C228
:100AB50007C206C2097F30800F300603E9C0E01285
:100AC5000820300603D0E0F9D0E0B509CC30061790
:100AD5007F30B9100C1208207F583005077F7880C9
:100AE50003B908031208203003057F2D0208207F73
:100AF500202009F87F2B2007F322920380CF286E50
:100B0500756C6C2900D2021207DD3002F8C202783A
:100B15000930D50108F602088C2D504349581207B3
:100B2500DD2403B405004001E4900B1E9312081167
:0D0B3500743A120811D20475090402097106
:10075700BB010689828A83E0225002E722BBFE02A0
:09076700E32289828A83E49322D3
:09077000E6FB08E6FA08E6F922AE
:09077900E0FBA3E0FAA3E0F92281
:10078200F8E0FBA3A3E0F925F0F0E5821582700200
:070792001583E0FA38F022A4
:09079900EBF0A3EAF0A3E9F02261
:0907A200E2FB08E2FA08E2F92288
:0C07AB00E493FB740193FA740293F922AA
:1007B700D083D082F8E4937012740193700DA3A3D1
:1007C70093F8740193F5828883E4737402936860E5
:0607D700EFA3A3A380DFE5
:00000001FF
