:09261200747275652025780A0038
:0820E2004100C7004100C800E5
:101737007F021212B41223D412239C12246C122695
:1017470080121C119000A3E06008E4F012150B1240
:1017570023EF9000A5E0600BE4F012261B121CCDCE
:091767001215D79000A8E0601AE9
:10177000E4F012000E9000C8E004F0E0D3940340BF
:0A17800009740AF09000C7E004F0BD
:10178A007B017A0079C912247F50347BFF7A26794B
:10179A00129000C9E090004BF01204469000C9E094
:1017AA0090004F6007E4F0A374028004E4F0A304FD
:1017BA00F07B057A007D057C00E4FFFE121FC4124F
:1017CA002176900047EFF0700302174BE0FF121FDB
:0417DA007E02174B29
:0820EA004100AC004100AD0013
:10246C00E49000ADF0A304F0900079F09000ABF094
:03247C000217DE66
:1017DE009000AEE024FE60281460592402600302DB
:1017EE001883E4FFFE120D80E4FFFE12074012255F
:1017FE006812258612259A1225FE1225A40225B8F6
:10180E001225901225687F411220797F421220798D
:10181E007F431220797F441220791225FE1225B8BB
:10182E001224A57BFF7A2579AE1225127BFF7A252D
:10183E0079A480321225901225687F411220797F7B
:10184E00421220797F431220797F4412207912258B
:10185E00FE1225A41224A57BFF7A2579C212251229
:10186E007BFF7A2579B812251EE4FBFA7D08FC7FF2
:06187E0008FE12211422F5
:101E8C009000ADE0704E9000AEE024FE602914602E
:101E9C00262402703FE490007BF0A3F0900080F0C9
:101EAC00A3F090007BE0FEA3E0FF120D8090008079
:101EBC00E0FEA3E0FF801AE490007BF0A3F090001A
:101ECC0080F0A3F0FF120FE9E4FFFE120D80E4FF97
:051EDC00FE1207402288
:102361009000ADE0FF900079E014700F9000797457
:0E23710002F09000AEF09000AD14F00217DE06
:101EE1009000AEE024FE601414603D240270449022
:101EF10000ADE06401703CA37402F0229000ADE0FB
:101F0100FFB40105A37403F022EF64027025900071
:101F1100ACE07002800E9000ACE004F0E0D364808D
:101F210094C4400F7441F0229000ADE0B40104A3C9
:041F31007401F02225
:102146009000AEE0B402081225AE1225B8800D90BC
:1021560000AEE0B403061225A41225C27F41122068
:10216600797F421220797F431220797F44022079B9
:101B4F009000ADE0FF9000AEE0B402051225A48036
:101B5F000A9000AEE0B403031225B89000ACE07019
:101B6F000312259A9000ACE0B4410812259A7F41E8
:101B7F001220799000ACE0B4420812259A7F4112EE
:101B8F0020799000ACE0B4430812259A7F411220CF
:101B9F00799000ACE0B4440812259A7F4112207965
:011BAF002213
:1019A1009000ADE004F0E0C394034002E4F0900045
:1019B100ADE024FE60320470659000AEE024FE705C
:1019C1005D1225AE1225B81224A57BFF7A21794636
:1019D1001225127BFF7A1B794F12251EE4FBFA7D3B
:1019E10009FC7F09FE0221149000AEE024FE702E56
:1019F1009000ADE0B402271225AE1225B81224A53D
:101A01007BFF7A2179461225127BFF7A1B794F12CF
:0F1A1100251EE4FBFA7D09FC7F09FE1221142239
:0326B100022424DC
:06267A001226B40224F850
:101F7E00900048EFF0122457900048E024FD6012C4
:101F8E0014602924FD602824FD6027240970260290
:101F9E001E8C9000ABE0B401067402F002267A901B
:101FAE0000ABE0B4020F7401F00226B1022361020D
:061FBE001EE11219A12230
:1020F2004800710A1414191E1E322841007000C1D2
:052102000BC109C10A38
:10239C009000797401F0E4A3F0A3F0A3F0A3F0A3F0
:0C23AC00F0A3F0A3F0A3F0900070F0226A
:1022B70090007CE004F0700690007BE004F0D3907F
:1022C700007CE0941090007BE094274004E4F0A3A6
:0422D700F0D20B2214
:0D000E00900070E0C394FF5003E004F02266
:09261B00300B05C20B120A8722E4
:100A8700900079E024FE6053147003020BF92402EE
:100A97006003020D5A90007BE0FEA3E0FF7C007D1F
:100AA7000A1200B2ED4C90004F700BF0A304F0FB5C
:100AB7007A007D0F800AE4F0A304F0FB7A007D053D
:100AC7007C00FF7E00121FC4C20A90007BE0FFA3D8
:100AD700E090007ECFF0A3EF020D4630091590009D
:100AE7004FE4F0A304F0FB7A007D057C00FF7E0055
:100AF700020C0E90007AE0FF3395E0FEEF25E0FF51
:100B0700EE33FE74F02FF58274FF3EF583E0FD743B
:100B1700EF2FF58274FF3EF583E08DF0A4FF900080
:100B27007BE0B5F019A3E0B50714D20990004FE4B4
:100B3700F0A304F0FB7A007D0F7C00FF804E90004D
:100B47007AE0FF3395E0FEEF25E0FFEE33FE74F029
:100B57002FF58274FF3EF583E0FD7C0090007BE07B
:100B6700FEA3E0FF1200B2ED4C90004F7011F0A30E
:100B77007403F07B057A007D057C007F01800DE41E
:100B8700F0A304F0FB7A007D057C00FF7E00121FB6
:100B9700C4D20A90007AE0FF3395E0FEEF25E0FF2C
:100BA700EE33FE74F02FF58274FF3EF583E0FD7C93
:100BB7000090007BE0FEA3E0FF1200B2A3EFF090ED
:100BC700007AE0FF3395E0FEEF25E0FFEE33FE7499
:100BD700F02FF58274FF3EF583E0FD7C0090007BEB
:100BE700E0FEA3E0FF1200B290007EECF0A3ED025E
:100BF7000D4630094C90004FE4F0A304F0FB7A0057
:100C07007D057C007F2CFE121FC490007AE0FF3325
:100C170095E0FEEF25E0FFEE33FE74F02FF58274CA
:100C2700FF3EF583E0FD74EF2FF58274FF3EF583F9
:100C3700E08DF0A4FF90007BE5F0F0A3EFF0020D4C
:100C47005A90007AE0FF3395E0FEEF25E0FFEE33A0
:100C5700FE74F02FF58274FF3EF583E0FD74EF2FED
:100C6700F58274FF3EF583E08DF0A4FF90007BE0F2
:100C7700B5F019A3E0B50714D20990004FE4F0A32B
:100C870004F0FB7A007D0F7C00FF803F90007AE044
:100C9700FF3395E0FEEF25E0FFEE33FE74F02FF50E
:100CA7008274FF3EF583E0FD7C0090007BE0FEA3AD
:100CB700E0FF1200B2ED4C90004F7013F0A37403E5
:100CC700F07B057A007D057C007F017E00800FE4C4
:100CD700F0A304F0FB7A007D057C007F2CFE121F39
:100CE700C4D20A90007AE0FF3395E0FEEF25E0FFDB
:100CF700EE33FE74F02FF58274FF3EF583E0FD7C42
:100D07000090007BE0FEA3E0FF1200B2A3EFF0909B
:100D1700007AE0FF3395E0FEEF25E0FFEE33FE7447
:100D2700F02FF58274FF3EF583E0FD7C0090007B99
:100D3700E0FEA3E0FF1200B290007EECF0A3EDF01E
:100D470090007CE025E0FE90007BE033900080F08F
:100D5700A3CEF0300A0A90007DE0FF120FE980036E
:100D670012229290007EE0FEA3E0FF120D80900019
:090D770080E0FEA3E0FF0207404A
:0C25120090008EEBF0A3EAF0A3E9F022A9
:0C251E00900091EBF0A3EAF0A3E9F0229A
:1024D80090008EA3E0FAA3E0F94A600312031E22DB
:1024E800900091A3E0FAA3E0F94A600312031E22C8
:10211400EF4E602D900084EEF0A3EFF0AF05A3EC3A
:10212400F0A3EFF0AF03A3EAF0A3EFF0E4A3F0A36E
:10213400F0A3F0A3F0900083F090008204F0122446
:02214400D8229F
:1024A500E4900082F0FBFAF912251212251E02248F
:0124B500E83E
:1015D700900082E0700302168B900086E0FEA3E085
:1015E700FF4E700302168B900083E07035D3EF94A3
:1015F70000EE9400500302168B90008AE475F00108
:10160700120107FED3900085E095F0900084E09EDC
:1016170050721224E8E490008AF0A3F0900083044B
:10162700F022900083E06401705A90008A75F001FF
:10163700120107FED3900087E095F0900086E09EA8
:101647005042900088E0FEA3E0FF9400EE94004033
:101657002590008CE475F001120107FCD3EF95F09B
:10166700EE9C5005E4900082F0900082E0700790B5
:101677000086F0A3F022E490008AF0A3F0900083A4
:05168700F01224D8223E
:02210700C10C09
:06268000E49000CEF02200
:101CCD009000CEE004F09000CDE024FE601A146088
:101CDD002D146038240370429000CEE0C39405406B
:101CED0039E4F0300C14800E9000CEE0C3940A401D
:101CFD0029E4F0300C04C20C800FD20C8019900036
:101D0D00CEE0C394094013E4F002257C9000CEE0B0
:0A1D1D00C394094005E4F01225729A
:011D27002299
:1023D4001223411226921226981226511222FE121C
:0B23E400226D1222DB1224C7D2AF22B0
:1022FE0053ACFE43AD01C2B053CABF43CA2043CA5A
:10230E001075D68075D78043CA80D2CBE4900094E6
:02231E00F022AB
:0626860043CB40D2B0225C
:06268C0053CBBFC2B022D7
:101FC400ED4C603C900096EEF0A3EFF0AF05A3EC6F
:101FD400F0A3EFF0AF03A3EAF0A3EFF090004FE01B
:101FE400FFA3E090009CCFF0A3EFF0E4A3F0A3F0F4
:101FF400A3F0A3F0900095F090009404F0122686CC
:0120040022B9
:08000300E4900094F002268C49
:1024570090004FE4F0A304F0FB7A007D057C00E4D4
:05246700FFFE021FC48E
:10150B00900094E070030215D690009AE0FEA3E0E1
:10151B00FF4E70030215D6900096E07002A3E060B8
:10152B000F900097E024FFF0900096E034FFF0223C
:10153B00900095E0FD7035D3EF9400EE94005003CE
:10154B000215D690009EE475F001120107FED390B0
:10155B000099E095F0900098E09E506F12268CE475
:10156B0090009EF0A3F090009504F022ED640170C2
:10157B005A90009E75F001120107FED390009BE07C
:10158B0095F090009AE09E504290009CE0FEA3E004
:10159B00FF9400EE940040259000A0E475F001123A
:1015AB000107FCD3EF95F0EE9C5005E4900094F00E
:1015BB00900094E0700790009AF0A3F022E4900062
:0C15CB009EF0A3F0900095F012268622FE
:092624003083037F00227F0122B4
:09262D003084037F00227F0122AA
:092636003085037F00227F0122A0
:09263F003086037F00227F012296
:0C252A002083062085037F01227F002211
:0626920012168C02243E2A
:10237F00900045E0243AF582E43400F583EFF090C5
:0D238F000045E004F0C3940A4002E4F0228F
:10217600900045E0FF900044E0FEB507037F002293
:10218600743A2EF582E43400F583E0FF900044E0D3
:0921960004F0C3940A4002E4F0D5
:01219F00221D
:10221D00900045E0FFA3E0FEB507037F0022743A6E
:10222D002EF582E43400F583E0FF900046E004F0E3
:07223D00C3940A4002E4F023
:012244002277
:1024B600EF75F00BA4240BF582E43400F583E0FFFE
:0124C60022F3
:1020AE00EF75F00BA42409F582E43400F583ECF00F
:1020BE00A3EDF0EF75F00BA4240CF582E43400F5DB
:1020CE0083EBF0EF75F00BA4240DF582E43400F5EC
:0420DE0083E4F02285
:09264800900045E0900044F022EE
:10243E0043B10853B2F743B11053B2EF43B1205337
:09244E00B2DF43B14053B2BF22DA
:10168C00E4900044F0A3F0A3F0FFEF75F00BA4245A
:10169C0009F582E43400F583E4F0A37464F0EF758B
:1016AC00F00BA42406F582E43400F5837402F0EF09
:1016BC0075F00BA4240BF582E43400F583E4F0EF11
:1016CC0075F00BA4240CF582E43400F583E4F0EF00
:1016DC0075F00BA4240DF582E43400F583E4F00FCF
:1016EC00EFB405A690000374FFF0A37426F0A37466
:1016FC0024F090000E74FFF0A37426F0A3742DF068
:10170C0090001974FFF0A37426F0A37436F09000C7
:10171C002474FFF0A37426F0A3743FF090002F7490
:0A172C00FFF0A37425F0A3742AF067
:011736002290
:10115A00900049EFF0E075F00BA42403F974003510
:10116A00F0FA7B01900000EBF0A3EAF0A3E9F01299
:10117A0002FE12031EEF700302124C900000E0FB05
:10118A00A3E0FAA3E0F990000312001EFFC394053E
:10119A00500890000374050212B0EFC3940A500875
:1011AA00900003740102004B90000812001E701494
:1011BA0090000804120090900049E075F003A4041E
:1011CA00FF12237F900000E0FBA3E0FAA3E0F9906E
:1011DA00000612011DFFAEF0D39400EE94005003F6
:1011EA000212B390000412011DC39FE5F09E502322
:1011FA00900004E475F001120155FCE5F06F7002ED
:10120A00EC6E60030212B3900049E075F003A42467
:10121A0003802B90000912001EFFD3940050030292
:10122A0012B390000A740112004BC39F407B9000D6
:10123A000AE4120090900049E075F003A404FF024A
:10124A00237F900000E0FBA3E0FAA3E0F9900003FB
:10125A0012001EFFD39405400A9000037405120081
:10126A0090802BEF600A90000374FF12004B801EDF
:10127A0090000812001EB40115900008E4120090B4
:10128A00900049E075F003A42402FF12237F900026
:10129A0000E0FBA3E0FAA3E0F9900004E4F5F01201
:0A12AA0001A290000AE41200902255
:1023EF00E4900048F0900048E0FFC39405500B12B2
:0A23FF00115A900048E004F080EB52
:0124090022B0
:0926510053ACFD43AD020226B7B3
:0326B400C2B1228E
:0326B700D2B1227B
:10226D00E4F5B475B3FFF5B675B5FFF5DB75DAFFBB
:10227D0075F94075FA0475E5FF75E6FF75E70743D7
:05228D00F9800224F8B5
:0C24F800E4FF8FFBE4F5FC0FEFB413F6DB
:0125040022B4
:0A25360053E6FB75FB0AE4F5FC22F6
:0A25400043E60475FB0A75FC012256
:0A254A0053E6EF75FB0CE4F5FC22EC
:0A25540043E61075FB0C75FC012234
:0A255E0053E6FE75FB08E4F5FC22CD
:0A25680043E60175FB0875FC012233
:0A25720053E6BF75FB0EE4F5FC22F2
:0A257C0043E64075FB0E75FC0122DA
:0A25860053E7FE75FB10E4F5FC229C
:0A25900043E70175FB1075FC012202
:1022920053E7FB53E7F753E7EF53E7DF75FB12759D
:1022A200FC0E75FB1375FC0F75FB1475FC0E75FBAC
:0522B2001575FC0F2270
:100FE900EFD394634003021159EF75F00A84FEEFC1
:100FF90075F00A84ADF0EFD3940950030210AC43A5
:10100900E64043E680AF06EFB40A0040030210BD94
:10101900901020F828287302103E02104602104E44
:1010290002105C02106402107202107A0210880227
:10103900109602109E75FB0E75FC0A805E75FB0EFC
:10104900E4F5FC801C75FB0E75FC0C75FB0F75FC3B
:101059000B806175FB0E75FC04804075FB0E75FCF9
:101069000675FB0F75FC06804B75FB0E75FC06803B
:101079000675FB0E75FC0E75FB0F75FC0D8035753D
:10108900FB0EE4F5FC75FB0F75FC07802775FB0E5D
:1010990075FC0E800675FB0E75FC0675FB0F75FC5D
:1010A9000F801143E64043E68075FB0EE4F5FC75BD
:1010B900FB0FF5FC43E70143E702EDB40A004003E7
:1010C9000211599010D3F82828730210F10210F96F
:1010D90002110102110E02111602112302112B0233
:1010E900113802114502114D75FB1075FC0A805A21
:1010F90075FB10E4F5FC801B75FB1075FC0C75FB8A
:101109001175FC0B2275FB1075FC04803D75FB10F5
:1011190075FC0675FB1175FC062275FB1075FC063E
:10112900800675FB1075FC0E75FB1175FC0D22759B
:10113900FB10E4F5FC75FB1175FC072275FB1075B6
:10114900FC0E800675FB1075FC0675FB1175FC0F0E
:011159002273
:0A259A0053E7FB75FB12E4F5FC2289
:1020790043E704EF24BE60111460151460192403AA
:10208900701C75FB1275FC012275FB1275FC02228E
:1020990075FB1275FC042275FB1275FC082275FB91
:0520A90012E4F5FC2229
:1020420053E6FE53E6FD53E6FB53E6F753E6EF5342
:10205200E6DF75FB0875FC0E75FB0975FC0F75FB59
:102062000A75FC0E75FB0B75FC0F75FB0C75FC0EEF
:0720720075FB0D75FC0F2248
:040D8000AB07AA060D
:100D8400D3EB94E7EA94034003020FE87C007D640C
:100D9400AF03AE021200B290004AEFF07C007D6413
:100DA400AF03AE021200B27E007F0ACFCDCFCECC0D
:100DB400CE1200B2900049EFF07C007D0AAF03AE82
:100DC400021200B2A905D3EB9463EA940050030223
:100DD4000E7943E60143E602A3E0B40A00400302AD
:100DE4000E8A900DEDF8282873020E0B020E1302E2
:100DF4000E1B020E29020E31020E3F020E47020E96
:100E040055020E63020E6B75FB0875FC0A805E7555
:100E1400FB08E4F5FC801C75FB0875FC0C75FB09EC
:100E240075FC0B806175FB0875FC04804075FB083C
:100E340075FC0675FB0975FC06804B75FB0875FC93
:100E440006800675FB0875FC0E75FB0975FC0D80A4
:100E54003575FB08E4F5FC75FB0975FC07802775FF
:100E6400FB0875FC0E800675FB0875FC0675FB090E
:100E740075FC0F801153E6FE53E6FD75FB08E4F59F
:100E8400FC75FB09F5FCD3EB9409EA9400500302CA
:100E94000F3B43E60443E608900049E0B40A0040EF
:100EA40003020F4C900EAFF8282873020ECD020EE9
:100EB400D5020EDD020EEB020EF3020F01020F0942
:100EC400020F17020F25020F2D75FB0A75FC0A800D
:100ED4005E75FB0AE4F5FC801C75FB0A75FC0C7559
:100EE400FB0B75FC0B806175FB0A75FC0480407577
:100EF400FB0A75FC0675FB0B75FC06804B75FB0A3B
:100F040075FC06800675FB0A75FC0E75FB0B75FCFB
:100F14000D803575FB0AE4F5FC75FB0B75FC078049
:100F24002775FB0A75FC0E800675FB0A75FC0675B1
:100F3400FB0B75FC0F801153E6FB53E6F775FB0AB8
:100F4400E4F5FC75FB0BF5FC43E61043E620E9B43D
:100F54000A004003020FE8900F62F8282873020F7A
:100F640080020F88020F90020F9D020FA5020FB29C
:100F7400020FBA020FC7020FD4020FDC75FB0C7507
:100F8400FC0A805A75FB0CE4F5FC801B75FB0C75A0
:100F9400FC0C75FB0D75FC0B2275FB0C75FC0480B9
:100FA4003D75FB0C75FC0675FB0D75FC062275FB87
:100FB4000C75FC06800675FB0C75FC0E75FB0D7537
:100FC400FC0D2275FB0CE4F5FC75FB0D75FC07228A
:100FD40075FB0C75FC0E800675FB0C75FC0675FB29
:040FE4000D75FC0F7C
:010FE80022E6
:0A25A40053E5FB75FB0275FC0122F4
:0A25AE0043E50475FB0275FC0122F1
:0A25B80053E5EF75FB0475FC0122EA
:0A25C20043E51075FB0475FC0122CF
:0A25CC0053E6FE75FB0875FC0122C2
:0A25D60043E60175FB0875FC0122C5
:0A25E00053E5FEE4F5FB75FC012253
:0A25EA0043E501E4F5FB75FC012256
:101F350053E5FE53E5FD53E5FB53E5F753E5EF5355
:101F4500E5DF53E5BF53E57FE4F5FB75FC0E75FB57
:101F55000175FC0F75FB0275FC0E75FB0375FC0F17
:101F650075FB0475FC0E75FB0575FC0F75FB067599
:091F7500FC0E75FB0775FC0F2240
:04074000AB07AA0653
:10074400D3EB940FEA94274003020A867C037DE8E6
:10075400AF03AE021200B290004BEFF07C037DE8D1
:10076400AF03AE021200B27E007F64CFCDCFCECCF9
:10077400CE1200B290004AEFF07C007D64AF03AE6D
:10078400021200B27E007F0ACFCDCFCECCCE1200B3
:10079400B2900049EFF07C007D0AAF03AE02120074
:1007A400B2A905D3EB94E7EA940350030208564335
:1007B400E50143E50290004BE0B40A00400302085F
:1007C400669007CCF82828730207EA0207F20207AA
:1007D400F902080702080F02081D0208250208335F
:1007E400020840020848E4F5FB75FC0A805CE4F565
:1007F400FBF5FC801CE4F5FB75FC0C75FB0175FC3A
:100804000B805FE4F5FB75FC04803FE4F5FB75FCAD
:100814000675FB0175FC068049E4F5FB75FC068052
:1008240006E4F5FB75FC0E75FB0175FC0D8033E4E5
:10083400F5FBF5FC75FB0175FC078026E4F5FB75FB
:10084400FC0E8006E4F5FB75FC0675FB0175FC0FD8
:10085400801053E5FE53E5FDE4F5FBF5FC75FB0163
:10086400F5FCD3EB9463EA9400500302091743E5C3
:100874000443E50890004AE0B40A00400302092852
:1008840090088BF82828730208A90208B10208B955
:100894000208C70208CF0208DD0208E50208F302D5
:1008A400090102090975FB0275FC0A805E75FB02E9
:1008B400E4F5FC801C75FB0275FC0C75FB0375FCF0
:1008C4000B806175FB0275FC04804075FB0275FCAE
:1008D4000675FB0375FC06804B75FB0275FC0680F0
:1008E4000675FB0275FC0E75FB0375FC0D803575F2
:1008F400FB02E4F5FC75FB0375FC07802775FB021E
:1009040075FC0E800675FB0275FC0675FB0375FC11
:100914000F801153E5FB53E5F775FB02E4F5FC7515
:10092400FB03F5FCD3EB9409EA940050030209D9C4
:1009340043E51043E520900049E0B40A0040030277
:1009440009EA90094DF828287302096B0209730219
:10095400097B02098902099102099F0209A7020978
:10096400B50209C30209CB75FB0475FC0A805E75E8
:10097400FB04E4F5FC801C75FB0475FC0C75FB059D
:1009840075FC0B806175FB0475FC04804075FB04E9
:1009940075FC0675FB0575FC06804B75FB0475FC40
:1009A40006800675FB0475FC0E75FB0575FC0D8051
:1009B4003575FB04E4F5FC75FB0575FC07802775AC
:1009C400FB0475FC0E800675FB0475FC0675FB05BF
:1009D40075FC0F801153E5EF53E5DF75FB04E4F577
:1009E400FC75FB05F5FC43E54043E580E9B40A00EA
:1009F4004003020A86900A00F8282873020A1E029D
:100A04000A26020A2E020A3B020A43020A50020A7A
:100A140058020A65020A72020A7A75FB0675FC0A14
:100A2400805A75FB06E4F5FC801B75FB0675FC0C0F
:100A340075FB0775FC0B2275FB0675FC04803D7580
:100A4400FB0675FC0675FB0775FC062275FB06752F
:100A5400FC06800675FB0675FC0E75FB0775FC0D20
:100A64002275FB06E4F5FC75FB0775FC072275FB94
:100A74000675FC0E800675FB0675FC0675FB07758E
:020A8400FC0F65
:010A8600224D
:0A25F40053E5BF75FB0675FC0122DC
:0A25FE0043E54075FB0675FC012261
:02210900C10E05
:0D250500E4F5E9F5EDF5EAF5EB439B022264
:0A260800E49000CAF0A3F0A3F02252
:06269800122505022608D0
:101E35009000CCE0FEC3EF9E64016007C3EE9FFEF9
:101E4500BE02149000CB7401F09000CAE0C394FF69
:101E55005012E004F0800DE49000CBF09000CAE051
:101E6500600214F09000CCEFF0300E0C9000CAE048
:101E7500C3940A5011C20E229000CAE0D394644064
:061E850005D20E1222B787
:011E8B002234
:05269E007F01021E3562
:0526A3007F02021E355C
:0526A8007F03021E3556
:1024C70053DC7F43DD807F807E257D007C00021CFE
:0124D7007094
:10247F0030F80BE59A12007EC2F8D2008002C2003B
:02248F00A200A9
:012491002228
:08210B004100A9004100AA00F7
:1022DB001223B85389F75389FB5389FD4389019026
:1022EB0000A974FCF0A37466F0758CFCF58AD2A976
:0322FB00D28C2260
:1023B800E49000A2F09000A4F09000A6F0A3F090A2
:0C23C80000A3F09000A5F09000A8F02207
:03000B00021A20B6
:101A2000C0E0C0F0C083C082C0D075D000C000C08C
:101A3000069000A9E0F58CA3E0F58A9000A2E004EE
:101A4000F0C3940A4005E4F0A304F09000A4E0047D
:101A5000F0C394644005E4F0A304F09000A6E4759C
:101A6000F001120107FEC3E5F094E8EE9403400A8A
:101A70009000A6E4F0A3F0A304F0D006D000D0D0EC
:091A8000D082D083D0F0D0E03216
:1024920053897F5389BF4389205389EF758DCE7548
:0324A2008BCE22BC
:03001B000226BA00
:0126BA0032ED
:1012B400EF14604414606F1470030213531470032A
:1012C40002138F240460030213F3A2AF920DC2AF82
:1012D40075C7AA75C755439780A20D92AFA2AF9266
:1012E4000DC2AF75C7AA75C7555397BFA20D92AF6C
:1012F400E59630E7FB0213BAA2AF920DC2AF75C7F1
:10130400AA75C75553977FA20D92AFA2AF920DC293
:10131400AF75C7AA75C755439740A20D92AFE5961E
:1013240030E6FB0213BAA2AF920DC2AF75C7AA751D
:10133400C755439720A20D92AFE59630E5FBA2AFC7
:10134400920DC2AF75C7AA75C7555396FB8027A2E5
:10135400AF920DC2AF75C7AA75C755439710A20DBA
:1013640092AFE59630E4FBA2AF920DC2AF75C7AA67
:1013740075C755439604A20D92AFA2AF920DC2AFAA
:1013840075C7AA75C7555396FD804DA2AF920DC27D
:10139400AF75C7AA75C75553977FA20D92AFA2AF79
:1013A400920DC2AF75C7AA75C7555397BFA20D92C8
:1013B400AFE59630E3FBA2AF920DC2AF75C7AA7535
:1013C400C7555396FBA20D92AFA2AF920DC2AF7553
:1013D400C7AA75C755439602A20D92AFA2AF920D4C
:1013E400C2AF75C7AA75C7555396FEA20D92AFE555
:0513F4009720E0FB2240
:1021F40075985243892053877F538EEF53C4DFABC6
:1022040007AA06A905A804E47F807E70FDFC1202DB
:092214000BEFF404F58DD28E22CB
:10224500759852438920438780538EEF53C4DFAB83
:1022550007AA06A905A804E4FF7EE1FDFC12020B0E
:08226500EFF404F58DD28E2286
:1021A00075985243892053877F438E1053C4DFAB09
:1021B00007AA06A905A8047F007E467D057C0012BB
:0A21C000020BEFF404F58DD28E221D
:1021CA00759852438920438780438E1053C4DFABEE
:1021DA0007AA06A905A8047F007E8C7D0A7C001246
:0A21EA00020BEFF404F58DD28E22F3
:101A89009000AF1202C175985253877F53C4F8432F
:101A9900C4209000AFE0F8A3E0F9A3E0FAA3E0FBCB
:101AA9007F007E467D057C0012020BC3E49FFFE4A4
:101AB9009EFE74019DFDE49CFC78081202AE8FC65F
:101AC9009000AFE0F8A3E0F9A3E0FAA3E0FB7F0000
:101AD9007E467D057C0012020BC3E49FFF8FC54340
:031AE900C408220C
:101AEC009000B31202C175985243878053C4F843D7
:101AFC00C4209000B3E0F8A3E0F9A3E0FAA3E0FB64
:101B0C007F007E8C7D0A7C0012020BC3E49FFFE4F5
:101B1C009EFE74019DFDE49CFC78081202AE8FC6FB
:101B2C009000B3E0F8A3E0F9A3E0FAA3E0FB7F0098
:101B3C007E8C7D0A7C0012020BC3E49FFF8FC54391
:031B4C00C40822A8
:101C70009000481202C175F85253C4F8900048E031
:101C8000F8A3E0F9A3E0FAA3E0FB7F007E8C7D0AD5
:101C90007C0012020BC3E49FFFE49EFE74019DFDD5
:101CA000E49CFC78081202AE8FC6900048E0F8A3CE
:101CB000E0F9A3E0FAA3E0FB7F007E8C7D0A7C00C4
:0D1CC00012020BC3E49FFF8FC543C408222E
:07265A003098FDAF99C29812
:012661002256
:08266200C2998F993099FD2205
:07266A0030F8FDAF9AC2F841
:012671002246
:08267200C2F98F9A30F9FD2234
:10240A00E4F5B1F5B2F5B3F5B4F5B5F5B6F5ACF555
:0A241A00ADF5DAF5DBF5DCF5DD22A7
:1023410075B1FFE4F5B275B3FFF5B475B5FFF5B638
:1023510075ACFFF5AD75DAFFF5DB75DCFFF5DD2258
:1024240075C7AA75C755A2AF920DC2AF75C7AA7575
:0A243400C755439F80A20D92AF220E
:0426AD0043AD802297
:10200500EF640A701C30F811E59AB4130CC2F8306D
:10201500F8FDE59AB411F6C2F830F9FDC2F9759AE2
:102025000D30F811E59AB4130CC2F830F8FDE59AB5
:0D203500B411F6C2F830F9FDC2F98F9A22FD
:06191E0090FFF812032403
:10192400850D83850E821202CD00000000E47FFF46
:101934007EFFFDFC850D83850E82E0F8A3E0F9A30C
:10194400E0FAA3E0FBC312029D504C900004120382
:1019540048E0FCA3E0FDA3E0FEA3E02401FFE43E95
:10196400FEE43DFDE43CFC9000041203481202C175
:10197400850D83850E82E0FCA3E0FDA3E0FEA3E0D9
:101984002401FFE43EFEE43DFDE43CFC850D83853B
:071994000E821202C18096D1
:06199B0090000802032485
:10232000538EF7438901D28CEF4E6012758AF77590
:102330008CFF308DFDC28DEF1F70ED1E80EAC28CC8
:01234000227A
:101D83009000B71202C1538EF7438901D28CE4FF4E
:101D9300FEFDFC9000B7E0F8A3E0F9A3E0FAA3E0AE
:101DA300FBC312029D602F758A65758CFC308DFD17
:101DB300C28D9000B7E0FCA3E0FDA3E0FEA3E02406
:101DC300FFFFEE34FFFEED34FFFDEC34FFFC90002B
:091DD300B71202C180B8C28C22D3
:101DDC009000BB1202C1538EEF438910D28EE4FFE8
:101DEC00FEFDFC9000BBE0F8A3E0F9A3E0FAA3E051
:101DFC00FBC312029D602F758B65758DFC308FFDBA
:101E0C00C28F9000BBE0FCA3E0FDA3E0FEA3E024A6
:101E1C00FFFFEE34FFFEED34FFFDEC34FFFC9000D1
:091E2C00BB1202C180B8C28E2273
:101D28009000BF1202C175C40243C408E4FFFEFD5F
:101D3800FC9000BFE0F8A3E0F9A3E0FAA3E0FBC33E
:101D480012029D603275C53375C6F5E5C430E4FBF3
:101D580053C4EF9000BFE0FCA3E0FDA3E0FEA3E0C6
:101D680024FFFFEE34FFFEED34FFFDEC34FFFC9062
:0B1D780000BF1202C180B553C4F72267
:101BB0009000C31202C1538FFB538FFD538FFEE47D
:101BC000F586538FDF438F08E4FFFEFDFC9000C3D2
:101BD000E0F8A3E0F9A3E0FAA3E0FBC312029D60E2
:101BE0002CE58F30E4FB538FEF9000C3E0FCA3E0C3
:101BF000FDA3E0FEA3E024FFFFEE34FFFEED34FF83
:101C0000FDEC34FFFC9000C31202C180BB538FF780
:011C100022B1
:1013F9000A3D3D3D3D3D3D3D3D3D3D3D3D3D3D3D47
:101409003D3D3D3D3D3D3D3D3D3D3D3D3D3D3D3D03
:101419003D3D3D3D3D3D3D3D3D3D3D3D3D3D3D3DF3
:101429003D3D3D3D3D3D3D3D3D3D3D3D3D3D3D3DE3
:101439003D3D3D3D3D000A2A2020436F7079726988
:101449006768742863292032303135204E75766FEC
:10145900746F6E20546563686E6F6C6F6779204393
:101469006F72702E20416C6C2072696768747320EA
:1014790072657365727665642E2020000A2A202021
:10148900436F6E7461637420452D4D61696C3A2018
:101499004D6963726F432D38626974406E75766F5A
:1014A900746F6E2E636F6D20202020202020202055
:1014B9002020202020202020202020202020202023
:1014C90020000A2A202044656D6F205665727369D1
:1014D9006F6E20203A202532642E2532642E253263
:1014E90064000A2A202046696E697368656420448D
:1014F900617465203A202532642E2532642E253206
:0215090064007C
:101C11007BFF7A1379F91204467BFF7A14793F121C
:101C210004467BFF7A1479851204467BFF7A147986
:101C3100CB90004BE4F0A304F0E4A3F0A3F0A3F0F5
:101C4100A3F01204467BFF7A1479EB90004B7407E2
:101C5100F0A374DFF0A3E4F0A37405F0A3E4F0A310
:0F1C6100741FF01204467BFF7A1379F9020446D0
:030000000218845F
:10188400787FE4F6D8FD9000007FFF7E01E4F0A3AA
:0A189400DFFCDEFA7581210218D98D
:10189E00021737E493A3F8E493A34003F68001F212
:1018AE0008DFF48029E493A3F85407240CC8C3334B
:1018BE00C4540F4420C8834004F456800146F6DF1A
:1018CE00E4800B01020408102040809020E2E47EA8
:1018DE00019360BCA3FF543F30E509541FFEE4930F
:1018EE00A360010ECF54C025E060A840B8E493A3D6
:1018FE00FAE493A3F8E493A3C8C582C8CAC583CA01
:10190E00F0A3C8C582C8CAC583CADFE9DEE780BEB8
:0121130000CB
:10001E00BB010CE58229F582E5833AF583E0225097
:10002E0006E92582F8E622BBFE06E92582F8E222E1
:0D003E00E58229F582E5833AF583E49322FB
:10004B00BB010FF8E58229F582E5833AF583E028B9
:10005B00F0225009C58229F8E58226F622BBFE095B
:10006B00C58229F8E22582F222F8EA2583F583E995
:03007B00932822A5
:10007E00BB010689828A83F0225002F722BBFE0161
:02008E00F3225B
:10009000F8BB010DE58229F582E5833AF583E8F0A6
:1000A000225006E92582C8F622BBFE05E92582C852
:0200B000F2223A
:1000B200BC000BBE0029EF8DF084FFADF022E4CC32
:1000C200F875F008EF2FFFEE33FEEC33FCEE9DECFB
:1000D200984005FCEE9DFE0FD5F0E9E4CEFD22ED41
:1000E200F8F5F0EE8420D21CFEADF075F008EF2F8B
:1000F200FFED33FD4007985006D5F0F222C398FD7C
:050102000FD5F0EA2218
:10010700C5F0F8A3E028F0C5F0F8E5821582700283
:060117001583E038F02220
:10011D00BB0110E58229F582E5833AF583E0F5F020
:10012D00A3E0225009E92582F886F008E622BBFEFD
:10013D000AE92582F8E2F5F008E222E5832AF58343
:08014D00E993F5F0A3E9932208
:10015500BB010DC58229C582C5833AC58302010746
:100165005011C58229F808E5F026F618F5F0E58264
:1001750036F622BBFE11C58229F808E225F0F5F016
:10018500F218E23582F222F8E58229F582E5832A22
:0D019500F58374019325F0F5F0E493382212
:1001A200F8BB0111E58229F582E5833AF583E8F08F
:1001B200E5F0A3F0225009E92582C8F608A6F0224C
:0D01C200BBFE09E92582C8F2E5F008F22233
:1001CF0075F008758200EF2FFFEE33FECD33CDCCE7
:1001DF0033CCC58233C5829BED9AEC99E58298406A
:1001EF000CF582EE9BFEED9AFDEC99FC0FD5F0D647
:1001FF00E4CEFBE4CDFAE4CCF9A88222B800C1B971
:10020F000059BA002DEC8BF084CFCECDFCE5F0CBAE
:10021F00F97818EF2FFFEE33FEED33FDEC33FCEBE7
:10022F0033FB10D703994004EB99FB0FD8E5E4F9A2
:10023F00FA227818EF2FFFEE33FEED33FDEC33FC8F
:10024F00C933C910D7059BE99A4007EC9BFCE99A83
:10025F00F90FD8E0E4C9FAE4CCFB2275F010EF2FC8
:10026F00FFEE33FEED33FDCC33CCC833C810D707C8
:10027F009BEC9AE899400AED9BFDEC9AFCE899F803
:0E028F000FD5F0DAE4CDFBE4CCFAE4C8F92296
:10029D00EB9FF5F0EA9E42F0E99D42F0E89C45F0B7
:0102AD00222E
:1002AE00E8600FECC313FCED13FDEE13FEEF13FF2E
:0302BE00D8F12252
:0C02C100ECF0A3EDF0A3EEF0A3EFF022B0
:1002CD00A8828583F0D083D0821202E41202E41258
:1002DD0002E41202E4E473E493A3C583C5F0C5837D
:1002ED00C8C582C8F0A3C583C5F0C583C8C582C87B
:0102FD0022DE
:1002FE00BB010789828A830203775005E9F802035E
:10030E006EBBFE05E9F80203A089828A830203A967
:06031E008A838982E4736A
:10032400E50E2582F582E50D3583F583B50D04854B
:10033400820E2210AF0685820EF50D2285820EF5FF
:040344000DD2AF2205
:0D034800E50E2582F582E50D3583F5832253
:1003DB00E508244BF582E43400F583E00508229010
:1003EB00004830070390004BE475F00112038002C4
:1003FB0003552000E97F2ED2008018EF540F249074
:10040B00D43440D4FF30040BEF24BFB41A00500394
:10041B002461FFE50960021509050CE50C70020566
:10042B000B30070E900048E475F001120380EF02C9
:10043B00007E0220057403D2078003E4C207F5088F
:10044B00900048120397E4F509F50BF50CE50960EC
:10045B00077F2012041E80F5750AFFC201C200C27D
:10046B0002C203C205C206C2081203EAFF700D30B6
:10047B0007057F0012042FAF0CAE0B22B4255FC211
:10048B00D5C2041203EAFF24D0B40A00501A75F047
:10049B000A780930D50508B6FF0106C6A426F62052
:1004AB00D5047002D20380D924CFB41A00EF5004C4
:1004BB00C2E5D204020630D20180C6D20080C0D27F
:1004CB000280BCD2D580BAD20580B47F2012041E24
:1004DB002002077401B5090040F11203DBFF12047F
:1004EB001E020458D208D20680951203DBFB1203BE
:1004FB00DBFA1203DBF94A4B700679017A077BFFB3
:10050B0020022EE509602A7E008E82758300120080
:10051B001E60060EEE650A70F0C2D5EBC0E0EAC0B5
:10052B00E0E9C0E0EE120677D0E0F9D0E0FAD0E0D7
:10053B00FB120355FF60AAEBC0E0EAC0E0E9C0E0A4
:10054B0012041ED0E02401F9D0E03400FAD0E0FB15
:10055B00E50A0460DCD50AD980877BFF7A067973BC
:10056B00D202809C791080027908C206C2088008EA
:10057B00D2D5790A8004790AC2D5E50A047002F54E
:10058B000AE4FAFDFEFF1203DBFC7B0820011312C9
:10059B0003DBFD7B1030000A1203DBFE1203DBFFD3
:1005AB007B20EC3382D592D55013C3E43000069FE9
:1005BB00FFE49EFEE42001039DFDE49CFCE4CBF8EC
:1005CB00C201EC700CCFCECDCCE824F8F870F380E0
:1005DB0017C3EF33FFEE33FEED33FDEC33FCEB33A0
:1005EB00FB994002FB0FD8E9EB300105F8D0E0C4D2
:1005FB0048B201C0E00AEC4D4E4F78207B0070C230
:10060B00EAB50A0040BCC0E0120679D0F0D0E02079
:10061B000104C4C0E0C4B201C0F0120407D0F0D58D
:10062B00F0EB0204581203B504F553056F5804C6DA
:10063B004C04C24205734F057B44057B4904DB43E5
:08064B000581550565460565B2
:100653004505654707215004CA2D04CE2E04F12B0E
:1006630004D22304EF20070A2A048A48000004E97D
:100673003F3F3F00790AA2D5200314300509B91082
:10068300020404B9080104A2D52006025001042083
:1006930002689202B509005034C0E07F203003198C
:1006A3007F30A20272067205500F1206D0C202C238
:1006B30006C205C2087F30800F300503E9C0E0128F
:1006C300041E300503D0E0F9D0E0B509CC3005179E
:1006D3007F30B9100C12041E7F583004077F7880D6
:1006E30003B9080312041E3002057F2D02041E7F86
:1006F300202008F87F2B2006F322920280CF286E59
:10070300756C6C2900D2011203DB3001F8C2017849
:100713000930D50108F602048A2D504349581203C3
:10072300DB2403B405004001E490071C9312040F7B
:0D073300743A12040FD20375090402056F19
:10035500BB010689828A83E0225002E722BBFE02A6
:09036500E32289828A83E49322D9
:09036E00E6FB08E6FA08E6F922B4
:09037700E0FBA3E0FAA3E0F92287
:10038000F8E0FBA3A3E0F925F0F0E5821582700206
:070390001583E0FA38F022AA
:09039700EBF0A3EAF0A3E9F02267
:0903A000E2FB08E2FA08E2F9228E
:0C03A900E493FB740193FA740293F922B0
:1003B500D083D082F8E4937012740193700DA3A3D7
:1003C50093F8740193F5828883E4737402936860EB
:0603D500EFA3A3A380DFEB
:00000001FF
