:101408004B31203D2025640A004B320A004B330A39
:0A141800004B340A004B31330A0088
:0214EA00C10936
:060DB30090006F12025ACD
:100DB9009000731202660000000090006FE0FCA32F
:100DC900E0FDA3E0FEA3E0FFA3E0F8A3E0F9A3E0C0
:100DD900FAA3E0FBC31202365040900077E0FCA36F
:100DE900E0FDA3E0FEA3E02401FFE43EFEE43DFDB7
:100DF900E43CFC90007712025A900073E0FCA3E0F7
:100E0900FDA3E0FEA3E02401FFE43EFEE43DFDE492
:0A0E19003CFC90007312025A80A006
:010E230022AC
:100BFA007F0212084512146F120FB4900088E06049
:100C0A0008E4F0120A9C1213ED90008AE06002E4F4
:070C1A00F090008DE0601175
:100C2100E4F0300907C2091214F58005D209121443
:010C3100FFC3
:100C32001212209000ACEFF060C9E024FC60212485
:100C4200FD602824FD602F24FD603A240C70B4124C
:100C520014CF7BFF7A14790890004A7401F0801F48
:100C62001214CF7BFF7A14791180141214CF7BFFF8
:100C72007A14791580091214CF7BFF7A147919122C
:100C820003F1020C051214CF7BFF7A14791D1203B3
:040C9200F1020C055A
:10146F0012135B12159112154A12137B1214871265
:08147F0013171214BED2AF22B4
:10137B0053ACFE43AD01C2B053CABF43CA2043CAEC
:0D138B001075D68075D78043CA80D2CB2262
:0615850043CB40D2B0226E
:06158B0053CBBFC2B022E9
:1011EE00EF4E602D90007DEEF0A3EFF0AF05A3EC77
:1011FE00F0A3EFF0AF03A3EAF0A3EFF0E4A3F0A3A4
:10120E00F0A3F0A3F090007CF090007B04F0121598
:02121E00852227
:08000300E490007BF002158B74
:0F14CF007B017A007D017C007F057E000211EE1B
:100A9C0090007BE07003020B4E90007FE0FEA3E021
:100AAC00FF4E7003020B4E90007CE0FD7035D3EFCF
:100ABC009400EE94005003020B4E900083E475F00A
:100ACC00011200A0FED390007EE095F090007DE036
:100ADC009E506F12158BE4900083F0A3F090007C75
:100AEC0004F022ED6401705A90008375F00112003D
:100AFC00A0FED3900080E095F090007FE09E5042E5
:100B0C00900081E0FEA3E0FF9400EE94004025905D
:100B1C000085E475F0011200A0FCD3EF95F0EE9C7B
:100B2C005005E490007BF090007BE0700790007F14
:100B3C00F0A3F022E4900083F0A3F090007CF0127C
:030B4C00158522EA
:09151D003083037F00227F0122CC
:091526003084037F00227F0122C2
:09152F003085037F00227F0122B8
:091538003086037F00227F0122AE
:0C14DE002083062085037F01227F00226E
:06159100120B4F0214567C
:10139800900045E0243AF582E43400F583EFF090BC
:0D13A8000045E004F0C3940A4002E4F02286
:10122000900045E0FF900044E0FEB507037F0022F8
:10123000743A2EF582E43400F583E0FF900044E038
:0912400004F0C3940A4002E4F03A
:011249002282
:1012C700900045E0FFA3E0FEB507037F0022743AD4
:1012D7002EF582E43400F583E0FF900046E004F049
:0712E700C3940A4002E4F089
:0112EE0022DD
:1014AD00EF75F00BA4240BF582E43400F583E0FF17
:0114BD00220C
:1011BA00EF75F00BA42409F582E43400F583ECF012
:1011CA00A3EDF0EF75F00BA4240CF582E43400F5DE
:1011DA0083EBF0EF75F00BA4240DF582E43400F5EF
:0411EA0083E4F02288
:09154100900045E0900044F02206
:1014560043B10853B2F743B11053B2EF43B120532F
:09146600B2DF43B14053B2BF22D2
:100B4F00E4900044F0A3F0A3F0FFEF75F00BA424A2
:100B5F0009F582E43400F583E4F0A37464F0EF75D3
:100B6F00F00BA42406F582E43400F5837402F0EF51
:100B7F0075F00BA4240BF582E43400F583E4F0EF59
:100B8F0075F00BA4240CF582E43400F583E4F0EF48
:100B9F0075F00BA4240DF582E43400F583E4F00F17
:100BAF00EFB405A690000374FFF0A37415F0A374BF
:100BBF001DF090000E74FFF0A37415F0A37426F0CF
:100BCF0090001974FFF0A37415F0A3742FF0900028
:100BDF002474FFF0A37415F0A37438F090002F74F1
:0A0BEF00FFF0A37414F0A374DEF00D
:010BF90022D9
:1006EB00900048EFF0E075F00BA42403F97400358B
:1006FB00F0FA7B01900000EBF0A3EAF0A3E9F01213
:10070B0002971202B7EF70030207DD900000E0FBC7
:10071B00A3E0FAA3E0F990000312001EFFC39405B7
:10072B0050089000037405020841EFC3940A500867
:10073B00900003740102004B90000812001E70140D
:10074B009000080412007E900048E075F003A404AA
:10075B00FF121398900000E0FBA3E0FAA3E0F990DE
:10076B0000061200B6FFAEF0D39400EE94005003D7
:10077B000208449000041200B6C39FE5F09E50237C
:10078B00900004E475F0011200EEFCE5F06F7002CE
:10079B00EC6E6003020844900048E075F003A4245B
:1007AB0003802B90000912001EFFD394005003020C
:1007BB00084490000A740112004BC39F407B9000C9
:1007CB000AE412007E900048E075F003A404FF02D7
:1007DB001398900000E0FBA3E0FAA3E0F99000036C
:1007EB0012001EFFD39405400A90000374051200FB
:1007FB007E802BEF600A90000374FF12004B801E6B
:10080B0090000812001EB40115900008E412007E3F
:10081B00900048E075F003A42402FF121398900097
:10082B0000E0FBA3E0FAA3E0F9900004E4F5F0127A
:0A083B00013B90000AE412007E2247
:1013ED00E4900047F0900047E0FFC39405500B12C6
:0A13FD0006EB900047E004F080EBDF
:0114070022C2
:09154A0053ACFD43AD020215AAE9
:0315A700C2B122AC
:0315AA00D2B12299
:10148700E4F5F975FA0475E5FF75E6FF75E70743B7
:03149700F98022B7
:0C000E00E4FF8FFBE4F5FC0FEFB413F6E9
:01001A0022C3
:0A14F50053E6FB75FB0A75FC0122AB
:0A14FF0043E60475FB0A75FC0122A8
:0A15090053E6EF75FB0C75FC0122A0
:0A15130043E61075FB0C75FC012285
:0115AD00221B
:0115AE00221A
:0115AF002219
:0115B0002218
:0115B1002217
:0115B2002216
:0115B3002215
:061597009000ADEFF02210
:0115B4002214
:06159D009000AEEFF02209
:0115B5002213
:091553009000A8EEF0A3EFF022D5
:0115B6002212
:0115B7002211
:0115B8002210
:0115B900220F
:0115BA00220E
:0115BB00220D
:0115BC00220C
:0115BD00220B
:0115BE00220A
:09155C009000AAEEF0A3EFF022CA
:0115BF002209
:0115C0002208
:1013B5001214F57FF47E017D007C001211241214B5
:0C13C500FF7FF47E017D007C00021124FB
:1014BE0053DC7F43DD807F807E257D007C00021023
:0114CE00130A
:0814EC0041008E0041008F0059
:101317001213D15389F75389FB5389FD43890190F0
:10132700008E74FCF0A37466F0758CFCF58AD2A964
:03133700D28C2233
:1013D100E4900087F0900089F090008BF0A3F090EA
:0C13E1000088F090008AF090008DF0224F
:03000B00020E24BE
:100E2400C0E0C0F0C083C082C0D075D000C000C094
:100E34000690008EE0F58CA3E0F58A900087E0042C
:100E4400F0C3940A4005E4F0A304F0900089E004A0
:100E5400F0C394644005E4F0A304F090008BE475BF
:100E6400F0011200A0FEC3E5F094E8EE9403400AFA
:100E740090008BE4F0A3F0A304F0D006D000D0D00F
:090E8400D082D083D0F0D0E0321E
:10149A0053897F5389BF4389205389EF758DCE7550
:0314AA008BCE22C4
:03001B000215C10A
:0115C10032F7
:10084500EF14604414606F1470030208E41470031D
:1008550002092024046003020984A2AF920AC2AFF0
:1008650075C7AA75C755439780A20A92AFA2AF92E2
:100875000AC2AF75C7AA75C7555397BFA20A92AFEB
:10088500E59630E7FB02094BA2AF920AC2AF75C7E6
:10089500AA75C75553977FA20A92AFA2AF920AC213
:1008A500AF75C7AA75C755439740A20A92AFE5969B
:1008B50030E6FB02094BA2AF920AC2AF75C7AA7513
:1008C500C755439720A20A92AFE59630E5FBA2AF44
:1008D500920AC2AF75C7AA75C7555396FB8027A262
:1008E500AF920AC2AF75C7AA75C755439710A20A3A
:1008F50092AFE59630E4FBA2AF920AC2AF75C7AAE4
:1009050075C755439604A20A92AFA2AF920AC2AF29
:1009150075C7AA75C7555396FD804DA2AF920AC2F9
:10092500AF75C7AA75C75553977FA20A92AFA2AFF5
:10093500920AC2AF75C7AA75C7555397BFA20A9247
:10094500AFE59630E3FBA2AF920AC2AF75C7AA75B1
:10095500C7555396FBA20A92AFA2AF920AC2AF75D2
:10096500C7AA75C755439602A20A92AFA2AF920ACB
:10097500C2AF75C7AA75C7555396FEA20A92AFE5D1
:050985009720E0FB22B9
:10129E0075985243892053877F538EEF53C4DFAB2B
:1012AE0007AA06A905A804E47F807E70FDFC120142
:0912BE00A4EFF404F58DD28E2298
:1012EF00759852438920438780538EEF53C4DFABE9
:1012FF0007AA06A905A804E4FF7EE1FDFC1201A4DC
:08130F00EFF404F58DD28E22EB
:10124A0075985243892053877F438E1053C4DFAB6E
:10125A0007AA06A905A8047F007E467D057C001220
:0A126A0001A4EFF404F58DD28E22EA
:10127400759852438920438780438E1053C4DFAB53
:1012840007AA06A905A8047F007E8C7D0A7C0012AB
:0A12940001A4EFF404F58DD28E22C0
:100E8D0090009012025A75985253877F53C4F843BD
:100E9D00C420900090E0F8A3E0F9A3E0FAA3E0FBF2
:100EAD007F007E467D057C001201A4C3E49FFFE414
:100EBD009EFE74019DFDE49CFC78081202478FC6CE
:100ECD00900090E0F8A3E0F9A3E0FAA3E0FB7F0027
:100EDD007E467D057C001201A4C3E49FFF8FC543B0
:030EED00C4082214
:100EF00090009412025A75985243878053C4F84365
:100F0000C420900094E0F8A3E0F9A3E0FAA3E0FB8A
:100F10007F007E8C7D0A7C001201A4C3E49FFFE465
:100F20009EFE74019DFDE49CFC78081202478FC66A
:100F3000900094E0F8A3E0F9A3E0FAA3E0FB7F00BF
:100F40007E8C7D0A7C001201A4C3E49FFF8FC54301
:030F5000C40822B0
:1010130090004712025A75F85253C4F8900047E003
:10102300F8A3E0F9A3E0FAA3E0FB7F007E8C7D0A3E
:101033007C001201A4C3E49FFFE49EFE74019DFDA6
:10104300E49CFC78081202478FC6900047E0F8A39F
:10105300E0F9A3E0FAA3E0FB7F007E8C7D0A7C002D
:0D1063001201A4C3E49FFF8FC543C40822FF
:071565003098FDAF99C29818
:01156C00225C
:08156D00C2998F993099FD220B
:0715750030F8FDAF9AC2F847
:01157C00224C
:08157D00C2F98F9A30F9FD223A
:10142200E4F5B1F5B2F5B3F5B4F5B5F5B6F5ACF54D
:0A143200ADF5DAF5DBF5DCF5DD229F
:10135B0075B1FFE4F5B275B3FFF5B475B5FFF5B62E
:10136B0075ACFFF5AD75DAFFF5DB75DCFFF5DD224E
:10143C0075C7AA75C755A2AF920AC2AF75C7AA7570
:0A144C00C755439F80A20A92AF2209
:0415A30043AD8022B2
:10117D00EF640A701C30F811E59AB4130CC2F83004
:10118D00F8FDE59AB411F6C2F830F9FDC2F9759A79
:10119D000D30F811E59AB4130CC2F830F8FDE59A4C
:0D11AD00B411F6C2F830F9FDC2F98F9A2294
:060D300090FFF81202BD65
:100D3600850D83850E8212026600000000E47FFFA7
:100D46007EFFFDFC850D83850E82E0F8A3E0F9A306
:100D5600E0FAA3E0FBC3120236504C9000041202E4
:100D6600E1E0FCA3E0FDA3E0FEA3E02401FFE43EF6
:100D7600FEE43DFDE43CFC9000041202E112025A3E
:100D8600850D83850E82E0FCA3E0FDA3E0FEA3E0D3
:100D96002401FFE43EFEE43DFDE43CFC850D838535
:070DA6000E8212025A809632
:060DAD009000080202BDE7
:10133A00538EF7438901D28CEF4E6012758AF77586
:10134A008CFF308DFDC28DEF1F70ED1E80EAC28CBE
:01135A002270
:1010CB0090009812025A538EF7438901D28CE4FF99
:1010DB00FEFDFC900098E0F8A3E0F9A3E0FAA3E092
:1010EB00FBC3120236602F758A65758CFC308DFD43
:1010FB00C28D900098E0FCA3E0FDA3E0FEA3E024EA
:10110B00FFFFEE34FFFEED34FFFDEC34FFFC9000EF
:09111B009812025A80B8C28C221D
:1011240090009C12025A538EEF438910D28EE4FF32
:10113400FEFDFC90009CE0F8A3E0F9A3E0FAA3E034
:10114400FBC3120236602F758B65758DFC308FFDE5
:10115400C28F90009CE0FCA3E0FDA3E0FEA3E0248A
:10116400FFFFEE34FFFEED34FFFDEC34FFFC900096
:091174009C12025A80B8C28E22BE
:101070009000A012025A75C40243C408E4FFFEFDAA
:10108000FC9000A0E0F8A3E0F9A3E0FAA3E0FBC322
:10109000120236603275C53375C6F5E5C430E4FB1F
:1010A00053C4EF9000A0E0FCA3E0FDA3E0FEA3E0AA
:1010B00024FFFFEE34FFFEED34FFFDEC34FFFC9027
:0B10C00000A012025A80B553C4F722B2
:100F53009000A412025A538FFB538FFD538FFEE46C
:100F6300F586538FDF438F08E4FFFEFDFC9000A45A
:100F7300E0F8A3E0F9A3E0FAA3E0FBC312023660B2
:100F83002CE58F30E4FB538FEF9000A4E0FCA3E04B
:100F9300FDA3E0FEA3E024FFFFEE34FFFEED34FFEC
:100FA300FDEC34FFFC9000A412025A80BB538FF770
:010FB300221B
:10098A000A3D3D3D3D3D3D3D3D3D3D3D3D3D3D3DC0
:10099A003D3D3D3D3D3D3D3D3D3D3D3D3D3D3D3D7D
:1009AA003D3D3D3D3D3D3D3D3D3D3D3D3D3D3D3D6D
:1009BA003D3D3D3D3D3D3D3D3D3D3D3D3D3D3D3D5D
:1009CA003D3D3D3D3D000A2A2020436F7079726902
:1009DA006768742863292032303135204E75766F66
:1009EA00746F6E20546563686E6F6C6F677920430D
:1009FA006F72702E20416C6C207269676874732064
:100A0A0072657365727665642E2020000A2A20209A
:100A1A00436F6E7461637420452D4D61696C3A2091
:100A2A004D6963726F432D38626974406E75766FD3
:100A3A00746F6E2E636F6D202020202020202020CE
:100A4A00202020202020202020202020202020209C
:100A5A0020000A2A202044656D6F2056657273694A
:100A6A006F6E20203A202532642E2532642E2532DC
:100A7A0064000A2A202046696E6973686564204406
:100A8A00617465203A202532642E2532642E25327F
:020A9A006400F6
:100FB4007BFF7A09798A1203F17BFF7A0979D012CF
:100FC40003F17BFF7A0A79161203F17BFF7A0A791F
:100FD4005C90004AE4F0A304F0E4A3F0A3F0A3F0CF
:100FE400A3F01203F17BFF7A0A797C90004A74071C
:100FF400F0A374DFF0A3E4F0A37405F0A3E4F0A37A
:0F100400741FF01203F17BFF7A09798A0203F15E
:03000000020C9659
:100C9600787FE4F6D8FD9000007FFF7E01E4F0A3A4
:0A0CA600DFFCDEFA758121020CEB81
:100CB000020BFAE493A3F8E493A34003F68001F255
:100CC00008DFF48029E493A3F85407240CC8C33345
:100CD000C4540F4420C8834004F456800146F6DF14
:100CE000E4800B01020408102040809014EAE47EA6
:100CF000019360BCA3FF543F30E509541FFEE49309
:100D0000A360010ECF54C025E060A840B8E493A3CF
:100D1000FAE493A3F8E493A3C8C582C8CAC583CAFA
:100D2000F0A3C8C582C8CAC583CADFE9DEE780BEB2
:0114F40000F7
:10001E00BB010CE58229F582E5833AF583E0225097
:10002E0006E92582F8E622BBFE06E92582F8E222E1
:0D003E00E58229F582E5833AF583E49322FB
:10004B00BB010FF8E58229F582E5833AF583E028B9
:10005B00F0225009C58229F8E58226F622BBFE095B
:10006B00C58229F8E22582F222F8EA2583F583E995
:03007B00932822A5
:10007E00F8BB010DE58229F582E5833AF583E8F0B8
:10008E00225006E92582C8F622BBFE05E92582C864
:02009E00F2224C
:1000A000C5F0F8A3E028F0C5F0F8E58215827002EB
:0600B0001583E038F02288
:1000B600BB0110E58229F582E5833AF583E0F5F088
:1000C600A3E0225009E92582F886F008E622BBFE65
:1000D6000AE92582F8E2F5F008E222E5832AF583AB
:0800E600E993F5F0A3E9932270
:1000EE00BB010DC58229C582C5833AC5830200A016
:1000FE005011C58229F808E5F026F618F5F0E582CC
:10010E0036F622BBFE11C58229F808E225F0F5F07D
:10011E00F218E23582F222F8E58229F582E5832A89
:0D012E00F58374019325F0F5F0E493382279
:10013B00F8BB0111E58229F582E5833AF583E8F0F6
:10014B00E5F0A3F0225009E92582C8F608A6F022B3
:0D015B00BBFE09E92582C8F2E5F008F2229A
:1001680075F008758200EF2FFFEE33FECD33CDCC4E
:1001780033CCC58233C5829BED9AEC99E5829840D1
:100188000CF582EE9BFEED9AFDEC99FC0FD5F0D6AE
:10019800E4CEFBE4CDFAE4CCF9A88222B800C1B9D8
:1001A8000059BA002DEC8BF084CFCECDFCE5F0CB16
:1001B800F97818EF2FFFEE33FEED33FDEC33FCEB4F
:1001C80033FB10D703994004EB99FB0FD8E5E4F90A
:1001D800FA227818EF2FFFEE33FEED33FDEC33FCF7
:1001E800C933C910D7059BE99A4007EC9BFCE99AEB
:1001F800F90FD8E0E4C9FAE4CCFB2275F010EF2F30
:10020800FFEE33FEED33FDCC33CCC833C810D7072F
:100218009BEC9AE899400AED9BFDEC9AFCE899F86A
:0E0228000FD5F0DAE4CDFBE4CCFAE4C8F922FD
:10023600EB9FF5F0EA9E42F0E99D42F0E89C45F01E
:010246002295
:10024700E8600FECC313FCED13FDEE13FEEF13FF95
:03025700D8F122B9
:0C025A00ECF0A3EDF0A3EEF0A3EFF02217
:10026600A8828583F0D083D08212027D12027D128D
:10027600027D12027DE473E493A3C583C5F0C583B2
:10028600C8C582C8F0A3C583C5F0C583C8C582C8E2
:010296002245
:10029700BB010789828A830203225005E9F802031A
:1002A70019BBFE05E9F802034B89828A83020354CE
:0602B7008A838982E473D2
:1002BD00E50E2582F582E50D3583F583B50D0485B3
:1002CD00820E2210AF0685820EF50D2285820EF567
:0402DD000DD2AF226D
:0D02E100E50E2582F582E50D3583F58322BB
:10038600E508244AF582E43400F583E00508229066
:10039600004730070390004AE475F00112032B0270
:1003A60002EE2000E97F2ED2008018EF540F249031
:1003B600D43440D4FF30040BEF24BFB41A005003EA
:1003C6002461FFE50960021509050CE50C700205BC
:1003D6000B30070E900047E475F00112032BEF0275
:1003E600030702117D7403D2078003E4C207F508F0
:1003F600900047120342E4F509F50BF50CE5096098
:10040600077F201203C980F5750AFFC201C200C228
:1004160002C203C205C206C208120395FF700D3060
:1004260007057F001203DAAF0CAE0B22B4255FC2BC
:10043600D5C204120395FF24D0B40A00501A75F0F1
:100446000A780930D50508B6FF0106C6A426F620A7
:10045600D5047002D20380D924CFB41A00EF500419
:10046600C2E5D2040205DBD20180C6D20080C0D22A
:100476000280BCD2D580BAD20580B47F201203C9CF
:100486002002077401B5090040F1120386FF12032A
:10049600C9020403D208D2068095120386FB120312
:1004A60086FA120386F94A4B700679AC7A067BFF08
:1004B60020022EE509602A7E008E827583001200D6
:1004C6001E60060EEE650A70F0C2D5EBC0E0EAC00B
:1004D600E0E9C0E0EE120622D0E0F9D0E0FAD0E082
:1004E600FB1202EEFF60AAEBC0E0EAC0E0E9C0E062
:1004F6001203C9D0E02401F9D0E03400FAD0E0FBC1
:10050600E50A0460DCD50AD980877BFF7A06791E66
:10051600D202809C791080027908C206C20880083F
:10052600D2D5790A8004790AC2D5E50A047002F5A3
:100536000AE4FAFDFEFF120386FC7B082001131273
:100546000386FD7B1030000A120386FE120386FF27
:100556007B20EC3382D592D55013C3E43000069F3E
:10056600FFE49EFEE42001039DFDE49CFCE4CBF841
:10057600C201EC700CCFCECDCCE824F8F870F38035
:1005860017C3EF33FFEE33FEED33FDEC33FCEB33F5
:10059600FB994002FB0FD8E9EB300105F8D0E0C427
:1005A60048B201C0E00AEC4D4E4F78207B0070C285
:1005B600EAB50A0040BCC0E0120624D0F0D0E02024
:1005C6000104C4C0E0C4B201C0F01203B2D0F0D539
:1005D600F0EB02040312036004A053051A580471D9
:1005E6004C046D42051E4F052644052649048643E4
:0805F600052C55051046051007
:1005FE004505104706CC5004752D04792E049C2B0E
:10060E00047D23049A2006B52A043548000004947C
:10061E003F3F3F00790AA2D5200314300509B910D7
:10062E00020404B9080104A2D520060250010420D8
:10063E0002689202B509005034C0E07F20300319E1
:10064E007F30A20272067205500F12067BC202C2E2
:10065E0006C205C2087F30800F300503E9C0E012E4
:10066E0003C9300503D0E0F9D0E0B509CC30051749
:10067E007F30B9100C1203C97F583004077F788081
:10068E0003B908031203C93002057F2D0203C97F87
:10069E00202008F87F2B2006F322920280CF286EAE
:1006AE00756C6C2900D2011203863001F8C20178F4
:1006BE000930D50108F60204352D5043495812036E
:1006CE00862403B405004001E49006C7931203BAD2
:0D06DE00743A1203BAD20375090402051A1A
:1002EE00BB010689828A83E0225002E722BBFE020E
:0902FE00E32289828A83E4932241
:10030700BB010689828A83F0225002F722BBFE01D5
:02031700F322CF
:09031900E6FB08E6FA08E6F92209
:09032200E0FBA3E0FAA3E0F922DC
:10032B00F8E0FBA3A3E0F925F0F0E582158270025B
:07033B001583E0FA38F022FF
:09034200EBF0A3EAF0A3E9F022BC
:09034B00E2FB08E2FA08E2F922E3
:0C035400E493FB740193FA740293F92205
:10036000D083D082F8E4937012740193700DA3A32C
:1003700093F8740193F5828883E473740293686040
:06038000EFA3A3A380DF40
:00000001FF
