:081CFA004100BE004100BF00E3
:1018D0007F02121189121F8B12220F121F5312182E
:1018E0007190009BE06008E4F01213E0121FA690D4
:1018F000009DE06008E4F0122185121AEF9000A02C
:03190000E0601A8A
:10190300E4F012000E9000BFE004F0E0D394034033
:0A19130009740AF09000BEE004F031
:10191D00121D24900047EFF060BAE0FF121DA28067
:01192D00B306
:021D0200C10C12
:03220F0002167440
:10167400900079E024FE600D14603E2402705D1237
:1016840020DB0221711221031220DB7F41121C375F
:101694007F42121C377F43121C377F44121C3712BF
:1016A400217112212B1220507B007A0079007D08D1
:1016B4007C007F087E00021E8D1221031220DB7F36
:1016C40041121C377F42121C377F43121C377F4460
:0D16D400121C371221711221171220502212
:101CCF00900079E0147023E490007BF0A3F0900073
:101CDF0080F0A3F090007BE0FEA3E0FF120A879054
:0B1CEF000080E0FEA3E0FF120740228F
:101CA000300C27900079E024FE600F1460142402A9
:101CB000701A9000797402F080129000797403F029
:0F1CC000800A9000797401F08002D20C02167431
:0122180022A3
:0122190022A2
:101DA200900048EFF0122028900048E024FC600FD9
:101DB20024FD600E24FD600D2409700C021CCF026C
:091DC2001CA002221812221922B1
:101D04004800710A1414191E1E322841007000C1C3
:051D14000BC109C10A2A
:101F53009000797401F0E4A3F0A3F0A3F0A3F0A33D
:0C1F6300F0A3F0A3F0A3F0900070F022B7
:101E690090007CE004F0700690007BE004F0D390D1
:101E7900007CE0941090007BE094274004E4F0A3F8
:041E8900F0D20B2266
:0D000E00900070E0C394FF5003E004F02266
:09218500300B05C20B120CF02214
:100CF000900079E024FE604C046003020E9890009E
:100D00007BE0FEA3E0FF7C007D0A1200A0ED4C908A
:100D1000004F700BF0A304F0FB7A007D0F800AE413
:100D2000F0A304F0FB7A007D057C00E4FFFE121BBB
:100D300082C20A90007BE0FFA3E090007ECFF0A388
:100D4000EF020E8430094C90004FE4F0A304F0FB56
:100D50007A007D057C00E4FFFE121B8290007AE0A1
:100D6000FF3395E0FEEF25E0FFEE33FE74F02FF544
:100D70008274FF3EF583E0FD74EF2FF58274FF3E31
:100D8000F583E08DF0A4FF90007BE5F0F0A3EFF099
:100D9000020E9890007AE0FF3395E0FEEF25E0FF29
:100DA000EE33FE74F02FF58274FF3EF583E0FD74A0
:100DB000EF2FF58274FF3EF583E08DF0A4FF9000E5
:100DC0007BE0B5F016A3E0B50711D20990004FE41F
:100DD000F0A304F0FB7A007D0F804390007AE0FFDF
:100DE0003395E0FEEF25E0FFEE33FE74F02FF58241
:100DF00074FF3EF583E0FD7C0090007BE0FEA3E005
:100E0000FF1200A0ED4C90004F7009F0A37403F0A6
:100E10007B058006E4F0A304F0FB7A007D057C00EE
:100E2000E4FFFE121B82D20A90007AE0FF3395E0C5
:100E3000FEEF25E0FFEE33FE74F02FF58274FF3EE7
:100E4000F583E0FD7C0090007BE0FEA3E0FF120054
:100E5000A0A3EFF090007AE0FF3395E0FEEF25E0ED
:100E6000FFEE33FE74F02FF58274FF3EF583E0FD54
:100E70007C0090007BE0FEA3E0FF1200A090007ECB
:100E8000ECF0A3EDF090007CE025E0FE90007BE02C
:100E900033900080F0A3CEF0300A0A90007DE0FF8E
:100EA000120EBE8003121E4490007EE0FEA3E0FFFF
:0E0EB000120A87900080E0FEA3E0FF020740D8
:101E8D00900091EEF0A3EFF0AF05A3ECF0A3EFF00F
:101E9D00900097EBF0A3EAF0A3E9F0E4900095F041
:031EAD00A3F0227D
:10205000E4900090F0F9900097C9F0A3F0A3E9F0A4
:01206000225D
:101AEF00900090E06043900091E07002A3E0600FDF
:101AFF00900092E024FFF0900091E034FFF02290EC
:101B0F000095E475F0011200F5FED3900094E09576
:101B1F00F0900093E09E5011E4900095F0A3F0A395
:0A1B2F00A3E0FAA3E0F912030C2270
:101F8B00121F161221F01221F61221BB121ED312B0
:0B1F9B001FC1121EB0122072D2AF2234
:101ED30053ACFE43AD01C2B053CABF43CA2043CA89
:101EE3001075D68075D78043CA80D2CBE490008228
:021EF300F022DB
:0621E40043CB40D2B02203
:0621EA0053CBBFC2B0227E
:101B8200ED4C603C900084EEF0A3EFF0AF05A3ECC7
:101B9200F0A3EFF0AF03A3EAF0A3EFF090004FE061
:101BA200FFA3E090008ACFF0A3EFF0E4A3F0A3F04C
:101BB200A3F0A3F0900083F090008204F01221E4DD
:011BC2002200
:08000300E4900082F00221EA02
:1020280090004FE4F0A304F0FB7A007D057C00E407
:05203800FFFE021B8207
:1013E000900082E070030214AB900088E0FEA3E05E
:1013F000FF4E70030214AB900084E07002A3E06023
:101400000F900085E024FFF0900084E034FFF0228C
:10141000900083E0FD7035D3EF9400EE940050030C
:101420000214AB90008CE475F0011200F5FED3902D
:101430000087E095F0900086E09E506F1221EAE46C
:1014400090008CF0A3F090008304F022ED64017012
:101450005A90008C75F0011200F5FED3900089E0DF
:1014600095F0900088E09E504290008AE0FEA3E054
:10147000FF9400EE9400402590008EE475F0011278
:1014800000F5FCD3EF95F0EE9C5005E4900082F05F
:10149000900082E07007900088F0A3F022E49000B2
:0C14A0008CF0A3F0900083F01221E422F5
:09218E003083037F00227F01224F
:092197003084037F00227F012245
:0921A0003085037F00227F01223B
:0921A9003086037F00227F012231
:0C209D002083062085037F01227F0022A3
:0621F0001214AC02200FE6
:101F3600900045E0243AF582E43400F583EFF09012
:0D1F46000045E004F0C3940A4002E4F022DC
:101D2400900045E0FF900044E0FEB507037F0022E9
:101D3400743A2EF582E43400F583E0FF900044E029
:091D440004F0C3940A4002E4F02B
:011D4D002273
:101DF400900045E0FFA3E0FEB507037F0022743A9C
:101E04002EF582E43400F583E0FF900046E004F010
:071E1400C3940A4002E4F050
:011E1B0022A4
:10206100EF75F00BA4240BF582E43400F583E0FF57
:01207100224C
:101C6C00EF75F00BA42409F582E43400F583ECF055
:101C7C00A3EDF0EF75F00BA4240CF582E43400F521
:101C8C0083EBF0EF75F00BA4240DF582E43400F532
:041C9C0083E4F022CB
:0921B200900045E0900044F02289
:10200F0043B10853B2F743B11053B2EF43B120536A
:09201F00B2DF43B14053B2BF220D
:1014AC00E4900044F0A3F0A3F0FFEF75F00BA4243C
:1014BC0009F582E43400F583E4F0A37464F0EF756D
:1014CC00F00BA42406F582E43400F5837402F0EFEB
:1014DC0075F00BA4240BF582E43400F583E4F0EFF3
:1014EC0075F00BA4240CF582E43400F583E4F0EFE2
:1014FC0075F00BA4240DF582E43400F583E4F00FB1
:10150C00EFB405A690000374FFF0A37421F0A3744C
:10151C008EF090000E74FFF0A37421F0A37497F07A
:10152C0090001974FFF0A37421F0A374A0F0900044
:10153C002474FFF0A37421F0A374A9F090002F740D
:0A154C00FFF0A37420F0A3749DF0DB
:011556002272
:10102F00900049EFF0E075F00BA42403F97400353C
:10103F00F0FA7B01900000EBF0A3EAF0A3E9F012C5
:10104F0002EC12030CEF7003021121900000E0FB81
:10105F00A3E0FAA3E0F990000312001EFFC394056A
:10106F0050089000037405021185EFC3940A5008CD
:10107F00900003740102004B90000812001E7014C0
:10108F009000080412007E900049E075F003A4045C
:10109F00FF121F36900000E0FBA3E0FAA3E0F990E7
:1010AF00000612010BFFAEF0D39400EE9400500334
:1010BF0002118890000412010BC39FE5F09E50238C
:1010CF00900004E475F001120143FCE5F06F70022B
:1010DF00EC6E6003021188900049E075F003A424C0
:1010EF0003802B90000912001EFFD39400500302BF
:1010FF00118890000A740112004BC39F407B90002F
:10110F000AE412007E900049E075F003A404FF0288
:10111F001F36900000E0FBA3E0FAA3E0F990000374
:10112F0012001EFFD39405400A90000374051200AD
:10113F007E802BEF600A90000374FF12004B801E1D
:10114F0090000812001EB40115900008E412007EF2
:10115F00900049E075F003A42402FF121F3690009F
:10116F0000E0FBA3E0FAA3E0F9900004E4F5F0122D
:0A117F00019090000AE412007E22A5
:101FA600E4900048F0900048E0FFC39405500B12FF
:0A1FB600102F900048E004F080EBCB
:011FC00022FE
:0921BB0053ACFD43AD02022215F4
:03221200C2B12234
:03221500D2B12221
:101FC100E4900048F075F94075FA0475E5FF75E68F
:0A1FD100FF75E70743F98002208343
:0C208300E4FF8FFBE4F5FC0FEFB413F654
:01208F00222E
:0A20A90053E6FB75FB0AE4F5FC2288
:0A20B30043E60475FB0A75FC0122E8
:0A20BD0053E6EF75FB0CE4F5FC227E
:0A20C70043E61075FB0C75FC0122C6
:0A20D10053E6FE75FB08E4F5FC225F
:0A20DB0043E60175FB0875FC0122C5
:0A20E50053E6BF75FB0EE4F5FC2284
:0A20EF0043E64075FB0E75FC01226C
:0A20F90053E7FE75FB10E4F5FC222E
:0A21030043E70175FB1075FC012293
:101E440053E7FB53E7F753E7EF53E7DF75FB1275EF
:101E5400FC0E75FB1375FC0F75FB1475FC0E75FBFE
:051E64001575FC0F22C2
:100EBE00EFD39463400302102EEF75F00A84FEEF19
:100ECE0075F00A84ADF0EFD394095003020F8143FD
:100EDE00E64043E680AF06EFB40A004003020F92ED
:100EEE00900EF5F8282873020F13020F1B020F2322
:100EFE00020F31020F39020F47020F4F020F5D0230
:100F0E000F6B020F7375FB0E75FC0A805E75FB0E80
:100F1E00E4F5FC801C75FB0E75FC0C75FB0F75FC67
:100F2E000B806175FB0E75FC04804075FB0E75FC25
:100F3E000675FB0F75FC06804B75FB0E75FC068067
:100F4E000675FB0E75FC0E75FB0F75FC0D80357569
:100F5E00FB0EE4F5FC75FB0F75FC07802775FB0E89
:100F6E0075FC0E800675FB0E75FC0675FB0F75FC89
:100F7E000F801143E64043E68075FB0EE4F5FC75E9
:100F8E00FB0FF5FC43E70143E702EDB40A00400313
:100F9E0002102E900FA8F8282873020FC6020FCE4B
:100FAE00020FD6020FE3020FEB020FF8021000023F
:100FBE00100D02101A02102275FB1075FC0A805AD1
:100FCE0075FB10E4F5FC801B75FB1075FC0C75FBB6
:100FDE001175FC0B2275FB1075FC04803D75FB1022
:100FEE0075FC0675FB1175FC062275FB1075FC066B
:100FFE00800675FB1075FC0E75FB1175FC0D2275C8
:10100E00FB10E4F5FC75FB1175FC072275FB1075E2
:10101E00FC0E800675FB1075FC0675FB1175FC0F3A
:01102E00229F
:0A210D0053E7FB75FB12E4F5FC221A
:101C370043E704EF24BE60111460151460192403F0
:101C4700701C75FB1275FC012275FB1275FC0222D4
:101C570075FB1275FC042275FB1275FC082275FBD7
:051C670012E4F5FC226F
:101C000053E6FE53E6FD53E6FB53E6F753E6EF5388
:101C1000E6DF75FB0875FC0E75FB0975FC0F75FB9F
:101C20000A75FC0E75FB0B75FC0F75FB0C75FC0E35
:071C300075FB0D75FC0F228E
:040A8700AB07AA0609
:100A8B00D3EB94E7EA94034003020CEF7C007D6404
:100A9B00AF03AE021200A090004AEFF07C007D6421
:100AAB00AF03AE021200A07E007F0ACFCDCFCECC1B
:100ABB00CE1200A0900049EFF07C007D0AAF03AE90
:100ACB00021200A0A905D3EB9463EA940050030231
:100ADB000B8043E60143E602A3E0B40A00400302A5
:100AEB000B91900AF4F8282873020B12020B1A02CE
:100AFB000B22020B30020B38020B46020B4E020B81
:100B0B005C020B6A020B7275FB0875FC0A805E7542
:100B1B00FB08E4F5FC801C75FB0875FC0C75FB09E8
:100B2B0075FC0B806175FB0875FC04804075FB0838
:100B3B0075FC0675FB0975FC06804B75FB0875FC8F
:100B4B0006800675FB0875FC0E75FB0975FC0D80A0
:100B5B003575FB08E4F5FC75FB0975FC07802775FB
:100B6B00FB0875FC0E800675FB0875FC0675FB090A
:100B7B0075FC0F801153E6FE53E6FD75FB08E4F59B
:100B8B00FC75FB09F5FCD3EB9409EA9400500302C6
:100B9B000C4243E60443E608900049E0B40A0040E7
:100BAB0003020C53900BB6F8282873020BD4020BDC
:100BBB00DC020BE4020BF2020BFA020C08020C1023
:100BCB00020C1E020C2C020C3475FB0A75FC0A80FD
:100BDB005E75FB0AE4F5FC801C75FB0A75FC0C7555
:100BEB00FB0B75FC0B806175FB0A75FC0480407573
:100BFB00FB0A75FC0675FB0B75FC06804B75FB0A37
:100C0B0075FC06800675FB0A75FC0E75FB0B75FCF7
:100C1B000D803575FB0AE4F5FC75FB0B75FC078045
:100C2B002775FB0A75FC0E800675FB0A75FC0675AD
:100C3B00FB0B75FC0F801153E6FB53E6F775FB0AB4
:100C4B00E4F5FC75FB0BF5FC43E61043E620E9B439
:100C5B000A004003020CEF900C69F8282873020C71
:100C6B0087020C8F020C97020CA4020CAC020CB97D
:100C7B00020CC1020CCE020CDB020CE375FB0C75F3
:100C8B00FC0A805A75FB0CE4F5FC801B75FB0C759C
:100C9B00FC0C75FB0D75FC0B2275FB0C75FC0480B5
:100CAB003D75FB0C75FC0675FB0D75FC062275FB83
:100CBB000C75FC06800675FB0C75FC0E75FB0D7533
:100CCB00FC0D2275FB0CE4F5FC75FB0D75FC072286
:100CDB0075FB0C75FC0E800675FB0C75FC0675FB25
:040CEB000D75FC0F78
:010CEF0022E2
:0A21170053E5FB75FB0275FC012285
:0A21210043E50475FB0275FC012282
:0A212B0053E5EF75FB0475FC01227B
:0A21350043E51075FB0475FC012260
:0A213F0053E6FE75FB0875FC012253
:0A21490043E60175FB0875FC012256
:0A21530053E5FEE4F5FB75FC0122E4
:0A215D0043E501E4F5FB75FC0122E7
:101B390053E5FE53E5FD53E5FB53E5F753E5EF5355
:101B4900E5DF53E5BF53E57FE4F5FB75FC0E75FB57
:101B59000175FC0F75FB0275FC0E75FB0375FC0F17
:101B690075FB0475FC0E75FB0575FC0F75FB067599
:091B7900FC0E75FB0775FC0F2240
:04074000AB07AA0653
:10074400D3EB940FEA94274003020A867C037DE8E6
:10075400AF03AE021200A090004BEFF07C037DE8E3
:10076400AF03AE021200A07E007F64CFCDCFCECC0B
:10077400CE1200A090004AEFF07C007D64AF03AE7F
:10078400021200A07E007F0ACFCDCFCECCCE1200C5
:10079400A0900049EFF07C007D0AAF03AE02120086
:1007A400A0A905D3EB94E7EA940350030208564347
:1007B400E50143E50290004BE0B40A00400302085F
:1007C400669007CCF82828730207EA0207F20207AA
:1007D400F902080702080F02081D0208250208335F
:1007E400020840020848E4F5FB75FC0A805CE4F565
:1007F400FBF5FC801CE4F5FB75FC0C75FB0175FC3A
:100804000B805FE4F5FB75FC04803FE4F5FB75FCAD
:100814000675FB0175FC068049E4F5FB75FC068052
:1008240006E4F5FB75FC0E75FB0175FC0D8033E4E5
:10083400F5FBF5FC75FB0175FC078026E4F5FB75FB
:10084400FC0E8006E4F5FB75FC0675FB0175FC0FD8
:10085400801053E5FE53E5FDE4F5FBF5FC75FB0163
:10086400F5FCD3EB9463EA9400500302091743E5C3
:100874000443E50890004AE0B40A00400302092852
:1008840090088BF82828730208A90208B10208B955
:100894000208C70208CF0208DD0208E50208F302D5
:1008A400090102090975FB0275FC0A805E75FB02E9
:1008B400E4F5FC801C75FB0275FC0C75FB0375FCF0
:1008C4000B806175FB0275FC04804075FB0275FCAE
:1008D4000675FB0375FC06804B75FB0275FC0680F0
:1008E4000675FB0275FC0E75FB0375FC0D803575F2
:1008F400FB02E4F5FC75FB0375FC07802775FB021E
:1009040075FC0E800675FB0275FC0675FB0375FC11
:100914000F801153E5FB53E5F775FB02E4F5FC7515
:10092400FB03F5FCD3EB9409EA940050030209D9C4
:1009340043E51043E520900049E0B40A0040030277
:1009440009EA90094DF828287302096B0209730219
:10095400097B02098902099102099F0209A7020978
:10096400B50209C30209CB75FB0475FC0A805E75E8
:10097400FB04E4F5FC801C75FB0475FC0C75FB059D
:1009840075FC0B806175FB0475FC04804075FB04E9
:1009940075FC0675FB0575FC06804B75FB0475FC40
:1009A40006800675FB0475FC0E75FB0575FC0D8051
:1009B4003575FB04E4F5FC75FB0575FC07802775AC
:1009C400FB0475FC0E800675FB0475FC0675FB05BF
:1009D40075FC0F801153E5EF53E5DF75FB04E4F577
:1009E400FC75FB05F5FC43E54043E580E9B40A00EA
:1009F4004003020A86900A00F8282873020A1E029D
:100A04000A26020A2E020A3B020A43020A50020A7A
:100A140058020A65020A72020A7A75FB0675FC0A14
:100A2400805A75FB06E4F5FC801B75FB0675FC0C0F
:100A340075FB0775FC0B2275FB0675FC04803D7580
:100A4400FB0675FC0675FB0775FC062275FB06752F
:100A5400FC06800675FB0675FC0E75FB0775FC0D20
:100A64002275FB06E4F5FC75FB0775FC072275FB94
:100A74000675FC0E800675FB0675FC0675FB07758E
:020A8400FC0F65
:010A8600224D
:0A21670053E5BF75FB0675FC01226D
:0A21710043E54075FB0675FC0122F2
:021D1900C10EF9
:0D209000E4F5E9F5EDF5EAF5EB439B0222DE
:0A217B00E49000BBF0A3F0A3F022F3
:0621F60012209002217B83
:101A98009000BDE0FEC3EF9E64016007C3EE9FFEA9
:101AA800BE02149000BC7401F09000BBE0C394FF28
:101AB8005012E004F0800DE49000BCF09000BBE010
:101AC800600214F09000BDEFF0300E0C9000BBE007
:101AD800C3940A5011C20E229000BBE0D394644014
:061AE80005D20E121E697A
:011AEE0022D5
:0521FC007F01021A98AA
:052201007F02021A98A3
:052206007F03021A989D
:1020720053DC7F43DD807F807E257D007C0002195A
:012082002E2F
:081D1B004100A1004100A200FB
:101EB000121F6F5389F75389FB5389FD43890190A2
:101EC00000A174FCF0A37466F0758CFCF58AD2A9AD
:031ED000D28C228F
:101F6F00E490009AF090009CF090009EF0A3F09007
:0C1F7F00009BF090009DF09000A0F0226C
:03000B000216E1F9
:1016E100C0E0C0F0C083C082C0D075D000C000C0CF
:1016F100069000A1E0F58CA3E0F58A90009AE00441
:10170100F0C3940A4005E4F0A304F090009CE004C7
:10171100F0C394644005E4F0A304F090009EE475E6
:10172100F0011200F5FEC3E5F094E8EE9403400ADF
:1017310090009EE4F0A3F0A304F0D006D000D0D036
:09174100D082D083D0F0D0E03258
:10203D0053897F5389BF4389205389EF758DCE75A1
:03204D008BCE2215
:03001B0002221AA4
:01221A003291
:10118900EF14604414606F14700302122814700382
:10119900021264240460030212C8A2AF920DC2AF06
:1011A90075C7AA75C755439780A20D92AFA2AF9292
:1011B9000DC2AF75C7AA75C7555397BFA20D92AF98
:1011C900E59630E7FB02128FA2AF920DC2AF75C749
:1011D900AA75C75553977FA20D92AFA2AF920DC2C0
:1011E900AF75C7AA75C755439740A20D92AFE5964B
:1011F90030E6FB02128FA2AF920DC2AF75C7AA7576
:10120900C755439720A20D92AFE59630E5FBA2AFF3
:10121900920DC2AF75C7AA75C7555396FB8027A211
:10122900AF920DC2AF75C7AA75C755439710A20DE6
:1012390092AFE59630E4FBA2AF920DC2AF75C7AA93
:1012490075C755439604A20D92AFA2AF920DC2AFD6
:1012590075C7AA75C7555396FD804DA2AF920DC2A9
:10126900AF75C7AA75C75553977FA20D92AFA2AFA5
:10127900920DC2AF75C7AA75C7555397BFA20D92F4
:10128900AFE59630E3FBA2AF920DC2AF75C7AA7561
:10129900C7555396FBA20D92AFA2AF920DC2AF757F
:1012A900C7AA75C755439602A20D92AFA2AF920D78
:1012B900C2AF75C7AA75C7555396FEA20D92AFE581
:0512C9009720E0FB226C
:101DCB0075985243892053877F538EEF53C4DFABF3
:101DDB0007AA06A905A804E47F807E70FDFC12010A
:091DEB00F9EFF404F58DD28E220B
:101E1C00759852438920438780538EEF53C4DFABB0
:101E2C0007AA06A905A804E4FF7EE1FDFC1201F94E
:081E3C00EFF404F58DD28E22B3
:101D4E0075985243892053877F438E1053C4DFAB5F
:101D5E0007AA06A905A8047F007E467D057C001211
:0A1D6E0001F9EFF404F58DD28E2286
:101D7800759852438920438780438E1053C4DFAB44
:101D880007AA06A905A8047F007E8C7D0A7C00129C
:0A1D980001F9EFF404F58DD28E225C
:10174A009000A31202AF75985253877F53C4F8438F
:10175A00C4209000A3E0F8A3E0F9A3E0FAA3E0FB19
:10176A007F007E467D057C001201F9C3E49FFFE4F9
:10177A009EFE74019DFDE49CFC780812029C8FC6B3
:10178A009000A3E0F8A3E0F9A3E0FAA3E0FB7F004E
:10179A007E467D057C001201F9C3E49FFF8FC54395
:0317AA00C408224E
:1017AD009000A71202AF75985243878053C4F84337
:1017BD00C4209000A7E0F8A3E0F9A3E0FAA3E0FBB2
:1017CD007F007E8C7D0A7C001201F9C3E49FFFE44B
:1017DD009EFE74019DFDE49CFC780812029C8FC650
:1017ED009000A7E0F8A3E0F9A3E0FAA3E0FB7F00E7
:1017FD007E8C7D0A7C001201F9C3E49FFF8FC543E7
:03180D00C40822EA
:10192E009000481202AF75F85253C4F8900048E088
:10193E00F8A3E0F9A3E0FAA3E0FB7F007E8C7D0A1A
:10194E007C001201F9C3E49FFFE49EFE74019DFD2D
:10195E00E49CFC780812029C8FC6900048E0F8A325
:10196E00E0F9A3E0FAA3E0FB7F007E8C7D0A7C0009
:0D197E001201F9C3E49FFF8FC543C4082286
:0721C4003098FDAF99C298AD
:0121CB0022F1
:0821CC00C2998F993099FD22A0
:0721D40030F8FDAF9AC2F8DC
:0121DB0022E1
:0821DC00C2F98F9A30F9FD22CF
:101FDB00E4F5B1F5B2F5B3F5B4F5B5F5B6F5ACF589
:0A1FEB00ADF5DAF5DBF5DCF5DD22DB
:101F160075B1FFE4F5B275B3FFF5B475B5FFF5B667
:101F260075ACFFF5AD75DAFFF5DB75DCFFF5DD2287
:101FF50075C7AA75C755A2AF920DC2AF75C7AA75A9
:0A200500C755439F80A20D92AF2241
:04220B0043AD80223D
:101BC300EF640A701C30F811E59AB4130CC2F830B4
:101BD300F8FDE59AB411F6C2F830F9FDC2F9759A29
:101BE3000D30F811E59AB4130CC2F830F8FDE59AFC
:0D1BF300B411F6C2F830F9FDC2F98F9A2244
:0615F10090FFF812031246
:1015F700850D83850E821202BB00000000E47FFF89
:101607007EFFFDFC850D83850E82E0F8A3E0F9A33C
:10161700E0FAA3E0FBC312028B504C9000041203C4
:1016270036E0FCA3E0FDA3E0FEA3E02401FFE43ED7
:10163700FEE43DFDE43CFC9000041203361202AFC9
:10164700850D83850E82E0FCA3E0FDA3E0FEA3E009
:101657002401FFE43EFEE43DFDE43CFC850D83856B
:071667000E821202AF809613
:06166E00900008020312C7
:101EF500538EF7438901D28CEF4E6012758AF775C0
:101F05008CFF308DFDC28DEF1F70ED1E80EAC28CF7
:011F150022A9
:1019E6009000AB1202AF538EF7438901D28CE4FF0D
:1019F600FEFDFC9000ABE0F8A3E0F9A3E0FAA3E05B
:101A0600FBC312028B602F758A65758CFC308DFDC9
:101A1600C28D9000ABE0FCA3E0FDA3E0FEA3E024B2
:101A2600FFFFEE34FFFEED34FFFDEC34FFFC9000CB
:091A3600AB1202AF80B8C28C2291
:101A3F009000AF1202AF538EEF438910D28EE4FFA6
:101A4F00FEFDFC9000AFE0F8A3E0F9A3E0FAA3E0FD
:101A5F00FBC312028B602F758B65758DFC308FFD6C
:101A6F00C28F9000AFE0FCA3E0FDA3E0FEA3E02453
:101A7F00FFFFEE34FFFEED34FFFDEC34FFFC900072
:091A8F00AF1202AF80B8C28E2232
:10198B009000B31202AF75C40243C408E4FFFEFD1E
:10199B00FC9000B3E0F8A3E0F9A3E0FAA3E0FBC3EB
:1019AB0012028B603275C53375C6F5E5C430E4FBA6
:1019BB0053C4EF9000B3E0FCA3E0FDA3E0FEA3E073
:1019CB0024FFFFEE34FFFEED34FFFDEC34FFFC9003
:0B19DB0000B31202AF80B553C4F72226
:101810009000B71202AF538FFB538FFD538FFEE43E
:10182000F586538FDF438F08E4FFFEFDFC9000B781
:10183000E0F8A3E0F9A3E0FAA3E0FBC312028B6097
:101840002CE58F30E4FB538FEF9000B7E0FCA3E072
:10185000FDA3E0FEA3E024FFFFEE34FFFEED34FF26
:10186000FDEC34FFFC9000B71202AF80BB538FF742
:011870002255
:1012CE000A3D3D3D3D3D3D3D3D3D3D3D3D3D3D3D73
:1012DE003D3D3D3D3D3D3D3D3D3D3D3D3D3D3D3D30
:1012EE003D3D3D3D3D3D3D3D3D3D3D3D3D3D3D3D20
:1012FE003D3D3D3D3D3D3D3D3D3D3D3D3D3D3D3D10
:10130E003D3D3D3D3D000A2A2020436F70797269B4
:10131E006768742863292032303135204E75766F18
:10132E00746F6E20546563686E6F6C6F67792043BF
:10133E006F72702E20416C6C207269676874732016
:10134E0072657365727665642E2020000A2A20204D
:10135E00436F6E7461637420452D4D61696C3A2044
:10136E004D6963726F432D38626974406E75766F86
:10137E00746F6E2E636F6D20202020202020202081
:10138E00202020202020202020202020202020204F
:10139E0020000A2A202044656D6F205665727369FD
:1013AE006F6E20203A202532642E2532642E25328F
:1013BE0064000A2A202046696E69736865642044B9
:1013CE00617465203A202532642E2532642E253232
:0213DE006400A9
:101871007BFF7A1279CE1204467BFF7A1379141218
:1018810004467BFF7A13795A1204467BFF7A137957
:10189100A090004BE4F0A304F0E4A3F0A3F0A3F0C4
:1018A100A3F01204467BFF7A1379C090004B7407B2
:1018B100F0A374DFF0A3E4F0A37405F0A3E4F0A3B4
:0F18C100741FF01204467BFF7A1279CE020446A0
:030000000215578F
:10155700787FE4F6D8FD9000007FFF7E01E4F0A3DA
:0A156700DFFCDEFA7581210215ACED
:101571000218D0E493A3F8E493A34003F68001F2A8
:1015810008DFF48029E493A3F85407240CC8C3337B
:10159100C4540F4420C8834004F456800146F6DF4A
:1015A100E4800B0102040810204080901CFAE47EC4
:1015B100019360BCA3FF543F30E509541FFEE4933F
:1015C100A360010ECF54C025E060A840B8E493A306
:1015D100FAE493A3F8E493A3C8C582C8CAC583CA31
:1015E100F0A3C8C582C8CAC583CADFE9DEE780BEE9
:011D230000BF
:10001E00BB010CE58229F582E5833AF583E0225097
:10002E0006E92582F8E622BBFE06E92582F8E222E1
:0D003E00E58229F582E5833AF583E49322FB
:10004B00BB010FF8E58229F582E5833AF583E028B9
:10005B00F0225009C58229F8E58226F622BBFE095B
:10006B00C58229F8E22582F222F8EA2583F583E995
:03007B00932822A5
:10007E00F8BB010DE58229F582E5833AF583E8F0B8
:10008E00225006E92582C8F622BBFE05E92582C864
:02009E00F2224C
:1000A000BC000BBE0029EF8DF084FFADF022E4CC44
:1000B000F875F008EF2FFFEE33FEEC33FCEE9DEC0D
:1000C000984005FCEE9DFE0FD5F0E9E4CEFD22ED53
:1000D000F8F5F0EE8420D21CFEADF075F008EF2F9D
:1000E000FFED33FD4007985006D5F0F222C398FD8E
:0500F0000FD5F0EA222B
:1000F500C5F0F8A3E028F0C5F0F8E5821582700296
:060105001583E038F02232
:10010B00BB0110E58229F582E5833AF583E0F5F032
:10011B00A3E0225009E92582F886F008E622BBFE0F
:10012B000AE92582F8E2F5F008E222E5832AF58355
:08013B00E993F5F0A3E993221A
:10014300BB010DC58229C582C5833AC5830200F56B
:100153005011C58229F808E5F026F618F5F0E58276
:1001630036F622BBFE11C58229F808E225F0F5F028
:10017300F218E23582F222F8E58229F582E5832A34
:0D018300F58374019325F0F5F0E493382224
:10019000F8BB0111E58229F582E5833AF583E8F0A1
:1001A000E5F0A3F0225009E92582C8F608A6F0225E
:0D01B000BBFE09E92582C8F2E5F008F22245
:1001BD0075F008758200EF2FFFEE33FECD33CDCCF9
:1001CD0033CCC58233C5829BED9AEC99E58298407C
:1001DD000CF582EE9BFEED9AFDEC99FC0FD5F0D659
:1001ED00E4CEFBE4CDFAE4CCF9A88222B800C1B983
:1001FD000059BA002DEC8BF084CFCECDFCE5F0CBC1
:10020D00F97818EF2FFFEE33FEED33FDEC33FCEBF9
:10021D0033FB10D703994004EB99FB0FD8E5E4F9B4
:10022D00FA227818EF2FFFEE33FEED33FDEC33FCA1
:10023D00C933C910D7059BE99A4007EC9BFCE99A95
:10024D00F90FD8E0E4C9FAE4CCFB2275F010EF2FDA
:10025D00FFEE33FEED33FDCC33CCC833C810D707DA
:10026D009BEC9AE899400AED9BFDEC9AFCE899F815
:0E027D000FD5F0DAE4CDFBE4CCFAE4C8F922A8
:10028B00EB9FF5F0EA9E42F0E99D42F0E89C45F0C9
:01029B002240
:10029C00E8600FECC313FCED13FDEE13FEEF13FF40
:0302AC00D8F12264
:0C02AF00ECF0A3EDF0A3EEF0A3EFF022C2
:1002BB00A8828583F0D083D0821202D21202D2128E
:1002CB0002D21202D2E473E493A3C583C5F0C583B3
:1002DB00C8C582C8F0A3C583C5F0C583C8C582C88D
:0102EB0022F0
:1002EC00BB010789828A830203775005E9F8020370
:1002FC006EBBFE05E9F80203A089828A830203A97A
:06030C008A838982E4737C
:10031200E50E2582F582E50D3583F583B50D04855D
:10032200820E2210AF0685820EF50D2285820EF511
:040332000DD2AF2217
:0D033600E50E2582F582E50D3583F5832265
:1003DB00E508244BF582E43400F583E00508229010
:1003EB00004830070390004BE475F00112038002C4
:1003FB0003432000E97F2ED2008018EF540F249086
:10040B00D43440D4FF30040BEF24BFB41A00500394
:10041B002461FFE50960021509050CE50C70020566
:10042B000B30070E900048E475F001120380EF02C9
:10043B00035C021BC37403D2078003E4C207F508F5
:10044B00900048120397E4F509F50BF50CE50960EC
:10045B00077F2012041E80F5750AFFC201C200C27D
:10046B0002C203C205C206C2081203EAFF700D30B6
:10047B0007057F0012042FAF0CAE0B22B4255FC211
:10048B00D5C2041203EAFF24D0B40A00501A75F047
:10049B000A780930D50508B6FF0106C6A426F62052
:1004AB00D5047002D20380D924CFB41A00EF5004C4
:1004BB00C2E5D204020630D20180C6D20080C0D27F
:1004CB000280BCD2D580BAD20580B47F2012041E24
:1004DB002002077401B5090040F11203DBFF12047F
:1004EB001E020458D208D20680951203DBFB1203BE
:1004FB00DBFA1203DBF94A4B700679017A077BFFB3
:10050B0020022EE509602A7E008E82758300120080
:10051B001E60060EEE650A70F0C2D5EBC0E0EAC0B5
:10052B00E0E9C0E0EE120677D0E0F9D0E0FAD0E0D7
:10053B00FB120343FF60AAEBC0E0EAC0E0E9C0E0B6
:10054B0012041ED0E02401F9D0E03400FAD0E0FB15
:10055B00E50A0460DCD50AD980877BFF7A067973BC
:10056B00D202809C791080027908C206C2088008EA
:10057B00D2D5790A8004790AC2D5E50A047002F54E
:10058B000AE4FAFDFEFF1203DBFC7B0820011312C9
:10059B0003DBFD7B1030000A1203DBFE1203DBFFD3
:1005AB007B20EC3382D592D55013C3E43000069FE9
:1005BB00FFE49EFEE42001039DFDE49CFCE4CBF8EC
:1005CB00C201EC700CCFCECDCCE824F8F870F380E0
:1005DB0017C3EF33FFEE33FEED33FDEC33FCEB33A0
:1005EB00FB994002FB0FD8E9EB300105F8D0E0C4D2
:1005FB0048B201C0E00AEC4D4E4F78207B0070C230
:10060B00EAB50A0040BCC0E0120679D0F0D0E02079
:10061B000104C4C0E0C4B201C0F0120407D0F0D58D
:10062B00F0EB0204581203B504F553056F5804C6DA
:10063B004C04C24205734F057B44057B4904DB43E5
:08064B000581550565460565B2
:100653004505654707215004CA2D04CE2E04F12B0E
:1006630004D22304EF20070A2A048A48000004E97D
:100673003F3F3F00790AA2D5200314300509B91082
:10068300020404B9080104A2D52006025001042083
:1006930002689202B509005034C0E07F203003198C
:1006A3007F30A20272067205500F1206D0C202C238
:1006B30006C205C2087F30800F300503E9C0E0128F
:1006C300041E300503D0E0F9D0E0B509CC3005179E
:1006D3007F30B9100C12041E7F583004077F7880D6
:1006E30003B9080312041E3002057F2D02041E7F86
:1006F300202008F87F2B2006F322920280CF286E59
:10070300756C6C2900D2011203DB3001F8C2017849
:100713000930D50108F602048A2D504349581203C3
:10072300DB2403B405004001E490071C9312040F7B
:0D073300743A12040FD20375090402056F19
:10034300BB010689828A83E0225002E722BBFE02B8
:09035300E32289828A83E49322EB
:10035C00BB010689828A83F0225002F722BBFE0180
:02036C00F3227A
:09036E00E6FB08E6FA08E6F922B4
:09037700E0FBA3E0FAA3E0F92287
:10038000F8E0FBA3A3E0F925F0F0E5821582700206
:070390001583E0FA38F022AA
:09039700EBF0A3EAF0A3E9F02267
:0903A000E2FB08E2FA08E2F9228E
:0C03A900E493FB740193FA740293F922B0
:1003B500D083D082F8E4937012740193700DA3A3D7
:1003C50093F8740193F5828883E4737402936860EB
:0603D500EFA3A3A380DFEB
:00000001FF
