:102E13004920616D20726573757267656E63650A1B
:012E230000AE
:082743004100C3004100C40085
:03005B000228D5A3
:1028D500C0E0C0F0C083C082C0D075D000C000C0C9
:1028E50001C002C003C004C005C006C00712294FBD
:1028F500C2EFD007D006D005D004D003D002D00156
:0D290500D000D0D0D082D083D0F0D0E0320E
:03003B000223009D
:10230000C0E0C0F0C083C082C0D075D000C000C0A3
:1023100001C002C003C004C005C006C007E5EC3020
:10232000E60A9000A3E0B402037403F0E5EC30E1A8
:1023300003122FFDE5EC30E203122FF8E5EC30E359
:102340000312300275EC00D007D006D005D004D0BF
:1023500003D002D001D000D0D0D082D083D0F0D032
:02236000E03269
:102005007F021215BE122A23122CB6122859122E3F
:10201500C17BFF7A2E7913120D2990009AE0600892
:10202500E4F0121B34122CF090009CE0600EE4F0FA
:10203500122989122362122649121A7590009FE00F
:02204500602613
:10204700E4F012289712000E12281A12003E122DE1
:10205700719000C4E004F0E0D394034009740AF0DF
:062067009000C3E004F04C
:10206D00122AAF900048EFF060A8E0FF121815801B
:01207D00A1C1
:101F8800706F776572206F6E0A006F6666206272E6
:101F9800696768740A00706F776572206F66660AF1
:101FA80000504F574552206C6F6E670A006B657979
:101FB80020706F776572206F66660A00434C454152
:101FC8005220636C69636B0A00434C454152206C94
:101FD8006F6E670A0053455420636C69636B0A008F
:101FE800534554206C6F6E670A004F4B20636C6931
:0D1FF800636B0A004F4B206C6F6E670A0090
:0C274B004100A700C1104100A200C10F16
:10285900122DDA1227919000A57401F09000A3F0CF
:10286900A37404F09000A67441F01220F7122DB35E
:102879007BFF7A1D793F122E9D7BFF7A21796712A2
:0E2889002EA9E4FBFA7D04FC7F04FE0229F177
:102DC70053E9FB53E9FD53E9FE43ED4043EA405322
:032DD700EBBF222D
:102DDA0053E9FB53E9FD53E9FE53EDBF53EABF53F1
:032DEA00EBBF221A
:1020F7009000A5E024FE602714604424027060125B
:102107002D58E4FFFE121023E4FFFE120924122FBC
:102117005D122F72122F80122FCD122F8E801D125B
:102127002F79122F5D7F41122C127F42122C127FC2
:1021370043122C127F44122C12122FCD022F9C1205
:102147002F79122F5D7F41122C127F42122C127FA2
:1021570043122C127F44122C12122FCD122F8E22D3
:101D3F00122F5D9000A4E024FE601D046003021DBD
:101D4F00D89000A5E024FE6005146007807B122F59
:101D5F00958076122FA380719000A6E024BF600FAC
:101D6F0014601914602314602D2444703D803B903F
:101D7F000076E0FF1212CA9000778025900078E07D
:101D8F00FF1212CA900079801890007AE0FF1212A9
:101D9F00CA90007B800B90007CE0FF1212CA90006B
:101DAF007DE0FF7E0012102380069000A67441F0A4
:101DBF009000A5E0B40205122F95800A9000A5E0CF
:0C1DCF00B40303122FA3122F87022F5D14
:102167009000A4E024FE600804705E122F8E805653
:102177009000A6E07003122F809000A6E0B44108FB
:10218700122F807F41122C129000A6E0B442081251
:102197002F807F42122C129000A6E0B44308122F22
:1021A700807F43122C129000A6E0B44408122F80BF
:1021B7007F44122C129000A5E0B40203022F8E90E8
:0A21C70000A5E0B40303122F9C22D0
:1019AF009000A4E024FE6009146035146039021A17
:1019BF00747F41122C127F42122C127F43122C1271
:1019CF007F44122C12E4FF1212CAE4FFFE121023FE
:1019DF00E4FFFE120924122FCD9000A47401F0220F
:1019EF009000A47402F022E4900080F0A3F0900025
:1019FF0085F0A3F0900080E0FEA3E0FF121023908B
:101A0F000085E0FEA3E0FF1209249000A5E024FE6C
:101A1F00601B1460342402704C122F5D122F72124F
:101A2F002D58122F80122FCD122F8E8019122F5D4D
:101A3F00122F79E4FF1212CA90007FE0FF122C12CE
:101A4F00122FCD122F95022F9C122F5D122F79E49A
:101A5F00FF1212CA90007FE0FF122C12122FCD122C
:061A6F002F8E122FA322AE
:1026F3009000A4E024FE60061460312402229000BE
:10270300A47401F07F41122C127F42122C127F43DA
:10271300122C127F44122C12E4FF1212CAE4FFFEA1
:10272300121023E4FFFE120924022FCD9000A4749B
:1027330002F090007EE01470069000A47401F02271
:1026A1009000A4E024FC60028047E4900082F0A343
:1026B100F0A3F0A3F0A3F0900080F0A3F09000A5A8
:1026C100E06401600A900082E0FF1212CA800312E6
:1026D1002D58900083E0FEA3E0FF121023900085A7
:1026E100E0FEA3E0FF120924122F339000A474032B
:0226F100F022D5
:101BE8009000A4E024FE6065046003021C9390004A
:101BF800A5E024FE601114603924026003021C93DE
:101C08009000A5740280059000A57403F0E4FF120B
:101C180012CA122F79122F5D7F41122C127F4212A5
:101C28002C127F43122C127F44122C12122FCD0239
:101C38002F9C9000A57401F0122F5D122F72122FA5
:101C480080122FCD122F8E122F9C022D589000A596
:101C5800E024FE600514601A80319000A6E070024E
:101C680080269000A6E004F0E0D3648094C4401B72
:101C780080169000A6E07002800E9000A6E004F0A6
:0C1C8800E0D3648094C440037441F02257
:10207E009000A4E024FC6002806E9000A5E0B40104
:10208E000A7402F09000A414F0800E90007EE0908E
:10209E0000A5F09000A47402F0E4900082F0A3F08A
:1020AE00A3F0A3F0A3F0900080F0A3F0A3E0FF1242
:1020BE0012CA900083E0FEA3E0FF12102390008569
:1020CE00E0FEA3E0FF120924122FCD122F79122F5A
:1020DE005D7F41122C127F42122C127F43122C1262
:0920EE007F44122C12122F332240
:101E75009000A4E024FE6046046003021F04900065
:101E8500A5E024FE600F14601D240270289000A4B4
:101E95007403F080209000A47402F0122F79122FA1
:101EA50095122F9C800F9000A47402F0122F7912C6
:101EB5002F8E122FA390007FE09000A6F0229000B5
:101EC500A5E024FE600514600A800E122F95122FDE
:101ED5009C8006122FA3122F8E9000A5E090007E05
:101EE500F09000A6E090007FF0E4A3F0A3F090004E
:101EF500A47403F0122F809000A6E0FF122C12228A
:080003009000A4E0FF022D258E
:03300B00022D256E
:062FD400123011022E83F1
:102989009000A3E0640270269000A2E004F0E0C386
:102999009402401FE4F0122FDA122D9E122DC74324
:1029A90087027BFF7A1F7988120D2902300BE49088
:0329B90000A2F089
:0129BC0022F8
:102897009000A7E004F0E0FF7E00BE0111BF900E9C
:1028A700D2101230117BFF7A1F7992020D29900006
:1028B700A7E0FF7E00BE0115BFF412122FD47BFFE5
:0E28C7007A1F799E120D299000A37402F02250
:062FDA00E49000A7F022C4
:05181500900049EFF016
:10181A00122FDA30100C9000A3E0B40105C21002B6
:10182A003014900049E024FDB40A0040030218E78E
:10183A0090184875F003A4C58325F0C58373021870
:10184A00670218E70218870218990218E70218A710
:10185A000218B90218E70218C70218D9227BFF7AC0
:10186A001F79A9120D299000A3E06401706F740218
:10187A00F07BFF7A1F79B5120D29022FD4300F039E
:10188A00C20F227BFF7A1F79C4120D290226F37B2D
:10189A00FF7A1F79D1120D29D20F0226A1300F0328
:1018AA00C20F227BFF7A1F79DD120D29021BE87B0A
:1018BA00FF7A1F79E8120D29D20F02207E300F031A
:1018CA00C20F227BFF7A1F79F2120D29021E757B45
:0D18DA00FF7A1F79FC120D29D20F120003B6
:0118E70022DE
:102C7600636F6163682073657420626565700A001E
:102C8600636F6163682067657420626565700A001A
:102757004800760A1414191E1E322841007500C15C
:0D2767000DC10CC10E41007400C10AC10B70
:102CB60090007E7401F0A37441F0E4A3F0A3F0A3A6
:0E2CC600F0A3F0A3F0A3F0A3F0900075F022AD
:1024E1009000A4E0FFB40423900081E004F07006A2
:1024F100900080E004F0D3900081E094109000807F
:10250100E094274004E4F0A3F0D20DEFB4032B9044
:1025110000A47404F0900081E004F0700690008043
:10252100E004F0D3900081E09410900080E09427C3
:0B2531004004E4F0A3F0C20ED20D2223
:0D000E00900075E0C394FF5003E004F02261
:10236200300D36C20D122FDA9000A4E0B4042820FA
:102372000E20D20E90007EE024FD60028014E490D4
:102382000052F0A3F07B2C7A017D0AFC7F01FE1241
:1023920027D912053D8002C20E300C20900074E055
:1023A20004F0E0D394064019C20C7BFF7A2C7976B4
:1023B200120D297B007A00790F022E76E4900074C8
:0123C200F02A
:0123C30022F7
:10053D0090007EE024FE70030205CF1470030207C5
:10054D006024026003020923900080E0FEA3E0FF17
:10055D007C007D0A1201E8ED4C900052700BF0A367
:10056D0004F0FB7A007D1E800AE4F0A304F0FB7A10
:10057D00007D0A7C00FF7E001227D9900080E0FFED
:10058D00A3E0900083CFF0A3EFF0900081E025E091
:10059D00FE900080E033900085F0A3CEF0900083B4
:1005AD00E0FEA3E0FF121023900085E0FEA3E0FF24
:1005BD00120924122D58122F72122F80122F8E0213
:1005CD00075A300A4C900052E4F0A304F0FB7A0075
:1005DD007D0A7C00FF7E001227D990007FE0FF335B
:1005ED0095E0FEEF25E0FFEE33FE74F52FF58274F6
:1005FD00FF3EF583E0FD74F42FF58274FF3EF58325
:10060D00E08DF0A4FF900080E5F0F0A3EFF002077D
:10061D002E90007FE0FF3395E0FEEF25E0FFEE33F7
:10062D00FE74F52FF58274FF3EF583E0FD74F42F13
:10063D00F58274FF3EF583E08DF0A4FF900080E01D
:10064D00B5F019A3E0B50714D20A900052E4F0A357
:10065D0004F0FB7A007D1E7C00FF804E90007FE051
:10066D00FF3395E0FEEF25E0FFEE33FE74F52FF539
:10067D008274FF3EF583E0FD7C00900080E0FEA3D8
:10068D00E0FF1201E8ED4C9000527011F0A37403DD
:10069D00F07B0A7A007D0A7C007F01800DE4F0A3D7
:1006AD0004F0FB7A007D0A7C00FF7E001227D9D270
:1006BD000B90007FE0FF3395E0FEEF25E0FFEE337A
:1006CD00FE74F52FF58274FF3EF583E0FD7C0090FE
:1006DD000080E0FEA3E0FF1201E8A3EFF090007FA1
:1006ED00E0FF3395E0FEEF25E0FFEE33FE74F52FCE
:1006FD00F58274FF3EF583E0FD7C00900080E0FE06
:10070D00A3E0FF1201E8900083ECF0A3EDF0900060
:10071D0081E025E0FE900080E033900085F0A3CECF
:10072D00F0900082E0FF1212CA900083E0FEA3E079
:10073D00FF121023900085E0FEA3E0FF12092412A2
:10074D002F7990007FE0FF122C12122F95122F9C03
:10075D0002091D300A4D900052E4F0A304F0FB7A1B
:10076D00007D0A7C007FC87E001227D990007FE0B3
:10077D00FF3395E0FEEF25E0FFEE33FE74F52FF528
:10078D008274FF3EF583E0FD74F42FF58274FF3E15
:10079D00F583E08DF0A4FF900080E5F0F0A3EFF07D
:1007AD000208EE90007FE0FF3395E0FEEF25E0FFBD
:1007BD00EE33FE74F52FF58274FF3EF583E0FD7484
:1007CD00F42FF58274FF3EF583E08DF0A4FF9000C9
:1007DD0080E0B5F019A3E0B50714D20A900052E4F9
:1007ED00F0A304F0FB7A007D1E7C00FF807C90005E
:1007FD007FE0FF3395E0FEEF25E0FFEE33FE74F56D
:10080D002FF58274FF3EF583E0FD7C00900080E0C3
:0B081D00FEA3E0FF1201E8ED4C705458
:10082800F9900049C9F0A3F0A3E9F0D20C122F2CDB
:10083800900049EBF0A3EAF0A3E9F0780F7C007D83
:1008480000900049E0FBA3E0FAA3E0F97E007F0FE7
:1008580012012E7BFF7A2C7986120D29900052E422
:10086800F0A37403F07B0A7A007D0A7C007F017E86
:04087800001227D96A
:10087C00D20B90007FE0FF3395E0FEEF25E0FFEE1A
:10088C0033FE74F52FF58274FF3EF583E0FD7C009A
:10089C00900080E0FEA3E0FF1201E8A3EFF09000CF
:1008AC007FE0FF3395E0FEEF25E0FFEE33FE74F5BD
:1008BC002FF58274FF3EF583E0FD7C00900080E014
:1008CC00FEA3E0FF1201E8900083ECF0A3EDF090A2
:1008DC000081E025E0FE900080E033900085F0A3DD
:1008EC00CEF0900082E0FF1212CA900083E0FEA3CB
:1008FC00E0FF121023900085E0FEA3E0FF12092414
:10090C00122F7990007FE0FF122C12122F8E122FD3
:07091C00A3122FCD122F5D85
:0109230022B1
:0C2E9D00900093EBF0A3EAF0A3E9F02210
:0C2EA900900096EBF0A3EAF0A3E9F02201
:102E4600900093A3E0FAA3E0F94A60031204542227
:102E5600900096A3E0FAA3E0F94A60031204542214
:1029F100EF4E602D900089EEF0A3EFF0AF05A3EC50
:102A0100F0A3EFF0AF03A3EAF0A3EFF0E4A3F0A388
:102A1100F0A3F0A3F0900088F090008704F0122E4C
:022A210046224B
:102DB300E4900087F0122E567B007A007900122EE1
:042DC3009D022EA996
:101A75009000A3E0B40203022DB3900087E0700349
:101A8500021B3390008BE0FEA3E0FF4E7003021BA8
:101A950033900088E07035D3EF9400EE9400500346
:101AA500021B3390008FE475F00112023DFED390C6
:101AB500008AE095F0900089E09E5072122E56E45F
:101AC50090008FF0A3F090008804F022900088E049
:101AD5006401705A90008F75F00112023DFED3909B
:101AE500008CE095F090008BE09E504290008DE0D8
:101AF500FEA3E0FF9400EE94004025900091E4756C
:101B0500F00112023DFCD3EF95F0EE9C5005E490F8
:101B15000087F0900087E0700790008BF0A3F0221B
:0F1B2500E490008FF0A3F0900088F0122E46227B
:0A2ECC00616463203D2025750A00B3
:04277400C111C112BC
:0B2EC100E4783BF643B18053B27F225F
:102649009000A3E0B40202804B783B0618E624FE12
:10265900601F1460291460322403703B783BE6C381
:10266900940A4033E4F6301104C211800ED211806D
:1026790023783BE6C39409401EE4F6022F6B783BAE
:10268900E6C394094011E4F6800A783BE6C394094D
:072699004005E4F6122F6476
:0126A0002217
:10294F00C200D281AFC3783C760008A60718E6FE16
:10295F0008E67802C333CE33CED8F9FF783CEEF6D3
:10296F0008EFF6ADC2EE18F6EF4D08F6E5E220E4FB
:09297F0004D2008002C200D21251
:01298800222C
:10281A0030870B783A30D8037603227602223012B8
:10282A002DC212C3783DE694FE18E69401783A5018
:10283A00047601800276047BFF7A2E79CC783CE616
:0F284A00FF08E690004FCFF0A3EFF0120D292208
:042778004100C50057
:01005A002283
:03300E00D2EE22DD
:10003E009000C5E004F0E0FFB40402C281EFC39467
:0B004E00054008E49000C5F012300EE1
:010059002284
:102A2300A2AF9213C2AF75C7AA75C75553A37FA2AE
:102A33001392AF122C96122A54122FEC122FF21269
:102A43002F03122C34122BCB122BEF122E35D2AFB5
:012A53002260
:102C340053ACFE43AD01C2B053CABF43CA2043CA1A
:102C44001075D68075D78043CA80D2CBE47823F63A
:012C5400225D
:062FE00043CB40D2B022F9
:062FE60053CBBFC2B02274
:1027D900ED4C603C7825A60608A607AE04AF0508AF
:1027E900A60608A607AE02AF0308A60608A6079024
:1027F9000052E0FEA3E0FF08A60608A607E408F6D3
:1028090008F608F608F67824F61876017831760184
:01281900229C
:072F2C007B007A00792322EB
:0D2E760078237C007D007E007F0F02012E7E
:072F3300E47823F6022FE60B
:013017002296
:101B34007823E67003021BE7782AE618467003024E
:101B44001BE77826E61846600808E61618700116A2
:101B5400227831E66005E4F6122FE07824E6FF707F
:101B64002ED3782AE6940018E694004076782D085F
:101B740006E6187001068604C3782896EC18964089
:101B840062122FE6E4782DF608F67824760122EF27
:101B94006401704F782D0806E6187001068606C3A6
:101BA400782A96EE1896403B782BE6FE08E6FFD39B
:101BB4009400EE94004020782F0806E61870010681
:101BC4008604C39FEC9E4004E47823F67823E670F1
:101BD400067829F608F622E4782DF608F67824F635
:041BE400122FE022BA
:092ED6003086037F00227F0122F7
:092EDF003085037F00227F0122EF
:092EE8003084037F00227F0122E7
:092EF1003083037F00227F0122DF
:0C2EB5002084062086037F01227F00227B
:062FEC00121C94022D3FAF
:10001E00900045E0243AF582E43400F583EFF09049
:0D002E000045E004F0C3940A4002E4F02213
:102AAF00900045E0FF900044E0FEB507037F002251
:102ABF00743A2EF582E43400F583E0FF900044E091
:092ACF0004F0C3940A4002E4F093
:012AD80022DB
:102B5600900045E0FFA3E0FEB507037F0022743A2C
:102B66002EF582E43400F583E0FF900046E004F0A1
:072B7600C3940A4002E4F0E1
:012B7D002235
:102E2400EF75F00BA4240BF582E43400F583E0FF86
:012E3400227B
:1029BD00EF75F00BA42409F582E43400F583ECF0F7
:1029CD00A3EDF0EF75F00BA4240CF582E43400F5C3
:1029DD0083EBF0EF75F00BA4240DF582E43400F5D4
:0429ED0083E4F0226D
:092EFA00900045E0900044F02234
:102D3F0043B10853B2F743B11053B2EF43B120532D
:092D4F00B2DF43B14053B2BF22D0
:101C9400E4900044F0A3F0A3F0FFEF75F00BA4244C
:101CA40009F582E43400F583E4F0A374C8F0EF7519
:101CB400F00BA42406F582E43400F5837402F0EFFB
:101CC40075F00BA4240BF582E43400F583E4F0EF03
:101CD40075F00BA4240CF582E43400F583E4F0EFF2
:101CE40075F00BA4240DF582E43400F583E4F00FC1
:101CF400EFB405A690000374FFF0A3742EF0A37450
:101D0400D6F090000E74FFF0A3742EF0A374DFF0ED
:101D140090001974FFF0A3742EF0A374E8F09000FF
:101D24002474FFF0A3742EF0A374F1F090002F74C8
:0A1D3400FFF0A3742EF0A374B5F0C5
:011D3E002282
:1014640090004AEFF0E075F00BA42403F974003502
:10147400F0FA7B01900000EBF0A3EAF0A3E9F0128C
:101484000434120454EF7003021556900000E0FB7C
:10149400A3E0FAA3E0F9900003120154FFC39405FA
:1014A400500890000374050215BAEFC3940A50085B
:1014B4009000037401020181900008120154701419
:1014C400900008041201C690004AE075F003A404D9
:1014D400FF12001E900000E0FBA3E0FAA3E0F990E5
:1014E4000006120253FFAEF0D39400EE94005003B2
:1014F4000215BD900004120253C39FE5F09E5023D1
:10150400900004E475F00112028BFCE5F06F7002A8
:10151400EC6E60030215BD90004AE075F003A4244C
:1015240003802B900009120154FFD394005003024E
:1015340015BD90000A7401120181C39F407B900085
:101544000AE41201C690004AE075F003A404FF0205
:10155400001E900000E0FBA3E0FAA3E0F990000372
:10156400120154FFD39405400A900003740512013C
:10157400C6802BEF600A90000374FF120181801E65
:10158400900008120154B40115900008E41201C639
:1015940090004AE075F003A42402FF12001E90009C
:1015A40000E0FBA3E0FAA3E0F9900004E4F5F012F4
:0A15B40002D890000AE41201C622DA
:102CF000E4900049F0900049E0FFC39405500B12A6
:0A2D00001464900049E004F080EB39
:012D0A0022A6
:092F030053ACFB43AD0402301491
:03301100C2B22226
:03301400D2B22213
:102BCB00E4F5B475B3FFF5B675B5FFF5DB75DAFF54
:102BDB00F5F975FA0475E5FF75E6FF75E70743F937
:042BEB0080022E83B3
:0C2E8300E4FF8FFBE4F5FC0FEFB413F646
:012E8F002220
:072F3A0075FB0A53FCFE22A7
:072F410075FB0A43FC0122AD
:072F480075FB0C53FCFE2297
:072F4F0075FB0C43FC01229D
:072F560075FB0853FCFE228D
:072F5D0075FB0843FC012293
:072F640075FB0E53FCFE2279
:072F6B0075FB0E43FC01227F
:072F720075FB1053FCFE2269
:072F790075FB1043FC01226F
:102D580075FB1153FCF075FB1053FCF175FB0F5319
:092D6800FCF075FB0E53FCF12296
:1012CA00EFD394634003021463EF75F00A84FEEFD0
:1012DA0075F00A84ADF0EFD3940950030213A3EE1C
:1012EA00B40A0040030213AF9012F9F828287302D7
:1012FA00131702132202132A02133E02134902137E
:10130A005D02136802137902138A02139275FB0EA7
:10131A0043FC0A53FCFB807975FB0E53FCF18028D1
:10132A0075FB0E43FC0C53FCFD75FB0F43FC0B5382
:10133A00FCFB807175FB0E43FC0453FCF58052756F
:10134A00FB0E43FC0653FCF775FB0F43FC0653FCEC
:10135A00F6805275FB0E43FC0653FCF7800675FBBC
:10136A000E43FC0E75FB0F43FC0D53FCFD803675D6
:10137A00FB0E53FCF175FB0F43FC0753FCF780256A
:10138A0075FB0E43FC0E800975FB0E43FC0653FCED
:10139A00F775FB0F43FC0F800C75FB0E53FCF175C0
:1013AA00FB0F53FCF0EDB40A0040030214639013E0
:1013BA00BFF82828730213DD0213E80213F002149F
:1013CA000302140E02142102142C02143C02144CBF
:1013DA0002145475FB1043FC0A53FCFB807575FB21
:1013EA001053FCF1802775FB1043FC0C53FCFD7570
:1013FA00FB1143FC0B53FCFB2275FB1043FC04530B
:10140A00FCF5804F75FB1043FC0653FCF775FB1186
:10141A0043FC0653FCF62275FB1043FC0653FCF70B
:10142A00800675FB1043FC0E75FB1143FC0D53FC43
:10143A00FD2275FB1053FCF175FB1143FC0753FCAD
:10144A00F72275FB1043FC0E800975FB1043FC065E
:09145A0053FCF775FB1143FC0F74
:011463002266
:072F800075FB1253FCF02267
:072F870075FB1243FC0F2251
:102C120075FB12EF24BE600E14600F1460102403C3
:102C2200700F43FC012243FC022243FC042243FCBA
:022C3200082276
:102BA60075FB0853FCF175FB0953FCF075FB0A53E2
:102BB600FCF175FB0B53FCF075FB0C53FCF175FB3C
:052BC6000D53FCF0229C
:04102300AB07AA0667
:10102700D3EB94E7EA940340030212C97C007D6482
:10103700AF03AE021201E890004DEFF07C007D6433
:10104700AF03AE021201E87E007F0ACFCDCFCECC30
:10105700CE1201E890004CEFF07C007D0AAF03AEA2
:10106700021201E8A905D3EB9463EA940050030246
:101077001134A3E0B40A00400302114090108AF82B
:101087002828730210A80210B30210BB0210CF0267
:1010970010DA0210EE0210F902110A02111B0211F6
:1010A7002375FB0843FC0A53FCFB807975FB085347
:1010B700FCF1802875FB0843FC0C53FCFD75FB090C
:1010C70043FC0B53FCFB807175FB0843FC0453FC8A
:1010D700F5805275FB0843FC0653FCF775FB094383
:1010E700FC0653FCF6805275FB0843FC0653FCF7DD
:1010F700800675FB0843FC0E75FB0943FC0D53FC8A
:10110700FD803675FB0853FCF175FB0943FC07535B
:10111700FCF7802575FB0843FC0E800975FB084327
:10112700FC0653FCF775FB0943FC0F800C75FB08A5
:1011370053FCF175FB0953FCF0D3EB9409EA9400D7
:10114700500302120990004CE0B40A004003021257
:101157001590115FF828287302117D02118802117A
:10116700900211A40211AF0211C30211CE0211DFC6
:101177000211F00211F875FB0A43FC0A53FCFB80CD
:101187007975FB0A53FCF1802875FB0A43FC0C5365
:10119700FCFD75FB0B43FC0B53FCFB807175FB0AD5
:1011A70043FC0453FCF5805275FB0A43FC0653FCD1
:1011B700F775FB0B43FC0653FCF6805275FB0A439D
:1011C700FC0653FCF7800675FB0A43FC0E75FB0B08
:1011D70043FC0D53FCFD803675FB0A53FCF175FB90
:1011E7000B43FC0753FCF7802575FB0A43FC0E8075
:1011F7000975FB0A43FC0653FCF775FB0B43FC0F11
:10120700800C75FB0A53FCF175FB0BE4F5FCE9B4A4
:101217000A0040030212C9901225F8282873021207
:101227004302124E02125602126902127402128708
:101237000212920212A20212B20212BA75FB0C43F8
:10124700FC0A53FCFB807575FB0C53FCF18027757A
:10125700FB0C43FC0C53FCFD75FB0D43FC0B53FCD3
:10126700FB2275FB0C43FC0453FCF5804F75FB0C0C
:1012770043FC0653FCF775FB0D43FC0653FCF622B3
:1012870075FB0C43FC0653FCF7800675FB0C43FC0F
:101297000E75FB0D43FC0D53FCFD2275FB0C53FC37
:1012A700F175FB0D43FC0753FCF72275FB0C43FC60
:1012B7000E800975FB0C43FC0653FCF775FB0D43C9
:0212C700FC0F1A
:0112C9002202
:072F8E0075FB0253FCFE225B
:072F950075FB0243FC012261
:072F9C0075FB0453FCFE224B
:072FA30075FB0443FC012251
:072FAA0075FB0853FCFE2239
:072FB10075FB0843FC01223F
:072FB800E4F5FB53FCFE22CF
:072FBF00E4F5FB43FC0122D5
:102A8200E4F5FB53FCF175FB01F5FC75FB0253FC0D
:102A9200F175FB03F5FC75FB0453FCF175FB05F5C1
:0D2AA200FC75FB0653FCF175FB07F5FC22EB
:04092400AB07AA066D
:10092800D3EB940FEA94274003020CBD7C037DE8C7
:10093800AF03AE021201E890004EEFF07C037DE8B1
:10094800AF03AE021201E87E007F64CFCDCFCECCDC
:10095800CE1201E890004DEFF07C007D64AF03AE4D
:10096800021201E87E007F0ACFCDCFCECCCE120195
:10097800E890004CEFF07C007D0AAF03AE02120154
:10098800E8A905D3EB94E7EA94035003020A5490CC
:10099800004EE0B40A004003020A5F9009AAF82852
:1009A80028730209C80209D30209DB0209EF020908
:1009B800FA020A0E020A19020A2A020A3B020A432A
:1009C800E4F5FB43FC0A53FCFB8079E4F5FB53FC9C
:1009D800F18028E4F5FB43FC0C53FCFD75FB014357
:1009E800FC0B53FCFB8070E4F5FB43FC0453FCF563
:1009F8008052E4F5FB43FC0653FCF775FB0143FC0E
:100A08000653FCF68051E4F5FB43FC0653FCF780E3
:100A180006E4F5FB75FC0E75FB0143FC0D53FCFD6C
:100A28008035E4F5FB53FCF175FB0143FC0753FCEF
:100A3800F78024E4F5FB43FC0E8009E4F5FB43FC56
:100A48000653FCF775FB0143FC0F800BE4F5FB53E1
:100A5800FCF175FB01F5FCD3EB9463EA94005003B9
:100A6800020B2890004DE0B40A004003020B3490BA
:100A78000A7EF8282873020A9C020AA7020AAF0213
:100A88000AC3020ACE020AE2020AED020AFE020BB9
:100A98000F020B1775FB0243FC0A53FCFB807975A8
:100AA800FB0253FCF1802875FB0243FC0C53FCFD50
:100AB80075FB0343FC0B53FCFB807175FB0243FC85
:100AC8000453FCF5805275FB0243FC0653FCF77592
:100AD800FB0343FC0653FCF6805275FB0243FC06FD
:100AE80053FCF7800675FB0243FC0E75FB0343FCC1
:100AF8000D53FCFD803675FB0253FCF175FB034377
:100B0800FC0753FCF7802575FB0243FC0E80097532
:100B1800FB0243FC0653FCF775FB0343FC0F800CF8
:100B280075FB0253FCF175FB03E4F5FCD3EB940968
:100B3800EA94005003020BFD90004CE0B40A004018
:100B480003020C09900B53F8282873020B71020B4F
:100B58007C020B84020B98020BA3020BB7020BC298
:100B6800020BD3020BE4020BEC75FB0443FC0A53A3
:100B7800FCFB807975FB0453FCF1802875FB04436A
:100B8800FC0C53FCFD75FB0543FC0B53FCFB80710F
:100B980075FB0443FC0453FCF5805275FB0443FCCD
:100BA8000653FCF775FB0543FC0653FCF6805275AB
:100BB800FB0443FC0653FCF7800675FB0443FC0E5C
:100BC80075FB0543FC0D53FCFD803675FB0453FC97
:100BD800F175FB0543FC0753FCF7802575FB0443BF
:100BE800FC0E800975FB0443FC0653FCF775FB05F6
:100BF80043FC0F800C75FB0453FCF175FB05E4F511
:100C0800FCE9B40A004003020CBD900C19F828282E
:100C180073020C37020C42020C4A020C5D020C688B
:100C2800020C7B020C86020C96020CA6020CAE7516
:100C3800FB0643FC0A53FCFB807575FB0653FCF16D
:100C4800802775FB0643FC0C53FCFD75FB0743FC32
:100C58000B53FCFB2275FB0643FC0453FCF5804F49
:100C680075FB0643FC0653FCF775FB0743FC06536C
:100C7800FCF62275FB0643FC0653FCF7800675FB61
:100C88000643FC0E75FB0743FC0D53FCFD2275FB68
:100C98000653FCF175FB0743FC0753FCF72275FB71
:100CA8000643FC0E800975FB0643FC0653FCF775EA
:050CB800FB0743FC0FE7
:010CBD002214
:072FC60075FB0653FCFE221F
:072FCD0075FB0643FC012225
:102E66006D6574657220636F756E742025640A0043
:0C277C0008320000000000000000C11442
:0D2E900053DCEF43DD10122791439B02221B
:102D8900E49000C0F0A3F0A3F0FE7F08FDFB7A00F9
:052D9900793202048BF9
:10279100C2DC43E90453E9FD43E90153EDFE43ED96
:1027A1000243ED0443ED0853EDEF53EDDF53EDBF6D
:1027B10053ED7F53EAFE43EA0243EA0443EA085336
:1027C100EAEF53EADF53EABF53EA7FE4F5EB53EB59
:0827D100FD53EBFB53EBF72273
:102D9E00D2DC53EDFD53EDFB53EDF753EAFD53EA51
:052DAE00FB53EAF722CF
:062FF200122E90022D8951
:102D71007BFF7A2E79669000C0E0FE3395E09000EB
:082D81004FF0A3CEF0020D2972
:0518E800900047EFF045
:1018ED00E49000A7F0123014900047E0FF14602838
:1018FD0014604D240270739000C2E0FE700A9000D7
:10190D00C1E06060E4F08062EEB4010280229000DC
:10191D00C2E06402705480219000C2E0FEB4010C5C
:10192D009000C1E06004E4F080408038EEB4020322
:10193D00E480249000C2E070319000C104F0802A50
:10194D009000C2E0FEB4020C9000C1E06004E4F02F
:10195D0080188010EE70069000C1F0800D9000C2CE
:10196D00E0B401069000C17401F09000C2EFF09058
:10197D0000C1E09000C06005E004F08003E014F0C9
:10198D0030140E9000C0E0C3648094855013C214CF
:10199D00229000C0E0D36480948C4005D2141224B0
:0119AD00E158
:0119AE002216
:052FF800E4FF0218E8EF
:052FFD007F010218E84D
:053002007F020218E846
:102E350053DC7F43DD807F807E257D007C0002247E
:012E45008408
:102DED0030F80BE59A1201B4C2F8D2158002C21563
:022DFD00A2151D
:012DFF0022B1
:082788004100A0004100A10086
:102BEF00122CD45389F75389FB5389FD43890190E4
:102BFF0000A074FCF0A37466F0758CFCF58AD2A962
:032C0F00D28C2242
:102CD400E4900099F090009BF090009DF0A3F09098
:0C2CE400009AF090009CF090009FF022FD
:03000B000221D1FE
:1021D100C0E0C0F0C083C082C0D075D000C000C0D4
:1021E100069000A0E0F58CA3E0F58A900099E00448
:1021F100F0C3940A4005E4F0A304F090009BE004CE
:10220100F0C394644005E4F0A304F090009DE475EC
:10221100F00112023DFEC3E5F094E8EE9403400A9A
:1022210090009DE4F0A3F0A304F0D006D000D0D03C
:09223100D082D083D0F0D0E0325D
:102E000053897F5389BF4389205389EF758DCE75D0
:032E10008BCE2244
:03001B0002301898
:013018003285
:102A540053B1FD43B202D28143E10175E80243B1AF
:102A64000453B2FB43F60453E1BF43E12053E1EFC7
:0E2A740043E22043E240E4F5E4F5E3D2AE2273
:1015BE00EF14604414606F14700302165D14700310
:1015CE00021699240460030216FDA2AF9213C2AF55
:1015DE0075C7AA75C755439780A21392AFA2AF9253
:1015EE0013C2AF75C7AA75C7555397BFA21392AF53
:1015FE00E59630E7FB0216C4A2AF9213C2AF75C7D1
:10160E00AA75C75553977FA21392AFA2AF9213C27A
:10161E00AF75C7AA75C755439740A21392AFE5960B
:10162E0030E6FB0216C4A2AF9213C2AF75C7AA75FD
:10163E00C755439720A21392AFE59630E5FBA2AFB4
:10164E009213C2AF75C7AA75C7555396FB8027A2D2
:10165E00AF9213C2AF75C7AA75C755439710A213A1
:10166E0092AFE59630E4FBA2AF9213C2AF75C7AA54
:10167E0075C755439604A21392AFA2AF9213C2AF91
:10168E0075C7AA75C7555396FD804DA2AF9213C26A
:10169E00AF75C7AA75C75553977FA21392AFA2AF66
:1016AE009213C2AF75C7AA75C7555397BFA21392AF
:1016BE00AFE59630E3FBA2AF9213C2AF75C7AA7522
:1016CE00C7555396FBA21392AFA2AF9213C2AF753A
:1016DE00C7AA75C755439602A21392AFA2AF921333
:1016EE00C2AF75C7AA75C7555396FEA21392AFE542
:0516FE009720E0FB2233
:102B2D0075985243892053877F538EEF53C4DFAB83
:102B3D0007AA06A905A804E47F807E70FDFC120398
:092B4D0041EFF404F58DD28E2253
:102B7E00759852438920438780538EEF53C4DFAB41
:102B8E0007AA06A905A804E4FF7EE1FDFC12034195
:082B9E00EFF404F58DD28E2244
:102AD90075985243892053877F438E1053C4DFABC7
:102AE90007AA06A905A8047F007E467D057C001279
:0A2AF9000341EFF404F58DD28E22A4
:102B0300759852438920438780438E1053C4DFABAB
:102B130007AA06A905A8047F007E8C7D0A7C001203
:0A2B23000341EFF404F58DD28E2279
:10223A009000A81203F775985253877F53C4F84346
:10224A00C4209000A8E0F8A3E0F9A3E0FAA3E0FB19
:10225A007F007E467D057C00120341C3E49FFFE4B4
:10226A009EFE74019DFDE49CFC78081203E48FC66F
:10227A009000A8E0F8A3E0F9A3E0FAA3E0FB7F004E
:10228A007E467D057C00120341C3E49FFF8FC54350
:03229A00C4082253
:10229D009000AC1203F775985243878053C4F843EE
:1022AD00C4209000ACE0F8A3E0F9A3E0FAA3E0FBB2
:1022BD007F007E8C7D0A7C00120341C3E49FFFE406
:1022CD009EFE74019DFDE49CFC78081203E48FC60C
:1022DD009000ACE0F8A3E0F9A3E0FAA3E0FB7F00E7
:1022ED007E8C7D0A7C00120341C3E49FFF8FC543A2
:0322FD00C40822F0
:102484009000491203F775F85253C4F8900049E0DC
:10249400F8A3E0F9A3E0FAA3E0FB7F007E8C7D0AB9
:1024A4007C00120341C3E49FFFE49EFE74019DFD82
:1024B400E49CFC78081203E48FC6900049E0F8A37A
:1024C400E0F9A3E0FAA3E0FB7F007E8C7D0A7C00A8
:0D24D400120341C3E49FFF8FC543C40822DB
:072F0C003098FDAF99C29857
:012F1300229B
:082F1400C2998F993099FD224A
:072F1C0030F8FDAF9AC2F886
:012F2300228B
:082F2400C2F98F9A30F9FD2279
:102D0B00E4F5B1F5B2F5B3F5B4F5B5F5B6F5ACF54B
:0A2D1B00ADF5DAF5DBF5DCF5DD229D
:102C960075B1FFE4F5B275B3FFF5B475B5FFF5B6DA
:102CA60075ACFFF5AD75DAFFF5DB75DCFFF5DD22FA
:102D250075C7AA75C755A2AF9213C2AF75C7AA7565
:0A2D3500C755439F80A21392AF22FE
:0430070043AD802233
:10291200EF640A701C30F811E59AB4130CC2F83057
:10292200F8FDE59AB411F6C2F830F9FDC2F9759ACC
:102932000D30F811E59AB4130CC2F830F8FDE59A9F
:0D294200B411F6C2F830F9FDC2F98F9A22E7
:061F050090FFF812045ADF
:101F0B00850D83850E8212040300000000E47FFF21
:101F1B007EFFFDFC850D83850E82E0F8A3E0F9A31F
:101F2B00E0FAA3E0FBC31203D3504C90000412045D
:101F3B007EE0FCA3E0FDA3E0FEA3E02401FFE43E72
:101F4B00FEE43DFDE43CFC90000412047E1203F71A
:101F5B00850D83850E82E0FCA3E0FDA3E0FEA3E0EC
:101F6B002401FFE43EFEE43DFDE43CFC850D83854E
:071F7B000E821203F78096AD
:061F820090000802045A61
:102C5500538EF7438901D28CEF4E6012758AF77552
:102C65008CFF308DFDC28DEF1F70ED1E80EAC28C8A
:012C7500223C
:102597009000B01203F7538EF7438901D28CE4FF02
:1025A700FEFDFC9000B0E0F8A3E0F9A3E0FAA3E099
:1025B700FBC31203D3602F758A65758CFC308DFDC4
:1025C700C28D9000B0E0FCA3E0FDA3E0FEA3E024F1
:1025D700FFFFEE34FFFEED34FFFDEC34FFFC90000F
:0925E700B01203F780B8C28C2287
:1025F0009000B41203F7538EEF438910D28EE4FF9C
:10260000FEFDFC9000B4E0F8A3E0F9A3E0FAA3E03B
:10261000FBC31203D3602F758B65758DFC308FFD66
:10262000C28F9000B4E0FCA3E0FDA3E0FEA3E02491
:10263000FFFFEE34FFFEED34FFFDEC34FFFC9000B5
:09264000B41203F780B8C28E2227
:10253C009000B81203F775C40243C408E4FFFEFD13
:10254C00FC9000B8E0F8A3E0F9A3E0FAA3E0FBC329
:10255C001203D3603275C53375C6F5E5C430E4FBA0
:10256C0053C4EF9000B8E0FCA3E0FDA3E0FEA3E0B1
:10257C0024FFFFEE34FFFEED34FFFDEC34FFFC9046
:0B258C0000B81203F780B553C4F7221B
:1023C4009000BC1203F7538FFB538FFD538FFEE431
:1023D400F586538FDF438F08E4FFFEFDFC9000BCBD
:1023E400E0F8A3E0F9A3E0FAA3E0FBC31203D3608F
:1023F4002CE58F30E4FB538FEF9000BCE0FCA3E0AE
:10240400FDA3E0FEA3E024FFFFEE34FFFEED34FF66
:10241400FDEC34FFFC9000BC1203F780BB538FF734
:012424002295
:101703000A3D3D3D3D3D3D3D3D3D3D3D3D3D3D3D39
:101713003D3D3D3D3D3D3D3D3D3D3D3D3D3D3D3DF6
:101723003D3D3D3D3D3D3D3D3D3D3D3D3D3D3D3DE6
:101733003D3D3D3D3D3D3D3D3D3D3D3D3D3D3D3DD6
:101743003D3D3D3D3D000A2A2020436F707972697B
:101753006768742863292032303135204E75766FDF
:10176300746F6E20546563686E6F6C6F6779204386
:101773006F72702E20416C6C2072696768747320DD
:1017830072657365727665642E2020000A2A202014
:10179300436F6E7461637420452D4D61696C3A200B
:1017A3004D6963726F432D38626974406E75766F4D
:1017B300746F6E2E636F6D20202020202020202048
:1017C3002020202020202020202020202020202016
:1017D30020000A2A202044656D6F205665727369C4
:1017E3006F6E20203A202532642E2532642E253256
:1017F30064000A2A202046696E6973686564204480
:10180300617465203A202532642E2532642E2532F8
:0218130064006F
:102425007BFF7A177903120D297BFF7A17794912F9
:102435000D297BFF7A17798F120D297BFF7A177982
:10244500D590004FE4F0A304F0E4A3F0A3F0A3F0CB
:10245500A3F0120D297BFF7A1779F590004F7407C9
:10246500F0A374DFF0A3E4F0A37405F0A3E4F0A3F4
:0F247500741FF0120D297BFF7A177903020D29CE
:03000000021DDB03
:101DDB00787FE4F6D8FD9000007FFF7E01E4F0A34E
:0A1DEB00DFFCDEFA75813D021E30B8
:101DF500022005E493A3F8E493A34003F68001F2DF
:101E050008DFF48029E493A3F85407240CC8C333EE
:101E1500C4540F4420C8834004F456800146F6DFBD
:101E2500E4800B0102040810204080902743E47EE3
:101E3500019360BCA3FF543F30E509541FFEE493B2
:101E4500A360010ECF54C025E060A840B8E493A379
:101E5500FAE493A3F8E493A3C8C582C8CAC583CAA4
:101E6500F0A3C8C582C8CAC583CADFE9DEE780BE5C
:012790000048
:10005E00E709F608DFFA8046E709F208DFFA803E84
:10006E0088828C83E709F0A3DFFA8032E309F60871
:10007E00DFFA8078E309F208DFFA807088828C83D9
:10008E00E309F0A3DFFA806489828A83E0A3F6088D
:10009E00DFFA805889828A83E0A3F208DFFA804C67
:1000AE0080D280FA80C680D4806980F2803380103E
:1000BE0080A680EA809A80A880DA80E280CA8033A7
:1000CE0089828A83ECFAE493A3C8C582C8CCC5831F
:1000DE00CCF0A3C8C582C8CCC583CCDFE9DEE780EF
:1000EE000D89828A83E493A3F608DFF9ECFAA9F06E
:1000FE00EDFB2289828A83ECFAE0A3C8C582C8CCC4
:10010E00C583CCF0A3C8C582C8CCC583CCDFEADEDC
:10011E00E880DB89828A83E493A3F208DFF980CC3E
:10012E0088F0EF60010E4E60C388F0ED2402B40437
:10013E000050B9F582EB2402B4040050AF232345DE
:06014E0082239000AE7355
:10015400BB010CE58229F582E5833AF583E0225060
:1001640006E92582F8E622BBFE06E92582F8E222AA
:0D017400E58229F582E5833AF583E49322C4
:10018100BB010FF8E58229F582E5833AF583E02882
:10019100F0225009C58229F8E58226F622BBFE0924
:1001A100C58229F8E22582F222F8EA2583F583E95E
:0301B1009328226E
:1001B400BB010689828A83F0225002F722BBFE012A
:0201C400F32224
:1001C600F8BB010DE58229F582E5833AF583E8F06F
:1001D600225006E92582C8F622BBFE05E92582C81B
:0201E600F22203
:1001E800BC000BBE0029EF8DF084FFADF022E4CCFB
:1001F800F875F008EF2FFFEE33FEEC33FCEE9DECC4
:10020800984005FCEE9DFE0FD5F0E9E4CEFD22ED09
:10021800F8F5F0EE8420D21CFEADF075F008EF2F53
:10022800FFED33FD4007985006D5F0F222C398FD44
:050238000FD5F0EA22E1
:10023D00C5F0F8A3E028F0C5F0F8E582158270024C
:06024D001583E038F022E9
:10025300BB0110E58229F582E5833AF583E0F5F0E9
:10026300A3E0225009E92582F886F008E622BBFEC6
:100273000AE92582F8E2F5F008E222E5832AF5830C
:08028300E993F5F0A3E99322D1
:10028B00BB010DC58229C582C5833AC58302023DD8
:10029B005011C58229F808E5F026F618F5F0E5822D
:1002AB0036F622BBFE11C58229F808E225F0F5F0DF
:1002BB00F218E23582F222F8E58229F582E5832AEB
:0D02CB00F58374019325F0F5F0E4933822DB
:1002D800F8BB0111E58229F582E5833AF583E8F058
:1002E800E5F0A3F0225009E92582C8F608A6F02215
:0D02F800BBFE09E92582C8F2E5F008F222FC
:1003050075F008758200EF2FFFEE33FECD33CDCCAF
:1003150033CCC58233C5829BED9AEC99E582984032
:100325000CF582EE9BFEED9AFDEC99FC0FD5F0D60F
:10033500E4CEFBE4CDFAE4CCF9A88222B800C1B939
:100345000059BA002DEC8BF084CFCECDFCE5F0CB77
:10035500F97818EF2FFFEE33FEED33FDEC33FCEBB0
:1003650033FB10D703994004EB99FB0FD8E5E4F96B
:10037500FA227818EF2FFFEE33FEED33FDEC33FC58
:10038500C933C910D7059BE99A4007EC9BFCE99A4C
:10039500F90FD8E0E4C9FAE4CCFB2275F010EF2F91
:1003A500FFEE33FEED33FDCC33CCC833C810D70791
:1003B5009BEC9AE899400AED9BFDEC9AFCE899F8CC
:0E03C5000FD5F0DAE4CDFBE4CCFAE4C8F9225F
:1003D300EB9FF5F0EA9E42F0E99D42F0E89C45F080
:0103E30022F7
:1003E400E8600FECC313FCED13FDEE13FEEF13FFF7
:0303F400D8F1221B
:0C03F700ECF0A3EDF0A3EEF0A3EFF02279
:10040300A8828583F0D083D08212041A12041A12B0
:10041300041A12041AE473E493A3C583C5F0C583D5
:10042300C8C582C8F0A3C583C5F0C583C8C582C843
:0104330022A6
:10043400BB010789828A830204D95005E9F80204C2
:10044400D0BBFE05E9F802050289828A8302050B06
:060454008A838982E47333
:10045A00E50E2582F582E50D3583F583B50D048514
:10046A00820E2210AF0685820EF50D2285820EF5C8
:04047A000DD2AF22CE
:0D047E00E50E2582F582E50D3583F583221C
:100CBE00E508244FF582E43400F583E00508229020
:100CCE00004C30080390004FE475F0011204E2026C
:100CDE0004B72001E97F2ED2018018EF540F249023
:100CEE00D43440D4FF30050BEF24BFB41A005003A8
:100CFE002461FFE50960021509050CE50C7002057B
:100D0E000B30080E90004CE475F0011204E2EF0275
:100D1E0001B40229127403D2088003E4C208F50854
:100D2E0090004C1204F9E4F509F50BF50CE5096099
:100D3E00077F20120D0180F5750AFFC202C201C2A3
:100D4E0003C204C206C207C209120CCDFF700D30D9
:100D5E0008057F00120D12AF0CAE0B22B4255FC238
:100D6E00D5C205120CCDFF24D0B40A00501A75F06E
:100D7E000A780930D50508B6FF0106C6A426F62066
:100D8E00D5047002D20480D924CFB41A00EF5004D7
:100D9E00C2E5D205020F13D20280C6D20180C0D2A4
:100DAE000380BCD2D580BAD20680B47F20120D014A
:100DBE002003077401B5090040F1120CBEFF120D9D
:100DCE0001020D3BD209D2078095120CBEFB120C0C
:100DDE00BEFA120CBEF94A4B700679E47A0F7BFF0D
:100DEE0020032EE509602A7E008E82758300120193
:100DFE005460060EEE650A70F0C2D5EBC0E0EAC094
:100E0E00E0E9C0E0EE120F5AD0E0F9D0E0FAD0E0FF
:100E1E00FB1204B7FF60AAEBC0E0EAC0E0E9C0E055
:100E2E00120D01D0E02401F9D0E03400FAD0E0FB3D
:100E3E00E50A0460DCD50AD980877BFF7A0F7956E4
:100E4E00D203809C791080027908C207C2098008FB
:100E5E00D2D5790A8004790AC2D5E50A047002F562
:100E6E000AE4FAFDFEFF120CBEFC7B0820021312F0
:100E7E000CBEFD7B1030010A120CBEFE120CBEFF22
:100E8E007B20EC3382D592D55013C3E43001069FFC
:100E9E00FFE49EFEE42002039DFDE49CFCE4CBF8FF
:100EAE00C202EC700CCFCECDCCE824F8F870F380F3
:100EBE0017C3EF33FFEE33FEED33FDEC33FCEB33B4
:100ECE00FB994002FB0FD8E9EB300205F8D0E0C4E5
:100EDE0048B202C0E00AEC4D4E4F78207B0070C243
:100EEE00EAB50A0040BCC0E0120F5CD0F0D0E020A2
:100EFE000204C4C0E0C4B202C0F0120CEAD0F0D5B5
:100F0E00F0EB020D3B1205170DD8530E52580DA9DA
:100F1E004C0DA5420E564F0E5E440E5E490DBE435D
:080F2E000E64550E48460E4802
:100F3600450E48471004500DAD2D0DB12E0DD42B86
:100F46000DB5230DD2200FED2A0D6D4800000DCCF6
:100F56003F3F3F00790AA2D5200414300609B91094
:100F6600020404B9080104A2D52007025001042096
:100F760003689203B509005034C0E07F203004199D
:100F86007F30A20372077206500F120FB3C203C25C
:100F960007C206C2097F30800F300603E9C0E0129F
:100FA6000D01300603D0E0F9D0E0B509CC300617C4
:100FB6007F30B9100C120D017F583005077F7880FD
:100FC60003B90803120D013003057F2D020D017FC1
:100FD600202009F87F2B2007F322920380CF286E6A
:100FE600756C6C2900D202120CBE3002F8C202786F
:100FF6000930D50108F6020D6D2D50434958120CE3
:10100600BE2403B405004001E4900FFF93120CF2D6
:0D101600743A120CF2D204750904020E5255
:10048B00EF4E6012EF60010EEDBB010B89828A8388
:10049B00F0A3DFFCDEFA2289F05007F709DFFCA995
:0C04AB00F022BBFEFCF309DFFCA9F022EC
:1004B700BB010689828A83E0225002E722BBFE0243
:0904C700E32289828A83E4932276
:0904D000E6FB08E6FA08E6F92251
:0904D900E0FBA3E0FAA3E0F92224
:1004E200F8E0FBA3A3E0F925F0F0E58215827002A3
:0704F2001583E0FA38F02247
:0904F900EBF0A3EAF0A3E9F02204
:09050200E2FB08E2FA08E2F9222A
:0C050B00E493FB740193FA740293F9224C
:10051700D083D082F8E4937012740193700DA3A373
:1005270093F8740193F5828883E473740293686087
:06053700EFA3A3A380DF87
:00000001FF
