:0822F7004100C1004100C200DA
:03005B000223B5C8
:1023B500C0E0C0F0C083C082C0D075D000C000C0EE
:1023C50001C002C003C004C005C006C00712242F07
:1023D500C2EFD007D006D005D004D003D002D0017B
:0D23E500D000D0D0D082D083D0F0D0E03234
:03003B00021F0D94
:101F0D00C0E0C0F0C083C082C0D075D000C000C09A
:101F1D0001C002C003C004C005C006C007E5EC3017
:101F2D00E60A9000A0E0B402037403F0E5EC30E1A2
:101F3D0003122B0BE5EC30E203122B06E5EC30E33C
:101F4D0003122B1075EC00D007D006D005D004D0AD
:101F5D0003D002D001D000D0D0D082D083D0F0D029
:021F6D00E03260
:101C98007F0212136F12250112003E1227F6122935
:101CA800DE900097E06008E4F012185412281190B2
:101CB8000099E0600EE4F01226341229A21222578D
:091CC80012179590009CE06026C3
:101CD100E4F012249D12000E1223371227BE12289F
:101CE100919000C2E004F0E0D394034009740AF03B
:061CF1009000C1E004F0C8
:101CF70012258D900048EFF060A8E0FF121AF180DE
:011D0700A13A
:1028A9006F6666206272696768740A00706F77657F
:0728B90072206F66660A0041
:0E22FF004100A3004100A400C10F41009F0058
:1027F6001228FC1222AFE490007BF09000A204F0B5
:0B2806009000A0F0A37403F00219B1D1
:1028E90053E9FB53E9FD53E9FE43ED4043EA405305
:0328F900EBBF2210
:1028FC0053E9FB53E9FD53E9FE53EDBF53EABF53D4
:03290C00EBBF22FC
:1019B1009000A2E024FE6028146059240260030212
:1019C1001A56E4FFFE120E64E4FFFE120B42122AC5
:1019D1006B122A80122A8E122ADB122A9C022AAA50
:1019E100122A87122A6B7F4112273A7F4212273A25
:1019F1007F4312273A7F4412273A122ADB122AAA7E
:101A01001228D57BFF7A2A79A31229AE7BFF7A2A85
:101A1100799C8032122A87122A6B7F4112273A7FE2
:101A21004212273A7F4312273A7F4412273A122A59
:101A3100DB122A9C1228D57BFF7A2A79B11229AEB2
:101A41007BFF7A2A79AA1229BAE4FBFA7D04FC7F8A
:061A510004FE1224CF2266
:101B8400122A6B9000A1E024FE601F046003021C73
:101B9400129000A2E0B40205122AA380719000A260
:101BA400E064037069122AB180649000A3E024BE4B
:101BB400601714602114602B24037039900073E0C3
:101BC400FF1210B79000748025900075E0FF12108A
:101BD400B79000768018900077E0FF1210B790005D
:101BE40078800B900079E0FF1210B790007AE0FF44
:101BF4007E00120E649000A2E0B40205122AA380B3
:101C04000A9000A2E0B40303122AB1122A95022A10
:011C14006B64
:101D74009000A1E024FE600804705E122A9C805644
:101D84009000A3E07003122A8E9000A3E0B44108EF
:101D9400122A8E7F4112273A9000A3E0B44208121F
:101DA4002A8E7F4212273A9000A3E0B44308122AF5
:101DB4008E7F4312273A9000A3E0B44408122A8E7F
:101DC4007F4412273A9000A2E0B40203022A9C90B6
:0A1DD40000A2E0B40303122AAA22C1
:1015C6009000A1E014700302169114700302169D98
:1015D6001470030216A6240360030216AE9000A23E
:1015E600E024FE603E14606F240260030216AEE43F
:1015F60090007DF0A3F0900082F0A3F090007DE0D3
:10160600FEA3E0FF120E64900082E0FEA3E0FF124C
:101616000B42122A6B122A80122A8E122ADB122AF7
:101626009C8031E490007DF0A3F0900082F0A3F05E
:10163600FF1210B7E4FFFE120E64E4FFFE120B4227
:10164600122A6B122A8790007CE0FF12273A122A90
:10165600DB122AA3022AAAE490007DF0A3F09000F0
:1016660082F0A3F0FF1210B7E4FFFE120E64E4FF4F
:10167600FE120B42122A6B122A8790007CE0FF12A0
:10168600273A122ADB122A9C022AB11228D5900088
:10169600A1E0601414F0229000A1E0600B14F02287
:0916A6009000A1E0600214F022A2
:101F6F009000A1E0705B90007BE01470069000A1E0
:101F7F007401F0E4FF1210B7E4FFFE120E64E4FFE9
:101F8F00FE120B42122A6B122A87122A95122ADB93
:101F9F0090007BE09000A2F07402F09000A114F08A
:101FAF001228D57BFF7A1B79841229AE7BFF7A1D0D
:101FBF0079741229BAE4FBFA7D04FC7F04FE122423
:021FCF00CF221F
:101D08009000A1E024FE60270470609000A2E02407
:101D1800FE600E146012240270519000A27402F04A
:101D2800229000A27403F0229000A27401F0229085
:101D380000A2E024FD601B0470319000A3E0700253
:101D480080269000A3E004F0E0D3648094C4401B94
:101D580080169000A3E07002800E9000A3E004F0CB
:0C1D6800E0D3648094C440037441F02276
:1020EE009000A1E024FE60290470509000A2E0242C
:1020FE00FD600B04700E122AA3122AAA8006122A61
:10210E009C122AB19000A37441F09000A17402F0C9
:10211E00229000A2E024FE70091228D5122AA312E2
:10212E002AAA9000A2E090007BF09000A3E090001D
:0C213E007CF0E4A3F0A3F09000A1F022DC
:032B190002284649
:062AE200122B1F022988DF
:102634009000A0E0B4021B90009FE004F0E0C3947B
:10264400034014E4F0122AE81228C01228E9438750
:072654000222E490009FF058
:01265B00225C
:10249D009000A4E004F0E0B4280ED20F122B1F7BA5
:1024AD00FF7A2879A90208489000A4E0B4321212EC
:1024BD002AE27BFF7A2879B51208489000A07402B1
:0224CD00F022FB
:062AE800E49000A4F022BE
:101AF100900049EFF0122AE8300F0C9000A0E0B4FA
:101B01000105C20F022B22900049E014602E24FE31
:101B1100603814605B24FD605D24FD605F24087003
:101B2100619000A0E064037059122AE27BFF7A28D9
:101B310079B51208489000A07402F022122B25906A
:101B410000A0E06401703B0215C6122B259000A095
:101B5100E0B401067402F0022AE29000A0E0B402AF
:101B61000280079000A0E0B403187401F0022B1961
:101B7100122B25021F6F122B25021D08122B251275
:031B810020EE2231
:10230D004800730A1414191E1E322841007200C1B0
:05231D000CC10AC10B18
:10003E0090007B7401F0E4A3F0A3F0A3F0A3F0A36F
:0C004E00F0A3F0A3F0A3F0900072F022E9
:1026AC0090007EE004F0700690007DE004F0D39082
:1026BC00007EE0941090007DE094274004E4F0A3A9
:0426CC00F0D20C221A
:0D000E00900072E0C394FF5003E004F02264
:0C29A200300C08C20C122AE812005E2261
:10005E00E49000A1F01228D590007BE024FE7003FE
:10006E000200F81470030202892402600302041FC6
:10007E0090007DE0FEA3E0FF7C007D0A1204B4ED4B
:10008E004C90004F700BF0A304F0FB7A007D1E80A5
:10009E000AE4F0A304F0FB7A007D0A7C00FF7E00E8
:1000AE0012237690007DE0FFA3E0900080CFF0A3B6
:1000BE00EFF090007EE025E0FE90007DE0339000B2
:1000CE0082F0A3CEF0900080E0FEA3E0FF120E645B
:1000DE00900082E0FEA3E0FF120B42122879122A52
:1000EE0080122A8E122A9C020283300A4C90004FF4
:1000FE00E4F0A304F0FB7A007D0A7C00FF7E001280
:10010E00237690007CE0FF3395E0FEEF25E0FFEED6
:10011E0033FE74F22FF58274FF3EF583E0FD74F129
:10012E002FF58274FF3EF583E08DF0A4FF90007DE5
:10013E00E5F0F0A3EFF002025790007CE0FF33955C
:10014E00E0FEEF25E0FFEE33FE74F22FF58274FF32
:10015E003EF583E0FD74F12FF58274FF3EF583E0EA
:10016E008DF0A4FF90007DE0B5F019A3E0B5071463
:10017E00D20A90004FE4F0A304F0FB7A007D1E7CBF
:10018E0000FF804E90007CE0FF3395E0FEEF25E00F
:10019E00FFEE33FE74F22FF58274FF3EF583E0FD21
:1001AE007C0090007DE0FEA3E0FF1204B4ED4C90C5
:1001BE00004F7011F0A37403F07B0A7A007D0A7C65
:1001CE00007F01800DE4F0A304F0FB7A007D0A7C31
:1001DE0000FF7E00122376D20B90007CE0FF339559
:1001EE00E0FEEF25E0FFEE33FE74F22FF58274FF92
:1001FE003EF583E0FD7C0090007DE0FEA3E0FF1263
:10020E0004B4A3EFF090007CE0FF3395E0FEEF2501
:10021E00E0FFEE33FE74F22FF58274FF3EF583E0BD
:10022E00FD7C0090007DE0FEA3E0FF1204B4900080
:10023E0080ECF0A3EDF090007EE025E0FE90007DD6
:10024E00E033900082F0A3CEF090007FE0FF12101A
:10025E00B7900080E0FEA3E0FF120E64900082E0F3
:10026E00FEA3E0FF120B42122A8790007CE0FF12E1
:10027E00273A122AA3122AAA020419300A4D900014
:10028E004FE4F0A304F0FB7A007D0A7C007FC87E69
:10029E000012237690007CE0FF3395E0FEEF25E020
:1002AE00FFEE33FE74F22FF58274FF3EF583E0FD10
:1002BE0074F12FF58274FF3EF583E08DF0A4FF906C
:1002CE00007DE5F0F0A3EFF00203EA90007CE0FF82
:1002DE003395E0FEEF25E0FFEE33FE74F22FF5824C
:1002EE0074FF3EF583E0FD74F12FF58274FF3EF549
:1002FE0083E08DF0A4FF90007DE0B5F019A3E0B58A
:10030E000714D20A90004FE4F0A304F0FB7A007DAC
:10031E001E7C00FF804F90007CE0FF3395E0FEEFE7
:10032E0025E0FFEE33FE74F22FF58274FF3EF58367
:10033E00E0FD7C0090007DE0FEA3E0FF1204B4ED32
:10034E004C90004F7011F0A37403F07B0A7A007D7D
:10035E000A7C007F01800EE4F0A304F0FB7A007D9E
:10036E000A7C007FC87E00122376D20B90007CE0C0
:10037E00FF3395E0FEEF25E0FFEE33FE74F22FF52E
:10038E008274FF3EF583E0FD7C0090007DE0FEA3CD
:10039E00E0FF1204B4A3EFF090007CE0FF3395E091
:1003AE00FEEF25E0FFEE33FE74F22FF58274FF3E72
:1003BE00F583E0FD7C0090007DE0FEA3E0FF1204DB
:1003CE00B4900080ECF0A3EDF090007EE025E0FE0E
:1003DE0090007DE033900082F0A3CEF090007FE09D
:1003EE00FF1210B7900080E0FEA3E0FF120E6490A3
:1003FE000082E0FEA3E0FF120B42122A8790007CDF
:10040E00E0FF12273A122A9C122AB1122ADB122A74
:01041E006B72
:01041F0022BA
:0C29AE00900090EBF0A3EAF0A3E9F02207
:0C29BA00900093EBF0A3EAF0A3E9F022F8
:10296800900090A3E0FAA3E0F94A6003120720223E
:10297800900093A3E0FAA3E0F94A6003120720222B
:1024CF00EF4E602D900086EEF0A3EFF0AF05A3EC7A
:1024DF00F0A3EFF0AF03A3EAF0A3EFF0E4A3F0A3B0
:1024EF00F0A3F0A3F0900085F090008404F012297F
:0224FF00682251
:1028D500E4900084F01229787B007A0079001229AF
:0428E500AE0229BA5C
:101795009000A0E0B402030228D5900084E0700315
:1017A500021853900088E0FEA3E0FF4E7003021874
:1017B50053900085E07035D3EF9400EE940050030C
:1017C50002185390008CE475F001120509FED390C0
:1017D5000087E095F0900086E09E5072122978E42B
:1017E50090008CF0A3F090008504F022900085E035
:1017F5006401705A90008C75F001120509FED390B2
:101805000089E095F0900088E09E504290008AE0C3
:10181500FEA3E0FF9400EE9400402590008EE47551
:10182500F001120509FCD3EF95F0EE9C5005E4900C
:101835000084F0900084E07007900088F0A3F02207
:0F184500E490008CF0A3F0900085F01229682247
:0A29E900616463203D2025750A009B
:04232200C10DC10E1A
:0B29DE00E47824F643B18053B27F225E
:102257009000A0E0B40202804B78240618E624FE22
:10226700601F1460291460322403703B7824E6C38E
:10227700940A4033E4F6300D04C20D800ED20D806F
:10228700237824E6C39409401EE4F6022A797824C9
:10229700E6C394094011E4F6800A7824E6C394095A
:0722A7004005E4F6122A7263
:0122AE00220D
:10242F00C200D281AFC37825760008A60718E6FE52
:10243F0008E67802C333CE33CED8F9FF7825EEF60F
:10244F0008EFF6ADC2EE18F6EF4D08F6E5E220E420
:09245F0004D2008002C200D20E7A
:012468002251
:1023370030870B782330D803760322760222300EBB
:102347002DC20EC37826E694FE18E6940178235032
:10235700047601800276047BFF7A2979E97825E6FD
:0F236700FF08E690004DCFF0A3EFF012084822D8
:042326004100C300AF
:01005A002283
:032B1C00D2EE22D4
:1027BE009000C3E004F0E0FFB40402C281EFC394C2
:0B27CE00054008E49000C3F0122B1C33
:0127D90022DD
:10250100A2AF9210C2AF75C7AA75C75553A37FA2D8
:102511001092AF12279E122532122AFA122B0012A4
:102521002A2012275C1226D0122717122957D2AF60
:012531002287
:02232A00C111DF
:10275C0053ACFE43AD01C2B053CABF43CA2043CAF7
:10276C001075D68075D78043CA80D2CBE4780FF62B
:01277C00223A
:062AEE0043CB40D2B022F0
:062AF40053CBBFC2B0226B
:10237600ED4C603A7811A60608A607AE04AF05082C
:10238600A60608A607AE02AF0308A60608A607908B
:10239600004FE0FEA3E0FF08A60608A607E408F63D
:0F23A60008F608F608F67810F6187601D211221C
:072A4100E4780FF6022AF40D
:012B2500228D
:10185400780FE670030219057816E618467003023D
:1018640019057812E61846600808E616187001167D
:1018740022301105C211122AEE7810E6FF702ED321
:101884007816E6940018E69400407678190806E67F
:10189400187001068604C3781496EC1896406212F8
:1018A4002AF4E47819F608F67810760122EF640138
:1018B400704F78190806E6187001068606C3781674
:1018C40096EE1896403B7817E6FE08E6FFD39400A0
:1018D400EE94004020781B0806E618700106860482
:1018E400C39FEC9E4004E4780FF6780FE670067808
:1018F40015F608F622E47819F608F67810F6122A96
:02190400EE22D1
:0929F3003086037F00227F0122DF
:0929FC003085037F00227F0122D7
:092A05003084037F00227F0122CE
:092A0E003083037F00227F0122C6
:0C29C6002084062086037F01227F00226F
:062AFA001219060228601B
:10001E00900045E0243AF582E43400F583EFF09049
:0D002E000045E004F0C3940A4002E4F02213
:10258D00900045E0FF900044E0FEB507037F002278
:10259D00743A2EF582E43400F583E0FF900044E0B8
:0925AD0004F0C3940A4002E4F0BA
:0125B6002202
:10265C00900045E0FFA3E0FEB507037F0022743A2B
:10266C002EF582E43400F583E0FF900046E004F0A0
:07267C00C3940A4002E4F0E0
:012683002234
:10293500EF75F00BA4240BF582E43400F583E0FF7A
:01294500226F
:10246900EF75F00BA42409F582E43400F583ECF050
:10247900A3EDF0EF75F00BA4240CF582E43400F51C
:1024890083EBF0EF75F00BA4240DF582E43400F52D
:0424990083E4F022C6
:092A1700900045E0900044F0221B
:1028600043B10853B2F743B11053B2EF43B1205311
:09287000B2DF43B14053B2BF22B4
:10190600E4900044F0A3F0A3F0FFEF75F00BA424DD
:1019160009F582E43400F583E4F0A374C8F0EF75AA
:10192600F00BA42406F582E43400F5837402F0EF8C
:1019360075F00BA4240BF582E43400F583E4F0EF94
:1019460075F00BA4240CF582E43400F583E4F0EF83
:1019560075F00BA4240DF582E43400F583E4F00F52
:10196600EFB405A690000374FFF0A37429F0A374E6
:10197600F3F090000E74FFF0A37429F0A374FCF04A
:1019860090001974FFF0A3742AF0A37405F0900078
:101996002474FFF0A3742AF0A3740EF090002F7441
:0A19A600FFF0A37429F0A374C6F04B
:0119B0002214
:1012150090004AEFF0E075F00BA42403F974003553
:10122500F0FA7B01900000EBF0A3EAF0A3E9F012DD
:101235000700120720EF7003021307900000E0FB80
:10124500A3E0FAA3E0F9900003120420FFC394057C
:101255005008900003740502136BEFC3940A5008FD
:10126500900003740102044D9000081204207014CC
:101275009000080412049290004AE075F003A4045B
:10128500FF12001E900000E0FBA3E0FAA3E0F99036
:10129500000612051FFFAEF0D39400EE9400500334
:1012A50002136E90000412051FC39FE5F09E5023A4
:1012B500900004E475F001120557FCE5F06F70022B
:1012C500EC6E600302136E90004AE075F003A424EF
:1012D50003802B900009120420FFD39400500302D1
:1012E500136E90000A740112044DC39F407B900059
:1012F5000AE412049290004AE075F003A404FF0288
:10130500001E900000E0FBA3E0FAA3E0F9900003C3
:10131500120420FFD39405400A90000374051204BB
:1013250092802BEF600A90000374FF12044D801E1B
:10133500900008120420B40115900008E4120492EC
:1013450090004AE075F003A42402FF12001E9000ED
:1013550000E0FBA3E0FAA3E0F9900004E4F5F01245
:0A13650005A490000AE4120492228D
:10281100E4900049F0900049E0FFC39405500B1289
:0A2821001215900049E004F080EB6E
:01282B00228A
:092A200053ACFB43AD04022B2270
:032B1F00C2B2221D
:032B2200D2B2220A
:1026D000E4F5B475B3FFF5B675B5FFF5DB75DAFF54
:1026E000F5F975FA0475E5FF75E6FF75E70743F937
:0426F00080022988B3
:0C298800E4FF8FFBE4F5FC0FEFB413F646
:012994002220
:072A480075FB0A53FCFE229E
:072A4F0075FB0A43FC0122A4
:072A560075FB0C53FCFE228E
:072A5D0075FB0C43FC012294
:072A640075FB0853FCFE2284
:072A6B0075FB0843FC01228A
:072A720075FB0E53FCFE2270
:072A790075FB0E43FC012276
:072A800075FB1053FCFE2260
:072A870075FB1043FC012266
:1028790075FB1253FCF175FB13E4F5FC75FB14535E
:08288900FCF175FB15F5FC22C2
:1010B700EFD394634003021214EF75F00A84FEEF36
:1010C70075F00A84ADF0EFD394095003021172EE64
:1010D700B40A00400302117E9010E6F82828730234
:1010E700110402110C02111402112202112A021119
:1010F7003802114002114E02115C02116475FB0E99
:1011070075FC0A805E75FB0E53FCF1801C75FB0EA7
:1011170075FC0C75FB0F75FC0B805C75FB0E75FC85
:1011270004804075FB0E75FC0675FB0F75FC068089
:101137004675FB0E75FC06800675FB0E75FC0E7575
:10114700FB0F75FC0D803075FB0E53FCF175FB0F23
:1011570075FC07802275FB0E75FC0E800675FB0E6D
:1011670075FC0675FB0F75FC0F800C75FB0E53FCA9
:10117700F175FB0FE4F5FCEDB40A0040030212140D
:1011870090118EF82828730211AC0211B40211BC19
:101197000211C90211D10211DE0211E60211F30296
:1011A700120002120875FB1075FC0A805A75FB10B5
:1011B70053FCF1801B75FB1075FC0C75FB1175FC5E
:1011C7000B2275FB1075FC04803D75FB1075FC0642
:1011D70075FB1175FC062275FB1075FC06800675FC
:1011E700FB1075FC0E75FB1175FC0D2275FB10537A
:1011F700FCF175FB1175FC072275FB1075FC0E8061
:0D1207000675FB1075FC0675FB1175FC0FDC
:0112140022B7
:072A8E0075FB12E4F5FC22C8
:072A950075FB1275FC0F2216
:10273A0075FB12EF24BE600E14600F1460102403A0
:10274A00700F75FC012275FC022275FC042275FCCF
:02275A00082253
:1026F40075FB0853FCF175FB09E4F5FC75FB0A5303
:10270400FCF175FB0BF5FC75FB0C53FCF175FB0D33
:03271400F5FC22AF
:040E6400AB07AA0628
:100E6800D3EB94E7EA940340030210B67C007D6458
:100E7800AF03AE021204B490004BEFF07C007D6427
:100E8800AF03AE021204B47E007F0ACFCDCFCECC22
:100E9800CE1204B490004AEFF07C007D0AAF03AE96
:100EA800021204B4A905D3EB9463EA940050030238
:100EB8000F57A3E0B40A004003020F63900ECBF86B
:100EC800282873020EE9020EF1020EF9020F07023A
:100ED8000F0F020F1D020F25020F33020F41020FE1
:100EE8004975FB0875FC0A805E75FB0853FCF180A8
:100EF8001C75FB0875FC0C75FB0975FC0B805C7593
:100F0800FB0875FC04804075FB0875FC0675FB0939
:100F180075FC06804675FB0875FC06800675FB089F
:100F280075FC0E75FB0975FC0D803075FB0853FCCC
:100F3800F175FB0975FC07802275FB0875FC0E80AE
:100F48000675FB0875FC0675FB0975FC0F800C75AA
:100F5800FB0853FCF175FB09E4F5FCD3EB9409EAB3
:100F68009400500302101443E60443E60890004A34
:100F7800E0B40A004003021020900F88F828287374
:100F8800020FA6020FAE020FB6020FC4020FCC0268
:100F98000FDA020FE2020FF0020FFE02100675FBD5
:100FA8000A75FC0A805E75FB0A53FCF1801C75FB10
:100FB8000A75FC0C75FB0B75FC0B805C75FB0A75E0
:100FC800FC04804075FB0A75FC0675FB0B75FC0676
:100FD800804675FB0A75FC06800675FB0A75FC0ED3
:100FE80075FB0B75FC0D803075FB0A53FCF175FB26
:100FF8000B75FC07802275FB0A75FC0E800675FBD5
:101008000A75FC0675FB0B75FC0F800C75FB0A5303
:10101800FCF175FB0BE4F5FCE9B40A00400302108F
:10102800B6901030F828287302104E02105602109D
:101038005E02106B02107302108002108802109575
:101048000210A20210AA75FB0C75FC0A805A75FBE7
:101058000C53FCF1801B75FB0C75FC0C75FB0D75B6
:10106800FC0B2275FB0C75FC04803D75FB0C75FCB4
:101078000675FB0D75FC062275FB0C75FC068006D3
:1010880075FB0C75FC0E75FB0D75FC0D2275FB0CC4
:1010980053FCF175FB0D75FC072275FB0C75FC0EF6
:0E10A800800675FB0C75FC0675FB0D75FC0FC4
:0110B6002217
:072A9C0075FB0253FCFE2252
:072AA30075FB0243FC012258
:072AAA0075FB0453FCFE2242
:072AB10075FB0475FC012216
:072AB80075FB0853FCFE2230
:072ABF0075FB0843FC012236
:072AC600E4F5FB53FCFE22C6
:072ACD00E4F5FB43FC0122CC
:10256000E4F5FB53FCF175FB01F5FC75FB0253FC34
:10257000F175FB03F5FC75FB0453FCF175FB05F5E8
:0D258000FC75FB0653FCF175FB07F5FC2212
:040B4200AB07AA064D
:100B4600D3EB940FEA94274003020E637C037DE8FF
:100B5600AF03AE021204B490004CEFF07C037DE8C4
:100B6600AF03AE021204B47E007F64CFCDCFCECCED
:100B7600CE1204B490004BEFF07C007D64AF03AE60
:100B8600021204B47E007F0ACFCDCFCECCCE1204A3
:100B9600B490004AEFF07C007D0AAF03AE02120467
:100BA600B4A905D3EB94E7EA94035003020C5490DE
:100BB600004CE0B40A004003020C5F900BC8F82812
:100BC6002873020BE6020BEE020BF6020C04020C73
:100BD6000C020C1A020C22020C30020C3E020C46CD
:100BE600E4F5FB75FC0A805EE4F5FB53FCF1801C22
:100BF600E4F5FB75FC0C75FB0175FC0B805BE4F5FD
:100C0600FB75FC048040E4F5FB75FC0675FB01757D
:100C1600FC068045E4F5FB75FC068006E4F5FB75ED
:100C2600FC0E75FB0175FC0D802FE4F5FB53FCF102
:100C360075FB0175FC078021E4F5FB75FC0E80064B
:100C4600E4F5FB75FC0675FB0175FC0F800BE4F5FE
:100C5600FB53FCF175FB01F5FCD3EB9463EA9400BE
:100C66005003020D0A90004BE0B40A004003020D47
:100C760016900C7EF8282873020C9C020CA4020C19
:100C8600AC020CBA020CC2020CD0020CD8020CE662
:100C9600020CF4020CFC75FB0275FC0A805E75FB07
:100CA6000253FCF1801C75FB0275FC0C75FB037589
:100CB600FC0B805C75FB0275FC04804075FB0275BD
:100CC600FC0675FB0375FC06804675FB0275FC0683
:100CD600800675FB0275FC0E75FB0375FC0D8030F6
:100CE60075FB0253FCF175FB0375FC07802275FB4F
:100CF6000275FC0E800675FB0275FC0675FB037516
:100D0600FC0F800C75FB0253FCF175FB03E4F5FC4C
:100D1600D3EB9409EA94005003020DC190004AE017
:100D2600B40A004003020DCD900D35F82828730251
:100D36000D53020D5B020D63020D71020D79020D5A
:100D460087020D8F020D9D020DAB020DB375FB04DC
:100D560075FC0A805E75FB0453FCF1801C75FB0470
:100D660075FC0C75FB0575FC0B805C75FB0475FC4E
:100D760004804075FB0475FC0675FB0575FC068052
:100D86004675FB0475FC06800675FB0475FC0E753E
:100D9600FB0575FC0D803075FB0453FCF175FB05F6
:100DA60075FC07802275FB0475FC0E800675FB0436
:100DB60075FC0675FB0575FC0F800C75FB0453FC72
:100DC600F175FB05E4F5FCE9B40A004003020E6385
:100DD600900DDDF8282873020DFB020E03020E0BA0
:100DE600020E18020E20020E2D020E35020E4202CF
:100DF6000E4F020E5775FB0675FC0A805A75FB06E8
:100E060053FCF1801B75FB0675FC0C75FB0775FC26
:100E16000B2275FB0675FC04803D75FB0675FC060A
:100E260075FB0775FC062275FB0675FC06800675C4
:100E3600FB0675FC0E75FB0775FC0D2275FB06534C
:100E4600FCF175FB0775FC072275FB0675FC0E8029
:0D0E56000675FB0675FC0675FB0775FC0FA5
:010E6300226C
:072AD40075FB0653FCFE2216
:072ADB0075FB0643FC01221C
:102946006D6574657220636F756E742025640D0A5B
:012956000080
:02232C00C112DC
:0D29950053DCEF43DD101222AF439B022202
:0C29D200E49000A5F0A3F0A3F0A3F02215
:1022AF00C2DC43E90453E9FD43E90153EDFE43ED7D
:1022BF000243ED0443ED0853EDEF53EDDF53EDBF54
:1022CF0053ED7F53EAFE43EA0243EA0443EA08531D
:1022DF00EAEF53EADF53EABF53EA7FE4F5EB53EB40
:0822EF00FD53EBFB53EBF7225A
:1028C000D2DC53EDFD53EDFB53EDF753EAFD53EA34
:0528D000FB53EAF722B2
:062B00001229950229D202
:102891007BFF7A2979469000A5E0FFA3E090004DE7
:0828A100CFF0A3EFF00208489C
:0516AF00900047EFF080
:1016B400E49000A4F0122B22900047E0FF1460286D
:1016C40014604D240270739000A8E0FE700A90002C
:1016D400A7E06060E4F08062EEB401028022900032
:1016E400A8E06402705480219000A8E0FEB4010CCC
:1016F4009000A7E06004E4F080408038EEB4020378
:10170400E480249000A8E070319000A704F0802ABF
:101714009000A8E0FEB4020C9000A7E06004E4F09E
:1017240080188010EE70069000A7F0800D9000A83D
:10173400E0B401069000A77401F09000A8EFF090C7
:1017440000A7E060109000A6E004F070169000A5D9
:10175400E004F0800E9000A6E024FFF09000A5E0E5
:1017640034FFF0301214C39000A6E094059000A555
:10177400E0648094805019C21222D39000A6E094B1
:101784000C9000A5E0648094804005D2121226AC2F
:011794002232
:052B0600E4FF0216AF20
:052B0B007F010216AF7E
:052B10007F020216AF78
:1029570053DC7F43DD807F807E257D007C00022065
:0129670091DE
:10290F0030F80BE59A120480C2F8D2138002C2137A
:02291F00A21301
:012921002293
:08232E0041009D0041009E00EA
:102717001227DA5389F75389FB5389FD43890190BF
:10272700009D74FCF0A37466F0758CFCF58AD2A941
:03273700D28C221F
:1027DA00E4900096F0900098F090009AF0A3F090A0
:0C27EA000097F0900099F090009CF02205
:03000B00021DDEF5
:101DDE00C0E0C0F0C083C082C0D075D000C000C0CB
:101DEE000690009DE0F58CA3E0F58A900096E00445
:101DFE00F0C3940A4005E4F0A304F0900098E004C8
:101E0E00F0C394644005E4F0A304F090009AE475E6
:101E1E00F001120509FEC3E5F094E8EE9403400AC2
:101E2E0090009AE4F0A3F0A304F0D006D000D0D036
:091E3E00D082D083D0F0D0E03254
:1029220053897F5389BF4389205389EF758DCE75B3
:032932008BCE2227
:03001B00022B268F
:012B2600327C
:1025320053B1FD43B202D28143E10175E80243B1D6
:102542000453B2FB43F60453E1BF43E12053E1EFEE
:0E25520043E22043E240E4F5E4F5E3D2AE229A
:10136F00EF14604414606F14700302140E147003B2
:10137F0002144A240460030214AEA2AF9210C2AF4B
:10138F0075C7AA75C755439780A21092AFA2AF92A7
:10139F0010C2AF75C7AA75C7555397BFA21092AFAA
:1013AF00E59630E7FB021475A2AF9210C2AF75C776
:1013BF00AA75C75553977FA21092AFA2AF9210C2D2
:1013CF00AF75C7AA75C755439740A21092AFE59660
:1013DF0030E6FB021475A2AF9210C2AF75C7AA75A3
:1013EF00C755439720A21092AFE59630E5FBA2AF09
:1013FF009210C2AF75C7AA75C7555396FB8027A227
:10140F00AF9210C2AF75C7AA75C755439710A210F8
:10141F0092AFE59630E4FBA2AF9210C2AF75C7AAA8
:10142F0075C755439604A21092AFA2AF9210C2AFE8
:10143F0075C7AA75C7555396FD804DA2AF9210C2BE
:10144F00AF75C7AA75C75553977FA21092AFA2AFBA
:10145F009210C2AF75C7AA75C7555397BFA2109206
:10146F00AFE59630E3FBA2AF9210C2AF75C7AA7576
:10147F00C7555396FBA21092AFA2AF9210C2AF7591
:10148F00C7AA75C755439602A21092AFA2AF92108A
:10149F00C2AF75C7AA75C7555396FEA21092AFE596
:0514AF009720E0FB2284
:10260B0075985243892053877F538EEF53C4DFABAA
:10261B0007AA06A905A804E47F807E70FDFC1206BC
:09262B000DEFF404F58DD28E22AE
:10268400759852438920438780538EEF53C4DFAB40
:1026940007AA06A905A804E4FF7EE1FDFC12060DC5
:0826A400EFF404F58DD28E2243
:1025B70075985243892053877F438E1053C4DFABEE
:1025C70007AA06A905A8047F007E467D057C0012A0
:0A25D700060DEFF404F58DD28E22FC
:1025E100759852438920438780438E1053C4DFABD3
:1025F10007AA06A905A8047F007E8C7D0A7C00122B
:0A260100060DEFF404F58DD28E22D1
:101E47009000A91206C375985253877F53C4F8436D
:101E5700C4209000A9E0F8A3E0F9A3E0FAA3E0FB0F
:101E67007F007E467D057C0012060DC3E49FFFE4DC
:101E77009EFE74019DFDE49CFC78081206B08FC697
:101E87009000A9E0F8A3E0F9A3E0FAA3E0FB7F0044
:101E97007E467D057C0012060DC3E49FFF8FC54378
:031EA700C408224A
:101EAA009000AD1206C375985243878053C4F84315
:101EBA00C4209000ADE0F8A3E0F9A3E0FAA3E0FBA8
:101ECA007F007E8C7D0A7C0012060DC3E49FFFE42E
:101EDA009EFE74019DFDE49CFC78081206B08FC634
:101EEA009000ADE0F8A3E0F9A3E0FAA3E0FB7F00DD
:101EFA007E8C7D0A7C0012060DC3E49FFF8FC543CA
:031F0A00C40822E6
:102091009000491206C375F85253C4F8900049E004
:1020A100F8A3E0F9A3E0FAA3E0FB7F007E8C7D0AB0
:1020B1007C0012060DC3E49FFFE49EFE74019DFDAA
:1020C100E49CFC78081206B08FC6900049E0F8A3A2
:1020D100E0F9A3E0FAA3E0FB7F007E8C7D0A7C009F
:0D20E10012060DC3E49FFF8FC543C4082203
:070003003098FDAF99C2988F
:01000A0022D3
:082A2900C2998F993099FD223A
:072A310030F8FDAF9AC2F876
:012A3800227B
:082A3900C2F98F9A30F9FD2269
:10282C00E4F5B1F5B2F5B3F5B4F5B5F5B6F5ACF52F
:0A283C00ADF5DAF5DBF5DCF5DD2281
:10279E0075B1FFE4F5B275B3FFF5B475B5FFF5B6D7
:1027AE0075ACFFF5AD75DAFFF5DB75DCFFF5DD22F7
:1028460075C7AA75C755A2AF9210C2AF75C7AA754C
:0A285600C755439F80A21092AF22E5
:042B150043AD80222A
:1023F200EF640A701C30F811E59AB4130CC2F8307D
:10240200F8FDE59AB411F6C2F830F9FDC2F9759AF1
:102412000D30F811E59AB4130CC2F830F8FDE59AC4
:0D242200B411F6C2F830F9FDC2F98F9A220C
:061C150090FFF812072603
:101C1B00850D83850E821206CF00000000E47FFF46
:101C2B007EFFFDFC850D83850E82E0F8A3E0F9A312
:101C3B00E0FAA3E0FBC312069F504C90000412077E
:101C4B004AE0FCA3E0FDA3E0FEA3E02401FFE43E99
:101C5B00FEE43DFDE43CFC90000412074A1206C36F
:101C6B00850D83850E82E0FCA3E0FDA3E0FEA3E0DF
:101C7B002401FFE43EFEE43DFDE43CFC850D838541
:071C8B000E821206C38096D1
:061C920090000802072685
:10277D00538EF7438901D28CEF4E6012758AF7752F
:10278D008CFF308DFDC28DEF1F70ED1E80EAC28C67
:01279D002219
:1021A5009000B11206C3538EF7438901D28CE4FF28
:1021B500FEFDFC9000B1E0F8A3E0F9A3E0FAA3E08E
:1021C500FBC312069F602F758A65758CFC308DFDEB
:1021D500C28D9000B1E0FCA3E0FDA3E0FEA3E024E6
:1021E500FFFFEE34FFFEED34FFFDEC34FFFC900005
:0921F500B11206C380B8C28C22AD
:1021FE009000B51206C3538EEF438910D28EE4FFC2
:10220E00FEFDFC9000B5E0F8A3E0F9A3E0FAA3E030
:10221E00FBC312069F602F758B65758DFC308FFD8D
:10222E00C28F9000B5E0FCA3E0FDA3E0FEA3E02486
:10223E00FFFFEE34FFFEED34FFFDEC34FFFC9000AB
:09224E00B51206C380B8C28E224D
:10214A009000B91206C375C40243C408E4FFFEFD39
:10215A00FC9000B9E0F8A3E0F9A3E0FAA3E0FBC31E
:10216A0012069F603275C53375C6F5E5C430E4FBC7
:10217A0053C4EF9000B9E0FCA3E0FDA3E0FEA3E0A6
:10218A0024FFFFEE34FFFEED34FFFDEC34FFFC903C
:0B219A0000B91206C380B553C4F72241
:101FD1009000BD1206C3538FFB538FFD538FFEE458
:101FE100F586538FDF438F08E4FFFEFDFC9000BDB3
:101FF100E0F8A3E0F9A3E0FAA3E0FBC312069F60B7
:102001002CE58F30E4FB538FEF9000BDE0FCA3E0A3
:10201100FDA3E0FEA3E024FFFFEE34FFFEED34FF5D
:10202100FDEC34FFFC9000BD1206C380BB538FF75B
:01203100228C
:1014B4000A3D3D3D3D3D3D3D3D3D3D3D3D3D3D3D8B
:1014C4003D3D3D3D3D3D3D3D3D3D3D3D3D3D3D3D48
:1014D4003D3D3D3D3D3D3D3D3D3D3D3D3D3D3D3D38
:1014E4003D3D3D3D3D3D3D3D3D3D3D3D3D3D3D3D28
:1014F4003D3D3D3D3D000A2A2020436F70797269CD
:101504006768742863292032303135204E75766F30
:10151400746F6E20546563686E6F6C6F67792043D7
:101524006F72702E20416C6C20726967687473202E
:1015340072657365727665642E2020000A2A202065
:10154400436F6E7461637420452D4D61696C3A205C
:101554004D6963726F432D38626974406E75766F9E
:10156400746F6E2E636F6D20202020202020202099
:101574002020202020202020202020202020202067
:1015840020000A2A202044656D6F20566572736915
:101594006F6E20203A202532642E2532642E2532A7
:1015A40064000A2A202046696E69736865642044D1
:1015B400617465203A202532642E2532642E25324A
:0215C4006400C1
:102032007BFF7A1479B41208487BFF7A1479FA127A
:1020420008487BFF7A1579401208487BFF7A157998
:102052008690004DE4F0A304F0E4A3F0A3F0A3F013
:10206200A3F01208487BFF7A1579A690004D7407F9
:10207200F0A374DFF0A3E4F0A37405F0A3E4F0A3EB
:0F208200741FF01208487BFF7A1479B4020848E3
:03000000021A578A
:101A5700787FE4F6D8FD9000007FFF7E01E4F0A3D5
:0A1A6700DFFCDEFA758126021AACDE
:101A7100021C98E493A3F8E493A34003F68001F2D7
:101A810008DFF48029E493A3F85407240CC8C33376
:101A9100C4540F4420C8834004F456800146F6DF45
:101AA100E4800B01020408102040809022F7E47EBC
:101AB100019360BCA3FF543F30E509541FFEE4933A
:101AC100A360010ECF54C025E060A840B8E493A301
:101AD100FAE493A3F8E493A3C8C582C8CAC583CA2C
:101AE100F0A3C8C582C8CAC583CADFE9DEE780BEE4
:0123360000A6
:10042000BB010CE58229F582E5833AF583E0225091
:1004300006E92582F8E622BBFE06E92582F8E222DB
:0D044000E58229F582E5833AF583E49322F5
:10044D00BB010FF8E58229F582E5833AF583E028B3
:10045D00F0225009C58229F8E58226F622BBFE0955
:10046D00C58229F8E22582F222F8EA2583F583E98F
:03047D009328229F
:10048000BB010689828A83F0225002F722BBFE015B
:02049000F32255
:10049200F8BB010DE58229F582E5833AF583E8F0A0
:1004A200225006E92582C8F622BBFE05E92582C84C
:0204B200F22234
:1004B400BC000BBE0029EF8DF084FFADF022E4CC2C
:1004C400F875F008EF2FFFEE33FEEC33FCEE9DECF5
:1004D400984005FCEE9DFE0FD5F0E9E4CEFD22ED3B
:1004E400F8F5F0EE8420D21CFEADF075F008EF2F85
:1004F400FFED33FD4007985006D5F0F222C398FD76
:050504000FD5F0EA2212
:10050900C5F0F8A3E028F0C5F0F8E582158270027D
:060519001583E038F0221A
:10051F00BB0110E58229F582E5833AF583E0F5F01A
:10052F00A3E0225009E92582F886F008E622BBFEF7
:10053F000AE92582F8E2F5F008E222E5832AF5833D
:08054F00E993F5F0A3E9932202
:10055700BB010DC58229C582C5833AC5830205093A
:100567005011C58229F808E5F026F618F5F0E5825E
:1005770036F622BBFE11C58229F808E225F0F5F010
:10058700F218E23582F222F8E58229F582E5832A1C
:0D059700F58374019325F0F5F0E49338220C
:1005A400F8BB0111E58229F582E5833AF583E8F089
:1005B400E5F0A3F0225009E92582C8F608A6F02246
:0D05C400BBFE09E92582C8F2E5F008F2222D
:1005D10075F008758200EF2FFFEE33FECD33CDCCE1
:1005E10033CCC58233C5829BED9AEC99E582984064
:1005F1000CF582EE9BFEED9AFDEC99FC0FD5F0D641
:10060100E4CEFBE4CDFAE4CCF9A88222B800C1B96A
:100611000059BA002DEC8BF084CFCECDFCE5F0CBA8
:10062100F97818EF2FFFEE33FEED33FDEC33FCEBE1
:1006310033FB10D703994004EB99FB0FD8E5E4F99C
:10064100FA227818EF2FFFEE33FEED33FDEC33FC89
:10065100C933C910D7059BE99A4007EC9BFCE99A7D
:10066100F90FD8E0E4C9FAE4CCFB2275F010EF2FC2
:10067100FFEE33FEED33FDCC33CCC833C810D707C2
:100681009BEC9AE899400AED9BFDEC9AFCE899F8FD
:0E0691000FD5F0DAE4CDFBE4CCFAE4C8F92290
:10069F00EB9FF5F0EA9E42F0E99D42F0E89C45F0B1
:0106AF002228
:1006B000E8600FECC313FCED13FDEE13FEEF13FF28
:0306C000D8F1224C
:0C06C300ECF0A3EDF0A3EEF0A3EFF022AA
:1006CF00A8828583F0D083D0821206E61206E61246
:1006DF0006E61206E6E473E493A3C583C5F0C5836B
:1006EF00C8C582C8F0A3C583C5F0C583C8C582C875
:0106FF0022D8
:10070000BB010789828A830207795005E9F802074D
:1007100070BBFE05E9F80207A289828A830207AB53
:060720008A838982E47364
:10072600E50E2582F582E50D3583F583B50D048545
:10073600820E2210AF0685820EF50D2285820EF5F9
:040746000DD2AF22FF
:0D074A00E50E2582F582E50D3583F583224D
:1007DD00E508244DF582E43400F583E00508229008
:1007ED00004A30080390004DE475F00112078202B3
:1007FD0007572001E97F2ED2018018EF540F249066
:10080D00D43440D4FF30050BEF24BFB41A0050038D
:10081D002461FFE50960021509050CE50C70020560
:10082D000B30080E90004AE475F001120782EF02BA
:10083D0004800223F27403D2088003E4C208F50891
:10084D0090004A120799E4F509F50BF50CE50960DE
:10085D00077F2012082080F5750AFFC202C201C26F
:10086D0003C204C206C207C2091207ECFF700D30A5
:10087D0008057F00120831AF0CAE0B22B4255FC204
:10088D00D5C2051207ECFF24D0B40A00501A75F03A
:10089D000A780930D50508B6FF0106C6A426F6204C
:1008AD00D5047002D20480D924CFB41A00EF5004BD
:1008BD00C2E5D205020A32D20280C6D20180C0D270
:1008CD000380BCD2D580BAD20680B47F2012082016
:1008DD002003077401B5090040F11207DDFF12086E
:1008ED002002085AD209D20780951207DDFB1207A4
:1008FD00DDFA1207DDF94A4B700679037A0B7BFF9F
:10090D0020032EE509602A7E008E82758300120475
:10091D002060060EEE650A70F0C2D5EBC0E0EAC0AD
:10092D00E0E9C0E0EE120A79D0E0F9D0E0FAD0E0CB
:10093D00FB120757FF60AAEBC0E0EAC0E0E9C0E098
:10094D00120820D0E02401F9D0E03400FAD0E0FB09
:10095D00E50A0460DCD50AD980877BFF7A0A7975B0
:10096D00D203809C791080027908C207C2098008E1
:10097D00D2D5790A8004790AC2D5E50A047002F548
:10098D000AE4FAFDFEFF1207DDFC7B0820021312BC
:10099D0007DDFD7B1030010A1207DDFE1207DDFFBA
:1009AD007B20EC3382D592D55013C3E43001069FE2
:1009BD00FFE49EFEE42002039DFDE49CFCE4CBF8E5
:1009CD00C202EC700CCFCECDCCE824F8F870F380D9
:1009DD0017C3EF33FFEE33FEED33FDEC33FCEB339A
:1009ED00FB994002FB0FD8E9EB300205F8D0E0C4CB
:1009FD0048B202C0E00AEC4D4E4F78207B0070C229
:100A0D00EAB50A0040BCC0E0120A7BD0F0D0E0206D
:100A1D000204C4C0E0C4B202C0F0120809D0F0D57F
:100A2D00F0EB02085A1207B708F75309715808C8B6
:100A3D004C08C44209754F097D44097D4908DD43C1
:080A4D0009835509674609679A
:100A5500450967470B235008CC2D08D02E08F32BEA
:100A650008D42308F1200B0C2A088C48000008EB59
:100A75003F3F3F00790AA2D5200414300609B9107A
:100A8500020404B9080104A2D5200702500104207C
:100A950003689203B509005034C0E07F2030041983
:100AA5007F30A20372077206500F120AD2C203C228
:100AB50007C206C2097F30800F300603E9C0E01285
:100AC5000820300603D0E0F9D0E0B509CC30061790
:100AD5007F30B9100C1208207F583005077F7880C9
:100AE50003B908031208203003057F2D0208207F73
:100AF500202009F87F2B2007F322920380CF286E50
:100B0500756C6C2900D2021207DD3002F8C202783A
:100B15000930D50108F602088C2D504349581207B3
:100B2500DD2403B405004001E4900B1E9312081167
:0D0B3500743A120811D20475090402097106
:10075700BB010689828A83E0225002E722BBFE02A0
:09076700E32289828A83E49322D3
:09077000E6FB08E6FA08E6F922AE
:09077900E0FBA3E0FAA3E0F92281
:10078200F8E0FBA3A3E0F925F0F0E5821582700200
:070792001583E0FA38F022A4
:09079900EBF0A3EAF0A3E9F02261
:0907A200E2FB08E2FA08E2F92288
:0C07AB00E493FB740193FA740293F922AA
:1007B700D083D082F8E4937012740193700DA3A3D1
:1007C70093F8740193F5828883E4737402936860E5
:0607D700EFA3A3A380DFE5
:00000001FF
