:061AAF00746573740A0067
:0613330090004712023F8A
:1013390090004B12024B00000000900047E0FCA314
:10134900E0FDA3E0FEA3E0FFA3E0F8A3E0F9A3E03A
:10135900FAA3E0FBC312021B504090004FE0FCA32C
:10136900E0FDA3E0FEA3E02401FFE43EFEE43DFD31
:10137900E43CFC90004F12023F90004BE0FCA3E0DC
:10138900FDA3E0FEA3E02401FFE43EFEE43DFDE40D
:0A1399003CFC90004B12023F80A0C4
:0113A3002227
:1018BD007F0212082A121A1D1214CB7BFF7A1A7995
:1018CD00AF1203D67F507EC37D007C001213338090
:0118DD00EA20
:0C1A1D00121971121A711219D8021A3530
:1019D80053CABF43CA2043CA1075D67C75D77C4307
:0819E800CA8043CB40D2CB22A0
:10174900EF4E602A900071EEF0A3EFF0AF05A3EC25
:10175900F0A3EFF0AF03A3EAF0A3EFF0E4A3F0A343
:0F176900F0A3F0A3F0900070F090006F04F02256
:061AB500E490006FF02236
:0F1A01007B017A007D017C007F057E0002174982
:1010380090006FE070030210E4900073E0FEA3E0FC
:10104800FF4E70030210E4900070E0FD7032D3EFA1
:101058009400EE940050030210E4900077E475F0D9
:1010680001120085FED3900072E095F0900071E0C7
:101078009E5069E4900077F0A3F090007004F0228D
:10108800ED6401705790007775F001120085FED36A
:10109800900074E095F0900073E09E503F900075CA
:1010A800E0FEA3E0FF9400EE94004025900079E470
:1010B80075F001120085FCD3EF95F0EE9C5005E425
:1010C80090006FF090006FE07007900073F0A3F04D
:0D10D80022E4900077F0A3F0900070F02269
:0A1A40002083047F0180027F002252
:0A1A4A002084047F0180027F002247
:0A1A54002085047F0180027F00223C
:0A1A5E002086047F0180027F002231
:0C1A29002083062085037F01227F00221D
:061ABB001210E50219BF44
:10191F00900045E0243AF582E43400F583EFF0902F
:0D192F000045E004F0C3940A4002E4F022F9
:10177800900045E0FF900044E0FEB507037F00229B
:10178800743A2EF582E43400F583E0FF900044E0DB
:0917980004F0C3940A4002E4F0DD
:0117A1002225
:10184800900045E0FFA3E0FEB507037F0022743A4D
:101858002EF582E43400F583E0FF900046E004F0C2
:07186800C3940A4002E4F002
:01186F002256
:1019F000EF75F00BA4240BF582E43400F583E0FFCF
:011A000022C3
:10171500EF75F00BA42409F582E43400F583ECF0B1
:10172500A3EDF0EF75F00BA4240CF582E43400F57D
:1017350083EBF0EF75F00BA4240DF582E43400F58E
:0417450083E4F02227
:091A6800900045E0900044F022DA
:1019BF0043B10853B2F743B11053B2EF43B12053C1
:0919CF00B2DF43B14053B2BF2264
:1010E500E4900044F0A3F0A3F0FFEF75F00BA42407
:1010F50009F582E43400F583E4F0A37464F0EF7538
:10110500F00BA42406F582E43400F5837402F0EFB5
:1011150075F00BA4240BF582E43400F583E4F0EFBD
:1011250075F00BA4240CF582E43400F583E4F0EFAC
:1011350075F00BA4240DF582E43400F583E4F00F7B
:10114500EFB405A690000374FFF0A3741AF0A3741E
:1011550040F090000E74FFF0A3741AF0A3744AF0E7
:1011650090001974FFF0A3741AF0A37454F0900062
:101175002474FFF0A3741AF0A3745EF090002F742A
:0A118500FFF0A3741AF0A37429F020
:01118F00223D
:1006D000900094EFF0E075F00BA42403F97400355A
:1006E000F0FA7B01900000EBF0A3EAF0A3E9F0122E
:1006F000027C12029CEF70030207C2900000E0FB34
:10070000A3E0FAA3E0F9900003120003FFC39405ED
:1007100050089000037405020826EFC3940A50089D
:10072000900003740102003090000812000370145E
:1007300090000804120063900094E075F003A40494
:10074000FF12191F900000E0FBA3E0FAA3E0F9906C
:10075000000612009BFFAEF0D39400EE940050030D
:1007600002082990000412009BC39FE5F09E5023CD
:10077000900004E475F0011200D3FCE5F06F700204
:10078000EC6E6003020829900094E075F003A42445
:1007900003802B900009120003FFD3940050030242
:1007A000082990000A7401120030C39F407B90001A
:1007B0000AE4120063900094E075F003A404FF02C1
:1007C000191F900000E0FBA3E0FAA3E0F9900003FA
:1007D000120003FFD39405400A9000037405120031
:1007E00063802BEF600A90000374FF120030801EBC
:1007F000900008120003B40115900008E412006391
:10080000900094E075F003A42402FF12191F9000D9
:1008100000E0FBA3E0FAA3E0F9900004E4F5F01295
:0A082000012090000AE41200632298
:10193C00E4900095F0900095E0FFC39405500B12D5
:0A194C0006D0900095E004F080EB57
:01195600226E
:091A710053ACFD43AD02D2B122D9
:0B1A35007F807E257D007C0002152ACA
:10195700758922758CCE758ACE758D06758B06D2E4
:0A196700A9D2ABD2AFD28CD28E22EF
:011AC50022FE
:10082A00EF14604414606F1470030208C914700353
:10083A0002090524046003020969A2AF9209C2AF42
:10084A0075C7AA75C755439780A20992AFA2AF92FE
:10085A0009C2AF75C7AA75C7555397BFA20992AF08
:10086A00E59630E7FB020930A2AF9209C2AF75C71D
:10087A00AA75C75553977FA20992AFA2AF9209C230
:10088A00AF75C7AA75C755439740A20992AFE596B7
:10089A0030E6FB020930A2AF9209C2AF75C7AA754A
:1008AA00C755439720A20992AFE59630E5FBA2AF60
:1008BA009209C2AF75C7AA75C7555396FB8027A27E
:1008CA00AF9209C2AF75C7AA75C755439710A20957
:1008DA0092AFE59630E4FBA2AF9209C2AF75C7AA00
:1008EA0075C755439604A20992AFA2AF9209C2AF47
:1008FA0075C7AA75C7555396FD804DA2AF9209C216
:10090A00AF75C7AA75C75553977FA20992AFA2AF11
:10091A009209C2AF75C7AA75C7555397BFA2099264
:10092A00AFE59630E3FBA2AF9209C2AF75C7AA75CD
:10093A00C7555396FBA20992AFA2AF9209C2AF75EF
:10094A00C7AA75C755439602A20992AFA2AF9209E8
:10095A00C2AF75C7AA75C7555396FEA20992AFE5ED
:05096A009720E0FB22D4
:1017F60075985243892053877F538EEF53C4DFABCE
:1018060007AA06A905A804E47F807E70FDFC1201E4
:0918160089EFF404F58DD28E2255
:10187000759852438920438780538EEF53C4DFAB62
:1018800007AA06A905A804E4FF7EE1FDFC12018970
:08189000EFF404F58DD28E2265
:1017A20075985243892053877F438E1053C4DFAB11
:1017B20007AA06A905A8047F007E467D057C0012C3
:0A17C2000189EFF404F58DD28E22A8
:1017CC00759852438920438780438E1053C4DFABF6
:1017DC0007AA06A905A8047F007E8C7D0A7C00124E
:0A17EC000189EFF404F58DD28E227E
:1013A40090007B12023F75985253877F53C4F843D1
:1013B400C42090007BE0F8A3E0F9A3E0FAA3E0FBEB
:1013C4007F007E467D057C00120189C3E49FFFE413
:1013D4009EFE74019DFDE49CFC780812022C8FC6CD
:1013E40090007BE0F8A3E0F9A3E0FAA3E0FB7F0020
:1013F4007E467D057C00120189C3E49FFF8FC543AF
:03140400C40822F7
:1014070090007F12023F75985243878053C4F84378
:10141700C42090007FE0F8A3E0F9A3E0FAA3E0FB83
:101427007F007E8C7D0A7C00120189C3E49FFFE464
:101437009EFE74019DFDE49CFC780812022C8FC669
:1014470090007FE0F8A3E0F9A3E0FAA3E0FB7F00B8
:101457007E8C7D0A7C00120189C3E49FFF8FC54300
:03146700C4082294
:10152A0090004712023F75F85253C4F8900047E002
:10153A00F8A3E0F9A3E0FAA3E0FB7F007E8C7D0A22
:10154A007C00120189C3E49FFFE49EFE74019DFDA5
:10155A00E49CFC780812022C8FC6900047E0F8A39E
:10156A00E0F9A3E0FAA3E0FB7F007E8C7D0A7C0011
:0D157A00120189C3E49FFF8FC543C40822FE
:071A7A003098FDAF99C298FE
:011A81002242
:081A8200C2998F993099FD22F1
:071A8A0030F8FDAF9AC2F82D
:011A91002232
:081A9200C2F98F9A30F9FD2220
:10197100E4F5B1F5B2F5B3F5B4F5B5F5B6F5ACF5F9
:0A198100ADF5DAF5DBF5DCF5DD224B
:1018FF0075B1FFE4F5B275B3FFF5B475B5FFF5B685
:10190F0075ACFFF5AD75DAFFF5DB75DCFFF5DD22A4
:10198B0075C7AA75C755A2AF9209C2AF75C7AA751D
:0A199B00C755439F80A20992AF22B6
:041AC10043AD80228F
:1016D800EF640A701C30F811E59AB4130CC2F830A4
:1016E800F8FDE59AB411F6C2F830F9FDC2F9759A19
:1016F8000D30F811E59AB4130CC2F830F8FDE59AEC
:0D170800B411F6C2F830F9FDC2F98F9A2233
:0612B00090FFF81202A2FB
:1012B600850D83850E8212024B00000000E47FFF3D
:1012C6007EFFFDFC850D83850E82E0F8A3E0F9A381
:1012D600E0FAA3E0FBC312021B504C90000412027A
:1012E600C6E0FCA3E0FDA3E0FEA3E02401FFE43E8C
:1012F600FEE43DFDE43CFC9000041202C612023FEF
:10130600850D83850E82E0FCA3E0FDA3E0FEA3E04D
:101316002401FFE43EFEE43DFDE43CFC850D8385AF
:071326000E8212023F8096C7
:06132D009000080202A27C
:1018DE00538EF7438901D28CEF4E6012758AF775DD
:1018EE008CFF308DFDC28DEF1F70ED1E80EAC28C15
:0118FE0022C7
:1015E20090008312023F538EF7438901D28CE4FFAD
:1015F200FEFDFC900083E0F8A3E0F9A3E0FAA3E08B
:10160200FBC312021B602F758A65758CFC308DFD41
:10161200C28D900083E0FCA3E0FDA3E0FEA3E024E2
:10162200FFFFEE34FFFEED34FFFDEC34FFFC9000D3
:091632008312023F80B8C28C2231
:10163B0090008712023F538EEF438910D28EE4FF46
:10164B00FEFDFC900087E0F8A3E0F9A3E0FAA3E02D
:10165B00FBC312021B602F758B65758DFC308FFDE4
:10166B00C28F900087E0FCA3E0FDA3E0FEA3E02483
:10167B00FFFFEE34FFFEED34FFFDEC34FFFC90007A
:09168B008712023F80B8C28E22D2
:1015870090008B12023F75C40243C408E4FFFEFDBE
:10159700FC90008BE0F8A3E0F9A3E0FAA3E0FBC31B
:1015A70012021B603275C53375C6F5E5C430E4FB1E
:1015B70053C4EF90008BE0FCA3E0FDA3E0FEA3E0A3
:1015C70024FFFFEE34FFFEED34FFFDEC34FFFC900B
:0B15D700008B12023F80B553C4F722C6
:10146A0090008F12023F538FFB538FFD538FFEE480
:10147A00F586538FDF438F08E4FFFEFDFC90008F53
:10148A00E0F8A3E0F9A3E0FAA3E0FBC312021B60B1
:10149A002CE58F30E4FB538FEF90008FE0FCA3E044
:1014AA00FDA3E0FEA3E024FFFFEE34FFFEED34FFD0
:1014BA00FDEC34FFFC90008F12023F80BB538FF784
:0114CA0022FF
:10169400A2AF9209C2AF75C7AA75C75553977FA267
:1016A4000992AFA2AF9209C2AF75C7AA75C75543D5
:1016B4009740A20992AFE59630E6FB75FA1312182B
:1016C400FF75F94075E5FF75E6FF75E7FF75EE9F59
:0416D40043F9802234
:0C1A1000E4FF8FFBE4F5FC0FEFB420F6C0
:011A1C0022A7
:10122100E4900096F0900096E0FFC39420500A8F5E
:10123100FB75FCFFE004F080EC7FE87E037D007C21
:10124100001215E212181F12181FE4900096F012F6
:101251001A10900096E0FF120B6C900096E0FF12BE
:101261000A81900096E0FF120C54900096E0FF1264
:101271000D23900096E0FF120F7B900096E0FF1285
:101281000DEB900096E0FF120EB37F2C7E017D00E6
:101291007C001215E2900096E004F0E0C3940A404D
:0F12A100AE12181F7FF47E017D007C000215E263
:10181F00E4F5E5F5E6F5E7F5EE7FF47E01FDFC1264
:10182F0015E275E5FF75E6FF75E7FF75EE9F7FF42F
:09183F007E017D007C000215E22F
:100B6C00EFB40A004003020C53900B7CF828287356
:100B7C00020B9A020BA5020BAA020BC2020BD302A8
:100B8C000BEC020C00020C17020C24020C3BE4F5DB
:100B9C00FB75FC0F75FB1C8043E4F5FB803EE4F514
:100BAC00FB75FC0D75FB1F75FC0475FB0175FC02D8
:100BBC0075FB1C020C50E4F5FB75FC0F75FB1F75E7
:100BCC00FC0475FB01807D75FB1C75FC0475FB1F1B
:100BDC0075FC0475FB0175FC02E4F5FB75FC062243
:100BEC00E4F5FB75FC0B75FB1F75FC0475FB0175BF
:100BFC00FC02801DE4F5FB75FC0B75FB1C75FC06FB
:100C0C0075FB1F75FC0475FB018039E4F5FB75FC65
:100C1C000E75FB1C75FC0422E4F5FB75FC0F75FBD3
:100C2C001C75FC0675FB1F75FC0475FB018015E437
:100C3C00F5FB75FC0F75FB1C75FC0475FB1F75FC37
:080C4C000475FB0175FC022296
:100A8100EFB40A004003020B6B900A91F828287317
:100A9100020AAF020ABA020ABF020AD7020AE80230
:100AA1000B01020B18020B2F020B3C020B5375FBBF
:100AB1000475FC0F75FB02804375FB04803E75FBDA
:100AC1000475FC0D75FB0575FC0275FB0375FC04D3
:100AD10075FB02020B6875FB0475FC0F75FB057550
:100AE100FC0275FB03805075FB0275FC0475FB036A
:100AF10075FC0475FB0575FC0275FB0475FC06228B
:100B010075FB0475FC0B75FB0275FC0475FB037525
:100B1100FC0475FB05805075FB0475FC0B75FB022D
:100B210075FC0675FB0375FC0475FB05803975FBC7
:100B31000475FC0E75FB0275FC042275FB0475FC43
:100B41000F75FB0275FC0675FB0375FC0475FB054F
:100B5100801575FB0475FC0F75FB0275FC0475FBB4
:0B0B61000375FC0475FB0575FC022207
:100C5400EFB40A004003020D22900C64F8282873B4
:100C6400020C82020C8D020C92020CAB020CB30239
:100C74000CCC020CDA020CE8020CF3020D0A75FB30
:100C84000875FC0F75FB06803B75FB08803675FB09
:100C94000875FC0D75FB0975FC0275FB0775FC04F2
:100CA40075FB0675FC022275FB0875FC0F804C75FC
:100CB400FB0675FC0475FB0975FC0275FB0775FCE6
:100CC4000475FB0875FC062275FB0875FC0B75FBA7
:100CD4000675FC04802575FB0875FC0B75FB067511
:100CE400FC06801775FB0875FC0E75FB06802C75D9
:100CF400FB0875FC0F75FB0675FC0675FB0975FC96
:100D04000275FB07801575FB0875FC0F75FB0675EE
:0F0D1400FC0475FB0975FC0275FB0775FC0422D6
:100D2300EFB40A004003020DEA900D33F82828734C
:100D3300020D51020D5C020D61020D7A020D820259
:100D43000D9B020DA9020DB7020DC4020DD275FB56
:100D53000C75FC0F75FB0A803B75FB0C803675FB2D
:100D63000C75FC0D75FB0D75FC0275FB0B75FC0416
:100D730075FB0A75FC022275FB0C75FC0F805C7514
:100D8300FB0A75FC0475FB0D75FC0275FB0B75FC0A
:100D93000475FB0C75FC062275FB0C75FC0B75FBCF
:100DA3000A75FC04803575FB0C75FC0B75FB0A7525
:100DB300FC06802775FB0A75FC0475FB0C75FC0E9D
:100DC3002275FB0C75FC0F75FB0A75FC06800C7510
:100DD300FB0C75FC0F75FB0A75FC0475FB0D75FCAC
:080DE3000275FB0B75FC0422F4
:100F7B00EFB40A004003021037900F8BF828287348
:100F8B00020FA9020FB4020FB9020FC7020FCF0253
:100F9B000FE8020FF602100402101102101F75FB6E
:100FAB001075FC0F75FB0E803075FB10802B75FBDD
:100FBB001075FC0D75FB0E75FC02806475FB1075CE
:100FCB00FC0F805C75FB0E75FC0475FB1175FC0248
:100FDB0075FB0F75FC0475FB1075FC062275FB1079
:100FEB0075FC0B75FB0E75FC04803575FB1075FCE1
:100FFB000B75FB0E75FC06802775FB0E75FC0475D7
:10100B00FB1075FC0E2275FB1075FC0F75FB0E7536
:10101B00FC06800C75FB1075FC0F75FB0E75FC0444
:0D102B0075FB1175FC0275FB0F75FC0422AE
:100DEB00EFB40A004003020EB2900DFBF8282873F3
:100DFB00020E19020E24020E29020E42020E4A02A4
:100E0B000E63020E71020E7F020E8C020E9A75FBA0
:100E1B001475FC0F75FB12803B75FB14803675FB4C
:100E2B001475FC0D75FB1575FC0275FB1375FC0435
:100E3B0075FB1275FC022275FB1475FC0F805C753B
:100E4B00FB1275FC0475FB1575FC0275FB1375FC29
:100E5B000475FB1475FC062275FB1475FC0B75FBF6
:100E6B001275FC04803575FB1475FC0B75FB127544
:100E7B00FC06802775FB1275FC0475FB1475FC0EC4
:100E8B002275FB1475FC0F75FB1275FC06800C7537
:100E9B00FB1475FC0F75FB1275FC0475FB1575FCCB
:080EAB000275FB1375FC042223
:100EB300EFB40A004003020F7A900EC3F828287398
:100EC300020EE1020EEC020EF1020F0A020F1202F1
:100ED3000F2B020F39020F47020F54020F6275FBEB
:100EE3001875FC0F75FB16803B75FB18803675FB78
:100EF3001875FC0D75FB1975FC0275FB1775FC0461
:100F030075FB1675FC022275FB1875FC0F805C756A
:100F1300FB1675FC0475FB1975FC0275FB1775FC54
:100F23000475FB1875FC062275FB1875FC0B75FB25
:100F33001675FC04803575FB1875FC0B75FB16756F
:100F4300FC06802775FB1675FC0475FB1875FC0EF3
:100F53002275FB1875FC0F75FB1675FC06800C7566
:100F6300FB1875FC0F75FB1675FC0475FB1975FCF6
:080F73000275FB1775FC042256
:071A9A0075FB0A43FC012269
:1018980075FB1475FC0C75FB1575FC0275FB13754F
:1018A800FC0475FB1275FC0475FB1875FC0975FBC7
:0518B8001675FC06227C
:071AA10075FB1B43FC012251
:071AA80075FB1643FC082248
:1011900075FB1B75FC01E4F5FB75FC0675FB017521
:1011A000FC0175FB1C75FC0675FB1F75FC0875FBC7
:1011B0000475FC0E75FB0275FC0475FB0675FC06D8
:1011C00075FB0775FC0475FB0875FC0B75FB097551
:1011D000FC0275FB0A75FC0675FB0B75FC0475FBC0
:1011E0000C75FC0975FB0D75FC0275FB0E75FC0694
:1011F00075FB0F75FC0475FB1075FC0B75FB117509
:10120000FC0275FB1475FC0675FB1675FC0675FB78
:101210001775FC0475FB1875FC0B75FB1975FC0242
:0112200022AB
:10096F000A3D3D3D3D3D3D3D3D3D3D3D3D3D3D3DDB
:10097F003D3D3D3D3D3D3D3D3D3D3D3D3D3D3D3D98
:10098F003D3D3D3D3D3D3D3D3D3D3D3D3D3D3D3D88
:10099F003D3D3D3D3D3D3D3D3D3D3D3D3D3D3D3D78
:1009AF003D3D3D3D3D000A2A2020436F707972691D
:1009BF006768742863292032303135204E75766F81
:1009CF00746F6E20546563686E6F6C6F6779204328
:1009DF006F72702E20416C6C20726967687473207F
:1009EF0072657365727665642E2020000A2A2020B6
:1009FF00436F6E7461637420452D4D61696C3A20AD
:100A0F004D6963726F432D38626974406E75766FEE
:100A1F00746F6E2E636F6D202020202020202020E9
:100A2F0020202020202020202020202020202020B7
:100A3F0020000A2A202044656D6F20566572736965
:100A4F006F6E20203A202532642E2532642E2532F7
:100A5F0064000A2A202046696E6973686564204421
:100A6F00617465203A202532642E2532642E25329A
:020A7F00640011
:1014CB007BFF7A09796F1203D67BFF7A0979B51204
:1014DB0003D67BFF7A0979FB1203D67BFF7A0A7955
:1014EB004190004AE4F0A304F0E4A3F0A3F0A3F0CE
:1014FB00A3F01203D67BFF7A0A796190004A740736
:10150B00F0A374DFF0A3E4F0A37405F0A3E4F0A35D
:0F151B00741FF01203D67BFF7A09796F0203D693
:030000000219A53D
:1019A500787FE4F6D8FD9000007FFF7E01E4F0A388
:0A19B500DFFCDEFA7581210218BD87
:10000300BB010CE58229F582E5833AF583E02250B2
:1000130006E92582F8E622BBFE06E92582F8E222FC
:0D002300E58229F582E5833AF583E4932216
:10003000BB010FF8E58229F582E5833AF583E028D4
:10004000F0225009C58229F8E58226F622BBFE0976
:10005000C58229F8E22582F222F8EA2583F583E9B0
:03006000932822C0
:10006300F8BB010DE58229F582E5833AF583E8F0D3
:10007300225006E92582C8F622BBFE05E92582C87F
:02008300F22267
:10008500C5F0F8A3E028F0C5F0F8E5821582700206
:060095001583E038F022A3
:10009B00BB0110E58229F582E5833AF583E0F5F0A3
:1000AB00A3E0225009E92582F886F008E622BBFE80
:1000BB000AE92582F8E2F5F008E222E5832AF583C6
:0800CB00E993F5F0A3E993228B
:1000D300BB010DC58229C582C5833AC5830200854C
:1000E3005011C58229F808E5F026F618F5F0E582E7
:1000F30036F622BBFE11C58229F808E225F0F5F099
:10010300F218E23582F222F8E58229F582E5832AA4
:0D011300F58374019325F0F5F0E493382294
:10012000F8BB0111E58229F582E5833AF583E8F011
:10013000E5F0A3F0225009E92582C8F608A6F022CE
:0D014000BBFE09E92582C8F2E5F008F222B5
:10014D0075F008758200EF2FFFEE33FECD33CDCC69
:10015D0033CCC58233C5829BED9AEC99E5829840EC
:10016D000CF582EE9BFEED9AFDEC99FC0FD5F0D6C9
:10017D00E4CEFBE4CDFAE4CCF9A88222B800C1B9F3
:10018D000059BA002DEC8BF084CFCECDFCE5F0CB31
:10019D00F97818EF2FFFEE33FEED33FDEC33FCEB6A
:1001AD0033FB10D703994004EB99FB0FD8E5E4F925
:1001BD00FA227818EF2FFFEE33FEED33FDEC33FC12
:1001CD00C933C910D7059BE99A4007EC9BFCE99A06
:1001DD00F90FD8E0E4C9FAE4CCFB2275F010EF2F4B
:1001ED00FFEE33FEED33FDCC33CCC833C810D7074B
:1001FD009BEC9AE899400AED9BFDEC9AFCE899F886
:0E020D000FD5F0DAE4CDFBE4CCFAE4C8F92218
:10021B00EB9FF5F0EA9E42F0E99D42F0E89C45F039
:01022B0022B0
:10022C00E8600FECC313FCED13FDEE13FEEF13FFB0
:03023C00D8F122D4
:0C023F00ECF0A3EDF0A3EEF0A3EFF02232
:10024B00A8828583F0D083D08212026212026212DE
:10025B000262120262E473E493A3C583C5F0C58303
:10026B00C8C582C8F0A3C583C5F0C583C8C582C8FD
:01027B002260
:10027C00BB010789828A830203075005E9F8020251
:10028C00FEBBFE05E9F802033089828A830203393A
:06029C008A838982E473ED
:1002A200E50E2582F582E50D3583F583B50D0485CE
:1002B200820E2210AF0685820EF50D2285820EF582
:0402C2000DD2AF2288
:0D02C600E50E2582F582E50D3583F58322D6
:10036B00E508244AF582E43400F583E00508229081
:10037B00004730070390004AE475F00112031002A6
:10038B0002D32000E97F2ED2008018EF540F249067
:10039B00D43440D4FF30040BEF24BFB41A00500305
:1003AB002461FFE50960021509050CE50C700205D7
:1003BB000B30070E900047E475F001120310EF02AB
:1003CB0002EC0216D87403D2078003E4C207F508C7
:1003DB00900047120327E4F509F50BF50CE50960CE
:1003EB00077F201203AE80F5750AFFC201C200C25F
:1003FB0002C203C205C206C20812037AFF700D3097
:10040B0007057F001203BFAF0CAE0B22B4255FC2F2
:10041B00D5C20412037AFF24D0B40A00501A75F027
:10042B000A780930D50508B6FF0106C6A426F620C2
:10043B00D5047002D20380D924CFB41A00EF500434
:10044B00C2E5D2040205C0D20180C6D20080C0D260
:10045B000280BCD2D580BAD20580B47F201203AE05
:10046B002002077401B5090040F112036BFF120360
:10047B00AE0203E8D208D206809512036BFB12037F
:10048B006BFA12036BF94A4B700679917A067BFF74
:10049B0020022EE509602A7E008E827583001200F1
:1004AB000360060EEE650A70F0C2D5EBC0E0EAC041
:1004BB00E0E9C0E0EE120607D0E0F9D0E0FAD0E0B8
:1004CB00FB1202D3FF60AAEBC0E0EAC0E0E9C0E098
:1004DB001203AED0E02401F9D0E03400FAD0E0FBF7
:1004EB00E50A0460DCD50AD980877BFF7A0679039D
:1004FB00D202809C791080027908C206C20880085B
:10050B00D2D5790A8004790AC2D5E50A047002F5BE
:10051B000AE4FAFDFEFF12036BFC7B0820011312A9
:10052B00036BFD7B1030000A12036BFE12036BFF93
:10053B007B20EC3382D592D55013C3E43000069F59
:10054B00FFE49EFEE42001039DFDE49CFCE4CBF85C
:10055B00C201EC700CCFCECDCCE824F8F870F38050
:10056B0017C3EF33FFEE33FEED33FDEC33FCEB3310
:10057B00FB994002FB0FD8E9EB300105F8D0E0C442
:10058B0048B201C0E00AEC4D4E4F78207B0070C2A0
:10059B00EAB50A0040BCC0E0120609D0F0D0E0205A
:1005AB000104C4C0E0C4B201C0F0120397D0F0D56F
:1005BB00F0EB0203E812034504855304FF5804567D
:1005CB004C04524205034F050B44050B49046B4386
:0805DB0005115504F54604F575
:1005E3004504F54706B150045A2D045E2E04812BB1
:1005F300046223047F20069A2A041A48000004791F
:100603003F3F3F00790AA2D5200314300509B910F2
:10061300020404B9080104A2D520060250010420F3
:1006230002689202B509005034C0E07F20300319FC
:100633007F30A20272067205500F120660C202C218
:1006430006C205C2087F30800F300503E9C0E012FF
:1006530003AE300503D0E0F9D0E0B509CC3005177F
:100663007F30B9100C1203AE7F583004077F7880B7
:1006730003B908031203AE3002057F2D0203AE7FD8
:10068300202008F87F2B2006F322920280CF286EC9
:10069300756C6C2900D20112036B3001F8C201782A
:1006A3000930D50108F602041A2D504349581203A4
:1006B3006B2403B405004001E49006AC9312039F3E
:0D06C300743A12039FD2037509040204FF6C
:1002D300BB010689828A83E0225002E722BBFE0229
:0902E300E32289828A83E493225C
:1002EC00BB010689828A83F0225002F722BBFE01F1
:0202FC00F322EB
:0902FE00E6FB08E6FA08E6F92225
:09030700E0FBA3E0FAA3E0F922F7
:10031000F8E0FBA3A3E0F925F0F0E5821582700276
:070320001583E0FA38F0221A
:09032700EBF0A3EAF0A3E9F022D7
:09033000E2FB08E2FA08E2F922FE
:0C033900E493FB740193FA740293F92220
:10034500D083D082F8E4937012740193700DA3A347
:1003550093F8740193F5828883E47374029368605B
:06036500EFA3A3A380DF5B
:00000001FF
