:082246004100C8004100C9007D
:03005B0002230776
:10230700C0E0C0F0C083C082C0D075D000C000C09C
:1023170001C002C003C004C005C006C007C2EF1257
:102327002381D007D006D005D004D003D002D00136
:0D233700D000D0D0D082D083D0F0D0E032E2
:03003B00021E9F03
:101E9F00C0E0C0F0C083C082C0D075D000C000C009
:101EAF0001C002C003C004C005C006C007E5EC3086
:101EBF00E60A9000A8E0B402037403F0E5EC30E109
:101ECF0003122A53E5EC30E203122A4EE5EC30E31D
:101EDF0003122A5875EC00D007D006D005D004D0D5
:101EEF0003D002D001D000D0D0D082D083D0F0D098
:021EFF00E032CF
:101C2A007F0212136F12245312003E1227A21229A6
:101C3A001C12202390009FE06008E4F012176E1235
:101C4A0027539000A1E0600EE4F01225861228ECDA
:0C1C5A00121FC41216AF9000A4E060231B
:101C6600E4F01223EF12000E1222891227D49000FC
:101C7600C9E004F0E0D394034009740AF09000C868
:031C8600E004F087
:101C89001224DF900050EFF060ABE0FF121A0B80D6
:011C9900A4A6
:102804006F6666206272696768740A00706F776524
:0728140072206F66660A00E6
:10224E004100A9004100AA004100AB00C10F4100AE
:02225E00A700D7
:1027A200E49000AAF01228579000AC7401F0900057
:0927B20083F09000A8F00218CB9E
:1028440053E9FB53E9FD53E9FE43ED4043EA4053AA
:03285400EBBF22B5
:1028570053E9FB53E9FD53E9FE53EDBF53EABF5379
:03286700EBBF22A2
:1018CB009000ACE024FE60281460592402600302EF
:1018DB001970E4FFFE120E64E4FFFE120B42122994
:1018EB00B31229C81229D6122A231229E40229F28B
:1018FB001229CF1229B37F411226B37F421226B38E
:10190B007F431226B37F441226B3122A231229F2E5
:10191B001228307BFF7A2979EB1228F87BFF7A2982
:10192B0079E480321229CF1229B37F411226B37F7B
:10193B00421226B37F431226B37F441226B3122AD8
:10194B00231229E41228307BFF7A2979F91228F81F
:10195B007BFF7A2979F2122904E4FBFA7D04FC7FE0
:06196B0004FE12242122FB
:101A9E001229B39000AAE024FE601F046003021B0B
:101AAE002C9000ACE0B402051229EB80719000ACD2
:101ABE00E0640370691229F980649000A9E024BEE5
:101ACE00601714602114602B2403703990007BE0A2
:101ADE00FF1210B790007C802590007DE0FF121061
:101AEE00B790007E801890007FE0FF1210B7900034
:101AFE0080800B900081E0FF1210B7900082E0FF13
:101B0E007E00120E649000ACE0B402051229EB8048
:101B1E000A9000ACE0B403031229F91229DD022960
:011B2E00B303
:101D06009000AAE024FE600804705E1229E4805662
:101D16009000A9E070031229D69000A9E0B441080A
:101D26001229D67F411226B39000A9E0B4420812C8
:101D360029D67F421226B39000A9E0B4430812299F
:101D4600D67F431226B39000A9E0B444081229D6E0
:101D56007F441226B39000ACE0B402030229E4905B
:0A1D660000ACE0B403031229F222DE
:1015C6009000AAE014700302169114700302169D8F
:1015D6001470030216A6240360030216AE9000AC34
:1015E600E024FE603E14606F240260030216AEE43F
:1015F600900085F0A3F090008AF0A3F0900085E0BB
:10160600FEA3E0FF120E6490008AE0FEA3E0FF1244
:101616000B421229B31229C81229D6122A231229DB
:10162600E48031E4900085F0A3F090008AF0A3F006
:10163600FF1210B7E4FFFE120E64E4FFFE120B4227
:101646001229B31229CF900084E0FF1226B3122A82
:10165600231229EB0229F2E4900085F0A3F0900012
:101666008AF0A3F0FF1210B7E4FFFE120E64E4FF47
:10167600FE120B421229B31229CF900084E0FF120A
:1016860026B3122A231229E40229F91228309000DF
:10169600AAE0601414F0229000AAE0600B14F02275
:0916A6009000AAE0600214F02299
:101F01009000AAE0705B900083E01470069000AA34
:101F11007401F0E4FF1210B7E4FFFE120E64E4FF57
:101F2100FE120B421229B31229CF1229DD122A23E4
:101F3100900083E09000ACF07402F09000AA14F0DD
:101F41001228307BFF7A1A799E1228F87BFF7A1DBE
:101F51007906122904E4FBFA7D04FC7F04FE1224B5
:021F610021223B
:101C9A009000AAE024FE60270470609000ACE02463
:101CAA00FE600E146012240270519000AC7402F0AF
:101CBA00229000AC7403F0229000AC7401F02290E0
:101CCA0000ACE024FD601B0470319000A9E07002B2
:101CDA0080269000A9E004F0E0D3648094C4401BFD
:101CEA0080169000A9E07002800E9000A9E004F02E
:0C1CFA00E0D3648094C440037441F022E5
:10213A009000AAE024FE602704704E9000ACE024D0
:10214A00FD600B04700E1229EB1229F28006122987
:10215A00E41229F99000A97441F0A37402F02290C4
:10216A0000ACE024FE70091228301229EB1229F281
:10217A009000ACE0900083F09000A9E0900084F019
:0A218A00E4A3F0A3F09000AAF022F5
:032A6100022788C1
:062A2A00122A670228D207
:102586009000A8E0B4021B9000A7E004F0E0C3941A
:10259600034014E4F0122A3012281B122844438701
:0725A6000222E49000A7F0FF
:0125AD00220B
:1023EF009000ABE004F0E0B4140ED20F122A677B1A
:1023FF00FF7A2879040208489000ABE0B41E12124D
:10240F002A2A7BFF7A2879101208489000A87402B4
:02241F00F022A9
:062A3000E49000ABF0226F
:101A0B00900051EFF0122A30300F0C9000A8E0B488
:101A1B000105C20F022A6A900051E014602E24FEC9
:101A2B00603814605B24FD605D24FD605F240870EA
:101A3B00619000A8E064037059122A2A7BFF7A2870
:101A4B0079101208489000A87402F022122A6D90A7
:101A5B0000A8E06401703B0215C6122A6D9000A825
:101A6B00E0B401067402F0022A2A9000A8E0B40246
:101A7B000280079000A8E0B403187401F0022A61F9
:101A8B00122A6D021F01122A6D021C9A122A6D1264
:031A9B00213A22CB
:1022600048007B0A1414191E1E322841007A00C14E
:052270000CC10AC10BC6
:10003E009000837401F0E4A3F0A3F0A3F0A3F0A367
:0C004E00F0A3F0A3F0A3F090007AF022E1
:10262500900086E004F07006900085E004F0D390F9
:102635000086E09410900085E094274004E4F0A320
:04264500F0D20C22A1
:0D000E0090007AE0C394FF5003E004F0225C
:0C28EC00300C08C20C122A3012005E22D0
:10005E00E49000AAF0122830900083E024FE700392
:10006E000200F81470030202892402600302041FC6
:10007E00900085E0FEA3E0FF7C007D0A1204B4ED43
:10008E004C900057700BF0A304F0FB7A007D1E809D
:10009E000AE4F0A304F0FB7A007D0A7C00FF7E00E8
:1000AE001222C8900085E0FFA3E0900088CFF0A355
:1000BE00EFF0900086E025E0FE900085E0339000A2
:1000CE008AF0A3CEF0900088E0FEA3E0FF120E644B
:1000DE0090008AE0FEA3E0FF120B421227EC1229D9
:1000EE00C81229D61229E4020283300A4C90005716
:1000FE00E4F0A304F0FB7A007D0A7C00FF7E001280
:10010E0022C8900084E0FF3395E0FEEF25E0FFEE7D
:10011E0033FE74FA2FF58274FF3EF583E0FD74F919
:10012E002FF58274FF3EF583E08DF0A4FF900085DD
:10013E00E5F0F0A3EFF0020257900084E0FF339554
:10014E00E0FEEF25E0FFEE33FE74FA2FF58274FF2A
:10015E003EF583E0FD74F92FF58274FF3EF583E0E2
:10016E008DF0A4FF900085E0B5F019A3E0B507145B
:10017E00D20A900057E4F0A304F0FB7A007D1E7CB7
:10018E0000FF804E900084E0FF3395E0FEEF25E007
:10019E00FFEE33FE74FA2FF58274FF3EF583E0FD19
:1001AE007C00900085E0FEA3E0FF1204B4ED4C90BD
:1001BE0000577011F0A37403F07B0A7A007D0A7C5D
:1001CE00007F01800DE4F0A304F0FB7A007D0A7C31
:1001DE0000FF7E001222C8D20B900084E0FF339500
:1001EE00E0FEEF25E0FFEE33FE74FA2FF58274FF8A
:1001FE003EF583E0FD7C00900085E0FEA3E0FF125B
:10020E0004B4A3EFF0900084E0FF3395E0FEEF25F9
:10021E00E0FFEE33FE74FA2FF58274FF3EF583E0B5
:10022E00FD7C00900085E0FEA3E0FF1204B4900078
:10023E0088ECF0A3EDF0900086E025E0FE900085BE
:10024E00E03390008AF0A3CEF0900087E0FF12100A
:10025E00B7900088E0FEA3E0FF120E6490008AE0E3
:10026E00FEA3E0FF120B421229CF900084E0FF1292
:10027E0026B31229EB1229F2020419300A4D90000E
:10028E0057E4F0A304F0FB7A007D0A7C007FC87E61
:10029E00001222C8900084E0FF3395E0FEEF25E0C7
:1002AE00FFEE33FE74FA2FF58274FF3EF583E0FD08
:1002BE0074F92FF58274FF3EF583E08DF0A4FF9064
:1002CE000085E5F0F0A3EFF00203EA900084E0FF72
:1002DE003395E0FEEF25E0FFEE33FE74FA2FF58244
:1002EE0074FF3EF583E0FD74F92FF58274FF3EF541
:1002FE0083E08DF0A4FF900085E0B5F019A3E0B582
:10030E000714D20A900057E4F0A304F0FB7A007DA4
:10031E001E7C00FF804F900084E0FF3395E0FEEFDF
:10032E0025E0FFEE33FE74FA2FF58274FF3EF5835F
:10033E00E0FD7C00900085E0FEA3E0FF1204B4ED2A
:10034E004C9000577011F0A37403F07B0A7A007D75
:10035E000A7C007F01800EE4F0A304F0FB7A007D9E
:10036E000A7C007FC87E001222C8D20B900084E067
:10037E00FF3395E0FEEF25E0FFEE33FE74FA2FF526
:10038E008274FF3EF583E0FD7C00900085E0FEA3C5
:10039E00E0FF1204B4A3EFF0900084E0FF3395E089
:1003AE00FEEF25E0FFEE33FE74FA2FF58274FF3E6A
:1003BE00F583E0FD7C00900085E0FEA3E0FF1204D3
:1003CE00B4900088ECF0A3EDF0900086E025E0FEFE
:1003DE00900085E03390008AF0A3CEF0900087E085
:1003EE00FF1210B7900088E0FEA3E0FF120E64909B
:1003FE00008AE0FEA3E0FF120B421229CF90008488
:10040E00E0FF1226B31229E41229F9122A23122927
:01041E00B32A
:01041F0022BA
:0C28F800900098EBF0A3EAF0A3E9F022B6
:0C29040090009BEBF0A3EAF0A3E9F022A6
:1028B200900098A3E0FAA3E0F94A600312072022ED
:1028C20090009BA3E0FAA3E0F94A600312072022DA
:10242100EF4E602D90008EEEF0A3EFF0AF05A3EC20
:10243100F0A3EFF0AF03A3EAF0A3EFF0E4A3F0A35E
:10244100F0A3F0A3F090008DF090008C04F012281E
:02245100B222B5
:10283000E490008CF01228C27B007A007900122804
:04284000F80229046D
:1016AF009000A8E0B4020302283090008CE0700391
:1016BF0002176D900090E0FEA3E0FF4E700302173B
:1016CF006D90008DE07035D3EF9400EE94005003D1
:1016DF0002176D900094E475F001120509FED39086
:1016EF00008FE095F090008EE09E50721228C2E4B9
:1016FF00900094F0A3F090008D04F02290008DE004
:10170F006401705A90009475F001120509FED39090
:10171F000091E095F0900090E09E5042900092E092
:10172F00FEA3E0FF9400EE94004025900096E47530
:10173F00F001120509FCD3EF95F0EE9C5005E490F3
:10174F00008CF090008CE07007900090F0A3F022D6
:0F175F00E4900094F0A3F090008DF01228B222D5
:0A292700616463203D2025750A005D
:04227500C10DC10EC8
:0B291C00E47824F643B18053B27F2220
:101FC4009000A8E0B40202805278240618E624FEA9
:101FD400601D14602F146039240370427824E6C312
:101FE4009405403AE4F6300D028011D20D802C782D
:101FF40024E6C3940A4027E4F6300D04C20D800E93
:10200400D20D80177824E6C394094012E4F602291D
:0E201400C17824E6C394094005E4F61229BA07
:01202200229B
:10238100C200D281AFC37825760008A60718E6FE01
:1023910008E67802C333CE33CED8F9FF7825EEF6BE
:1023A10008EFF6ADC2EE18F6EF4D08F6E5E220E4CF
:0923B10004D2008002C200D20E29
:0123BA002200
:1022890030870B782330D803760322760222300E6A
:102299002DC20EC37826E694EA18E69401782350F5
:1022A900047601800276047BFF7A2979277825E66E
:0F22B900FF08E6900055CFF0A3EFF0120848227F
:03227900011D0044
:01005A002283
:032A6400D2EE228D
:1027D400781D06E6FFB40402C281EFC394054007E6
:0727E400E4781DF6122A64DF
:0127EB0022CB
:10245300A2AF9210C2AF75C7AA75C75553A37FA287
:102463001092AF122717122484122A42122A4812FA
:1024730029681226D51226491226901228A1D2AF16
:012483002236
:02227C00C1118E
:1026D50053ACFE43AD01C2B053CABF43CA2043CA7F
:1026E5001075D68075D78043CA80D2CBE4780FF6B3
:0126F50022C2
:062A360043CB40D2B022A8
:062A3C0053CBBFC2B02223
:1022C800ED4C603A7811A60608A607AE04AF0508DB
:1022D800A60608A607AE02AF0308A60608A607903A
:1022E8000057E0FEA3E0FF08A60608A607E408F6E4
:0F22F80008F608F608F67810F6187601D21122CB
:07298900E4780FF6022A3C7E
:012A6D002246
:10176E00780FE6700302181F7816E618467003020B
:10177E00181F7812E61846600808E616187001164B
:10178E0022301105C211122A367810E6FF702ED3C0
:10179E007816E6940018E69400407678190806E666
:1017AE00187001068604C3781496EC1896406212DF
:1017BE002A3CE47819F608F67810760122EF6401D7
:1017CE00704F78190806E6187001068606C378165B
:1017DE0096EE1896403B7817E6FE08E6FFD3940087
:1017EE00EE94004020781B0806E618700106860469
:1017FE00C39FEC9E4004E4780FF6780FE6700678EF
:10180E0015F608F622E47819F608F67810F6122A7C
:02181E00362270
:09293B003086037F00227F012297
:092944003085037F00227F01228F
:09294D003084037F00227F012287
:092956003083037F00227F01227F
:0C2910002084062086037F01227F002225
:062A42001218200227BB60
:10001E00900045E0243AF582E43400F583EFF09049
:0D002E000045E004F0C3940A4002E4F02213
:1024DF00900045E0FF900044E0FEB507037F002227
:1024EF00743A2EF582E43400F583E0FF900044E067
:0924FF0004F0C3940A4002E4F069
:0125080022B0
:1025AE00900045E0FFA3E0FEB507037F0022743ADA
:1025BE002EF582E43400F583E0FF900046E004F04F
:0725CE00C3940A4002E4F08F
:0125D50022E3
:10289000EF75F00BA4240BF582E43400F583E0FF20
:0128A0002215
:1023BB00EF75F00BA42409F582E43400F583ECF0FF
:1023CB00A3EDF0EF75F00BA4240CF582E43400F5CB
:1023DB0083EBF0EF75F00BA4240DF582E43400F5DC
:0423EB0083E4F02275
:09295F00900045E0900044F022D4
:1027BB0043B10853B2F743B11053B2EF43B12053B7
:0927CB00B2DF43B14053B2BF225A
:10182000E4900044F0A3F0A3F0FFEF75F00BA424C4
:1018300009F582E43400F583E4F0A374C8F0EF7591
:10184000F00BA42406F582E43400F5837402F0EF73
:1018500075F00BA4240BF582E43400F583E4F0EF7B
:1018600075F00BA4240CF582E43400F583E4F0EF6A
:1018700075F00BA4240DF582E43400F583E4F00F39
:10188000EFB405A690000374FFF0A37429F0A374CD
:101890003BF090000E74FFF0A37429F0A37444F0A1
:1018A00090001974FFF0A37429F0A3744DF0900018
:1018B0002474FFF0A37429F0A37456F090002F74E1
:0A18C000FFF0A37429F0A37410F0E8
:0118CA0022FB
:10121500900052EFF0E075F00BA42403F97400354B
:10122500F0FA7B01900000EBF0A3EAF0A3E9F012DD
:101235000700120720EF7003021307900000E0FB80
:10124500A3E0FAA3E0F9900003120420FFC394057C
:101255005008900003740502136BEFC3940A5008FD
:10126500900003740102044D9000081204207014CC
:1012750090000804120492900052E075F003A40453
:10128500FF12001E900000E0FBA3E0FAA3E0F99036
:10129500000612051FFFAEF0D39400EE9400500334
:1012A50002136E90000412051FC39FE5F09E5023A4
:1012B500900004E475F001120557FCE5F06F70022B
:1012C500EC6E600302136E900052E075F003A424E7
:1012D50003802B900009120420FFD39400500302D1
:1012E500136E90000A740112044DC39F407B900059
:1012F5000AE4120492900052E075F003A404FF0280
:10130500001E900000E0FBA3E0FAA3E0F9900003C3
:10131500120420FFD39405400A90000374051204BB
:1013250092802BEF600A90000374FF12044D801E1B
:10133500900008120420B40115900008E4120492EC
:10134500900052E075F003A42402FF12001E9000E5
:1013550000E0FBA3E0FAA3E0F9900004E4F5F01245
:0A13650005A490000AE4120492228D
:10275300E4900051F0900051E0FFC39405500B1238
:0A2763001215900051E004F080EB25
:01276D002249
:0929680053ACFB43AD04022A6AE2
:032A6700C2B222D6
:032A6A00D2B222C3
:10264900E4F5B475B3FFF5B675B5FFF5DB75DAFFDB
:10265900F5F975FA0475E5FF75E6FF75E70743F9BE
:04266900800228D2F1
:0C28D200E4FF8FFBE4F5FC0FEFB413F6FD
:0128DE0022D7
:0729900075FB0A53FCFE2257
:0729970075FB0A43FC01225D
:07299E0075FB0C53FCFE2247
:0729A50075FB0C43FC01224D
:0729AC0075FB0853FCFE223D
:0729B30075FB0843FC012243
:0729BA0075FB0E53FCFE2229
:0729C10075FB0E43FC01222F
:0729C80075FB1053FCFE2219
:0729CF0075FB1043FC01221F
:1027EC0075FB1253FCF175FB13E4F5FC75FB1453EC
:0827FC00FCF175FB15F5FC2250
:1010B700EFD394634003021214EF75F00A84FEEF36
:1010C70075F00A84ADF0EFD394095003021172EE64
:1010D700B40A00400302117E9010E6F82828730234
:1010E700110402110C02111402112202112A021119
:1010F7003802114002114E02115C02116475FB0E99
:1011070075FC0A805E75FB0E53FCF1801C75FB0EA7
:1011170075FC0C75FB0F75FC0B805C75FB0E75FC85
:1011270004804075FB0E75FC0675FB0F75FC068089
:101137004675FB0E75FC06800675FB0E75FC0E7575
:10114700FB0F75FC0D803075FB0E53FCF175FB0F23
:1011570075FC07802275FB0E75FC0E800675FB0E6D
:1011670075FC0675FB0F75FC0F800C75FB0E53FCA9
:10117700F175FB0FE4F5FCEDB40A0040030212140D
:1011870090118EF82828730211AC0211B40211BC19
:101197000211C90211D10211DE0211E60211F30296
:1011A700120002120875FB1075FC0A805A75FB10B5
:1011B70053FCF1801B75FB1075FC0C75FB1175FC5E
:1011C7000B2275FB1075FC04803D75FB1075FC0642
:1011D70075FB1175FC062275FB1075FC06800675FC
:1011E700FB1075FC0E75FB1175FC0D2275FB10537A
:1011F700FCF175FB1175FC072275FB1075FC0E8061
:0D1207000675FB1075FC0675FB1175FC0FDC
:0112140022B7
:0729D60075FB12E4F5FC2281
:0729DD0075FB1275FC0F22CF
:1026B30075FB12EF24BE600E14600F146010240328
:1026C300700F75FC012275FC022275FC042275FC57
:0226D3000822DB
:10266D0075FB0853FCF175FB09E4F5FC75FB0A538A
:10267D00FCF175FB0BF5FC75FB0C53FCF175FB0DBB
:03268D00F5FC2237
:040E6400AB07AA0628
:100E6800D3EB94E7EA940340030210B67C007D6458
:100E7800AF03AE021204B4900053EFF07C007D641F
:100E8800AF03AE021204B47E007F0ACFCDCFCECC22
:100E9800CE1204B4900052EFF07C007D0AAF03AE8E
:100EA800021204B4A905D3EB9463EA940050030238
:100EB8000F57A3E0B40A004003020F63900ECBF86B
:100EC800282873020EE9020EF1020EF9020F07023A
:100ED8000F0F020F1D020F25020F33020F41020FE1
:100EE8004975FB0875FC0A805E75FB0853FCF180A8
:100EF8001C75FB0875FC0C75FB0975FC0B805C7593
:100F0800FB0875FC04804075FB0875FC0675FB0939
:100F180075FC06804675FB0875FC06800675FB089F
:100F280075FC0E75FB0975FC0D803075FB0853FCCC
:100F3800F175FB0975FC07802275FB0875FC0E80AE
:100F48000675FB0875FC0675FB0975FC0F800C75AA
:100F5800FB0853FCF175FB09E4F5FCD3EB9409EAB3
:100F68009400500302101443E60443E6089000522C
:100F7800E0B40A004003021020900F88F828287374
:100F8800020FA6020FAE020FB6020FC4020FCC0268
:100F98000FDA020FE2020FF0020FFE02100675FBD5
:100FA8000A75FC0A805E75FB0A53FCF1801C75FB10
:100FB8000A75FC0C75FB0B75FC0B805C75FB0A75E0
:100FC800FC04804075FB0A75FC0675FB0B75FC0676
:100FD800804675FB0A75FC06800675FB0A75FC0ED3
:100FE80075FB0B75FC0D803075FB0A53FCF175FB26
:100FF8000B75FC07802275FB0A75FC0E800675FBD5
:101008000A75FC0675FB0B75FC0F800C75FB0A5303
:10101800FCF175FB0BE4F5FCE9B40A00400302108F
:10102800B6901030F828287302104E02105602109D
:101038005E02106B02107302108002108802109575
:101048000210A20210AA75FB0C75FC0A805A75FBE7
:101058000C53FCF1801B75FB0C75FC0C75FB0D75B6
:10106800FC0B2275FB0C75FC04803D75FB0C75FCB4
:101078000675FB0D75FC062275FB0C75FC068006D3
:1010880075FB0C75FC0E75FB0D75FC0D2275FB0CC4
:1010980053FCF175FB0D75FC072275FB0C75FC0EF6
:0E10A800800675FB0C75FC0675FB0D75FC0FC4
:0110B6002217
:0729E40075FB0253FCFE220B
:0729EB0075FB0243FC012211
:0729F20075FB0453FCFE22FB
:0729F90075FB0475FC0122CF
:072A000075FB0853FCFE22E8
:072A070075FB0843FC0122EE
:072A0E00E4F5FB53FCFE227E
:072A1500E4F5FB43FC012284
:1024B200E4F5FB53FCF175FB01F5FC75FB0253FCE3
:1024C200F175FB03F5FC75FB0453FCF175FB05F597
:0D24D200FC75FB0653FCF175FB07F5FC22C1
:040B4200AB07AA064D
:100B4600D3EB940FEA94274003020E637C037DE8FF
:100B5600AF03AE021204B4900054EFF07C037DE8BC
:100B6600AF03AE021204B47E007F64CFCDCFCECCED
:100B7600CE1204B4900053EFF07C007D64AF03AE58
:100B8600021204B47E007F0ACFCDCFCECCCE1204A3
:100B9600B4900052EFF07C007D0AAF03AE0212045F
:100BA600B4A905D3EB94E7EA94035003020C5490DE
:100BB6000054E0B40A004003020C5F900BC8F8280A
:100BC6002873020BE6020BEE020BF6020C04020C73
:100BD6000C020C1A020C22020C30020C3E020C46CD
:100BE600E4F5FB75FC0A805EE4F5FB53FCF1801C22
:100BF600E4F5FB75FC0C75FB0175FC0B805BE4F5FD
:100C0600FB75FC048040E4F5FB75FC0675FB01757D
:100C1600FC068045E4F5FB75FC068006E4F5FB75ED
:100C2600FC0E75FB0175FC0D802FE4F5FB53FCF102
:100C360075FB0175FC078021E4F5FB75FC0E80064B
:100C4600E4F5FB75FC0675FB0175FC0F800BE4F5FE
:100C5600FB53FCF175FB01F5FCD3EB9463EA9400BE
:100C66005003020D0A900053E0B40A004003020D3F
:100C760016900C7EF8282873020C9C020CA4020C19
:100C8600AC020CBA020CC2020CD0020CD8020CE662
:100C9600020CF4020CFC75FB0275FC0A805E75FB07
:100CA6000253FCF1801C75FB0275FC0C75FB037589
:100CB600FC0B805C75FB0275FC04804075FB0275BD
:100CC600FC0675FB0375FC06804675FB0275FC0683
:100CD600800675FB0275FC0E75FB0375FC0D8030F6
:100CE60075FB0253FCF175FB0375FC07802275FB4F
:100CF6000275FC0E800675FB0275FC0675FB037516
:100D0600FC0F800C75FB0253FCF175FB03E4F5FC4C
:100D1600D3EB9409EA94005003020DC1900052E00F
:100D2600B40A004003020DCD900D35F82828730251
:100D36000D53020D5B020D63020D71020D79020D5A
:100D460087020D8F020D9D020DAB020DB375FB04DC
:100D560075FC0A805E75FB0453FCF1801C75FB0470
:100D660075FC0C75FB0575FC0B805C75FB0475FC4E
:100D760004804075FB0475FC0675FB0575FC068052
:100D86004675FB0475FC06800675FB0475FC0E753E
:100D9600FB0575FC0D803075FB0453FCF175FB05F6
:100DA60075FC07802275FB0475FC0E800675FB0436
:100DB60075FC0675FB0575FC0F800C75FB0453FC72
:100DC600F175FB05E4F5FCE9B40A004003020E6385
:100DD600900DDDF8282873020DFB020E03020E0BA0
:100DE600020E18020E20020E2D020E35020E4202CF
:100DF6000E4F020E5775FB0675FC0A805A75FB06E8
:100E060053FCF1801B75FB0675FC0C75FB0775FC26
:100E16000B2275FB0675FC04803D75FB0675FC060A
:100E260075FB0775FC062275FB0675FC06800675C4
:100E3600FB0675FC0E75FB0775FC0D2275FB06534C
:100E4600FCF175FB0775FC072275FB0675FC0E8029
:0D0E56000675FB0675FC0675FB0775FC0FA5
:010E6300226C
:072A1C0075FB0653FCFE22CE
:072A230075FB0643FC0122D4
:02227E00C1128B
:0D28DF0053DCEF43DD101225FE439B022267
:0A293100E49000C5F0A3F0A3F0222B
:1025FE00C2DC43E90453E9FD43E90143ED0243ED37
:10260E000443ED0843EA0243EA0443EA0853EBFDB0
:07261E0053EBFB53EBF72225
:10281B00D2DC53EDFD53EDFB53EDF753EAFD53EAD9
:05282B00FB53EAF72257
:062A48001228DF02293113
:051BB200900047EFF078
:101BB700900057E4F0A304F0FB7A007D057C00E475
:101BC700FFFE1222C89000C7E0FF900047E0FEC367
:101BD7009F64016007C3EF9EFFBF02149000C674A5
:101BE70001F09000C5E0C394FF5012E004F0800DAF
:101BF700E49000C6F09000C5E0600214F090004742
:101C0700E09000C7F030120C9000C5E0C3940A5072
:101C170011C212229000C5E0D394644005D212127B
:021C2700262570
:011C29002298
:052A4E007F01021BB234
:052A53007F02021BB22E
:052A58007F03021BB228
:1028A10053DC7F43DD807F807E257D007C0002201C
:0128B10082A4
:10286A0030F80BE59A120480C2F8D2138002C21320
:02287A00A213A7
:01287C002239
:082280004100A5004100A60089
:102690001227375389F75389FB5389FD43890190EA
:1026A00000A574FCF0A37466F0758CFCF58AD2A9C1
:0326B000D28C22A7
:10273700E490009EF09000A0F09000A2F0A3F0902B
:0C274700009FF09000A1F09000A4F02290
:03000B00021D7063
:101D7000C0E0C0F0C083C082C0D075D000C000C039
:101D8000069000A5E0F58CA3E0F58A90009EE004A3
:101D9000F0C3940A4005E4F0A304F09000A0E0042E
:101DA000F0C394644005E4F0A304F09000A2E4754D
:101DB000F001120509FEC3E5F094E8EE9403400A31
:101DC0009000A2E4F0A3F0A304F0D006D000D0D09D
:091DD000D082D083D0F0D0E032C3
:10287D0053897F5389BF4389205389EF758DCE7559
:03288D008BCE22CD
:03001B00022A6E48
:012A6E003235
:1024840053B1FD43B202D28143E10175E80243B185
:102494000453B2FB43F60453E1BF43E12053E1EF9D
:0E24A40043E22043E240E4F5E4F5E3D2AE2249
:10136F00EF14604414606F14700302140E147003B2
:10137F0002144A240460030214AEA2AF9210C2AF4B
:10138F0075C7AA75C755439780A21092AFA2AF92A7
:10139F0010C2AF75C7AA75C7555397BFA21092AFAA
:1013AF00E59630E7FB021475A2AF9210C2AF75C776
:1013BF00AA75C75553977FA21092AFA2AF9210C2D2
:1013CF00AF75C7AA75C755439740A21092AFE59660
:1013DF0030E6FB021475A2AF9210C2AF75C7AA75A3
:1013EF00C755439720A21092AFE59630E5FBA2AF09
:1013FF009210C2AF75C7AA75C7555396FB8027A227
:10140F00AF9210C2AF75C7AA75C755439710A210F8
:10141F0092AFE59630E4FBA2AF9210C2AF75C7AAA8
:10142F0075C755439604A21092AFA2AF9210C2AFE8
:10143F0075C7AA75C7555396FD804DA2AF9210C2BE
:10144F00AF75C7AA75C75553977FA21092AFA2AFBA
:10145F009210C2AF75C7AA75C7555397BFA2109206
:10146F00AFE59630E3FBA2AF9210C2AF75C7AA7576
:10147F00C7555396FBA21092AFA2AF9210C2AF7591
:10148F00C7AA75C755439602A21092AFA2AF92108A
:10149F00C2AF75C7AA75C7555396FEA21092AFE596
:0514AF009720E0FB2284
:10255D0075985243892053877F538EEF53C4DFAB59
:10256D0007AA06A905A804E47F807E70FDFC12066B
:09257D000DEFF404F58DD28E225D
:1025D600759852438920438780538EEF53C4DFABEF
:1025E60007AA06A905A804E4FF7EE1FDFC12060D74
:0825F600EFF404F58DD28E22F2
:1025090075985243892053877F438E1053C4DFAB9C
:1025190007AA06A905A8047F007E467D057C00124E
:0A252900060DEFF404F58DD28E22AA
:10253300759852438920438780438E1053C4DFAB81
:1025430007AA06A905A8047F007E8C7D0A7C0012D9
:0A255300060DEFF404F58DD28E2280
:101DD9009000AD1206C375985253877F53C4F843D8
:101DE900C4209000ADE0F8A3E0F9A3E0FAA3E0FB7A
:101DF9007F007E467D057C0012060DC3E49FFFE44B
:101E09009EFE74019DFDE49CFC78081206B08FC605
:101E19009000ADE0F8A3E0F9A3E0FAA3E0FB7F00AE
:101E29007E467D057C0012060DC3E49FFF8FC543E6
:031E3900C40822B8
:101E3C009000B11206C375985243878053C4F8437F
:101E4C00C4209000B1E0F8A3E0F9A3E0FAA3E0FB12
:101E5C007F007E8C7D0A7C0012060DC3E49FFFE49C
:101E6C009EFE74019DFDE49CFC78081206B08FC6A2
:101E7C009000B1E0F8A3E0F9A3E0FAA3E0FB7F0047
:101E8C007E8C7D0A7C0012060DC3E49FFF8FC54338
:031E9C00C4082255
:102082009000511206C375F85253C4F8900051E003
:10209200F8A3E0F9A3E0FAA3E0FB7F007E8C7D0ABF
:1020A2007C0012060DC3E49FFFE49EFE74019DFDB9
:1020B200E49CFC78081206B08FC6900051E0F8A3A9
:1020C200E0F9A3E0FAA3E0FB7F007E8C7D0A7C00AE
:0D20D20012060DC3E49FFF8FC543C4082212
:070003003098FDAF99C2988F
:01000A0022D3
:08297100C2998F993099FD22F3
:0729790030F8FDAF9AC2F82F
:012980002234
:08298100C2F98F9A30F9FD2222
:10276E00E4F5B1F5B2F5B3F5B4F5B5F5B6F5ACF5EE
:0A277E00ADF5DAF5DBF5DCF5DD2240
:1027170075B1FFE4F5B275B3FFF5B475B5FFF5B65E
:1027270075ACFFF5AD75DAFFF5DB75DCFFF5DD227E
:1027880075C7AA75C755A2AF9210C2AF75C7AA750B
:0A279800C755439F80A21092AF22A4
:042A5D0043AD8022E3
:10234400EF640A701C30F811E59AB4130CC2F8302B
:10235400F8FDE59AB411F6C2F830F9FDC2F9759AA0
:102364000D30F811E59AB4130CC2F830F8FDE59A73
:0D237400B411F6C2F830F9FDC2F98F9A22BB
:061B2F0090FFF8120726EA
:101B3500850D83850E821206CF00000000E47FFF2D
:101B45007EFFFDFC850D83850E82E0F8A3E0F9A3F9
:101B5500E0FAA3E0FBC312069F504C900004120765
:101B65004AE0FCA3E0FDA3E0FEA3E02401FFE43E80
:101B7500FEE43DFDE43CFC90000412074A1206C356
:101B8500850D83850E82E0FCA3E0FDA3E0FEA3E0C6
:101B95002401FFE43EFEE43DFDE43CFC850D838528
:071BA5000E821206C38096B8
:061BAC009000080207266C
:1026F600538EF7438901D28CEF4E6012758AF775B7
:102706008CFF308DFDC28DEF1F70ED1E80EAC28CEE
:0127160022A0
:102194009000B51206C3538EF7438901D28CE4FF35
:1021A400FEFDFC9000B5E0F8A3E0F9A3E0FAA3E09B
:1021B400FBC312069F602F758A65758CFC308DFDFC
:1021C400C28D9000B5E0FCA3E0FDA3E0FEA3E024F3
:1021D400FFFFEE34FFFEED34FFFDEC34FFFC900016
:0921E400B51206C380B8C28C22BA
:1021ED009000B91206C3538EEF438910D28EE4FFCF
:1021FD00FEFDFC9000B9E0F8A3E0F9A3E0FAA3E03E
:10220D00FBC312069F602F758B65758DFC308FFD9E
:10221D00C28F9000B9E0FCA3E0FDA3E0FEA3E02493
:10222D00FFFFEE34FFFEED34FFFDEC34FFFC9000BC
:09223D00B91206C380B8C28E225A
:1020DF009000BD1206C375C40243C408E4FFFEFDA1
:1020EF00FC9000BDE0F8A3E0F9A3E0FAA3E0FBC386
:1020FF0012069F603275C53375C6F5E5C430E4FB33
:10210F0053C4EF9000BDE0FCA3E0FDA3E0FEA3E00D
:10211F0024FFFFEE34FFFEED34FFFDEC34FFFC90A7
:0B212F0000BD1206C380B553C4F722A8
:101F63009000C11206C3538FFB538FFD538FFEE4C2
:101F7300F586538FDF438F08E4FFFEFDFC9000C11D
:101F8300E0F8A3E0F9A3E0FAA3E0FBC312069F6025
:101F93002CE58F30E4FB538FEF9000C1E0FCA3E00E
:101FA300FDA3E0FEA3E024FFFFEE34FFFEED34FFCC
:101FB300FDEC34FFFC9000C11206C380BB538FF7C6
:011FC30022FB
:1014B4000A3D3D3D3D3D3D3D3D3D3D3D3D3D3D3D8B
:1014C4003D3D3D3D3D3D3D3D3D3D3D3D3D3D3D3D48
:1014D4003D3D3D3D3D3D3D3D3D3D3D3D3D3D3D3D38
:1014E4003D3D3D3D3D3D3D3D3D3D3D3D3D3D3D3D28
:1014F4003D3D3D3D3D000A2A2020436F70797269CD
:101504006768742863292032303135204E75766F30
:10151400746F6E20546563686E6F6C6F67792043D7
:101524006F72702E20416C6C20726967687473202E
:1015340072657365727665642E2020000A2A202065
:10154400436F6E7461637420452D4D61696C3A205C
:101554004D6963726F432D38626974406E75766F9E
:10156400746F6E2E636F6D20202020202020202099
:101574002020202020202020202020202020202067
:1015840020000A2A202044656D6F20566572736915
:101594006F6E20203A202532642E2532642E2532A7
:1015A40064000A2A202046696E69736865642044D1
:1015B400617465203A202532642E2532642E25324A
:0215C4006400C1
:102023007BFF7A1479B41208487BFF7A1479FA1289
:1020330008487BFF7A1579401208487BFF7A1579A7
:1020430086900055E4F0A304F0E4A3F0A3F0A3F01A
:10205300A3F01208487BFF7A1579A6900055740700
:10206300F0A374DFF0A3E4F0A37405F0A3E4F0A3FA
:0F207300741FF01208487BFF7A1479B4020848F2
:0300000002197171
:10197100787FE4F6D8FD9000007FFF7E01E4F0A3BC
:0A198100DFFCDEFA7581260219C6AC
:10198B00021C2AE493A3F8E493A34003F68001F22C
:10199B0008DFF48029E493A3F85407240CC8C3335D
:1019AB00C4540F4420C8834004F456800146F6DF2C
:1019BB00E4800B0102040810204080902246E47E54
:1019CB00019360BCA3FF543F30E509541FFEE49321
:1019DB00A360010ECF54C025E060A840B8E493A3E8
:1019EB00FAE493A3F8E493A3C8C582C8CAC583CA13
:1019FB00F0A3C8C582C8CAC583CADFE9DEE780BECB
:012288000055
:10042000BB010CE58229F582E5833AF583E0225091
:1004300006E92582F8E622BBFE06E92582F8E222DB
:0D044000E58229F582E5833AF583E49322F5
:10044D00BB010FF8E58229F582E5833AF583E028B3
:10045D00F0225009C58229F8E58226F622BBFE0955
:10046D00C58229F8E22582F222F8EA2583F583E98F
:03047D009328229F
:10048000BB010689828A83F0225002F722BBFE015B
:02049000F32255
:10049200F8BB010DE58229F582E5833AF583E8F0A0
:1004A200225006E92582C8F622BBFE05E92582C84C
:0204B200F22234
:1004B400BC000BBE0029EF8DF084FFADF022E4CC2C
:1004C400F875F008EF2FFFEE33FEEC33FCEE9DECF5
:1004D400984005FCEE9DFE0FD5F0E9E4CEFD22ED3B
:1004E400F8F5F0EE8420D21CFEADF075F008EF2F85
:1004F400FFED33FD4007985006D5F0F222C398FD76
:050504000FD5F0EA2212
:10050900C5F0F8A3E028F0C5F0F8E582158270027D
:060519001583E038F0221A
:10051F00BB0110E58229F582E5833AF583E0F5F01A
:10052F00A3E0225009E92582F886F008E622BBFEF7
:10053F000AE92582F8E2F5F008E222E5832AF5833D
:08054F00E993F5F0A3E9932202
:10055700BB010DC58229C582C5833AC5830205093A
:100567005011C58229F808E5F026F618F5F0E5825E
:1005770036F622BBFE11C58229F808E225F0F5F010
:10058700F218E23582F222F8E58229F582E5832A1C
:0D059700F58374019325F0F5F0E49338220C
:1005A400F8BB0111E58229F582E5833AF583E8F089
:1005B400E5F0A3F0225009E92582C8F608A6F02246
:0D05C400BBFE09E92582C8F2E5F008F2222D
:1005D10075F008758200EF2FFFEE33FECD33CDCCE1
:1005E10033CCC58233C5829BED9AEC99E582984064
:1005F1000CF582EE9BFEED9AFDEC99FC0FD5F0D641
:10060100E4CEFBE4CDFAE4CCF9A88222B800C1B96A
:100611000059BA002DEC8BF084CFCECDFCE5F0CBA8
:10062100F97818EF2FFFEE33FEED33FDEC33FCEBE1
:1006310033FB10D703994004EB99FB0FD8E5E4F99C
:10064100FA227818EF2FFFEE33FEED33FDEC33FC89
:10065100C933C910D7059BE99A4007EC9BFCE99A7D
:10066100F90FD8E0E4C9FAE4CCFB2275F010EF2FC2
:10067100FFEE33FEED33FDCC33CCC833C810D707C2
:100681009BEC9AE899400AED9BFDEC9AFCE899F8FD
:0E0691000FD5F0DAE4CDFBE4CCFAE4C8F92290
:10069F00EB9FF5F0EA9E42F0E99D42F0E89C45F0B1
:0106AF002228
:1006B000E8600FECC313FCED13FDEE13FEEF13FF28
:0306C000D8F1224C
:0C06C300ECF0A3EDF0A3EEF0A3EFF022AA
:1006CF00A8828583F0D083D0821206E61206E61246
:1006DF0006E61206E6E473E493A3C583C5F0C5836B
:1006EF00C8C582C8F0A3C583C5F0C583C8C582C875
:0106FF0022D8
:10070000BB010789828A830207795005E9F802074D
:1007100070BBFE05E9F80207A289828A830207AB53
:060720008A838982E47364
:10072600E50E2582F582E50D3583F583B50D048545
:10073600820E2210AF0685820EF50D2285820EF5F9
:040746000DD2AF22FF
:0D074A00E50E2582F582E50D3583F583224D
:1007DD00E5082455F582E43400F583E00508229000
:1007ED000052300803900055E475F00112078202A3
:1007FD0007572001E97F2ED2018018EF540F249066
:10080D00D43440D4FF30050BEF24BFB41A0050038D
:10081D002461FFE50960021509050CE50C70020560
:10082D000B30080E900052E475F001120782EF02B2
:10083D0004800223447403D2088003E4C208F5083F
:10084D00900052120799E4F509F50BF50CE50960D6
:10085D00077F2012082080F5750AFFC202C201C26F
:10086D0003C204C206C207C2091207ECFF700D30A5
:10087D0008057F00120831AF0CAE0B22B4255FC204
:10088D00D5C2051207ECFF24D0B40A00501A75F03A
:10089D000A780930D50508B6FF0106C6A426F6204C
:1008AD00D5047002D20480D924CFB41A00EF5004BD
:1008BD00C2E5D205020A32D20280C6D20180C0D270
:1008CD000380BCD2D580BAD20680B47F2012082016
:1008DD002003077401B5090040F11207DDFF12086E
:1008ED002002085AD209D20780951207DDFB1207A4
:1008FD00DDFA1207DDF94A4B700679037A0B7BFF9F
:10090D0020032EE509602A7E008E82758300120475
:10091D002060060EEE650A70F0C2D5EBC0E0EAC0AD
:10092D00E0E9C0E0EE120A79D0E0F9D0E0FAD0E0CB
:10093D00FB120757FF60AAEBC0E0EAC0E0E9C0E098
:10094D00120820D0E02401F9D0E03400FAD0E0FB09
:10095D00E50A0460DCD50AD980877BFF7A0A7975B0
:10096D00D203809C791080027908C207C2098008E1
:10097D00D2D5790A8004790AC2D5E50A047002F548
:10098D000AE4FAFDFEFF1207DDFC7B0820021312BC
:10099D0007DDFD7B1030010A1207DDFE1207DDFFBA
:1009AD007B20EC3382D592D55013C3E43001069FE2
:1009BD00FFE49EFEE42002039DFDE49CFCE4CBF8E5
:1009CD00C202EC700CCFCECDCCE824F8F870F380D9
:1009DD0017C3EF33FFEE33FEED33FDEC33FCEB339A
:1009ED00FB994002FB0FD8E9EB300205F8D0E0C4CB
:1009FD0048B202C0E00AEC4D4E4F78207B0070C229
:100A0D00EAB50A0040BCC0E0120A7BD0F0D0E0206D
:100A1D000204C4C0E0C4B202C0F0120809D0F0D57F
:100A2D00F0EB02085A1207B708F75309715808C8B6
:100A3D004C08C44209754F097D44097D4908DD43C1
:080A4D0009835509674609679A
:100A5500450967470B235008CC2D08D02E08F32BEA
:100A650008D42308F1200B0C2A088C48000008EB59
:100A75003F3F3F00790AA2D5200414300609B9107A
:100A8500020404B9080104A2D5200702500104207C
:100A950003689203B509005034C0E07F2030041983
:100AA5007F30A20372077206500F120AD2C203C228
:100AB50007C206C2097F30800F300603E9C0E01285
:100AC5000820300603D0E0F9D0E0B509CC30061790
:100AD5007F30B9100C1208207F583005077F7880C9
:100AE50003B908031208203003057F2D0208207F73
:100AF500202009F87F2B2007F322920380CF286E50
:100B0500756C6C2900D2021207DD3002F8C202783A
:100B15000930D50108F602088C2D504349581207B3
:100B2500DD2403B405004001E4900B1E9312081167
:0D0B3500743A120811D20475090402097106
:10075700BB010689828A83E0225002E722BBFE02A0
:09076700E32289828A83E49322D3
:09077000E6FB08E6FA08E6F922AE
:09077900E0FBA3E0FAA3E0F92281
:10078200F8E0FBA3A3E0F925F0F0E5821582700200
:070792001583E0FA38F022A4
:09079900EBF0A3EAF0A3E9F02261
:0907A200E2FB08E2FA08E2F92288
:0C07AB00E493FB740193FA740293F922AA
:1007B700D083D082F8E4937012740193700DA3A3D1
:1007C70093F8740193F5828883E4737402936860E5
:0607D700EFA3A3A380DFE5
:00000001FF
