:081DCA004100C2004100C3000A
:0615C4009000811202AF4D
:1015CA009000851202BB00000000900081E0FCA39D
:1015DA00E0FDA3E0FEA3E0FFA3E0F8A3E0F9A3E0A7
:1015EA00FAA3E0FBC312028B5040900089E0FCA3EF
:1015FA00E0FDA3E0FEA3E02401FFE43EFEE43DFD9E
:10160A00E43CFC9000891202AF900085E0FCA3E064
:10161A00FDA3E0FEA3E02401FFE43EFEE43DFDE479
:0A162A003CFC9000851202AF80A086
:011634002293
:101542007F02120FBB121CEE121D8B1217C59000E8
:101552009AE06008E4F01212C7121D0990009CE0A4
:0D1562006005E4F012121290009FE0603866
:10156F00E4F012000E9000C3E004F0E0D3940940C1
:10157F0027740AF09000C2E004F0E075F06384AFC6
:10158F00F0120CF09000C2E0FF7E00120A8790006C
:08159F00C2E0FF7E00120740CC
:1015A700121B189000C4EFF0609F121E1D9000C41C
:0D15B700E01424F150938000121E1D808C62
:101D8B0012000390007BE4F0A3F0A3F0F9A3C9F0D9
:061D9B00A3F0A3E9F02211
:0C1E390090007BEBF0A3EAF0A3E9F0229C
:0C1E450090007EEBF0A3EAF0A3E9F0228D
:101DFD0090007BA3E0FAA3E0F94A600312030C22E2
:101E0D0090007EA3E0FAA3E0F94A600312030C22CE
:101AB400EF4E602D900071EEF0A3EFF0AF05A3ECB4
:101AC400F0A3EFF0AF03A3EAF0A3EFF0E4A3F0A3D5
:101AD400F0A3F0A3F0900070F090006F04F0121DDA
:021AE400FD22E1
:08000300E490006FF0021E0DF5
:1012120090006FE070030212C6900073E0FEA3E03C
:10122200FF4E70030212C6900070E07035D3EF9447
:1012320000EE940050030212C6900077E475F001AC
:101242001200F5FED3900072E095F0900071E09EDE
:101252005072121E0DE4900077F0A3F0900070041B
:10126200F022900070E06401705A90007775F001EE
:101272001200F5FED3900074E095F0900073E09EAA
:101282005042900075E0FEA3E0FF9400EE9400400F
:1012920025900079E475F0011200F5FCD3EF95F08A
:1012A200EE9C5005E490006FF090006FE0700790A4
:1012B2000073F0A3F022E4900077F0A3F0900070A6
:0512C200F0121DFD22E9
:101DA100E49000A3F0A3F0A3F0A3F0A3F0A3F0A3A9
:061DB100F09000A2F022F8
:0D000E009000A2E0C394FF5003E004F02234
:101CEE00121C78121F99121FA9121F5C121C981237
:0B1CFE001D24121C34121DECD2AF227A
:101C980053ACFE43AD01C2B053CABF43CA2043CAC6
:0D1CA8001075D68075D78043CA80D2CB223C
:061F8D0043CB40D2B0225C
:061F930053CBBFC2B022D7
:101AE600EF4E602D90008FEEF0A3EFF0AF05A3EC64
:101AF600F0A3EFF0AF03A3EAF0A3EFF0E4A3F0A3A3
:101B0600F0A3F0A3F090008EF090008D04F0121F69
:021B16008D221E
:081F6500E490008DF0021F93CF
:0F1E1D007B017A007D017C007F057E00021AE6C2
:1012C70090008DE07003021379900091E0FEA3E097
:1012D700FF4E700302137990008EE0FD7035D3EF57
:1012E7009400EE94005003021379900095E475F092
:1012F700011200F5FED3900090E095F090008FE08A
:101307009E506F121F93E4900095F0A3F090008E0B
:1013170004F022ED6401705A90009575F0011200F7
:10132700F5FED3900092E095F0900091E09E504238
:10133700900093E0FEA3E0FF9400EE940040259018
:101347000097E475F0011200F5FCD3EF95F0EE9CE1
:101357005005E490008DF090008DE07007900091AB
:10136700F0A3F022E4900095F0A3F090008EF01225
:031377001F8D22A5
:091F2F003083037F00227F0122B0
:091F38003084037F00227F0122A6
:091F41003085037F00227F01229C
:091F4A003086037F00227F012292
:0C1E51002083062085037F01227F0022F1
:061F990012137A021D7212
:101CB500900045E0243AF582E43400F583EFF09096
:0D1CC5000045E004F0C3940A4002E4F02260
:101B1800900045E0FF900044E0FEB507037F0022F7
:101B2800743A2EF582E43400F583E0FF900044E037
:091B380004F0C3940A4002E4F039
:011B41002281
:101BBF00900045E0FFA3E0FEB507037F0022743AD3
:101BCF002EF582E43400F583E0FF900046E004F048
:071BDF00C3940A4002E4F088
:011BE60022DC
:101DDB00EF75F00BA4240BF582E43400F583E0FFE0
:011DEB0022D5
:101A8000EF75F00BA42409F582E43400F583ECF043
:101A9000A3EDF0EF75F00BA4240CF582E43400F50F
:101AA00083EBF0EF75F00BA4240DF582E43400F520
:041AB00083E4F022B9
:091F5300900045E0900044F022EA
:101D720043B10853B2F743B11053B2EF43B120530A
:091D8200B2DF43B14053B2BF22AD
:10137A00E4900044F0A3F0A3F0FFEF75F00BA4246F
:10138A0009F582E43400F583E4F0A37464F0EF75A0
:10139A00F00BA42406F582E43400F5837402F0EF1E
:1013AA0075F00BA4240BF582E43400F583E4F0EF26
:1013BA0075F00BA4240CF582E43400F583E4F0EF15
:1013CA0075F00BA4240DF582E43400F583E4F00FE4
:1013DA00EFB405A690000374FFF0A3741FF0A37482
:1013EA002FF090000E74FFF0A3741FF0A37438F06E
:1013FA0090001974FFF0A3741FF0A37441F09000D9
:10140A002474FFF0A3741FF0A3744AF090002F74A1
:0A141A00FFF0A3741EF0A37451F05C
:0114240022A5
:100E6100900048EFF0E075F00BA42403F97400350D
:100E7100F0FA7B01900000EBF0A3EAF0A3E9F01295
:100E810002EC12030CEF7003020F53900000E0FB21
:100E9100A3E0FAA3E0F990000312001EFFC394053A
:100EA10050089000037405020FB7EFC3940A50086D
:100EB100900003740102004B90000812001E701490
:100EC1009000080412007E900048E075F003A4042D
:100ED100FF121CB5900000E0FBA3E0FAA3E0F9903B
:100EE100000612010BFFAEF0D39400EE9400500304
:100EF100020FBA90000412010BC39FE5F09E50232C
:100F0100900004E475F001120143FCE5F06F7002FA
:100F1100EC6E6003020FBA900048E075F003A42460
:100F210003802B90000912001EFFD394005003028E
:100F31000FBA90000A740112004BC39F407B9000CE
:100F41000AE412007E900048E075F003A404FF0259
:100F51001CB5900000E0FBA3E0FAA3E0F9900003C8
:100F610012001EFFD39405400A900003740512007D
:100F71007E802BEF600A90000374FF12004B801EED
:100F810090000812001EB40115900008E412007EC2
:100F9100900048E075F003A42402FF121CB59000F4
:100FA10000E0FBA3E0FAA3E0F9900004E4F5F012FD
:0A0FB100019090000AE412007E2275
:101D0900E4900047F0900047E0FFC39405500B12A0
:0A1D19000E61900047E004F080EB3B
:011D2300229D
:091F5C0053ACFD43AD02021FA6C7
:031FA300C2B122A6
:031FA600D2B12293
:101D2400E4900047F075F94075FA0475E5FF75E62F
:0A1D3400FF75E70743F980021E2C3B
:0C1E2C00E4FF8FFBE4F5FC0FEFB413F6AD
:011E38002287
:0A1E5D0053E6FB75FB0AE4F5FC22D6
:0A1E670043E60475FB0A75FC012236
:0A1E710053E6EF75FB0CE4F5FC22CC
:0A1E7B0043E61075FB0C75FC012214
:0A1E850053E6FE75FB08E4F5FC22AD
:0A1E8F0043E60175FB0875FC012213
:0A1E990053E6BF75FB0EE4F5FC22D2
:0A1EA30043E64075FB0E75FC0122BA
:0A1EAD0053E7FE75FB10E4F5FC227C
:0A1EB70043E70175FB1075FC0122E2
:101C0F0053E7FB53E7F753E7EF53E7DF75FB127526
:101C1F00FC0E75FB1375FC0F75FB1475FC0E75FB35
:051C2F001575FC0F22F9
:100CF000EFD394634003020E60EF75F00A84FEEFB9
:100D000075F00A84ADF0EFD394095003020DB3439C
:100D1000E64043E680AF06EFB40A004003020DC48C
:100D2000900D27F8282873020D45020D4D020D5530
:100D3000020D63020D6B020D79020D81020D8F020F
:100D40000D9D020DA575FB0E75FC0A805E75FB0EF0
:100D5000E4F5FC801C75FB0E75FC0C75FB0F75FC37
:100D60000B806175FB0E75FC04804075FB0E75FCF5
:100D70000675FB0F75FC06804B75FB0E75FC068037
:100D80000675FB0E75FC0E75FB0F75FC0D80357539
:100D9000FB0EE4F5FC75FB0F75FC07802775FB0E59
:100DA00075FC0E800675FB0E75FC0675FB0F75FC59
:100DB0000F801143E64043E68075FB0EE4F5FC75B9
:100DC000FB0FF5FC43E70143E702EDB40A004003E3
:100DD000020E60900DDAF8282873020DF8020E005A
:100DE000020E08020E15020E1D020E2A020E32021B
:100DF0000E3F020E4C020E5475FB1075FC0A805A11
:100E000075FB10E4F5FC801B75FB1075FC0C75FB85
:100E10001175FC0B2275FB1075FC04803D75FB10F1
:100E200075FC0675FB1175FC062275FB1075FC063A
:100E3000800675FB1075FC0E75FB1175FC0D227597
:100E4000FB10E4F5FC75FB1175FC072275FB1075B2
:100E5000FC0E800675FB1075FC0675FB1175FC0F0A
:010E6000226F
:0A1EC10053E7FB75FB12E4F5FC2269
:101A4B0043E704EF24BE60111460151460192403DE
:101A5B00701C75FB1275FC012275FB1275FC0222C2
:101A6B0075FB1275FC042275FB1275FC082275FBC5
:051A7B0012E4F5FC225D
:101A140053E6FE53E6FD53E6FB53E6F753E6EF5376
:101A2400E6DF75FB0875FC0E75FB0975FC0F75FB8D
:101A34000A75FC0E75FB0B75FC0F75FB0C75FC0E23
:071A440075FB0D75FC0F227C
:040A8700AB07AA0609
:100A8B00D3EB94E7EA94034003020CEF7C007D6404
:100A9B00AF03AE021200A0900048EFF07C007D6423
:100AAB00AF03AE021200A07E007F0ACFCDCFCECC1B
:100ABB00CE1200A0900047EFF07C007D0AAF03AE92
:100ACB00021200A0A905D3EB9463EA940050030231
:100ADB000B8043E60143E602A3E0B40A00400302A5
:100AEB000B91900AF4F8282873020B12020B1A02CE
:100AFB000B22020B30020B38020B46020B4E020B81
:100B0B005C020B6A020B7275FB0875FC0A805E7542
:100B1B00FB08E4F5FC801C75FB0875FC0C75FB09E8
:100B2B0075FC0B806175FB0875FC04804075FB0838
:100B3B0075FC0675FB0975FC06804B75FB0875FC8F
:100B4B0006800675FB0875FC0E75FB0975FC0D80A0
:100B5B003575FB08E4F5FC75FB0975FC07802775FB
:100B6B00FB0875FC0E800675FB0875FC0675FB090A
:100B7B0075FC0F801153E6FE53E6FD75FB08E4F59B
:100B8B00FC75FB09F5FCD3EB9409EA9400500302C6
:100B9B000C4243E60443E608900047E0B40A0040E9
:100BAB0003020C53900BB6F8282873020BD4020BDC
:100BBB00DC020BE4020BF2020BFA020C08020C1023
:100BCB00020C1E020C2C020C3475FB0A75FC0A80FD
:100BDB005E75FB0AE4F5FC801C75FB0A75FC0C7555
:100BEB00FB0B75FC0B806175FB0A75FC0480407573
:100BFB00FB0A75FC0675FB0B75FC06804B75FB0A37
:100C0B0075FC06800675FB0A75FC0E75FB0B75FCF7
:100C1B000D803575FB0AE4F5FC75FB0B75FC078045
:100C2B002775FB0A75FC0E800675FB0A75FC0675AD
:100C3B00FB0B75FC0F801153E6FB53E6F775FB0AB4
:100C4B00E4F5FC75FB0BF5FC43E61043E620E9B439
:100C5B000A004003020CEF900C69F8282873020C71
:100C6B0087020C8F020C97020CA4020CAC020CB97D
:100C7B00020CC1020CCE020CDB020CE375FB0C75F3
:100C8B00FC0A805A75FB0CE4F5FC801B75FB0C759C
:100C9B00FC0C75FB0D75FC0B2275FB0C75FC0480B5
:100CAB003D75FB0C75FC0675FB0D75FC062275FB83
:100CBB000C75FC06800675FB0C75FC0E75FB0D7533
:100CCB00FC0D2275FB0CE4F5FC75FB0D75FC072286
:100CDB0075FB0C75FC0E800675FB0C75FC0675FB25
:040CEB000D75FC0F78
:010CEF0022E2
:0A1ECB0053E5FB75FB0275FC0122D4
:0A1ED50043E50475FB0275FC0122D1
:0A1EDF0053E5EF75FB0475FC0122CA
:0A1EE90043E51075FB0475FC0122AF
:0A1EF30053E6FE75FB0875FC0122A2
:0A1EFD0043E60175FB0875FC0122A5
:0A1F070053E5FEE4F5FB75FC012232
:0A1F110043E501E4F5FB75FC012235
:10198E0053E5FE53E5FD53E5FB53E5F753E5EF5302
:10199E00E5DF53E5BF53E57FE4F5FB75FC0E75FB04
:1019AE000175FC0F75FB0275FC0E75FB0375FC0FC4
:1019BE0075FB0475FC0E75FB0575FC0F75FB067546
:0919CE00FC0E75FB0775FC0F22ED
:04074000AB07AA0653
:10074400D3EB940FEA94274003020A867C037DE8E6
:10075400AF03AE021200A0900049EFF07C037DE8E5
:10076400AF03AE021200A07E007F64CFCDCFCECC0B
:10077400CE1200A0900048EFF07C007D64AF03AE81
:10078400021200A07E007F0ACFCDCFCECCCE1200C5
:10079400A0900047EFF07C007D0AAF03AE02120088
:1007A400A0A905D3EB94E7EA940350030208564347
:1007B400E50143E502900049E0B40A004003020861
:1007C400669007CCF82828730207EA0207F20207AA
:1007D400F902080702080F02081D0208250208335F
:1007E400020840020848E4F5FB75FC0A805CE4F565
:1007F400FBF5FC801CE4F5FB75FC0C75FB0175FC3A
:100804000B805FE4F5FB75FC04803FE4F5FB75FCAD
:100814000675FB0175FC068049E4F5FB75FC068052
:1008240006E4F5FB75FC0E75FB0175FC0D8033E4E5
:10083400F5FBF5FC75FB0175FC078026E4F5FB75FB
:10084400FC0E8006E4F5FB75FC0675FB0175FC0FD8
:10085400801053E5FE53E5FDE4F5FBF5FC75FB0163
:10086400F5FCD3EB9463EA9400500302091743E5C3
:100874000443E508900048E0B40A00400302092854
:1008840090088BF82828730208A90208B10208B955
:100894000208C70208CF0208DD0208E50208F302D5
:1008A400090102090975FB0275FC0A805E75FB02E9
:1008B400E4F5FC801C75FB0275FC0C75FB0375FCF0
:1008C4000B806175FB0275FC04804075FB0275FCAE
:1008D4000675FB0375FC06804B75FB0275FC0680F0
:1008E4000675FB0275FC0E75FB0375FC0D803575F2
:1008F400FB02E4F5FC75FB0375FC07802775FB021E
:1009040075FC0E800675FB0275FC0675FB0375FC11
:100914000F801153E5FB53E5F775FB02E4F5FC7515
:10092400FB03F5FCD3EB9409EA940050030209D9C4
:1009340043E51043E520900047E0B40A0040030279
:1009440009EA90094DF828287302096B0209730219
:10095400097B02098902099102099F0209A7020978
:10096400B50209C30209CB75FB0475FC0A805E75E8
:10097400FB04E4F5FC801C75FB0475FC0C75FB059D
:1009840075FC0B806175FB0475FC04804075FB04E9
:1009940075FC0675FB0575FC06804B75FB0475FC40
:1009A40006800675FB0475FC0E75FB0575FC0D8051
:1009B4003575FB04E4F5FC75FB0575FC07802775AC
:1009C400FB0475FC0E800675FB0475FC0675FB05BF
:1009D40075FC0F801153E5EF53E5DF75FB04E4F577
:1009E400FC75FB05F5FC43E54043E580E9B40A00EA
:1009F4004003020A86900A00F8282873020A1E029D
:100A04000A26020A2E020A3B020A43020A50020A7A
:100A140058020A65020A72020A7A75FB0675FC0A14
:100A2400805A75FB06E4F5FC801B75FB0675FC0C0F
:100A340075FB0775FC0B2275FB0675FC04803D7580
:100A4400FB0675FC0675FB0775FC062275FB06752F
:100A5400FC06800675FB0675FC0E75FB0775FC0D20
:100A64002275FB06E4F5FC75FB0775FC072275FB94
:100A74000675FC0E800675FB0675FC0675FB07758E
:020A8400FC0F65
:010A8600224D
:0A1F1B0053E5BF75FB0675FC0122BB
:0A1F250043E54075FB0675FC012240
:011FA9002215
:011FAA002214
:011FAB002213
:011FAC002212
:101DEC0053DC7F43DD807F807E257D007C000218E4
:011DFC0024C2
:081DD2004100A0004100A10046
:101C3400121CD25389F75389FB5389FD43890190C0
:101C440000A074FCF0A37466F0758CFCF58AD2A92C
:031C5400D28C220D
:101CD200E4900099F090009BF090009DF0A3F090AA
:0C1CE200009AF090009CF090009FF0220F
:03000B00021635A5
:10163500C0E0C0F0C083C082C0D075D000C000C07B
:10164500069000A0E0F58CA3E0F58A900099E004EF
:10165500F0C3940A4005E4F0A304F090009BE00475
:10166500F0C394644005E4F0A304F090009DE47594
:10167500F0011200F5FEC3E5F094E8EE9403400A8C
:1016850090009DE4F0A3F0A304F0D006D000D0D0E4
:09169500D082D083D0F0D0E03205
:101DB70053897F5389BF4389205389EF758DCE752A
:031DC7008BCE229E
:03001B00021FAD14
:011FAD003201
:100FBB00EF14604414606F14700302105A14700322
:100FCB00021096240460030210FAA2AF9209C2AF7A
:100FDB0075C7AA75C755439780A20992AFA2AF9266
:100FEB0009C2AF75C7AA75C7555397BFA20992AF70
:100FFB00E59630E7FB0210C1A2AF9209C2AF75C7ED
:10100B00AA75C75553977FA20992AFA2AF9209C297
:10101B00AF75C7AA75C755439740A20992AFE5961E
:10102B0030E6FB0210C1A2AF9209C2AF75C7AA7519
:10103B00C755439720A20992AFE59630E5FBA2AFC7
:10104B009209C2AF75C7AA75C7555396FB8027A2E5
:10105B00AF9209C2AF75C7AA75C755439710A209BE
:10106B0092AFE59630E4FBA2AF9209C2AF75C7AA67
:10107B0075C755439604A20992AFA2AF9209C2AFAE
:10108B0075C7AA75C7555396FD804DA2AF9209C27D
:10109B00AF75C7AA75C75553977FA20992AFA2AF79
:1010AB009209C2AF75C7AA75C7555397BFA20992CC
:1010BB00AFE59630E3FBA2AF9209C2AF75C7AA7535
:1010CB00C7555396FBA20992AFA2AF9209C2AF7557
:1010DB00C7AA75C755439602A20992AFA2AF920950
:1010EB00C2AF75C7AA75C7555396FEA20992AFE555
:0510FB009720E0FB223C
:101B960075985243892053877F538EEF53C4DFAB2A
:101BA60007AA06A905A804E47F807E70FDFC120141
:091BB600F9EFF404F58DD28E2242
:101BE700759852438920438780538EEF53C4DFABE8
:101BF70007AA06A905A804E4FF7EE1FDFC1201F986
:081C0700EFF404F58DD28E22EA
:101B420075985243892053877F438E1053C4DFAB6D
:101B520007AA06A905A8047F007E467D057C00121F
:0A1B620001F9EFF404F58DD28E2294
:101B6C00759852438920438780438E1053C4DFAB52
:101B7C0007AA06A905A8047F007E8C7D0A7C0012AA
:0A1B8C0001F9EFF404F58DD28E226A
:10169E009000AA1202AF75985253877F53C4F84335
:1016AE00C4209000AAE0F8A3E0F9A3E0FAA3E0FBBF
:1016BE007F007E467D057C001201F9C3E49FFFE4A6
:1016CE009EFE74019DFDE49CFC780812029C8FC660
:1016DE009000AAE0F8A3E0F9A3E0FAA3E0FB7F00F4
:1016EE007E467D057C001201F9C3E49FFF8FC54342
:0316FE00C40822FB
:101701009000AE1202AF75985243878053C4F843DC
:10171100C4209000AEE0F8A3E0F9A3E0FAA3E0FB57
:101721007F007E8C7D0A7C001201F9C3E49FFFE4F7
:101731009EFE74019DFDE49CFC780812029C8FC6FC
:101741009000AEE0F8A3E0F9A3E0FAA3E0FB7F008C
:101751007E8C7D0A7C001201F9C3E49FFF8FC54393
:03176100C4082297
:101824009000471202AF75F85253C4F8900047E095
:10183400F8A3E0F9A3E0FAA3E0FB7F007E8C7D0A25
:101844007C001201F9C3E49FFFE49EFE74019DFD38
:10185400E49CFC780812029C8FC6900047E0F8A331
:10186400E0F9A3E0FAA3E0FB7F007E8C7D0A7C0014
:0D1874001201F9C3E49FFF8FC543C4082291
:071F6D003098FDAF99C29806
:011F7400224A
:081F7500C2998F993099FD22F9
:071F7D0030F8FDAF9AC2F835
:011F8400223A
:081F8500C2F98F9A30F9FD2228
:101D3E00E4F5B1F5B2F5B3F5B4F5B5F5B6F5ACF528
:0A1D4E00ADF5DAF5DBF5DCF5DD227A
:101C780075B1FFE4F5B275B3FFF5B475B5FFF5B608
:101C880075ACFFF5AD75DAFFF5DB75DCFFF5DD2228
:101D580075C7AA75C755A2AF9209C2AF75C7AA754C
:0A1D6800C755439F80A20992AF22E5
:041F9F0043AD8022AC
:1019D700EF640A701C30F811E59AB4130CC2F830A2
:1019E700F8FDE59AB411F6C2F830F9FDC2F9759A17
:1019F7000D30F811E59AB4130CC2F830F8FDE59AEA
:0D1A0700B411F6C2F830F9FDC2F98F9A2231
:0614BF0090FFF812031279
:1014C500850D83850E821202BB00000000E47FFFBC
:1014D5007EFFFDFC850D83850E82E0F8A3E0F9A370
:1014E500E0FAA3E0FBC312028B504C9000041203F8
:1014F50036E0FCA3E0FDA3E0FEA3E02401FFE43E0B
:10150500FEE43DFDE43CFC9000041203361202AFFC
:10151500850D83850E82E0FCA3E0FDA3E0FEA3E03C
:101525002401FFE43EFEE43DFDE43CFC850D83859E
:071535000E821202AF809646
:06153C00900008020312FA
:101C5700538EF7438901D28CEF4E6012758AF77560
:101C67008CFF308DFDC28DEF1F70ED1E80EAC28C98
:011C7700224A
:1018DC009000B21202AF538EF7438901D28CE4FF11
:1018EC00FEFDFC9000B2E0F8A3E0F9A3E0FAA3E05F
:1018FC00FBC312028B602F758A65758CFC308DFDD5
:10190C00C28D9000B2E0FCA3E0FDA3E0FEA3E024B6
:10191C00FFFFEE34FFFEED34FFFDEC34FFFC9000D6
:09192C00B21202AF80B8C28C2295
:101935009000B61202AF538EEF438910D28EE4FFAA
:10194500FEFDFC9000B6E0F8A3E0F9A3E0FAA3E001
:10195500FBC312028B602F758B65758DFC308FFD77
:10196500C28F9000B6E0FCA3E0FDA3E0FEA3E02457
:10197500FFFFEE34FFFEED34FFFDEC34FFFC90007D
:09198500B61202AF80B8C28E2236
:101881009000BA1202AF75C40243C408E4FFFEFD22
:10189100FC9000BAE0F8A3E0F9A3E0FAA3E0FBC3EF
:1018A10012028B603275C53375C6F5E5C430E4FBB1
:1018B10053C4EF9000BAE0FCA3E0FDA3E0FEA3E077
:1018C10024FFFFEE34FFFEED34FFFDEC34FFFC900E
:0B18D10000BA1202AF80B553C4F7222A
:101764009000BE1202AF538FFB538FFD538FFEE4E4
:10177400F586538FDF438F08E4FFFEFDFC9000BE27
:10178400E0F8A3E0F9A3E0FAA3E0FBC312028B6044
:101794002CE58F30E4FB538FEF9000BEE0FCA3E018
:1017A400FDA3E0FEA3E024FFFFEE34FFFEED34FFD3
:1017B400FDEC34FFFC9000BE1202AF80BB538FF7E8
:0117C4002202
:101100000A3D3D3D3D3D3D3D3D3D3D3D3D3D3D3D42
:101110003D3D3D3D3D3D3D3D3D3D3D3D3D3D3D3DFF
:101120003D3D3D3D3D3D3D3D3D3D3D3D3D3D3D3DEF
:101130003D3D3D3D3D3D3D3D3D3D3D3D3D3D3D3DDF
:101140003D3D3D3D3D000A2A2020436F7079726984
:101150006768742863292032303135204E75766FE8
:10116000746F6E20546563686E6F6C6F677920438F
:101170006F72702E20416C6C2072696768747320E6
:1011800072657365727665642E2020000A2A20201D
:10119000436F6E7461637420452D4D61696C3A2014
:1011A0004D6963726F432D38626974406E75766F56
:1011B000746F6E2E636F6D20202020202020202051
:1011C000202020202020202020202020202020201F
:1011D00020000A2A202044656D6F205665727369CD
:1011E0006F6E20203A202532642E2532642E25325F
:1011F00064000A2A202046696E6973686564204489
:10120000617465203A202532642E2532642E253201
:02121000640078
:1017C5007BFF7A1179001204467BFF7A1179461264
:1017D50004467BFF7A11798C1204467BFF7A1179D6
:1017E500D290004AE4F0A304F0E4A3F0A3F0A3F040
:1017F500A3F01204467BFF7A1179F290004A740730
:10180500F0A374DFF0A3E4F0A37405F0A3E4F0A360
:0F181500741FF01204467BFF7A1179000204461B
:03000000021425C2
:10142500787FE4F6D8FD9000007FFF7E01E4F0A30D
:0A143500DFFCDEFA75812102147A53
:10143F00021542E493A3F8E493A34003F68001F26C
:10144F0008DFF48029E493A3F85407240CC8C333AE
:10145F00C4540F4420C8834004F456800146F6DF7D
:10146F00E4800B0102040810204080901DCAE47E26
:10147F00019360BCA3FF543F30E509541FFEE49372
:10148F00A360010ECF54C025E060A840B8E493A339
:10149F00FAE493A3F8E493A3C8C582C8CAC583CA64
:1014AF00F0A3C8C582C8CAC583CADFE9DEE780BE1C
:011DDA000008
:10001E00BB010CE58229F582E5833AF583E0225097
:10002E0006E92582F8E622BBFE06E92582F8E222E1
:0D003E00E58229F582E5833AF583E49322FB
:10004B00BB010FF8E58229F582E5833AF583E028B9
:10005B00F0225009C58229F8E58226F622BBFE095B
:10006B00C58229F8E22582F222F8EA2583F583E995
:03007B00932822A5
:10007E00F8BB010DE58229F582E5833AF583E8F0B8
:10008E00225006E92582C8F622BBFE05E92582C864
:02009E00F2224C
:1000A000BC000BBE0029EF8DF084FFADF022E4CC44
:1000B000F875F008EF2FFFEE33FEEC33FCEE9DEC0D
:1000C000984005FCEE9DFE0FD5F0E9E4CEFD22ED53
:1000D000F8F5F0EE8420D21CFEADF075F008EF2F9D
:1000E000FFED33FD4007985006D5F0F222C398FD8E
:0500F0000FD5F0EA222B
:1000F500C5F0F8A3E028F0C5F0F8E5821582700296
:060105001583E038F02232
:10010B00BB0110E58229F582E5833AF583E0F5F032
:10011B00A3E0225009E92582F886F008E622BBFE0F
:10012B000AE92582F8E2F5F008E222E5832AF58355
:08013B00E993F5F0A3E993221A
:10014300BB010DC58229C582C5833AC5830200F56B
:100153005011C58229F808E5F026F618F5F0E58276
:1001630036F622BBFE11C58229F808E225F0F5F028
:10017300F218E23582F222F8E58229F582E5832A34
:0D018300F58374019325F0F5F0E493382224
:10019000F8BB0111E58229F582E5833AF583E8F0A1
:1001A000E5F0A3F0225009E92582C8F608A6F0225E
:0D01B000BBFE09E92582C8F2E5F008F22245
:1001BD0075F008758200EF2FFFEE33FECD33CDCCF9
:1001CD0033CCC58233C5829BED9AEC99E58298407C
:1001DD000CF582EE9BFEED9AFDEC99FC0FD5F0D659
:1001ED00E4CEFBE4CDFAE4CCF9A88222B800C1B983
:1001FD000059BA002DEC8BF084CFCECDFCE5F0CBC1
:10020D00F97818EF2FFFEE33FEED33FDEC33FCEBF9
:10021D0033FB10D703994004EB99FB0FD8E5E4F9B4
:10022D00FA227818EF2FFFEE33FEED33FDEC33FCA1
:10023D00C933C910D7059BE99A4007EC9BFCE99A95
:10024D00F90FD8E0E4C9FAE4CCFB2275F010EF2FDA
:10025D00FFEE33FEED33FDCC33CCC833C810D707DA
:10026D009BEC9AE899400AED9BFDEC9AFCE899F815
:0E027D000FD5F0DAE4CDFBE4CCFAE4C8F922A8
:10028B00EB9FF5F0EA9E42F0E99D42F0E89C45F0C9
:01029B002240
:10029C00E8600FECC313FCED13FDEE13FEEF13FF40
:0302AC00D8F12264
:0C02AF00ECF0A3EDF0A3EEF0A3EFF022C2
:1002BB00A8828583F0D083D0821202D21202D2128E
:1002CB0002D21202D2E473E493A3C583C5F0C583B3
:1002DB00C8C582C8F0A3C583C5F0C583C8C582C88D
:0102EB0022F0
:1002EC00BB010789828A830203775005E9F8020370
:1002FC006EBBFE05E9F80203A089828A830203A97A
:06030C008A838982E4737C
:10031200E50E2582F582E50D3583F583B50D04855D
:10032200820E2210AF0685820EF50D2285820EF511
:040332000DD2AF2217
:0D033600E50E2582F582E50D3583F5832265
:1003DB00E508244AF582E43400F583E00508229011
:1003EB00004730070390004AE475F00112038002C6
:1003FB0003432000E97F2ED2008018EF540F249086
:10040B00D43440D4FF30040BEF24BFB41A00500394
:10041B002461FFE50960021509050CE50C70020566
:10042B000B30070E900047E475F001120380EF02CA
:10043B00035C0219D77403D2078003E4C207F508E3
:10044B00900047120397E4F509F50BF50CE50960ED
:10045B00077F2012041E80F5750AFFC201C200C27D
:10046B0002C203C205C206C2081203EAFF700D30B6
:10047B0007057F0012042FAF0CAE0B22B4255FC211
:10048B00D5C2041203EAFF24D0B40A00501A75F047
:10049B000A780930D50508B6FF0106C6A426F62052
:1004AB00D5047002D20380D924CFB41A00EF5004C4
:1004BB00C2E5D204020630D20180C6D20080C0D27F
:1004CB000280BCD2D580BAD20580B47F2012041E24
:1004DB002002077401B5090040F11203DBFF12047F
:1004EB001E020458D208D20680951203DBFB1203BE
:1004FB00DBFA1203DBF94A4B700679017A077BFFB3
:10050B0020022EE509602A7E008E82758300120080
:10051B001E60060EEE650A70F0C2D5EBC0E0EAC0B5
:10052B00E0E9C0E0EE120677D0E0F9D0E0FAD0E0D7
:10053B00FB120343FF60AAEBC0E0EAC0E0E9C0E0B6
:10054B0012041ED0E02401F9D0E03400FAD0E0FB15
:10055B00E50A0460DCD50AD980877BFF7A067973BC
:10056B00D202809C791080027908C206C2088008EA
:10057B00D2D5790A8004790AC2D5E50A047002F54E
:10058B000AE4FAFDFEFF1203DBFC7B0820011312C9
:10059B0003DBFD7B1030000A1203DBFE1203DBFFD3
:1005AB007B20EC3382D592D55013C3E43000069FE9
:1005BB00FFE49EFEE42001039DFDE49CFCE4CBF8EC
:1005CB00C201EC700CCFCECDCCE824F8F870F380E0
:1005DB0017C3EF33FFEE33FEED33FDEC33FCEB33A0
:1005EB00FB994002FB0FD8E9EB300105F8D0E0C4D2
:1005FB0048B201C0E00AEC4D4E4F78207B0070C230
:10060B00EAB50A0040BCC0E0120679D0F0D0E02079
:10061B000104C4C0E0C4B201C0F0120407D0F0D58D
:10062B00F0EB0204581203B504F553056F5804C6DA
:10063B004C04C24205734F057B44057B4904DB43E5
:08064B000581550565460565B2
:100653004505654707215004CA2D04CE2E04F12B0E
:1006630004D22304EF20070A2A048A48000004E97D
:100673003F3F3F00790AA2D5200314300509B91082
:10068300020404B9080104A2D52006025001042083
:1006930002689202B509005034C0E07F203003198C
:1006A3007F30A20272067205500F1206D0C202C238
:1006B30006C205C2087F30800F300503E9C0E0128F
:1006C300041E300503D0E0F9D0E0B509CC3005179E
:1006D3007F30B9100C12041E7F583004077F7880D6
:1006E30003B9080312041E3002057F2D02041E7F86
:1006F300202008F87F2B2006F322920280CF286E59
:10070300756C6C2900D2011203DB3001F8C2017849
:100713000930D50108F602048A2D504349581203C3
:10072300DB2403B405004001E490071C9312040F7B
:0D073300743A12040FD20375090402056F19
:10034300BB010689828A83E0225002E722BBFE02B8
:09035300E32289828A83E49322EB
:10035C00BB010689828A83F0225002F722BBFE0180
:02036C00F3227A
:09036E00E6FB08E6FA08E6F922B4
:09037700E0FBA3E0FAA3E0F92287
:10038000F8E0FBA3A3E0F925F0F0E5821582700206
:070390001583E0FA38F022AA
:09039700EBF0A3EAF0A3E9F02267
:0903A000E2FB08E2FA08E2F9228E
:0C03A900E493FB740193FA740293F922B0
:1003B500D083D082F8E4937012740193700DA3A3D7
:1003C50093F8740193F5828883E4737402936860EB
:0603D500EFA3A3A380DFEB
:00000001FF
