:0823D0004100C0004100C10002
:03005B0002235627
:10235600C0E0C0F0C083C082C0D075D000C000C04D
:1023660001C002C003C004C005C006C00712240C89
:10237600C2EFD007D006D005D004D003D002D001DA
:0D238600D000D0D0D082D083D0F0D0E03293
:03003B00021EFBA7
:101EFB00C0E0C0F0C083C082C0D075D000C000C0AD
:101F0B0001C002C003C004C005C006C007E5EC3029
:101F1B00E60A90009FE0B402037403F0E5EC30E1B5
:101F2B0003122AC7E5EC30E203122AC2E5EC30E3D8
:101F3B0003122ACC75EC00D007D006D005D004D004
:101F4B0003D002D001D000D0D0D082D083D0F0D03B
:021F5B00E03272
:101C82007F0212136A1224DE12277712001E122913
:101C92009A900096E06008E4F01217661227CD9041
:101CA2000098E0600EE4F012261112295E1222382A
:091CB2001216A790009BE06026C9
:101CBB00E4F012247A12000E1222D8122795122861
:101CCB004D9000C1E004F0E0D394034009740AF096
:061CDB009000C0E004F0DF
:101CE10012256A900048EFF060A8E0FF121B99806E
:011CF100A151
:102865006F6666206272696768740A00706F7765C3
:0728750072206F66660A0085
:0A23D8004100A300C10F41009E0068
:10001E001228B81222909000A17401F090009FF067
:0D002E00A37404F09000A27441F0021CF2D3
:1028A50053E9FB53E9FD53E9FE43ED4043EA405349
:0328B500EBBF2254
:1028B80053E9FB53E9FD53E9FE53EDBF53EABF5318
:0328C800EBBF2241
:101CF2009000A1E024FE6027146044240270601268
:101D02002835E4FFFE120E5FE4FFFE120B3D122A9D
:101D120027122A3C122A4A122A97122A58801D1286
:101D22002A43122A277F411226F37F421226F37F8B
:101D3200431226F37F441226F3122A97022A6612CE
:101D42002A43122A277F411226F37F421226F37F6B
:101D5200431226F37F441226F3122A97122A58229C
:10196400122A279000A0E024FE601D0460030219DF
:10197400FD9000A1E024FE6005146007807B122A1C
:101984005F8076122A6D80719000A2E024BF600F00
:1019940014601914602314602D2444703D803B901E
:1019A4000072E0FF1210B29000738025900074E082
:1019B400FF1210B29000758018900076E0FF1210AC
:1019C400B2900077800B900078E0FF1210B2900084
:1019D40079E0FF7E00120E5F80069000A27441F051
:1019E4009000A1E0B40205122A5F800A9000A1E0F1
:0C19F400B40303122A6D122A51022A27A4
:101D62009000A0E024FE600804705E122A5880569B
:101D72009000A2E07003122A4A9000A2E0B4410847
:101D8200122A4A7F411226F39000A2E0B4420812BE
:101D92002A4A7F421226F39000A2E0B44308122A94
:101DA2004A7F431226F39000A2E0B44408122A4A62
:101DB2007F441226F39000A1E0B40203022A589055
:0A1DC20000A1E0B40303122A662218
:1018C3009000A0E024FE600914600D146011021959
:1018D300639000A07401F0229000A07402F022E44F
:1018E30090007CF0A3F0900081F0A3F0121CF29022
:1018F300007CE0FEA3E0FF120E5F900081E0FEA3F8
:10190300E0FF120B3D9000A1E024FE601B14603445
:101913002402704C122A27122A3C122835122A4A12
:10192300122A97122A588019122A27122A43E4FFEF
:101933001210B290007BE0FF1226F3122A97122AAC
:101943005F022A66122A27122A43E4FF1210B2907A
:10195300007BE0FF1226F3122A97122A58122A6DEF
:011963002261
:1021E000E4FF1210B2E4FFFE120E5FE4FFFE120BDA
:1021F0003D122A27122A43122A51122A979000A12F
:102200007402F09000A014F01228917BFF7A1979E3
:102210006412296A7BFF7A1D7962122976E4FBFA3F
:102220007D04FC7F04FE1224AC9000A0E014700535
:0822300090007AE0FF021CF2AD
:101C0F009000A0E024FE602A0470659000A1E024FB
:101C1F00FE600F146014240270569000A17402F03D
:101C2F00804E9000A17403F080469000A17401F0E3
:101C3F00803E9000A1E024FE600514601A80319070
:101C4F0000A2E0700280269000A2E004F0E0D364CE
:101C5F008094C4401B80169000A2E07002800E900A
:101C6F0000A2E004F0E0D3648094C440037441F018
:031C7F00021CF252
:101B1D009000A0E024FE603D0470709000A1E024D0
:101B2D00FE600F14601A240270229000A07403F05E
:101B3D00801A9000A07402F0122A5F122A66800C9F
:101B4D009000A07402F0122A58122A6D90007BE0CA
:101B5D009000A2F0229000A1E024FE600514600A1E
:101B6D00800E122A5F122A668006122A6D122A58DA
:101B7D009000A1E090007AF09000A2E090007BF040
:0C1B8D00E4A3F0A3F09000A07403F02289
:032AD500022802D2
:062A9E00122ADB022944AC
:1026110090009FE0B4021B90009EE004F0E0C394A0
:10262100034014E4F0122AA412287C1228A543873F
:072631000222E490009EF07C
:01263800227F
:10247A009000A3E004F0E0B4280ED20F122ADB7B0E
:10248A00FF7A2879650208439000A3E0B432121259
:10249A002A9E7BFF7A28797112084390009F740262
:0224AA00F0221E
:062AA400E49000A3F02203
:101B9900900049EFF0122AA4300F0C90009FE0B496
:101BA9000105C20F022ADE900049E024FD602714D6
:101BB900604124FD604324FD604524097047122AD1
:101BC900E290009FE0B401030218C390009FE06413
:101BD900027032048019122AE290009FE0B40106D3
:101BE9007402F0022A9E90009FE0B403187401F079
:101BF900022AD5122AE20221E0122AE2021C0F125D
:061C09002AE2121B1D225D
:1023E2004800720A1414191E1E322841007100C1DD
:0523F2000CC10AC10B43
:1027770090007A7401F0A37441F0E4A3F0A3F0A3EE
:0E278700F0A3F0A3F0A3F0A3F0900071F022F5
:1020D5009000A0E0FFB4042390007DE004F07006BA
:1020E50090007CE004F0D390007DE0941090007C9B
:1020F500E094274004E4F0A3F0D20CEFB403299058
:1021050000A07404F090007DE004F0700690007C5F
:10211500E004F0D390007DE0941090007CE09427DB
:092125004004E4F0A3F0D20C2206
:0D000E00900071E0C394FF5003E004F02265
:0C295E00300C08C20C122AA412005E22E9
:10005E0012289190007AE024FE70030200F31470CF
:10006E00030202842402600302041A90007CE0FE64
:10007E00A3E0FF7C007D0A1204AFED4C90004F70A0
:10008E000BF0A304F0FB7A007D1E800AE4F0A304BB
:10009E00F0FB7A007D0A7C00FF7E00122317900091
:1000AE007CE0FFA3E090007FCFF0A3EFF090007D07
:1000BE00E025E0FE90007CE033900081F0A3CEF0CE
:1000CE0090007FE0FEA3E0FF120E5F900081E0FE45
:1000DE00A3E0FF120B3D122835122A3C122A4A12B7
:1000EE002A5802027E300A4C90004FE4F0A304F02E
:1000FE00FB7A007D0A7C00FF7E0012231790007BA6
:10010E00E0FF3395E0FEEF25E0FFEE33FE74F12FB6
:10011E00F58274FF3EF583E0FD74F02FF58274FFD7
:10012E003EF583E08DF0A4FF90007CE5F0F0A3EFA8
:10013E00F002025290007BE0FF3395E0FEEF25E0E7
:10014E00FFEE33FE74F12FF58274FF3EF583E0FD72
:10015E0074F02FF58274FF3EF583E08DF0A4FF90CE
:10016E00007CE0B5F019A3E0B50714D20A90004F59
:10017E00E4F0A304F0FB7A007D1E7C00FF804E901D
:10018E00007BE0FF3395E0FEEF25E0FFEE33FE74DB
:10019E00F12FF58274FF3EF583E0FD7C0090007C2C
:1001AE00E0FEA3E0FF1204AFED4C90004F7011F093
:1001BE00A37403F07B0A7A007D0A7C007F01800D18
:1001CE00E4F0A304F0FB7A007D0A7C00FF7E0012AF
:1001DE002317D20B90007BE0FF3395E0FEEF25E076
:1001EE00FFEE33FE74F12FF58274FF3EF583E0FDD2
:1001FE007C0090007CE0FEA3E0FF1204AFA3EFF0C2
:10020E0090007BE0FF3395E0FEEF25E0FFEE33FE3E
:10021E0074F12FF58274FF3EF583E0FD7C009000B3
:10022E007CE0FEA3E0FF1204AF90007FECF0A3EDA4
:10023E00F090007DE025E0FE90007CE033900081A0
:10024E00F0A3CEF090007EE0FF1210B290007FE09F
:10025E00FEA3E0FF120E5F900081E0FEA3E0FF120E
:10026E000B3D122A4390007BE0FF1226F3122A5F09
:10027E00122A66020414300A4D90004FE4F0A304D3
:10028E00F0FB7A007D0A7C007FC87E001223179057
:10029E00007BE0FF3395E0FEEF25E0FFEE33FE74CA
:1002AE00F12FF58274FF3EF583E0FD74F02FF58299
:1002BE0074FF3EF583E08DF0A4FF90007CE5F0F036
:1002CE00A3EFF00203E590007BE0FF3395E0FEEF35
:1002DE0025E0FFEE33FE74F12FF58274FF3EF583B9
:1002EE00E0FD74F02FF58274FF3EF583E08DF0A4EF
:1002FE00FF90007CE0B5F019A3E0B50714D20A9088
:10030E00004FE4F0A304F0FB7A007D1E7C00FF801A
:10031E004F90007BE0FF3395E0FEEF25E0FFEE33DC
:10032E00FE74F12FF58274FF3EF583E0FD7C0090A4
:10033E00007CE0FEA3E0FF1204AFED4C90004F7086
:10034E0011F0A37403F07B0A7A007D0A7C007F0112
:10035E00800EE4F0A304F0FB7A007D0A7C007FC8D7
:10036E007E00122317D20B90007BE0FF3395E0FE48
:10037E00EF25E0FFEE33FE74F12FF58274FF3EF5AC
:10038E0083E0FD7C0090007CE0FEA3E0FF1204AF52
:10039E00A3EFF090007BE0FF3395E0FEEF25E0FF4A
:1003AE00EE33FE74F12FF58274FF3EF583E0FD7C93
:1003BE000090007CE0FEA3E0FF1204AF90007FEC03
:1003CE00F0A3EDF090007DE025E0FE90007CE033A0
:1003DE00900081F0A3CEF090007EE0FF1210B2905C
:1003EE00007FE0FEA3E0FF120E5F900081E0FEA30F
:1003FE00E0FF120B3D122A4390007BE0FF1226F322
:0C040E00122A58122A6D122A97122A276F
:01041A0022BF
:0C296A0090008FEBF0A3EAF0A3E9F0224C
:0C297600900092EBF0A3EAF0A3E9F0223D
:1029240090008FA3E0FAA3E0F94A600312071B2288
:10293400900092A3E0FAA3E0F94A600312071B2275
:1024AC00EF4E602D900085EEF0A3EFF0AF05A3EC9E
:1024BC00F0A3EFF0AF03A3EAF0A3EFF0E4A3F0A3D3
:1024CC00F0A3F0A3F0900084F090008304F01229A4
:0224DC002422B8
:10289100E4900083F01229347B007A007900122938
:0428A1006A02297628
:1016A70090009FE0B40203022891900083E070034A
:1016B700021765900087E0FEA3E0FF4E7003021754
:1016C70065900084E07035D3EF9400EE94005003EA
:1016D70002176590008BE475F001120504FED390A4
:1016E7000086E095F0900085E09E5072122934E460
:1016F70090008BF0A3F090008404F022900084E027
:101707006401705A90008B75F001120504FED390A6
:101717000088E095F0900087E09E5042900089E0B5
:10172700FEA3E0FF9400EE9400402590008DE47541
:10173700F001120504FCD3EF95F0EE9C5005E49000
:101747000083F0900083E07007900087F0A3F022F9
:0F175700E490008BF0A3F0900084F0122924227C
:0A29A500616463203D2025750A00DF
:0423F700C10DC10E45
:0B299A00E47824F643B18053B27F22A2
:1022380090009FE0B40202804B78240618E624FE42
:10224800601F1460291460322403703B7824E6C3AD
:10225800940A4033E4F6300D04C20D800ED20D808E
:10226800237824E6C39409401EE4F6022A3578242C
:10227800E6C394094011E4F6800A7824E6C3940979
:072288004005E4F6122A2EC6
:01228F00222C
:10240C00C200D281AFC37825760008A60718E6FE75
:10241C0008E67802C333CE33CED8F9FF7825EEF632
:10242C0008EFF6ADC2EE18F6EF4D08F6E5E220E443
:09243C0004D2008002C200D20E9D
:012445002274
:1022D80030870B782330D803760322760222300E1B
:1022E8002DC20EC37826E694FE18E6940178235092
:1022F800047601800276047BFF7A2979A57825E6A1
:0F230800FF08E690004CCFF0A3EFF0120843223D
:0423FB004100C200DB
:012AE10022D2
:032AD800D2EE2219
:102795009000C2E004F0E0FFB40402C281EFC394EC
:0B27A500054008E49000C2F0122AD8A2
:0127B0002206
:1024DE00A2AF9210C2AF75C7AA75C75553A37FA2FC
:1024EE001092AF12275712250F122AB6122ABC12BB
:1024FE0029DC1227151226891226D0122913D2AFE3
:01250E0022AA
:0223FF00C1110A
:1027150053ACFE43AD01C2B053CABF43CA2043CA3E
:102725001075D68075D78043CA80D2CBE4780FF672
:012735002281
:062AAA0043CB40D2B02234
:062AB00053CBBFC2B022AF
:10231700ED4C603A7811A60608A607AE04AF05088B
:10232700A60608A607AE02AF0308A60608A60790EA
:10233700004FE0FEA3E0FF08A60608A607E408F69C
:0F23470008F608F608F67810F6187601D211227B
:0729FD00E4780FF6022AB096
:012AE20022D1
:10176600780FE670030218177816E618467003021B
:1017760018177812E61846600808E616187001165B
:1017860022301105C211122AAA7810E6FF702ED354
:101796007816E6940018E69400407678190806E66E
:1017A600187001068604C3781496EC1896406212E7
:1017B6002AB0E47819F608F67810760122EF64016B
:1017C600704F78190806E6187001068606C3781663
:1017D60096EE1896403B7817E6FE08E6FFD394008F
:1017E600EE94004020781B0806E618700106860471
:1017F600C39FEC9E4004E4780FF6780FE6700678F7
:1018060015F608F622E47819F608F67810F6122A84
:02181600AA2204
:0929AF003086037F00227F012223
:0929B8003085037F00227F01221B
:0929C1003084037F00227F012213
:0929CA003083037F00227F01220B
:0C2982002084062086037F01227F0022B3
:062AB60012181802281C92
:10003E00900045E0243AF582E43400F583EFF09029
:0D004E000045E004F0C3940A4002E4F022F3
:10256A00900045E0FF900044E0FEB507037F00229B
:10257A00743A2EF582E43400F583E0FF900044E0DB
:09258A0004F0C3940A4002E4F0DD
:012593002225
:10263900900045E0FFA3E0FEB507037F0022743A4E
:102649002EF582E43400F583E0FF900046E004F0C3
:07265900C3940A4002E4F003
:012660002257
:1028F100EF75F00BA4240BF582E43400F583E0FFBF
:0129010022B3
:10244600EF75F00BA42409F582E43400F583ECF073
:10245600A3EDF0EF75F00BA4240CF582E43400F53F
:1024660083EBF0EF75F00BA4240DF582E43400F550
:0424760083E4F022E9
:0929D300900045E0900044F02260
:10281C0043B10853B2F743B11053B2EF43B1205355
:09282C00B2DF43B14053B2BF22F8
:10181800E4900044F0A3F0A3F0FFEF75F00BA424CC
:1018280009F582E43400F583E4F0A374C8F0EF7599
:10183800F00BA42406F582E43400F5837402F0EF7B
:1018480075F00BA4240BF582E43400F583E4F0EF83
:1018580075F00BA4240CF582E43400F583E4F0EF72
:1018680075F00BA4240DF582E43400F583E4F00F41
:10187800EFB405A690000374FFF0A37429F0A374D5
:10188800AFF090000E74FFF0A37429F0A374B8F0C1
:1018980090001974FFF0A37429F0A374C1F09000AC
:1018A8002474FFF0A37429F0A374CAF090002F7475
:0A18B800FFF0A37429F0A37482F07E
:0118C2002203
:1012100090004AEFF0E075F00BA42403F974003558
:10122000F0FA7B01900000EBF0A3EAF0A3E9F012E2
:1012300006FB12071BEF7003021302900000E0FB95
:10124000A3E0FAA3E0F990000312041BFFC3940586
:1012500050089000037405021366EFC3940A500807
:10126000900003740102044890000812041B7014DB
:101270009000080412048D90004AE075F003A40465
:10128000FF12003E900000E0FBA3E0FAA3E0F9901B
:10129000000612051AFFAEF0D39400EE940050033E
:1012A00002136990000412051AC39FE5F09E5023B3
:1012B000900004E475F001120552FCE5F06F700235
:1012C000EC6E600302136990004AE075F003A424F9
:1012D00003802B90000912041BFFD39400500302DB
:1012E000136990000A7401120448C39F407B900068
:1012F0000AE412048D90004AE075F003A404FF0292
:10130000003E900000E0FBA3E0FAA3E0F9900003A8
:1013100012041BFFD39405400A90000374051204C5
:101320008D802BEF600A90000374FF120448801E2A
:1013300090000812041BB40115900008E412048DFB
:1013400090004AE075F003A42402FF12003E9000D2
:1013500000E0FBA3E0FAA3E0F9900004E4F5F0124A
:0A136000059F90000AE412048D229C
:1027CD00E4900049F0900049E0FFC39405500B12CE
:0A27DD001210900049E004F080EBB8
:0127E70022CF
:0929DC0053ACFB43AD04022ADEFA
:032ADB00C2B22262
:032ADE00D2B2224F
:10268900E4F5B475B3FFF5B675B5FFF5DB75DAFF9B
:10269900F5F975FA0475E5FF75E6FF75E70743F97E
:0426A900800229443E
:0C294400E4FF8FFBE4F5FC0FEFB413F68A
:012950002264
:072A040075FB0A53FCFE22E2
:072A0B0075FB0A43FC0122E8
:072A120075FB0C53FCFE22D2
:072A190075FB0C43FC0122D8
:072A200075FB0853FCFE22C8
:072A270075FB0843FC0122CE
:072A2E0075FB0E53FCFE22B4
:072A350075FB0E43FC0122BA
:072A3C0075FB1053FCFE22A4
:072A430075FB1043FC0122AA
:1028350075FB1253FCF175FB13E4F5FC75FB1453A2
:08284500FCF175FB15F5FC2206
:1010B200EFD39463400302120FEF75F00A84FEEF40
:1010C20075F00A84ADF0EFD39409500302116DEE6E
:1010D200B40A0040030211799010E1F82828730243
:1010E20010FF02110702110F02111D021125021138
:1010F2003302113B02114902115702115F75FB0EB7
:1011020075FC0A805E75FB0E53FCF1801C75FB0EAC
:1011120075FC0C75FB0F75FC0B805C75FB0E75FC8A
:1011220004804075FB0E75FC0675FB0F75FC06808E
:101132004675FB0E75FC06800675FB0E75FC0E757A
:10114200FB0F75FC0D803075FB0E53FCF175FB0F28
:1011520075FC07802275FB0E75FC0E800675FB0E72
:1011620075FC0675FB0F75FC0F800C75FB0E53FCAE
:10117200F175FB0FE4F5FCEDB40A00400302120F17
:10118200901189F82828730211A70211AF0211B732
:101192000211C40211CC0211D90211E10211EE02B4
:1011A20011FB02120375FB1075FC0A805A75FB10C5
:1011B20053FCF1801B75FB1075FC0C75FB1175FC63
:1011C2000B2275FB1075FC04803D75FB1075FC0647
:1011D20075FB1175FC062275FB1075FC0680067501
:1011E200FB1075FC0E75FB1175FC0D2275FB10537F
:1011F200FCF175FB1175FC072275FB1075FC0E8066
:0D1202000675FB1075FC0675FB1175FC0FE1
:01120F0022BC
:072A4A0075FB12E4F5FC220C
:072A510075FB1275FC0F225A
:1026F30075FB12EF24BE600E14600F1460102403E8
:10270300700F43FC012243FC022243FC042243FCDE
:0227130008229A
:1026AD0075FB0853FCF175FB09E4F5FC75FB0A534A
:1026BD00FCF175FB0BF5FC75FB0C53FCF175FB0D7B
:0326CD00F5FC22F7
:040E5F00AB07AA062D
:100E6300D3EB94E7EA940340030210B17C007D6462
:100E7300AF03AE021204AF90004BEFF07C007D6431
:100E8300AF03AE021204AF7E007F0ACFCDCFCECC2C
:100E9300CE1204AF90004AEFF07C007D0AAF03AEA0
:100EA300021204AFA905D3EB9463EA940050030242
:100EB3000F52A3E0B40A004003020F5E900EC6F87F
:100EC300282873020EE4020EEC020EF4020F020253
:100ED3000F0A020F18020F20020F2E020F3C020FFF
:100EE3004475FB0875FC0A805E75FB0853FCF180B2
:100EF3001C75FB0875FC0C75FB0975FC0B805C7598
:100F0300FB0875FC04804075FB0875FC0675FB093E
:100F130075FC06804675FB0875FC06800675FB08A4
:100F230075FC0E75FB0975FC0D803075FB0853FCD1
:100F3300F175FB0975FC07802275FB0875FC0E80B3
:100F43000675FB0875FC0675FB0975FC0F800C75AF
:100F5300FB0853FCF175FB09E4F5FCD3EB9409EAB8
:100F63009400500302100F43E60443E60890004A3E
:100F7300E0B40A00400302101B900F83F828287383
:100F8300020FA1020FA9020FB1020FBF020FC70286
:100F93000FD5020FDD020FEB020FF902100175FBF3
:100FA3000A75FC0A805E75FB0A53FCF1801C75FB15
:100FB3000A75FC0C75FB0B75FC0B805C75FB0A75E5
:100FC300FC04804075FB0A75FC0675FB0B75FC067B
:100FD300804675FB0A75FC06800675FB0A75FC0ED8
:100FE30075FB0B75FC0D803075FB0A53FCF175FB2B
:100FF3000B75FC07802275FB0A75FC0E800675FBDA
:101003000A75FC0675FB0B75FC0F800C75FB0A5308
:10101300FCF175FB0BE4F5FCE9B40A004003021094
:10102300B190102BF82828730210490210510210B6
:101033005902106602106E02107B02108302109098
:1010430002109D0210A575FB0C75FC0A805A75FBF6
:101053000C53FCF1801B75FB0C75FC0C75FB0D75BB
:10106300FC0B2275FB0C75FC04803D75FB0C75FCB9
:101073000675FB0D75FC062275FB0C75FC068006D8
:1010830075FB0C75FC0E75FB0D75FC0D2275FB0CC9
:1010930053FCF175FB0D75FC072275FB0C75FC0EFB
:0E10A300800675FB0C75FC0675FB0D75FC0FC9
:0110B100221C
:072A580075FB0253FCFE2296
:072A5F0075FB0243FC01229C
:072A660075FB0453FCFE2286
:072A6D0075FB0475FC01225A
:072A740075FB0853FCFE2274
:072A7B0075FB0843FC01227A
:072A8200E4F5FB53FCFE220A
:072A8900E4F5FB43FC012210
:10253D00E4F5FB53FCF175FB01F5FC75FB0253FC57
:10254D00F175FB03F5FC75FB0453FCF175FB05F50B
:0D255D00FC75FB0653FCF175FB07F5FC2235
:040B3D00AB07AA0652
:100B4100D3EB940FEA94274003020E5E7C037DE809
:100B5100AF03AE021204AF90004CEFF07C037DE8CE
:100B6100AF03AE021204AF7E007F64CFCDCFCECCF7
:100B7100CE1204AF90004BEFF07C007D64AF03AE6A
:100B8100021204AF7E007F0ACFCDCFCECCCE1204AD
:100B9100AF90004AEFF07C007D0AAF03AE02120471
:100BA100AFA905D3EB94E7EA94035003020C4F90ED
:100BB100004CE0B40A004003020C5A900BC3F82821
:100BC1002873020BE1020BE9020BF1020BFF020C8D
:100BD10007020C15020C1D020C2B020C39020C41F0
:100BE100E4F5FB75FC0A805EE4F5FB53FCF1801C27
:100BF100E4F5FB75FC0C75FB0175FC0B805BE4F502
:100C0100FB75FC048040E4F5FB75FC0675FB017582
:100C1100FC068045E4F5FB75FC068006E4F5FB75F2
:100C2100FC0E75FB0175FC0D802FE4F5FB53FCF107
:100C310075FB0175FC078021E4F5FB75FC0E800650
:100C4100E4F5FB75FC0675FB0175FC0F800BE4F503
:100C5100FB53FCF175FB01F5FCD3EB9463EA9400C3
:100C61005003020D0590004BE0B40A004003020D51
:100C710011900C79F8282873020C97020C9F020C32
:100C8100A7020CB5020CBD020CCB020CD3020CE185
:100C9100020CEF020CF775FB0275FC0A805E75FB16
:100CA1000253FCF1801C75FB0275FC0C75FB03758E
:100CB100FC0B805C75FB0275FC04804075FB0275C2
:100CC100FC0675FB0375FC06804675FB0275FC0688
:100CD100800675FB0275FC0E75FB0375FC0D8030FB
:100CE10075FB0253FCF175FB0375FC07802275FB54
:100CF1000275FC0E800675FB0275FC0675FB03751B
:100D0100FC0F800C75FB0253FCF175FB03E4F5FC51
:100D1100D3EB9409EA94005003020DBC90004AE021
:100D2100B40A004003020DC8900D30F82828730260
:100D31000D4E020D56020D5E020D6C020D74020D78
:100D410082020D8A020D98020DA6020DAE75FB04FA
:100D510075FC0A805E75FB0453FCF1801C75FB0475
:100D610075FC0C75FB0575FC0B805C75FB0475FC53
:100D710004804075FB0475FC0675FB0575FC068057
:100D81004675FB0475FC06800675FB0475FC0E7543
:100D9100FB0575FC0D803075FB0453FCF175FB05FB
:100DA10075FC07802275FB0475FC0E800675FB043B
:100DB10075FC0675FB0575FC0F800C75FB0453FC77
:100DC100F175FB05E4F5FCE9B40A004003020E5E8F
:100DD100900DD8F8282873020DF6020DFE020E06BA
:100DE100020E13020E1B020E28020E30020E3D02ED
:100DF1000E4A020E5275FB0675FC0A805A75FB06F7
:100E010053FCF1801B75FB0675FC0C75FB0775FC2B
:100E11000B2275FB0675FC04803D75FB0675FC060F
:100E210075FB0775FC062275FB0675FC06800675C9
:100E3100FB0675FC0E75FB0775FC0D2275FB065351
:100E4100FCF175FB0775FC072275FB0675FC0E802E
:0D0E51000675FB0675FC0675FB0775FC0FAA
:010E5E002271
:072A900075FB0653FCFE225A
:072A970075FB0643FC012260
:102902006D6574657220636F756E742025640D0A9F
:0129120000C4
:02240100C11206
:0D29510053DCEF43DD10122290439B022265
:0C298E00E49000A4F0A3F0A3F0A3F0225A
:10229000C2DC43E90453E9FD43E90153EDFE43ED9C
:1022A0000243ED0443ED0853EDEF53EDDF53EDBF73
:1022B00053ED7F53EAFE43EA0243EA0443EA08533C
:1022C000EAEF53EADF53EABF53EA7FE4F5EB53EB5F
:0822D000FD53EBFB53EBF72279
:10287C00D2DC53EDFD53EDFB53EDF753EAFD53EA78
:05288C00FB53EAF722F6
:062ABC0012295102298ECF
:10284D007BFF7A2979029000A4E0FFA3E090004C71
:08285D00CFF0A3EFF0020843E5
:0515C100900047EFF06F
:1015C600E49000A3F0122ADE900047E0FF146028A2
:1015D60014604D240270739000A7E0FE700A90001C
:1015E600A6E06060E4F08062EEB401028022900022
:1015F600A7E06402705480219000A7E0FEB4010CBD
:101606009000A6E06004E4F080408038EEB4020367
:10161600E480249000A7E070319000A604F0802AB0
:101626009000A7E0FEB4020C9000A6E06004E4F08F
:1016360080188010EE70069000A6F0800D9000A72E
:10164600E0B401069000A67401F09000A7EFF090B8
:1016560000A6E060109000A5E004F070169000A4CB
:10166600E004F0800E9000A5E024FFF09000A4E0D6
:1016760034FFF0301214C39000A5E094059000A446
:10168600E0648094805019C21222D39000A5E094A1
:101696000C9000A4E0648094804005D2121220D5FC
:0116A6002221
:052AC200E4FF0215C154
:052AC7007F010215C1B2
:052ACC007F020215C1AC
:1029130053DC7F43DD807F807E257D007C000220A9
:012923001D96
:1028CB0030F80BE59A12047BC2F8D2138002C213C4
:0228DB00A21346
:0128DD0022D8
:0824030041009C0041009D0016
:1026D0001227B15389F75389FB5389FD4389019030
:1026E000009C74FCF0A37466F0758CFCF58AD2A98A
:0326F000D28C2267
:1027B100E4900095F0900097F0900099F0A3F090CC
:0C27C1000096F0900098F090009BF02231
:03000B00021DCC07
:101DCC00C0E0C0F0C083C082C0D075D000C000C0DD
:101DDC000690009CE0F58CA3E0F58A900095E00459
:101DEC00F0C3940A4005E4F0A304F0900097E004DB
:101DFC00F0C394644005E4F0A304F0900099E475FA
:101E0C00F001120504FEC3E5F094E8EE9403400AD9
:101E1C00900099E4F0A3F0A304F0D006D000D0D049
:091E2C00D082D083D0F0D0E03266
:1028DE0053897F5389BF4389205389EF758DCE75F8
:0328EE008BCE226C
:03001B00022AE3D3
:012AE30032C0
:10250F0053B1FD43B202D28143E10175E80243B1F9
:10251F000453B2FB43F60453E1BF43E12053E1EF11
:0E252F0043E22043E240E4F5E4F5E3D2AE22BD
:10136A00EF14604414606F147003021409147003BC
:10137A00021445240460030214A9A2AF9210C2AF5A
:10138A0075C7AA75C755439780A21092AFA2AF92AC
:10139A0010C2AF75C7AA75C7555397BFA21092AFAF
:1013AA00E59630E7FB021470A2AF9210C2AF75C780
:1013BA00AA75C75553977FA21092AFA2AF9210C2D7
:1013CA00AF75C7AA75C755439740A21092AFE59665
:1013DA0030E6FB021470A2AF9210C2AF75C7AA75AD
:1013EA00C755439720A21092AFE59630E5FBA2AF0E
:1013FA009210C2AF75C7AA75C7555396FB8027A22C
:10140A00AF9210C2AF75C7AA75C755439710A210FD
:10141A0092AFE59630E4FBA2AF9210C2AF75C7AAAD
:10142A0075C755439604A21092AFA2AF9210C2AFED
:10143A0075C7AA75C7555396FD804DA2AF9210C2C3
:10144A00AF75C7AA75C75553977FA21092AFA2AFBF
:10145A009210C2AF75C7AA75C7555397BFA210920B
:10146A00AFE59630E3FBA2AF9210C2AF75C7AA757B
:10147A00C7555396FBA21092AFA2AF9210C2AF7596
:10148A00C7AA75C755439602A21092AFA2AF92108F
:10149A00C2AF75C7AA75C7555396FEA21092AFE59B
:0514AA009720E0FB2289
:1025E80075985243892053877F538EEF53C4DFABCE
:1025F80007AA06A905A804E47F807E70FDFC1206E0
:0926080008EFF404F58DD28E22D6
:10266100759852438920438780538EEF53C4DFAB63
:1026710007AA06A905A804E4FF7EE1FDFC120608ED
:08268100EFF404F58DD28E2266
:1025940075985243892053877F438E1053C4DFAB11
:1025A40007AA06A905A8047F007E467D057C0012C3
:0A25B4000608EFF404F58DD28E2224
:1025BE00759852438920438780438E1053C4DFABF6
:1025CE0007AA06A905A8047F007E8C7D0A7C00124E
:0A25DE000608EFF404F58DD28E22FA
:101E35009000A81206BE75985253877F53C4F84385
:101E4500C4209000A8E0F8A3E0F9A3E0FAA3E0FB22
:101E55007F007E467D057C00120608C3E49FFFE4F3
:101E65009EFE74019DFDE49CFC78081206AB8FC6AE
:101E75009000A8E0F8A3E0F9A3E0FAA3E0FB7F0057
:101E85007E467D057C00120608C3E49FFF8FC5438F
:031E9500C408225C
:101E98009000AC1206BE75985243878053C4F8432D
:101EA800C4209000ACE0F8A3E0F9A3E0FAA3E0FBBB
:101EB8007F007E8C7D0A7C00120608C3E49FFFE445
:101EC8009EFE74019DFDE49CFC78081206AB8FC64B
:101ED8009000ACE0F8A3E0F9A3E0FAA3E0FB7F00F0
:101EE8007E8C7D0A7C00120608C3E49FFF8FC543E1
:031EF800C40822F9
:10201D009000491206BE75F85253C4F8900049E07D
:10202D00F8A3E0F9A3E0FAA3E0FB7F007E8C7D0A24
:10203D007C00120608C3E49FFFE49EFE74019DFD23
:10204D00E49CFC78081206AB8FC6900049E0F8A31B
:10205D00E0F9A3E0FAA3E0FB7F007E8C7D0A7C0013
:0D206D00120608C3E49FFF8FC543C408227C
:070003003098FDAF99C2988F
:01000A0022D3
:0829E500C2998F993099FD227F
:0729ED0030F8FDAF9AC2F8BB
:0129F40022C0
:0829F500C2F98F9A30F9FD22AE
:1027E800E4F5B1F5B2F5B3F5B4F5B5F5B6F5ACF574
:0A27F800ADF5DAF5DBF5DCF5DD22C6
:1027570075B1FFE4F5B275B3FFF5B475B5FFF5B61E
:1027670075ACFFF5AD75DAFFF5DB75DCFFF5DD223E
:1028020075C7AA75C755A2AF9210C2AF75C7AA7590
:0A281200C755439F80A21092AF2229
:042AD10043AD80226F
:10239300EF640A701C30F811E59AB4130CC2F830DC
:1023A300F8FDE59AB411F6C2F830F9FDC2F9759A51
:1023B3000D30F811E59AB4130CC2F830F8FDE59A24
:0D23C300B411F6C2F830F9FDC2F98F9A226C
:061A9A0090FFF812072185
:101AA000850D83850E821206CA00000000E47FFFC8
:101AB0007EFFFDFC850D83850E82E0F8A3E0F9A38F
:101AC000E0FAA3E0FBC312069A504C900004120700
:101AD00045E0FCA3E0FDA3E0FEA3E02401FFE43E1B
:101AE000FEE43DFDE43CFC9000041207451206BEF6
:101AF000850D83850E82E0FCA3E0FDA3E0FEA3E05C
:101B00002401FFE43EFEE43DFDE43CFC850D8385BD
:071B10000E821206BE809652
:061B170090000802072106
:10273600538EF7438901D28CEF4E6012758AF77576
:102746008CFF308DFDC28DEF1F70ED1E80EAC28CAE
:012756002260
:10212E009000B01206BE538EF7438901D28CE4FFA5
:10213E00FEFDFC9000B0E0F8A3E0F9A3E0FAA3E006
:10214E00FBC312069A602F758A65758CFC308DFD67
:10215E00C28D9000B0E0FCA3E0FDA3E0FEA3E0245E
:10216E00FFFFEE34FFFEED34FFFDEC34FFFC90007C
:09217E00B01206BE80B8C28C222A
:102187009000B41206BE538EEF438910D28EE4FF3F
:10219700FEFDFC9000B4E0F8A3E0F9A3E0FAA3E0A9
:1021A700FBC312069A602F758B65758DFC308FFD0A
:1021B700C28F9000B4E0FCA3E0FDA3E0FEA3E024FF
:1021C700FFFFEE34FFFEED34FFFDEC34FFFC900023
:0921D700B41206BE80B8C28E22CB
:10207A009000B81206BE75C40243C408E4FFFEFD10
:10208A00FC9000B8E0F8A3E0F9A3E0FAA3E0FBC3F0
:10209A0012069A603275C53375C6F5E5C430E4FB9D
:1020AA0053C4EF9000B8E0FCA3E0FDA3E0FEA3E078
:1020BA0024FFFFEE34FFFEED34FFFDEC34FFFC900D
:0B20CA0000B81206BE80B553C4F72218
:101F5D009000BC1206BE538FFB538FFD538FFEE4D2
:101F6D00F586538FDF438F08E4FFFEFDFC9000BC28
:101F7D00E0F8A3E0F9A3E0FAA3E0FBC312069A6030
:101F8D002CE58F30E4FB538FEF9000BCE0FCA3E019
:101F9D00FDA3E0FEA3E024FFFFEE34FFFEED34FFD2
:101FAD00FDEC34FFFC9000BC1206BE80BB538FF7D6
:011FBD002201
:1014AF000A3D3D3D3D3D3D3D3D3D3D3D3D3D3D3D90
:1014BF003D3D3D3D3D3D3D3D3D3D3D3D3D3D3D3D4D
:1014CF003D3D3D3D3D3D3D3D3D3D3D3D3D3D3D3D3D
:1014DF003D3D3D3D3D3D3D3D3D3D3D3D3D3D3D3D2D
:1014EF003D3D3D3D3D000A2A2020436F70797269D2
:1014FF006768742863292032303135204E75766F36
:10150F00746F6E20546563686E6F6C6F67792043DC
:10151F006F72702E20416C6C207269676874732033
:10152F0072657365727665642E2020000A2A20206A
:10153F00436F6E7461637420452D4D61696C3A2061
:10154F004D6963726F432D38626974406E75766FA3
:10155F00746F6E2E636F6D2020202020202020209E
:10156F00202020202020202020202020202020206C
:10157F0020000A2A202044656D6F2056657273691A
:10158F006F6E20203A202532642E2532642E2532AC
:10159F0064000A2A202046696E69736865642044D6
:1015AF00617465203A202532642E2532642E25324F
:0215BF006400C6
:101FBE007BFF7A1479AF1208437BFF7A1479F512FE
:101FCE0008437BFF7A15793B1208437BFF7A15791C
:101FDE008190004CE4F0A304F0E4A3F0A3F0A3F08E
:101FEE00A3F01208437BFF7A1579A190004C740779
:101FFE00F0A374DFF0A3E4F0A37405F0A3E4F0A360
:0F200E00741FF01208437BFF7A1479AF02084366
:03000000021A00E1
:101A0000787FE4F6D8FD9000007FFF7E01E4F0A32C
:0A1A1000DFFCDEFA758126021A558C
:101A1A00021C82E493A3F8E493A34003F68001F244
:101A2A0008DFF48029E493A3F85407240CC8C333CD
:101A3A00C4540F4420C8834004F456800146F6DF9C
:101A4A00E4800B01020408102040809023D0E47E39
:101A5A00019360BCA3FF543F30E509541FFEE49391
:101A6A00A360010ECF54C025E060A840B8E493A358
:101A7A00FAE493A3F8E493A3C8C582C8CAC583CA83
:101A8A00F0A3C8C582C8CAC583CADFE9DEE780BE3B
:01240B0000D0
:10041B00BB010CE58229F582E5833AF583E0225096
:10042B0006E92582F8E622BBFE06E92582F8E222E0
:0D043B00E58229F582E5833AF583E49322FA
:10044800BB010FF8E58229F582E5833AF583E028B8
:10045800F0225009C58229F8E58226F622BBFE095A
:10046800C58229F8E22582F222F8EA2583F583E994
:03047800932822A4
:10047B00BB010689828A83F0225002F722BBFE0160
:02048B00F3225A
:10048D00F8BB010DE58229F582E5833AF583E8F0A5
:10049D00225006E92582C8F622BBFE05E92582C851
:0204AD00F22239
:1004AF00BC000BBE0029EF8DF084FFADF022E4CC31
:1004BF00F875F008EF2FFFEE33FEEC33FCEE9DECFA
:1004CF00984005FCEE9DFE0FD5F0E9E4CEFD22ED40
:1004DF00F8F5F0EE8420D21CFEADF075F008EF2F8A
:1004EF00FFED33FD4007985006D5F0F222C398FD7B
:0504FF000FD5F0EA2218
:10050400C5F0F8A3E028F0C5F0F8E5821582700282
:060514001583E038F0221F
:10051A00BB0110E58229F582E5833AF583E0F5F01F
:10052A00A3E0225009E92582F886F008E622BBFEFC
:10053A000AE92582F8E2F5F008E222E5832AF58342
:08054A00E993F5F0A3E9932207
:10055200BB010DC58229C582C5833AC58302050444
:100562005011C58229F808E5F026F618F5F0E58263
:1005720036F622BBFE11C58229F808E225F0F5F015
:10058200F218E23582F222F8E58229F582E5832A21
:0D059200F58374019325F0F5F0E493382211
:10059F00F8BB0111E58229F582E5833AF583E8F08E
:1005AF00E5F0A3F0225009E92582C8F608A6F0224B
:0D05BF00BBFE09E92582C8F2E5F008F22232
:1005CC0075F008758200EF2FFFEE33FECD33CDCCE6
:1005DC0033CCC58233C5829BED9AEC99E582984069
:1005EC000CF582EE9BFEED9AFDEC99FC0FD5F0D646
:1005FC00E4CEFBE4CDFAE4CCF9A88222B800C1B970
:10060C000059BA002DEC8BF084CFCECDFCE5F0CBAD
:10061C00F97818EF2FFFEE33FEED33FDEC33FCEBE6
:10062C0033FB10D703994004EB99FB0FD8E5E4F9A1
:10063C00FA227818EF2FFFEE33FEED33FDEC33FC8E
:10064C00C933C910D7059BE99A4007EC9BFCE99A82
:10065C00F90FD8E0E4C9FAE4CCFB2275F010EF2FC7
:10066C00FFEE33FEED33FDCC33CCC833C810D707C7
:10067C009BEC9AE899400AED9BFDEC9AFCE899F802
:0E068C000FD5F0DAE4CDFBE4CCFAE4C8F92295
:10069A00EB9FF5F0EA9E42F0E99D42F0E89C45F0B6
:0106AA00222D
:1006AB00E8600FECC313FCED13FDEE13FEEF13FF2D
:0306BB00D8F12251
:0C06BE00ECF0A3EDF0A3EEF0A3EFF022AF
:1006CA00A8828583F0D083D0821206E11206E11255
:1006DA0006E11206E1E473E493A3C583C5F0C5837A
:1006EA00C8C582C8F0A3C583C5F0C583C8C582C87A
:0106FA0022DD
:1006FB00BB010789828A830207745005E9F8020758
:10070B006BBBFE05E9F802079D89828A830207A667
:06071B008A838982E47369
:10072100E50E2582F582E50D3583F583B50D04854A
:10073100820E2210AF0685820EF50D2285820EF5FE
:040741000DD2AF2204
:0D074500E50E2582F582E50D3583F5832252
:1007D800E508244CF582E43400F583E0050822900E
:1007E800004930080390004CE475F00112077D02BF
:1007F80007522001E97F2ED2018018EF540F249070
:10080800D43440D4FF30050BEF24BFB41A00500392
:100818002461FFE50960021509050CE50C70020565
:100828000B30080E900049E475F00112077DEF02C5
:10083800047B0223937403D2088003E4C208F508FA
:10084800900049120794E4F509F50BF50CE50960E9
:10085800077F2012081B80F5750AFFC202C201C279
:1008680003C204C206C207C2091207E7FF700D30AF
:1008780008057F0012082CAF0CAE0B22B4255FC20E
:10088800D5C2051207E7FF24D0B40A00501A75F044
:100898000A780930D50508B6FF0106C6A426F62051
:1008A800D5047002D20480D924CFB41A00EF5004C2
:1008B800C2E5D205020A2DD20280C6D20180C0D27A
:1008C8000380BCD2D580BAD20680B47F2012081B20
:1008D8002003077401B5090040F11207D8FF120878
:1008E8001B020855D209D20780951207D8FB1207B8
:1008F800D8FA1207D8F94A4B700679FE7A0A7BFFB4
:1009080020032EE509602A7E008E8275830012047A
:100918001B60060EEE650A70F0C2D5EBC0E0EAC0B7
:10092800E0E9C0E0EE120A74D0E0F9D0E0FAD0E0D5
:10093800FB120752FF60AAEBC0E0EAC0E0E9C0E0A2
:1009480012081BD0E02401F9D0E03400FAD0E0FB13
:10095800E50A0460DCD50AD980877BFF7A0A7970BA
:10096800D203809C791080027908C207C2098008E6
:10097800D2D5790A8004790AC2D5E50A047002F54D
:100988000AE4FAFDFEFF1207D8FC7B0820021312C6
:1009980007D8FD7B1030010A1207D8FE1207D8FFCE
:1009A8007B20EC3382D592D55013C3E43001069FE7
:1009B800FFE49EFEE42002039DFDE49CFCE4CBF8EA
:1009C800C202EC700CCFCECDCCE824F8F870F380DE
:1009D80017C3EF33FFEE33FEED33FDEC33FCEB339F
:1009E800FB994002FB0FD8E9EB300205F8D0E0C4D0
:1009F80048B202C0E00AEC4D4E4F78207B0070C22E
:100A0800EAB50A0040BCC0E0120A76D0F0D0E02077
:100A18000204C4C0E0C4B202C0F0120804D0F0D589
:100A2800F0EB0208551207B208F253096C5808C3D4
:100A38004C08BF4209704F09784409784908D843DF
:080A4800097E550962460962AE
:100A5000450962470B1E5008C72D08CB2E08EE2B08
:100A600008CF2308EC200B072A088748000008E677
:100A70003F3F3F00790AA2D5200414300609B9107F
:100A8000020404B9080104A2D52007025001042081
:100A900003689203B509005034C0E07F2030041988
:100AA0007F30A20372077206500F120ACDC203C232
:100AB00007C206C2097F30800F300603E9C0E0128A
:100AC000081B300603D0E0F9D0E0B509CC3006179A
:100AD0007F30B9100C12081B7F583005077F7880D3
:100AE00003B9080312081B3003057F2D02081B7F82
:100AF000202009F87F2B2007F322920380CF286E55
:100B0000756C6C2900D2021207D83002F8C2027844
:100B10000930D50108F60208872D504349581207BD
:100B2000D82403B405004001E4900B199312080C7B
:0D0B3000743A12080CD20475090402096C15
:10075200BB010689828A83E0225002E722BBFE02A5
:09076200E32289828A83E49322D8
:09076B00E6FB08E6FA08E6F922B3
:09077400E0FBA3E0FAA3E0F92286
:10077D00F8E0FBA3A3E0F925F0F0E5821582700205
:07078D001583E0FA38F022A9
:09079400EBF0A3EAF0A3E9F02266
:09079D00E2FB08E2FA08E2F9228D
:0C07A600E493FB740193FA740293F922AF
:1007B200D083D082F8E4937012740193700DA3A3D6
:1007C20093F8740193F5828883E4737402936860EA
:0607D200EFA3A3A380DFEA
:00000001FF
