:0821BE004100D7004100D800E8
:03003B000228BCDC
:0428BC0075EC003285
:101BA7007F0212134F1223141225E1122466122802
:101BB7008F121F449000AEE06008E4F012168F12F7
:101BC70026199000B0E0600EE4F012251B12275092
:0C1BD700121D531217689000B3E060204C
:101BE300E4F01222AF12000E1227289000D8E0046E
:101BF300F0E0D394034009740AF09000D7E004F0B6
:101C030012236F900052EFF060AEE0FF121B34809E
:011C1300A729
:102680006F6666206272696768740A00706F7765AA
:0726900072206F66660A006C
:1021C6004100B8004100B9004100BA00C10DC10C80
:0421D6004100B6000E
:10246600E49000B9F053E9FB53E9FD53E9FE43ED6F
:102476000843EA0853EBF79000BB04F0900084F0A1
:072486009000B7F00218E01E
:1018E0009000BBE024FE60281460592402600302CB
:1018F0001985E4FFFE120E44E4FFFE120B221228AB
:101900000C12282112282F12287C12283D02284B65
:1019100012282812280C7F4112255F7F4212255F72
:101920007F4312255F7F4412255F12287C12284BCB
:101930001226AC7BFF7A28794412275C7BFF7A2839
:10194000793D803212282812280C7F4112255F7FB2
:101950004212255F7F4312255F7F4412255F1228C4
:101960007C12283D1226AC7BFF7A28795212275C24
:101970007BFF7A28794B122768E4FBFA7D04FC7F11
:0619800004FE1222E22227
:101A200012280C9000B9E024FE601F046003021A23
:101A3000AE9000BBE0B4020512284480719000BB58
:101A4000E06403706912285280649000B8E024BEFC
:101A5000601714602114602B2403703990007CE01F
:101A6000FF12109790007D802590007EE0FF1210FD
:101A70009790007F8018900080E0FF1210979000F0
:101A800081800B900082E0FF121097900083E0FFAE
:101A90007E00120E449000BBE0B402051228448080
:101AA0000A9000BBE0B40303122852122836022821
:011AB0000C29
:101C80009000B9E024FE600804705E12283D805682
:101C90009000B8E0700312282F9000B8E0B441081B
:101CA00012282F7F4112255F9000B8E0B44208123D
:101CB000282F7F4212255F9000B8E0B44308122815
:101CC0002F7F4312255F9000B8E0B4440812282FFC
:101CD0007F4412255F9000BBE0B4020302283D90D0
:0A1CE00000BBE0B4030312284B22FE
:1015A6009000B9E014700302167114700302167DE0
:1015B6001470030216862403600302168E9000BB85
:1015C600E024FE603E14606F2402600302168EE47F
:1015D600900086F0A3F090008BF0A3F0900086E0D8
:1015E600FEA3E0FF120E4490008BE0FEA3E0FF1284
:1015F6000B2212280C12282112282F12287C1228BE
:101606003D8031E4900086F0A3F090008BF0A3F0CB
:10161600FF121097E4FFFE120E44E4FFFE120B22A7
:1016260012280C122828900085E0FF12255F122848
:101636007C12284402284BE4900086F0A3F0900028
:101646008BF0A3F0FF121097E4FFFE120E44E4FFA6
:10165600FE120B2212280C122828900085E0FF1299
:10166600255F12287C12283D0228521226AC9000D3
:10167600B9E0601414F0229000B9E0600B14F02277
:091686009000B9E0600214F022AA
:101E81009000B9E0705B900084E01470069000B996
:101E91007401F0E4FF121097E4FFFE120E44E4FF18
:101EA100FE120B2212280C12282812283612287C26
:101EB100900084E09000BBF07402F09000B914F03F
:101EC1001226AC7BFF7A1A792012275C7BFF7A1CE1
:101ED1007980122768E4FBFA7D04FC7F04FE12225C
:021EE100E222FB
:101C14009000B9E024FE60270470609000BBE024CB
:101C2400FE600E146012240270519000BB7402F026
:101C3400229000BB7403F0229000BB7401F0229048
:101C440000BBE024FD601B0470319000B8E070021A
:101C540080269000B8E004F0E0D3648094C4401B74
:101C640080169000B8E07002800E9000B8E004F096
:0C1C7400E0D3648094C440037441F0226B
:10205B009000B9E024FE602704704E9000BBE02492
:10206B00FD600B04700E12284412284B80061228B8
:10207B003D1228529000B87441F0A37402F02290E4
:10208B0000BBE024FE70091226AC12284412284B28
:10209B009000BBE0900084F09000B8E0900085F0D9
:0A20AB00E4A3F0A3F09000B9F022C6
:0328C40002264E9B
:062883001228C7022736EF
:10251B009000B7E0B402159000B6E004F0E0C3946D
:10252B001E400EE4F012288943870222E49000B685
:01253B00F0AF
:01253C00227C
:1022AF009000BAE004F0E0B40A0FD20DD20C12285D
:1022BF00C77BFF7A26798080169000BAE0B414129B
:1022CF009000B77402F01228837BFF7A26798C1264
:0322DF00082822AA
:06288900E49000BAF02209
:101B3400900053EFF0122889300D0C9000B7E0B4F8
:101B44000105C20D0228CA900053E024FD6021144F
:101B5400603B24FD603D24FD603F24FD6041240C76
:101B640070401226979000B7E0640170350215A604
:101B74001226979000B7E0B401067402F00228839D
:101B84009000B7E06402701A04F00228C412269789
:101B9400021E81122697021C1412269702205B1241
:031BA400248D226B
:1021DA0048007C0A1414191E1E322841007B00C1D3
:0521EA000BC109C10A50
:1025E1009000847401F0E4A3F0A3F0A3F0A3F0A39E
:0C25F100F0A3F0A3F0A3F090007BF02218
:10248D00900087E004F07006900086E004F0D39091
:10249D000087E09410900086E094274004E4F0A3B8
:0424AD00F0D20B223C
:0D000E0090007BE0C394FF5003E004F0225B
:0C275000300B08C20B12288912003E2238
:10003E00E49000B9F01226AC900084E024FE700328
:10004E000200D8147003020269240260030203FF47
:10005E00900086E0FEA3E0FF7C007D0A120494ED82
:10006E004C90005A700BF0A304F0FB7A007D1E80BA
:10007E000AE4F0A304F0FB7A007D0A7C00FF7E0008
:10008E001221FE900086E0FFA3E0900089CFF0A33E
:10009E00EFF0900087E025E0FE900086E0339000C0
:1000AE008BF0A3CEF0900089E0FEA3E0FF120E4489
:1000BE0090008BE0FEA3E0FF120B2212266812289E
:1000CE002112282F12283D02026330094C90005A4B
:1000DE00E4F0A304F0FB7A007D0A7C00FF7E0012A0
:1000EE0021FE900085E0FF3395E0FEEF25E0FFEE68
:1000FE0033FE74FB2FF58274FF3EF583E0FD74FA38
:10010E002FF58274FF3EF583E08DF0A4FF900086FC
:10011E00E5F0F0A3EFF0020237900085E0FF339593
:10012E00E0FEEF25E0FFEE33FE74FB2FF58274FF49
:10013E003EF583E0FD74FA2FF58274FF3EF583E001
:10014E008DF0A4FF900086E0B5F019A3E0B507147A
:10015E00D20990005AE4F0A304F0FB7A007D1E7CD5
:10016E0000FF804E900085E0FF3395E0FEEF25E026
:10017E00FFEE33FE74FB2FF58274FF3EF583E0FD38
:10018E007C00900086E0FEA3E0FF120494ED4C90FC
:10019E00005A7011F0A37403F07B0A7A007D0A7C7A
:1001AE00007F01800DE4F0A304F0FB7A007D0A7C51
:1001BE0000FF7E001221FED20A900085E0FF3395EB
:1001CE00E0FEEF25E0FFEE33FE74FB2FF58274FFA9
:1001DE003EF583E0FD7C00900086E0FEA3E0FF127A
:1001EE000494A3EFF0900085E0FF3395E0FEEF2539
:1001FE00E0FFEE33FE74FB2FF58274FF3EF583E0D5
:10020E00FD7C00900086E0FEA3E0FF1204949000B7
:10021E0089ECF0A3EDF0900087E025E0FE900086DB
:10022E00E03390008BF0A3CEF0900088E0FF121028
:10023E0097900089E0FEA3E0FF120E4490008BE041
:10024E00FEA3E0FF120B22122828900085E0FF1279
:10025E00255F12284412284B0203F930094D9000F5
:10026E005AE4F0A304F0FB7A007D0A7C007FC87E7E
:10027E00001221FE900085E0FF3395E0FEEF25E0B1
:10028E00FFEE33FE74FB2FF58274FF3EF583E0FD27
:10029E0074FA2FF58274FF3EF583E08DF0A4FF9083
:1002AE000086E5F0F0A3EFF00203CA900085E0FFB0
:1002BE003395E0FEEF25E0FFEE33FE74FB2FF58263
:1002CE0074FF3EF583E0FD74FA2FF58274FF3EF560
:1002DE0083E08DF0A4FF900086E0B5F019A3E0B5A1
:1002EE000714D20990005AE4F0A304F0FB7A007DC3
:1002FE001E7C00FF804F900085E0FF3395E0FEEFFF
:10030E0025E0FFEE33FE74FB2FF58274FF3EF5837E
:10031E00E0FD7C00900086E0FEA3E0FF120494ED69
:10032E004C90005A7011F0A37403F07B0A7A007D92
:10033E000A7C007F01800EE4F0A304F0FB7A007DBE
:10034E000A7C007FC87E001221FED20A900085E052
:10035E00FF3395E0FEEF25E0FFEE33FE74FB2FF545
:10036E008274FF3EF583E0FD7C00900086E0FEA3E4
:10037E00E0FF120494A3EFF0900085E0FF3395E0C8
:10038E00FEEF25E0FFEE33FE74FB2FF58274FF3E89
:10039E00F583E0FD7C00900086E0FEA3E0FF1204F2
:1003AE0094900089ECF0A3EDF0900087E025E0FE3C
:1003BE00900086E03390008BF0A3CEF0900088E0A2
:1003CE00FF121097900089E0FEA3E0FF120E4490FA
:1003DE00008BE0FEA3E0FF120B221228289000856E
:1003EE00E0FF12255F12283D12285212287C122897
:0103FE000CF2
:0103FF0022DB
:0C275C00900099EBF0A3EAF0A3E9F02252
:0C27680090009CEBF0A3EAF0A3E9F02243
:10270800900099A3E0FAA3E0F94A600312070022B7
:1027180090009CA3E0FAA3E0F94A600312070022A4
:1022E200EF4E602D90008FEEF0A3EFF0AF05A3EC60
:1022F200F0A3EFF0AF03A3EAF0A3EFF0E4A3F0A39F
:10230200F0A3F0A3F090008EF090008D04F012275D
:0223120008229F
:1026AC00E490008DF01227187B007A007900122735
:0426BC005C0227682D
:101768009000B7E0B402030226AC90008DE070034D
:10177800021826900091E0FEA3E0FF4E70030218C5
:101788002690008EE07035D3EF9400EE940050035D
:10179800021826900095E475F0011204E9FED39032
:1017A8000090E095F090008FE09E5072122718E4A8
:1017B800900095F0A3F090008E04F02290008EE047
:1017C8006401705A90009575F0011204E9FED390F7
:1017D8000092E095F0900091E09E5042900093E0D6
:1017E800FEA3E0FF9400EE94004025900097E47576
:1017F800F0011204E9FCD3EF95F0EE9C5005E4905B
:10180800008DF090008DE07007900091F0A3F02219
:0F181800E4900095F0A3F090008EF012270822C4
:0221EF00C10E1F
:06288F00E49000DAF022E3
:101D53009000B7E0B40202805B9000DAE004F090F8
:101D630000D9E024FE601E14603114603C2403702B
:101D7300469000DAE0C39405403DE4F0300E028063
:101D830012D20E802F9000DAE0C3940A4029E4F0C7
:101D9300300E04C20E800FD20E80199000DAE0C319
:101DA30094094013E4F002281A9000DAE0C394097E
:071DB3004005E4F0122813C3
:011DBA002206
:0E2728009000D930D8047403F0227402F0221D
:10231400A2AF920FC2AF75C7AA75C75553A37FA2C8
:102324000F92AF1225A21228A11228A71227C012B9
:0E233400253D1224B11224F81226F7D2AF2252
:0221F100C1101B
:10253D0053ACFE43AD01C2B053CABF43CA2043CA18
:10254D001075D68075D78043CA80D2CBE490009F9A
:02255D00F0226A
:0628950043CB40D2B0224B
:06289B0053CBBFC2B022C6
:1021FE00ED4C603B9000A1EEF0A3EFF0AF05A3EC29
:10220E00F0A3EFF0AF03A3EAF0A3EFF090005AE0D3
:10221E00FFA3E09000A7CFF0A3EFF0E4A3F0A3F0AC
:10222E00A3F0A3F09000A0F090009F04F0D2102233
:08000300E490009FF002289B2D
:1026970090005AE4F0A304F0FB7A007D057C00E487
:0526A700FFFE0221FE10
:10168F0090009FE070030217679000A5E07002A31F
:10169F00E070030217679000A1E07002A3E0600FF3
:1016AF009000A2E024FFF09000A1E034FFF0223080
:1016BF001005C2101228959000A0E0FF703BD39048
:1016CF0000A6E094009000A5E09400500302176775
:1016DF009000A9E475F0011204E9FCD39000A4E096
:1016EF0095F09000A3E09C506F12289BE49000A906
:1016FF00F0A3F09000A004F022EF6401705A900064
:10170F00A975F0011204E9FED39000A6E095F090C0
:10171F0000A5E09E50429000A7E0FEA3E0FF9400DA
:10172F00EE940040259000ABE475F0011204E9FC43
:10173F00D3EF95F0EE9C5005E490009FF090009F42
:10174F00E070079000A5F0A3F022E49000A9F0A3A9
:09175F00F09000A0F01228952280
:09278A003083037F00227F01224D
:092793003084037F00227F012243
:09279C003085037F00227F012239
:0927A5003086037F00227F01222F
:0927AE0030DD037F00227F0122CF
:0C2774002083062085037F01227F0022C5
:0628A1001218270225C2F7
:10001E00900050E02445F582E43400F583EFF09033
:0D002E000050E004F0C3940A4002E4F02208
:10236F00900050E0FF90004FE0FEB507037F002282
:10237F0074452EF582E43400F583E0FF90004FE0C2
:09238F0004F0C3940A4002E4F0DA
:012398002222
:10241600900050E0FFA3E0FEB507037F002274455D
:102426002EF582E43400F583E0FF900051E004F0DD
:07243600C3940A4002E4F028
:01243D00227C
:1026E600EF75F00BA4240BF582E43400F583E0FFCC
:0126F60022C1
:10227B00EF75F00BA42409F582E43400F583ECF040
:10228B00A3EDF0EF75F00BA4240CF582E43400F50C
:10229B0083EBF0EF75F00BA4240DF582E43400F51D
:0422AB0083E4F022B6
:0927B700900050E090004FF02268
:1025C20043B10853B2F743B11053B2EF43B12053B2
:0F25D200B2DF43B14053B2BF43DC2053DDDF2201
:10182700E490004FF0A3F0A3F0FFEF75F00BA424B2
:1018370009F582E43400F583E4F0A374C8F0EF758A
:10184700F00BA42406F582E43400F5837402F0EF6C
:1018570075F00BA4240BF582E43400F583E4F0EF74
:1018670075F00BA4240CF582E43400F583E4F0EF63
:1018770075F00BA4240DF582E43400F583E4F00F32
:10188700EFB406A690000374FFF0A37427F0A374C7
:101897008AF090000E74FFF0A37427F0A37493F0FE
:1018A70090001974FFF0A37427F0A3749CF09000C4
:1018B7002474FFF0A37427F0A374A5F090002F748D
:1018C700FFF0A37427F0A374AEF090003A74FFF012
:0818D700A37427F0A37474F060
:0118DF0022E6
:1011F500900054EFF0E075F00BA42403F97400356A
:10120500F0FA7B01900000EBF0A3EAF0A3E9F012FD
:1012150006E0120700EF70030212E7900000E0FB02
:10122500A3E0FAA3E0F9900003120400FFC39405BC
:101235005008900003740502134BEFC3940A50083D
:10124500900003740102042D90000812040070142C
:1012550090000804120472900054E075F003A40491
:10126500FF12001E900000E0FBA3E0FAA3E0F99056
:1012750000061204FFFFAEF0D39400EE9400500375
:1012850002134E9000041204FFC39FE5F09E502305
:10129500900004E475F001120537FCE5F06F70026B
:1012A500EC6E600302134E900054E075F003A42425
:1012B50003802B900009120400FFD3940050030211
:1012C500134E90000A740112042DC39F407B9000B9
:1012D5000AE4120472900054E075F003A404FF02BE
:1012E500001E900000E0FBA3E0FAA3E0F9900003E4
:1012F500120400FFD39405400A90000374051204FC
:1013050072802BEF600A90000374FF12042D801E7B
:10131500900008120400B40115900008E41204724C
:10132500900054E075F003A42402FF12001E900003
:1013350000E0FBA3E0FAA3E0F9900004E4F5F01265
:0A134500058490000AE412047222ED
:10261900E4900053F0900053E0FFC39406500B126E
:0A26290011F5900053E004F080EB7F
:012633002284
:0927C00053ACFD43AD020228CA2E
:0328C700C2B12279
:0328CA00D2B12266
:1024B100E4F5B475B3FFF5B675B5FFF5DB75DAFF75
:1024C100F5F975FA0475E5FF75E6FF75E70743F958
:0424D1008002273628
:0C273600E4FF8FFBE4F5FC0FEFB413F69A
:012742002274
:0727E90075FB0A53FCFE2200
:0727F00075FB0A43FC012206
:0727F70075FB0C53FCFE22F0
:0727FE0075FB0C43FC0122F6
:0728050075FB0853FCFE22E5
:07280C0075FB0843FC0122EB
:0728130075FB0E53FCFE22D1
:07281A0075FB0E43FC0122D7
:0728210075FB1053FCFE22C1
:0728280075FB1043FC0122C7
:1026680075FB1253FCF175FB13E4F5FC75FB145371
:08267800FCF175FB15F5FC22D5
:10109700EFD3946340030211F4EF75F00A84FEEF77
:1010A70075F00A84ADF0EFD394095003021152EEA4
:1010B700B40A00400302115E9010C6F82828730294
:1010C70010E40210EC0210F402110202110A0211DC
:1010D7001802112002112E02113C02114475FB0E59
:1010E70075FC0A805E75FB0E53FCF1801C75FB0EC8
:1010F70075FC0C75FB0F75FC0B805C75FB0E75FCA6
:1011070004804075FB0E75FC0675FB0F75FC0680A9
:101117004675FB0E75FC06800675FB0E75FC0E7595
:10112700FB0F75FC0D803075FB0E53FCF175FB0F43
:1011370075FC07802275FB0E75FC0E800675FB0E8D
:1011470075FC0675FB0F75FC0F800C75FB0E53FCC9
:10115700F175FB0FE4F5FCEDB40A0040030211F44E
:1011670090116EF828287302118C02119402119CB9
:101177000211A90211B10211BE0211C60211D30256
:1011870011E00211E875FB1075FC0A805A75FB1017
:1011970053FCF1801B75FB1075FC0C75FB1175FC7E
:1011A7000B2275FB1075FC04803D75FB1075FC0662
:1011B70075FB1175FC062275FB1075FC068006751C
:1011C700FB1075FC0E75FB1175FC0D2275FB10539A
:1011D700FCF175FB1175FC072275FB1075FC0E8081
:0D11E7000675FB1075FC0675FB1175FC0FFD
:0111F40022D8
:07282F0075FB12E4F5FC2229
:0728360075FB1275FC0F2277
:10255F0075FB12EF24BE600E14600F14601024037D
:10256F00700F75FC012275FC022275FC042275FCAC
:02257F00082230
:1024D50075FB0853FCF175FB09E4F5FC75FB0A5324
:1024E500FCF175FB0BF5FC75FB0C53FCF175FB0D55
:0324F500F5FC22D1
:040E4400AB07AA0648
:100E4800D3EB94E7EA940340030210967C007D6498
:100E5800AF03AE02120494900055EFF07C007D645D
:100E6800AF03AE021204947E007F0ACFCDCFCECC62
:100E7800CE120494900054EFF07C007D0AAF03AECC
:100E880002120494A905D3EB9463EA940050030278
:100E98000F37A3E0B40A004003020F43900EABF8EB
:100EA800282873020EC9020ED1020ED9020EE702DB
:100EB8000EEF020EFD020F05020F13020F21020FA3
:100EC8002975FB0875FC0A805E75FB0853FCF180E8
:100ED8001C75FB0875FC0C75FB0975FC0B805C75B3
:100EE800FB0875FC04804075FB0875FC0675FB095A
:100EF80075FC06804675FB0875FC06800675FB08C0
:100F080075FC0E75FB0975FC0D803075FB0853FCEC
:100F1800F175FB0975FC07802275FB0875FC0E80CE
:100F28000675FB0875FC0675FB0975FC0F800C75CA
:100F3800FB0853FCF175FB09E4F5FCD3EB9409EAD3
:100F480094005003020FF443E60443E6089000546B
:100F5800E0B40A004003021000900F68F8282873D4
:100F6800020F86020F8E020F96020FA4020FAC0228
:100F78000FBA020FC2020FD0020FDE020FE675FB96
:100F88000A75FC0A805E75FB0A53FCF1801C75FB30
:100F98000A75FC0C75FB0B75FC0B805C75FB0A7500
:100FA800FC04804075FB0A75FC0675FB0B75FC0696
:100FB800804675FB0A75FC06800675FB0A75FC0EF3
:100FC80075FB0B75FC0D803075FB0A53FCF175FB46
:100FD8000B75FC07802275FB0A75FC0E800675FBF5
:100FE8000A75FC0675FB0B75FC0F800C75FB0A5324
:100FF800FCF175FB0BE4F5FCE9B40A0040030210B0
:1010080096901010F828287302102E02103602103D
:101018003E02104B02105302106002106802107555
:1010280002108202108A75FB0C75FC0A805A75FB47
:101038000C53FCF1801B75FB0C75FC0C75FB0D75D6
:10104800FC0B2275FB0C75FC04803D75FB0C75FCD4
:101058000675FB0D75FC062275FB0C75FC068006F3
:1010680075FB0C75FC0E75FB0D75FC0D2275FB0CE4
:1010780053FCF175FB0D75FC072275FB0C75FC0E16
:0E108800800675FB0C75FC0675FB0D75FC0FE4
:011096002237
:07283D0075FB0253FCFE22B3
:0728440075FB0243FC0122B9
:07284B0075FB0453FCFE22A3
:0728520075FB0475FC012277
:0728590075FB0853FCFE2291
:0728600075FB0843FC012297
:07286700E4F5FB53FCFE2227
:07286E00E4F5FB43FC01222D
:10234200E4F5FB53FCF175FB01F5FC75FB0253FC54
:10235200F175FB03F5FC75FB0453FCF175FB05F508
:0D236200FC75FB0653FCF175FB07F5FC2232
:040B2200AB07AA066D
:100B2600D3EB940FEA94274003020E437C037DE83F
:100B3600AF03AE02120494900056EFF07C037DE8FA
:100B4600AF03AE021204947E007F64CFCDCFCECC2D
:100B5600CE120494900055EFF07C007D64AF03AE96
:100B6600021204947E007F0ACFCDCFCECCCE1204E3
:100B760094900054EFF07C007D0AAF03AE0212049D
:100B860094A905D3EB94E7EA94035003020C34903E
:100B96000056E0B40A004003020C3F900BA8F82868
:100BA6002873020BC6020BCE020BD6020BE4020B15
:100BB600EC020BFA020C02020C10020C1E020C26AE
:100BC600E4F5FB75FC0A805EE4F5FB53FCF1801C42
:100BD600E4F5FB75FC0C75FB0175FC0B805BE4F51D
:100BE600FB75FC048040E4F5FB75FC0675FB01759E
:100BF600FC068045E4F5FB75FC068006E4F5FB750E
:100C0600FC0E75FB0175FC0D802FE4F5FB53FCF122
:100C160075FB0175FC078021E4F5FB75FC0E80066B
:100C2600E4F5FB75FC0675FB0175FC0F800BE4F51E
:100C3600FB53FCF175FB01F5FCD3EB9463EA9400DE
:100C46005003020CEA900055E0B40A004003020C7F
:100C5600F6900C5EF8282873020C7C020C84020CB9
:100C66008C020C9A020CA2020CB0020CB8020CC642
:100C7600020CD4020CDC75FB0275FC0A805E75FB67
:100C86000253FCF1801C75FB0275FC0C75FB0375A9
:100C9600FC0B805C75FB0275FC04804075FB0275DD
:100CA600FC0675FB0375FC06804675FB0275FC06A3
:100CB600800675FB0275FC0E75FB0375FC0D803016
:100CC60075FB0253FCF175FB0375FC07802275FB6F
:100CD6000275FC0E800675FB0275FC0675FB037536
:100CE600FC0F800C75FB0253FCF175FB03E4F5FC6D
:100CF600D3EB9409EA94005003020DA1900054E04E
:100D0600B40A004003020DAD900D15F828287302B1
:100D16000D33020D3B020D43020D51020D59020D1A
:100D260067020D6F020D7D020D8B020D9375FB049C
:100D360075FC0A805E75FB0453FCF1801C75FB0490
:100D460075FC0C75FB0575FC0B805C75FB0475FC6E
:100D560004804075FB0475FC0675FB0575FC068072
:100D66004675FB0475FC06800675FB0475FC0E755E
:100D7600FB0575FC0D803075FB0453FCF175FB0516
:100D860075FC07802275FB0475FC0E800675FB0456
:100D960075FC0675FB0575FC0F800C75FB0453FC92
:100DA600F175FB05E4F5FCE9B40A004003020E43C5
:100DB600900DBDF8282873020DDB020DE3020DEB42
:100DC600020DF8020E00020E0D020E15020E220290
:100DD6000E2F020E3775FB0675FC0A805A75FB0648
:100DE60053FCF1801B75FB0675FC0C75FB0775FC47
:100DF6000B2275FB0675FC04803D75FB0675FC062B
:100E060075FB0775FC062275FB0675FC06800675E4
:100E1600FB0675FC0E75FB0775FC0D2275FB06536C
:100E2600FCF175FB0775FC072275FB0675FC0E8049
:0D0E36000675FB0675FC0675FB0775FC0FC5
:010E4300228C
:0728750075FB0653FCFE2277
:07287C0075FB0643FC01227D
:0221F300C11118
:0D274300E4F5E9F5EDF5EAF5EB439B022224
:0A278000E49000D4F0A3F0A3F022CF
:0628A70012274302278006
:102167009000D6E0FEC3EF9E64016007C3EE9FFEBA
:10217700BE02149000D57401F09000D4E0C394FF20
:102187005012E004F0800DE49000D5F09000D4E008
:10219700600214F09000D6EFF030110C9000D4E0FC
:1021A700C3940A5011C211229000D4E0D394644022
:0621B70005D21112248D77
:0121BD0022FF
:0528AD007F010221671C
:0528B2007F0202216716
:0528B7007F0302216710
:1026F70053DC7F43DD807F807E257D007C00021FC9
:01270700A32E
:1026C00030F80BE59A120460C2F8D2128002C212EE
:0226D000A21254
:0126D20022E5
:0821F5004100B4004100B500F7
:1024F8001225FD5389F75389FB5389FD43890190C0
:1025080000B474FCF0A37466F0758CFCF58AD2A94B
:03251800D28C2240
:1025FD00E49000ADF09000AFF09000B1F0A3F0903A
:0C260D0000AEF09000B0F09000B3F0229E
:03000B00021CEAEA
:101CEA00C0E0C0F0C083C082C0D075D000C000C0C0
:101CFA00069000B4E0F58CA3E0F58A9000ADE0040C
:101D0A00F0C3940A4005E4F0A304F09000AFE004A5
:101D1A00F0C394644005E4F0A304F09000B1E475C4
:101D2A00F0011204E9FEC3E5F094E8EE9403400AD8
:101D3A009000B1E4F0A3F0A304F0D006D000D0D014
:091D4A00D082D083D0F0D0E03249
:1026D30053897F5389BF4389205389EF758DCE7505
:0326E3008BCE2279
:03001B000228CDEB
:0128CD0032D8
:10134F00EF14604414606F1470030213EE147003F3
:10135F0002142A2404600302148EA2AF920FC2AFAC
:10136F0075C7AA75C755439780A20F92AFA2AF92C8
:10137F000FC2AF75C7AA75C7555397BFA20F92AFCC
:10138F00E59630E7FB021455A2AF920FC2AF75C7B7
:10139F00AA75C75553977FA20F92AFA2AF920FC2F4
:1013AF00AF75C7AA75C755439740A20F92AFE59681
:1013BF0030E6FB021455A2AF920FC2AF75C7AA75E4
:1013CF00C755439720A20F92AFE59630E5FBA2AF2A
:1013DF00920FC2AF75C7AA75C7555396FB8027A248
:1013EF00AF920FC2AF75C7AA75C755439710A20F1B
:1013FF0092AFE59630E4FBA2AF920FC2AF75C7AACA
:10140F0075C755439604A20F92AFA2AF920FC2AF0A
:10141F0075C7AA75C7555396FD804DA2AF920FC2DF
:10142F00AF75C7AA75C75553977FA20F92AFA2AFDB
:10143F00920FC2AF75C7AA75C7555397BFA20F9228
:10144F00AFE59630E3FBA2AF920FC2AF75C7AA7597
:10145F00C7555396FBA20F92AFA2AF920FC2AF75B3
:10146F00C7AA75C755439602A20F92AFA2AF920FAC
:10147F00C2AF75C7AA75C7555396FEA20F92AFE5B7
:05148F009720E0FB22A4
:1023ED0075985243892053877F538EEF53C4DFABCB
:1023FD0007AA06A905A804E47F807E70FDFC1205DE
:09240D00EDEFF404F58DD28E22EE
:10243E00759852438920438780538EEF53C4DFAB88
:10244E0007AA06A905A804E4FF7EE1FDFC1205ED2E
:08245E00EFF404F58DD28E228B
:1023990075985243892053877F438E1053C4DFAB0E
:1023A90007AA06A905A8047F007E467D057C0012C0
:0A23B90005EDEFF404F58DD28E223D
:1023C300759852438920438780438E1053C4DFABF3
:1023D30007AA06A905A8047F007E8C7D0A7C00124B
:0A23E30005EDEFF404F58DD28E2213
:101DBB009000BC1206A375985253877F53C4F84307
:101DCB00C4209000BCE0F8A3E0F9A3E0FAA3E0FB89
:101DDB007F007E467D057C001205EDC3E49FFFE48A
:101DEB009EFE74019DFDE49CFC78081206908FC644
:101DFB009000BCE0F8A3E0F9A3E0FAA3E0FB7F00BE
:101E0B007E467D057C001205EDC3E49FFF8FC54325
:031E1B00C40822D6
:101E1E009000C01206A375985243878053C4F843AE
:101E2E00C4209000C0E0F8A3E0F9A3E0FAA3E0FB21
:101E3E007F007E8C7D0A7C001205EDC3E49FFFE4DB
:101E4E009EFE74019DFDE49CFC78081206908FC6E0
:101E5E009000C0E0F8A3E0F9A3E0FAA3E0FB7F0056
:101E6E007E8C7D0A7C001205EDC3E49FFF8FC54377
:031E7E00C4082273
:101FA3009000531206A375F85253C4F8900053E0FF
:101FB300F8A3E0F9A3E0FAA3E0FB7F007E8C7D0A9F
:101FC3007C001205EDC3E49FFFE49EFE74019DFDBA
:101FD300E49CFC78081206908FC6900053E0F8A3A7
:101FE300E0F9A3E0FAA3E0FB7F007E8C7D0A7C008E
:0D1FF3001205EDC3E49FFF8FC543C4082213
:0727C9003098FDAF99C298A2
:0127D00022E6
:0827D100C2998F993099FD2295
:0727D90030F8FDAF9AC2F8D1
:0127E00022D6
:0827E100C2F98F9A30F9FD22C4
:10263400E4F5B1F5B2F5B3F5B4F5B5F5B6F5ACF529
:0A264400ADF5DAF5DBF5DCF5DD227B
:1025A20075B1FFE4F5B275B3FFF5B475B5FFF5B6D5
:1025B20075ACFFF5AD75DAFFF5DB75DCFFF5DD22F5
:10264E0075C7AA75C755A2AF920FC2AF75C7AA7547
:0A265E00C755439F80A20F92AF22E0
:0428C00043AD802282
:10223E00EF640A701C30F811E59AB4130CC2F83032
:10224E00F8FDE59AB411F6C2F830F9FDC2F9759AA7
:10225E000D30F811E59AB4130CC2F830F8FDE59A7A
:0D226E00B411F6C2F830F9FDC2F98F9A22C2
:061AB10090FFF812070689
:101AB700850D83850E821206AF00000000E47FFFCC
:101AC7007EFFFDFC850D83850E82E0F8A3E0F9A378
:101AD700E0FAA3E0FBC312067F504C900004120704
:101AE7002AE0FCA3E0FDA3E0FEA3E02401FFE43E1F
:101AF700FEE43DFDE43CFC90000412072A1206A315
:101B0700850D83850E82E0FCA3E0FDA3E0FEA3E044
:101B17002401FFE43EFEE43DFDE43CFC850D8385A6
:071B27000E821206A3809656
:061B2E009000080207060A
:10258100538EF7438901D28CEF4E6012758AF7752D
:102591008CFF308DFDC28DEF1F70ED1E80EAC28C65
:0125A1002217
:1020B5009000C41206A3538EF7438901D28CE4FF26
:1020C500FEFDFC9000C4E0F8A3E0F9A3E0FAA3E06C
:1020D500FBC312067F602F758A65758CFC308DFDFC
:1020E500C28D9000C4E0FCA3E0FDA3E0FEA3E024C4
:1020F500FFFFEE34FFFEED34FFFDEC34FFFC9000F6
:09210500C41206A380B8C28C22AA
:10210E009000C81206A3538EEF438910D28EE4FFBF
:10211E00FEFDFC9000C8E0F8A3E0F9A3E0FAA3E00E
:10212E00FBC312067F602F758B65758DFC308FFD9E
:10213E00C28F9000C8E0FCA3E0FDA3E0FEA3E02464
:10214E00FFFFEE34FFFEED34FFFDEC34FFFC90009C
:09215E00C81206A380B8C28E224B
:102000009000CC1206A375C40243C408E4FFFEFD91
:10201000FC9000CCE0F8A3E0F9A3E0FAA3E0FBC356
:1020200012067F603275C53375C6F5E5C430E4FB32
:1020300053C4EF9000CCE0FCA3E0FDA3E0FEA3E0DE
:1020400024FFFFEE34FFFEED34FFFDEC34FFFC9087
:0B20500000CC1206A380B553C4F72299
:101EE3009000D01206A3538FFB538FFD538FFEE454
:101EF300F586538FDF438F08E4FFFEFDFC9000D08F
:101F0300E0F8A3E0F9A3E0FAA3E0FBC312067F60C5
:101F13002CE58F30E4FB538FEF9000D0E0FCA3E07F
:101F2300FDA3E0FEA3E024FFFFEE34FFFEED34FF4C
:101F3300FDEC34FFFC9000D01206A380BB538FF757
:011F4300227B
:101494000A3D3D3D3D3D3D3D3D3D3D3D3D3D3D3DAB
:1014A4003D3D3D3D3D3D3D3D3D3D3D3D3D3D3D3D68
:1014B4003D3D3D3D3D3D3D3D3D3D3D3D3D3D3D3D58
:1014C4003D3D3D3D3D3D3D3D3D3D3D3D3D3D3D3D48
:1014D4003D3D3D3D3D000A2A2020436F70797269ED
:1014E4006768742863292032303135204E75766F51
:1014F400746F6E20546563686E6F6C6F67792043F8
:101504006F72702E20416C6C20726967687473204E
:1015140072657365727665642E2020000A2A202085
:10152400436F6E7461637420452D4D61696C3A207C
:101534004D6963726F432D38626974406E75766FBE
:10154400746F6E2E636F6D202020202020202020B9
:101554002020202020202020202020202020202087
:1015640020000A2A202044656D6F20566572736935
:101574006F6E20203A202532642E2532642E2532C7
:1015840064000A2A202046696E69736865642044F1
:10159400617465203A202532642E2532642E25326A
:0215A4006400E1
:101F44007BFF7A1479941208287BFF7A1479DA12C9
:101F540008287BFF7A1579201208287BFF7A1579E7
:101F640066900056E4F0A304F0E4A3F0A3F0A3F019
:101F7400A3F01208287BFF7A15798690005674071F
:101F8400F0A374DFF0A3E4F0A37405F0A3E4F0A3DA
:0F1F9400741FF01208287BFF7A14799402082832
:030000000219865C
:10198600787FE4F6D8FD9000007FFF7E01E4F0A3A7
:0A199600DFFCDEFA7581220219DB86
:1019A000021BA7E493A3F8E493A34003F68001F29B
:1019B00008DFF48029E493A3F85407240CC8C33348
:1019C000C4540F4420C8834004F456800146F6DF17
:1019D000E4800B01020408102040809021BEE47EC8
:1019E000019360BCA3FF543F30E509541FFEE4930C
:1019F000A360010ECF54C025E060A840B8E493A3D3
:101A0000FAE493A3F8E493A3C8C582C8CAC583CAFD
:101A1000F0A3C8C582C8CAC583CADFE9DEE780BEB5
:0121FD0000E1
:10040000BB010CE58229F582E5833AF583E02250B1
:1004100006E92582F8E622BBFE06E92582F8E222FB
:0D042000E58229F582E5833AF583E4932215
:10042D00BB010FF8E58229F582E5833AF583E028D3
:10043D00F0225009C58229F8E58226F622BBFE0975
:10044D00C58229F8E22582F222F8EA2583F583E9AF
:03045D00932822BF
:10046000BB010689828A83F0225002F722BBFE017B
:02047000F32275
:10047200F8BB010DE58229F582E5833AF583E8F0C0
:10048200225006E92582C8F622BBFE05E92582C86C
:02049200F22254
:10049400BC000BBE0029EF8DF084FFADF022E4CC4C
:1004A400F875F008EF2FFFEE33FEEC33FCEE9DEC15
:1004B400984005FCEE9DFE0FD5F0E9E4CEFD22ED5B
:1004C400F8F5F0EE8420D21CFEADF075F008EF2FA5
:1004D400FFED33FD4007985006D5F0F222C398FD96
:0504E4000FD5F0EA2233
:1004E900C5F0F8A3E028F0C5F0F8E582158270029E
:0604F9001583E038F0223B
:1004FF00BB0110E58229F582E5833AF583E0F5F03B
:10050F00A3E0225009E92582F886F008E622BBFE17
:10051F000AE92582F8E2F5F008E222E5832AF5835D
:08052F00E993F5F0A3E9932222
:10053700BB010DC58229C582C5833AC5830204E97B
:100547005011C58229F808E5F026F618F5F0E5827E
:1005570036F622BBFE11C58229F808E225F0F5F030
:10056700F218E23582F222F8E58229F582E5832A3C
:0D057700F58374019325F0F5F0E49338222C
:10058400F8BB0111E58229F582E5833AF583E8F0A9
:10059400E5F0A3F0225009E92582C8F608A6F02266
:0D05A400BBFE09E92582C8F2E5F008F2224D
:1005B10075F008758200EF2FFFEE33FECD33CDCC01
:1005C10033CCC58233C5829BED9AEC99E582984084
:1005D1000CF582EE9BFEED9AFDEC99FC0FD5F0D661
:1005E100E4CEFBE4CDFAE4CCF9A88222B800C1B98B
:1005F1000059BA002DEC8BF084CFCECDFCE5F0CBC9
:10060100F97818EF2FFFEE33FEED33FDEC33FCEB01
:1006110033FB10D703994004EB99FB0FD8E5E4F9BC
:10062100FA227818EF2FFFEE33FEED33FDEC33FCA9
:10063100C933C910D7059BE99A4007EC9BFCE99A9D
:10064100F90FD8E0E4C9FAE4CCFB2275F010EF2FE2
:10065100FFEE33FEED33FDCC33CCC833C810D707E2
:100661009BEC9AE899400AED9BFDEC9AFCE899F81D
:0E0671000FD5F0DAE4CDFBE4CCFAE4C8F922B0
:10067F00EB9FF5F0EA9E42F0E99D42F0E89C45F0D1
:01068F002248
:10069000E8600FECC313FCED13FDEE13FEEF13FF48
:0306A000D8F1226C
:0C06A300ECF0A3EDF0A3EEF0A3EFF022CA
:1006AF00A8828583F0D083D0821206C61206C612A6
:1006BF0006C61206C6E473E493A3C583C5F0C583CB
:1006CF00C8C582C8F0A3C583C5F0C583C8C582C895
:0106DF0022F8
:1006E000BB010789828A830207595005E9F802078E
:1006F00050BBFE05E9F802078289828A8302078BD4
:060700008A838982E47384
:10070600E50E2582F582E50D3583F583B50D048565
:10071600820E2210AF0685820EF50D2285820EF519
:040726000DD2AF221F
:0D072A00E50E2582F582E50D3583F583226D
:1007BD00E5082456F582E43400F583E0050822901F
:1007CD000053300703900056E475F00112076202E2
:1007DD0007372000E97F2ED2008018EF540F2490A8
:1007ED00D43440D4FF30040BEF24BFB41A005003AF
:1007FD002461FFE50960021509050CE50C70020581
:10080D000B30070E900053E475F001120762EF02F2
:10081D00046002223E7403D2078003E4C207F50888
:10082D00900053120779E4F509F50BF50CE5096015
:10083D00077F2012080080F5750AFFC201C200C2B1
:10084D0002C203C205C206C2081207CCFF700D30EA
:10085D0007057F00120811AF0CAE0B22B4255FC245
:10086D00D5C2041207CCFF24D0B40A00501A75F07B
:10087D000A780930D50508B6FF0106C6A426F6206C
:10088D00D5047002D20380D924CFB41A00EF5004DE
:10089D00C2E5D204020A12D20180C6D20080C0D2B3
:1008AD000280BCD2D580BAD20580B47F2012080058
:1008BD002002077401B5090040F11207BDFF1208AF
:1008CD000002083AD208D20680951207BDFB120726
:1008DD00BDFA1207BDF94A4B700679E37A0A7BFF20
:1008ED0020022EE509602A7E008E82758300120497
:1008FD000060060EEE650A70F0C2D5EBC0E0EAC0EE
:10090D00E0E9C0E0EE120A59D0E0F9D0E0FAD0E00B
:10091D00FB120737FF60AAEBC0E0EAC0E0E9C0E0D8
:10092D00120800D0E02401F9D0E03400FAD0E0FB49
:10093D00E50A0460DCD50AD980877BFF7A0A7955F0
:10094D00D202809C791080027908C206C208800804
:10095D00D2D5790A8004790AC2D5E50A047002F568
:10096D000AE4FAFDFEFF1207BDFC7B0820011312FD
:10097D0007BDFD7B1030000A1207BDFE1207BDFF3B
:10098D007B20EC3382D592D55013C3E43000069F03
:10099D00FFE49EFEE42001039DFDE49CFCE4CBF806
:1009AD00C201EC700CCFCECDCCE824F8F870F380FA
:1009BD0017C3EF33FFEE33FEED33FDEC33FCEB33BA
:1009CD00FB994002FB0FD8E9EB300105F8D0E0C4EC
:1009DD0048B201C0E00AEC4D4E4F78207B0070C24A
:1009ED00EAB50A0040BCC0E0120A5BD0F0D0E020AE
:1009FD000104C4C0E0C4B201C0F01207E9D0F0D5C3
:100A0D00F0EB02083A12079708D75309515808A876
:100A1D004C08A44209554F095D44095D4908BD4381
:080A2D0009635509474609471A
:100A3500450947470B035008AC2D08B02E08D32BAA
:100A450008B42308D1200AEC2A086C48000008CB1A
:100A55003F3F3F00790AA2D5200314300509B9109C
:100A6500020404B9080104A2D5200602500104209D
:100A750002689202B509005034C0E07F20300319A6
:100A85007F30A20272067205500F120AB2C202C26C
:100A950006C205C2087F30800F300503E9C0E012A9
:100AA5000800300503D0E0F9D0E0B509CC300517D2
:100AB5007F30B9100C1208007F583004077F78800A
:100AC50003B908031208003002057F2D0208007FD4
:100AD500202008F87F2B2006F322920280CF286E73
:100AE500756C6C2900D2011207BD3001F8C201787E
:100AF5000930D50108F602086C2D504349581207F4
:100B0500BD2403B405004001E4900AFE931207F1E9
:0D0B1500743A1207F1D20375090402095168
:10073700BB010689828A83E0225002E722BBFE02C0
:09074700E32289828A83E49322F3
:09075000E6FB08E6FA08E6F922CE
:09075900E0FBA3E0FAA3E0F922A1
:10076200F8E0FBA3A3E0F925F0F0E5821582700220
:070772001583E0FA38F022C4
:09077900EBF0A3EAF0A3E9F02281
:09078200E2FB08E2FA08E2F922A8
:0C078B00E493FB740193FA740293F922CA
:10079700D083D082F8E4937012740193700DA3A3F1
:1007A70093F8740193F5828883E473740293686005
:0607B700EFA3A3A380DF05
:00000001FF
