:061D3800746573740A00DB
:0615DF0090003912023FEA
:1015E50090003D12024B00000000900039E0FCA382
:1015F500E0FDA3E0FEA3E0FFA3E0F8A3E0F9A3E08C
:10160500FAA3E0FBC312021B504A900041E0FCA381
:10161500E0FDA3E0FEA3E0FFE4FAF9F8EF2401FF03
:10162500EA3EFEE93DFDE83CFC90004112023F9098
:10163500003DE0FCA3E0FDA3E0FEA3E0FFE4F8EF3E
:101645002401FFEA3EFEE93DFDE83CFC90003D1229
:04165500023F80963A
:01165900226E
:101A63007F02120907121D447F807E257D007C00C2
:101A7300121738D2B0D2B17BFF7A1D79381203D650
:0E1A83007F107E277D007C001215DF80EA2296
:041D4400121C5522F6
:091CE10053ACFE43AD01C2B02278
:101A3400EF4E602A900063EEF0A3EFF0AF05A3EC45
:101A4400F0A3EFF0AF03A3EAF0A3EFF0E4A3F0A355
:0F1A5400F0A3F0A3F0900062F090006104F02284
:061D3E00E4900061F022B8
:101CC5007B017A007D017C007F057E00121A34229B
:1012E000900061E07003021398900065E07002A323
:1012F000E07003021398900062E07038D3900066AB
:10130000E09400900065E094005003021398900070
:1013100069E475F001120085FED3900064E095F059
:10132000900063E09E5071E4900069F0A3F090009B
:101330006204F022900062E06401705C90006975C4
:10134000F001120085FED3900066E095F0900065F4
:10135000E09E5044900068E09400900067E09400A4
:10136000402B90006BE475F001120085FED39000D5
:1013700068E095F0900067E09E5005E4900061F011
:10138000900061E07007900065F0A3F022E4900007
:0913900069F0A3F0900062F02264
:031D4C007F0022F3
:031D4F007F0022F0
:031D52007F0022ED
:031D55007F0022EA
:031D58007F0022E7
:071D1C00121399121D5B2256
:101C1C00900037E0242CF582E43400F583EFF0904B
:0D1C2C000037E004F0C3940A4002E4F02207
:101A9100900037E0FF900036E0B507037F00229009
:101AA1000036E0242CF582E43400F583E0FF900059
:0B1AB10036E004F0C3940A4002E4F0A9
:011ABC002207
:101ABD00900037E0FFA3E0B507037F0022900038C8
:101ACD00E0242CF582E43400F583E0FF900038E04B
:091ADD0004F0C3940A4002E4F095
:011AE60022DD
:101CA300EF75F00BA42408F582E43400F583E0FF1C
:011CB300220E
:101A0000EF75F00BA42406F582E43400F583ECF0C6
:101A1000A3EDF0EF75F00BA42409F582E43400F592
:101A200083EBF0EF75F00BA4240AF582E43400F5A3
:041A300083E4F02239
:091CEA00900037E0900036F02272
:011D5B002265
:10139900E4900036F0A3F0A3F0FFEFC39404505893
:1013A900EF75F00BA42406F582E43400F583E4F02C
:1013B900A37464F0EF75F00BA42403F582E4340000
:1013C900F5837402F0EF75F00BA42408F582E43478
:1013D90000F583E4F0EF75F00BA42409F582E434F9
:1013E90000F583E4F0EF75F00BA4240AF582E434E8
:1013F90000F583E4F00F80A290000074FFF0A3745D
:101409001DF0A3744CF090000B74FFF0A3741DF051
:10141900A3744FF090001674FFF0A3741DF0A37429
:0214290052F07F
:01142B00229E
:0506D00090006DEFF049
:1006D500E075F00BA42400F9740035F0FAA3740159
:1006E500F0A3EAF0A3E9F090006EE0FBA3E0FAA323
:1006F500E0F912027C12029CEF700302086290007E
:100705006EE0FBA3E0FAA3E0F9900003120003C337
:100715009405501190006EE0A3E0A3E090000374EF
:10072500051200632290006EE0FBA3E0FAA3E0F956
:10073500900003120003C3940A501190006EE0A3C9
:10074500E0A3E090000374011200302290006EE0F7
:10075500FBA3E0FAA3E0F9900008120003701D90D6
:10076500006EE0A3E0A3E09000087401120063901E
:10077500006DE075F003A404FF121C1C90006EE0F0
:10078500FBA3E0FAA3E0F990000612009BD39400C6
:10079500E5F09400500302090690006EE0A3E0A383
:1007A500E090000612009BFFAEF090006EE0A3E023
:1007B500A3E090000412009BC39FE5F09E503F907C
:1007C500006EE0A3E0A3E090000612009BFFAEF0F0
:1007D50090006EE0A3E0A3E0900004E475F0011240
:1007E50000D3FCE5F06F7002EC6E60030209069021
:1007F500006DE075F003A42403FF121C1C22900079
:100805006EE0FBA3E0FAA3E0F9900009120003D320
:100815009400500302090690006EE0A3E0A3E09067
:100825000009120003FF90006EE0A3E0A3E0900032
:100835000A7401120030C39F500302090690006E2E
:10084500E0FBA3E0FAA3E0F990000AE4120063904C
:10085500006DE075F003A404FF121C1C2290006ECD
:10086500E0FBA3E0FAA3E0F9900003120003D394A0
:1008750005401290006EE0A3E0A3E090000374052C
:10088500120063805690006EE0FBA3E0FAA3E0F946
:10089500900003120003601290006EE0A3E0A3E055
:1008A50090000374FF120030803190006EE0FBA3CE
:1008B500E0FAA3E0F9900008120003B4011D9000CE
:1008C5006EE0A3E0A3E0900008E412006390006DE1
:1008D500E075F003A42402FF121C1C90006EE0FBDF
:1008E500A3E0FAA3E0F9900004E4F5F012012090EA
:1008F500006EE0FBA3E0FAA3E0F990000AE4120021
:01090500638E
:0109060022CE
:101C3900E490008AF090008AE0C39404500DE0FF1C
:0B1C49001206D090008AE004F080EA50
:011C5400226D
:091CF30053ACFD43AD02C2B12265
:0C1CD5007F807E257D007C0012173822E5
:10090700EF14700302098E1470030209F5147003C3
:10091700020A49147003020A9C24046003020B00B4
:10092700A2AF9209C2AF75C7AA75C755439780A2F0
:100937000992AFA2AF9209C2AF75C7AA75C755533F
:1009470097BFA20992AFE59630E7FBA2AF9209C223
:10095700AF75C7AA75C7555396FBA20992AFA2AF49
:100967009209C2AF75C7AA75C755439602A20992E5
:10097700AFA2AF9209C2AF75C7AA75C7555396FE06
:10098700A20992AF020B00A2AF9209C2AF75C7AA24
:1009970075C75553977FA20992AFA2AF9209C2AF0D
:1009A70075C7AA75C755439740A20992AFE5963018
:1009B700E6FBA2AF9209C2AF75C7AA75C755539692
:1009C700FBA20992AFA2AF9209C2AF75C7AA75C7BA
:1009D70055439602A20992AFA2AF9209C2AF75C75B
:1009E700AA75C7555396FEA20992AF020B00A2AF94
:1009F7009209C2AF75C7AA75C755439720A2099236
:100A0700AFE59630E5FBA2AF9209C2AF75C7AA75ED
:100A1700C7555396FBA20992AFA2AF9209C2AF7511
:100A2700C7AA75C7555396FDA20992AFA2AF9209FF
:100A3700C2AF75C7AA75C7555396FEA20992AF02F2
:100A47000B00A2AF9209C2AF75C7AA75C7554397E6
:100A570010A20992AFE59630E4FBA2AF9209C2AFAC
:100A670075C7AA75C755439604A20992AFA2AF925C
:100A770009C2AF75C7AA75C7555396FDA20992AFAC
:100A8700A2AF9209C2AF75C7AA75C7555396FEA202
:100A97000992AF8064A2AF9209C2AF75C7AA75C7A2
:100AA7005553977FA20992AFA2AF9209C2AF75C7FC
:100AB700AA75C7555397BFA20992AFE59630E3FBD6
:100AC700A2AF9209C2AF75C7AA75C7555396FBA2C5
:100AD7000992AFA2AF9209C2AF75C7AA75C75543AE
:100AE7009602A20992AFA2AF9209C2AF75C7AA75C3
:0F0AF700C7555396FEA20992AFE59720E0FB2268
:101B650075985243892053877F538EEF53C4DFAB5B
:101B750007AA06A905A804E47F807E70FDFC120172
:091B850089EFF404F58DD28E22E3
:101B8E00759852438920438780538EEF53C4DFAB41
:101B9E0007AA06A905A804E4FF7EE1FDFC1201894F
:081BAE00EFF404F58DD28E2244
:101AE70075985243892053877F438E1053C4DFABC9
:101AF70007AA06A905A8047F007E467D057C00127B
:0A1B07000189EFF404F58DD28E225F
:101B1100759852438920438780438E1053C4DFABAD
:101B210007AA06A905A8047F007E8C7D0A7C001205
:0A1B31000189EFF404F58DD28E2235
:10165A0090007112023F75985253877F53C4F84322
:10166A00C420900071E0F8A3E0F9A3E0FAA3E0FB3C
:10167A007F007E467D057C00120189C3E49FFFE45A
:10168A009EFE74019DFDE49CFC780812022C8FC614
:10169A00900071E0F8A3E0F9A3E0FAA3E0FB7F0071
:1016AA007E467D057C00120189C3E49FFFE49EFE0D
:0F16BA0074019DFDE49CFCEFE48FC543C408223E
:1016C90090007512023F75985243878053C4F843BE
:1016D900C420900075E0F8A3E0F9A3E0FAA3E0FBC9
:1016E9007F007E8C7D0A7C00120189C3E49FFFE4A0
:1016F9009EFE74019DFDE49CFC780812022C8FC6A5
:10170900900075E0F8A3E0F9A3E0FAA3E0FB7F00FD
:101719007E8C7D0A7C00120189C3E49FFFE49EFE52
:0F17290074019DFDE49CFCEFE48FC543C40822CE
:1017380090003912023F75F85253C4F8900039E00E
:10174800F8A3E0F9A3E0FAA3E0FB7F007E8C7D0A12
:101758007C00120189C3E49FFFE49EFE74019DFD95
:10176800E49CFC780812022C8FC6900039E0F8A39C
:10177800E0F9A3E0FAA3E0FB7F007E8C7D0A7C0001
:10178800120189C3E49FFFE49EFE74019DFDE49C61
:09179800FCEFE48FC543C40822F4
:071CFC003098FDAF99C2987A
:011D030022BD
:081D0400C2998F993099FD226C
:071D0C0030F8FDAF9AC2F8A8
:011D130022AD
:081D1400C2F98F9A30F9FD229B
:101C5500E4F5B1F5B2F5B3F5B4F5B5F5B6F5ACF512
:0A1C6500ADF5DAF5DBF5DCF5DD2264
:101BFC0075B1FFE4F5B275B3FFF5B475B5FFF5B685
:101C0C0075ACFFF5AD75DAFFF5DB75DCFFF5DD22A4
:101C6F0075C7AA75C755A2AF9209C2AF75C7AA7536
:0A1C7F00C755439F80A20992AF22CF
:041D480043AD802205
:1019C300EF640A701C30F811E59AB4130CC2F830B6
:1019D300F8FDE59AB411F6C2F830F9FDC2F9759A2B
:1019E3000D30F811E59AB4130CC2F830F8FDE59AFE
:0D19F300B411F6C2F830F9FDC2F98F9A2246
:06154F0090FFF81202A259
:10155500850D83850E8212024B00000000E47FFF9B
:101565007EFFFDFC850D83850E82E0F8A3E0F9A3DF
:10157500E0FAA3E0FBC312021B50589000041202CC
:10158500C6E0FCA3E0FDA3E0FEA3E0FFE4FAF9F862
:10159500EF2401FFEA3EFEE93DFDE83CFC90000436
:1015A5001202C612023F850D83850E82E0FCA3E080
:1015B500FDA3E0FEA3E0FFE4FAF9F8EF2401FFEA5A
:1015C5003EFEE93DFDE83CFC850D83850E82120259
:0315D5003F808ACA
:0715D8009000081202A2229C
:101BDB00538EF7438901D28CEF4E6012758AF775DD
:101BEB008CFF308DFDC28DEF1F70011E80EAC28C01
:011BFB0022C7
:1018C50090007912023F538EF7438901D28CE4FFD1
:1018D500FEFDFC900079E0F8A3E0F9A3E0FAA3E0AF
:1018E500FBC312021B6033758A65758CFC308DFD58
:1018F500C28D900079E0FCA3E0FDA3E0FEA3E0FF2C
:1019050074FFEF24FFFFEE34FFFEED34FFFDEC34F2
:0D191500FFFC90007912023F80B4C28C22CA
:1019220090007D12023F538EEF438910D28EE4FF66
:10193200FEFDFC90007DE0F8A3E0F9A3E0FAA3E04D
:10194200FBC312021B6033758B65758DFC308FFDF6
:10195200C28F90007DE0FCA3E0FDA3E0FEA3E0FFC8
:1019620074FFEF24FFFFEE34FFFEED34FFFDEC3495
:0D197200FFFC90007D12023F80B4C28E2267
:1018660090008112023F75C40243C408E4FFFEFDE6
:10187600FC900081E0F8A3E0F9A3E0FAA3E0FBC343
:1018860012021B603675C53375C6F5E5C430E4FB38
:1018960053C4EF900081E0FCA3E0FDA3E0FEA3E0CB
:1018A600FF74FFEF24FFFFEE34FFFEED34FFFDEC87
:0F18B60034FFFC90008112023F80B153C4F7222F
:1017A10090008512023F538FFB538FFD538FFEE450
:1017B100F586538FDF438F08E4FFFEFDFC90008523
:1017C100E0F8A3E0F9A3E0FAA3E0FBC312021B6077
:1017D10030E58F30E4FB538FEF900085E0FCA3E010
:1017E100FDA3E0FEA3E0FF74FFEF24FFFFEE34FF53
:1017F100FEED34FFFDEC34FFFC90008512023F80CA
:05180100B7538FF72230
:10197F00A2AF9209C2AF75C7AA75C75553977FA279
:10198F000992AFA2AF9209C2AF75C7AA75C75543E7
:10199F009740A20992AFE59630E6FB75FA13121B3A
:1019AF00FC75F94075E5FF75E6FF75E7FF75EE9F6E
:0419BF0043F9802246
:101CB400E4FFEFC3942050088FFBE4F5FC0F80F29F
:011CC40022FD
:10142C00E490008BF090008BE0C39420500BE0F51F
:10143C00FB75FCFFE004F080EC7FE87E037D007C14
:10144C00001218C5121B3B121B3BE490008BF09052
:10145C00008BE0C3940A504B121CB4E0FF120C1822
:10146C0090008BE0FF120D1090008BE0FF120E0825
:10147C0090008BE0FF120F0090008BE0FF120FF832
:10148C0090008BE0FF1210F090008BE0FF1211E83F
:10149C007F2C7E017D007C001218C590008BE0042F
:1014AC00F080AC121B3B7FF47E017D007C00121897
:0114BC00C56A
:0114BD00220C
:101B3B00E4F5E5F5E6F5E7F5EE7FF47E01FDFC1245
:101B4B0018C575E5FF75E6FF75E7FF75EE9F7FF42A
:0A1B5B007E017D007C001218C522F7
:100C1800EFB40A004003020D0F900C28F82828733F
:100C2800020C46020C53020C5A020C73020C860288
:100C38000C9F020CB8020CD1020CDE020CF7E4F592
:100C4800FB75FC0F75FB1C75FC0622E4F5FB75FCB7
:100C58000622E4F5FB75FC0D75FB1F75FC0475FB9E
:100C68000175FC0275FB1C75FC0222E4F5FB75FCA2
:100C78000F75FB1F75FC0475FB0175FC022275FBE3
:100C88001C75FC0475FB1F75FC0475FB0175FC02E3
:100C9800E4F5FB75FC0622E4F5FB75FC0B75FB1F00
:100CA80075FC0475FB0175FC0275FB1C75FC0422C0
:100CB800E4F5FB75FC0B75FB1C75FC0675FB1F75D5
:100CC800FC0475FB0175FC0222E4F5FB75FC0E754E
:100CD800FB1C75FC0422E4F5FB75FC0F75FB1C7509
:100CE800FC0675FB1F75FC0475FB0175FC0222E40C
:100CF800F5FB75FC0F75FB1C75FC0475FB1F75FC7B
:080D08000475FB0175FC0222D9
:100D1000EFB40A004003020E07900D20F828287354
:100D2000020D3E020D4B020D52020D6B020D7E02B2
:100D30000D97020DB0020DC9020DD6020DEF75FB25
:100D40000475FC0F75FB0275FC062275FB0475FC2F
:100D5000062275FB0475FC0D75FB0575FC0275FB21
:100D60000375FC0475FB0275FC022275FB0475FC1F
:100D70000F75FB0575FC0275FB0375FC042275FB02
:100D80000275FC0475FB0375FC0475FB0575FC021C
:100D900075FB0475FC062275FB0475FC0B75FB02E4
:100DA00075FC0475FB0375FC0475FB0575FC0222DC
:100DB00075FB0475FC0B75FB0275FC0675FB037572
:100DC000FC0475FB0575FC022275FB0475FC0E75B1
:100DD000FB0275FC042275FB0475FC0F75FB0275A4
:100DE000FC0675FB0375FC0475FB0575FC0222759A
:100DF000FB0475FC0F75FB0275FC0475FB0375FCA9
:080E00000475FB0575FC0222DC
:100E0800EFB40A004003020EFF900E18F82828736A
:100E1800020E36020E43020E4A020E63020E7602DC
:100E28000E8F020EA8020EC1020ECE020EE775FB4F
:100E38000875FC0F75FB0675FC062275FB0875FC2A
:100E4800062275FB0875FC0D75FB0975FC0275FB20
:100E58000775FC0475FB0675FC022275FB0875FC1A
:100E68000F75FB0975FC0275FB0775FC042275FB01
:100E78000675FC0475FB0975FC0275FB0775FC0417
:100E880075FB0875FC062275FB0875FC0B75FB06DF
:100E980075FC0475FB0975FC0275FB0775FC0422DB
:100EA80075FB0875FC0B75FB0675FC0675FB09756B
:100EB800FC0275FB0775FC042275FB0875FC0E75B2
:100EC800FB0675FC042275FB0875FC0F75FB06759F
:100ED800FC0675FB0975FC0275FB0775FC04227599
:100EE800FB0875FC0F75FB0675FC0475FB0975FCA2
:080EF8000275FB0775FC0422E2
:100F0000EFB40A004003020FF7900F10F82828737F
:100F1000020F2E020F3B020F42020F5B020F6E0206
:100F20000F87020FA0020FB9020FC6020FDF75FB79
:100F30000C75FC0F75FB0A75FC062275FB0C75FC25
:100F4000062275FB0C75FC0D75FB0D75FC0275FB1F
:100F50000B75FC0475FB0A75FC022275FB0C75FC15
:100F60000F75FB0D75FC0275FB0B75FC042275FB00
:100F70000A75FC0475FB0D75FC0275FB0B75FC0412
:100F800075FB0C75FC062275FB0C75FC0B75FB0ADA
:100F900075FC0475FB0D75FC0275FB0B75FC0422DA
:100FA00075FB0C75FC0B75FB0A75FC0675FB0D7566
:100FB000FC0275FB0B75FC042275FB0A75FC0475BD
:100FC000FB0C75FC0E2275FB0C75FC0F75FB0A758E
:100FD000FC0675FB0D75FC0275FB0B75FC04227598
:100FE000FB0C75FC0F75FB0A75FC0475FB0D75FC9D
:080FF0000275FB0B75FC0422E5
:100FF800EFB40A0040030210EF901008F828287395
:1010080002102602103302103A0210530210660230
:10101800107F0210980210B10210BE0210D775FBA3
:101028001075FC0F75FB0E75FC062275FB1075FC20
:10103800062275FB1075FC0D75FB0E75FC0275FB21
:101048001175FC0275FB0F75FC042275FB1075FC0D
:101058000F75FB1175FC0275FB0F75FC042275FBFF
:101068000E75FC0475FB1175FC0275FB0F75FC040D
:1010780075FB1075FC062275FB1075FC0B75FB0ED5
:1010880075FC0475FB1175FC0275FB0F75FC0422D9
:1010980075FB1075FC0B75FB0E75FC0675FB117561
:1010A800FC0275FB0F75FC042275FB0E75FC0475BC
:1010B800FB1075FC0E2275FB1075FC0F75FB0E7589
:1010C800FC0675FB1175FC0275FB0F75FC04227597
:1010D800FB1075FC0F75FB0E75FC0475FB1175FC98
:0810E8000275FB0F75FC0422E8
:1010F000EFB40A0040030211E7901100F8282873AA
:1011000002111E02112B02113202114B02115E025A
:1011100011770211900211A90211B60211CF75FBCD
:101120001475FC0F75FB1275FC062275FB1475FC1B
:10113000062275FB1475FC0D75FB1575FC0275FB1D
:101140001375FC0475FB1275FC022275FB1475FC0B
:101150000F75FB1575FC0275FB1375FC042275FBFE
:101160001275FC0475FB1575FC0275FB1375FC0408
:1011700075FB1475FC062275FB1475FC0B75FB12D0
:1011800075FC0475FB1575FC0275FB1375FC0422D8
:1011900075FB1475FC0B75FB1275FC0675FB15755C
:1011A000FC0275FB1375FC042275FB1275FC0475BB
:1011B000FB1475FC0E2275FB1475FC0F75FB127584
:1011C000FC0675FB1575FC0275FB1375FC04227596
:1011D000FB1475FC0F75FB1275FC0475FB1575FC93
:0811E0000275FB1375FC0422EB
:1011E800EFB40A0040030212DF9011F8F8282873C0
:1011F80002121602122302122A0212430212560285
:10120800126F0212880212A10212AE0212C775FBF7
:101218001875FC0F75FB1675FC062275FB1875FC16
:10122800062275FB1875FC0D75FB1975FC0275FB1C
:101238001775FC0475FB1675FC022275FB1875FC06
:101248000F75FB1975FC0275FB1775FC042275FBFD
:101258001675FC0475FB1975FC0275FB1775FC0403
:1012680075FB1875FC062275FB1875FC0B75FB16CB
:1012780075FC0475FB1975FC0275FB1775FC0422D7
:1012880075FB1875FC0B75FB1675FC0675FB197557
:10129800FC0275FB1775FC042275FB1675FC0475BA
:1012A800FB1875FC0E2275FB1875FC0F75FB16757F
:1012B800FC0675FB1975FC0275FB1775FC04227595
:1012C800FB1875FC0F75FB1675FC0475FB1975FC8E
:0812D8000275FB1775FC0422EE
:071D230075FB0A43FC0122DD
:101BB60075FB1475FC0C75FB1575FC0275FB13752E
:101BC600FC0475FB1275FC0475FB1875FC0975FBA6
:051BD6001675FC06225B
:071D2A0075FB1B43FC0122C5
:071D310075FB1643FC0822BC
:1014BE0075FB1B75FC01E4F5FB75FC0675FB0175F0
:1014CE00FC0175FB1C75FC0675FB1F75FC0875FB96
:1014DE000475FC0E75FB0275FC0475FB0675FC06A7
:1014EE0075FB0775FC0475FB0875FC0B75FB097520
:1014FE00FC0275FB0A75FC0675FB0B75FC0475FB8F
:10150E000C75FC0975FB0D75FC0275FB0E75FC0662
:10151E0075FB0F75FC0475FB1075FC0B75FB1175D7
:10152E00FC0275FB1475FC0675FB1675FC0675FB47
:10153E001775FC0475FB1875FC0B75FB1975FC0211
:01154E00227A
:100B06000A3D3D3D3D3D3D3D3D3D3D3D3D3D3D3D42
:100B16003D3D3D3D3D3D3D3D3D3D3D3D3D3D3D3DFF
:100B26003D3D3D3D3D3D3D3D3D3D3D3D3D3D3D3DEF
:100B36003D3D3D3D3D3D3D3D3D3D3D3D3D3D3D3DDF
:100B46003D3D3D3D3D000A2A2020436F7079726984
:100B56006768742863292032303135204E75766FE8
:100B6600746F6E20546563686E6F6C6F677920438F
:100B76006F72702E20416C6C2072696768747320E6
:100B860072657365727665642E2020000A2A20201D
:100B9600436F6E7461637420452D4D61696C3A2014
:100BA6004D6963726F432D38626974406E75766F56
:100BB600746F6E2E636F6D20202020202020202051
:100BC600202020202020202020202020202020201F
:100BD60020000A2A202044656D6F205665727369CD
:100BE6006F6E20203A202532642E2532642E25325F
:100BF60064000A2A202046696E6973686564204489
:100C0600617465203A202532642E2532642E253201
:020C1600640078
:101806007BFF7A0B79061203D67BFF7A0B794C1293
:1018160003D67BFF7A0B79921203D67BFF7A0B797C
:10182600D890003CE4F0A304F0E4A3F0A3F0A3F006
:10183600A3F01203D67BFF7A0B79F890003C74076D
:10184600F0A374DFF0A3E4F0A37405F0A3E4F0A31F
:10185600741FF01203D67BFF7A0B79061203D62289
:03000000021C8956
:101C8900787FE4F6D8FD9000007FFF7E01E4F0A3A1
:0A1C9900DFFCDEFA758121021A63F8
:10000300BB010CE58229F582E5833AF583E02250B2
:1000130006E92582F8E622BBFE06E92582F8E222FC
:0D002300E58229F582E5833AF583E4932216
:10003000BB010FF8E58229F582E5833AF583E028D4
:10004000F0225009C58229F8E58226F622BBFE0976
:10005000C58229F8E22582F222F8EA2583F583E9B0
:03006000932822C0
:10006300F8BB010DE58229F582E5833AF583E8F0D3
:10007300225006E92582C8F622BBFE05E92582C87F
:02008300F22267
:10008500C5F0F8A3E028F0C5F0F8E5821582700206
:060095001583E038F022A3
:10009B00BB0110E58229F582E5833AF583E0F5F0A3
:1000AB00A3E0225009E92582F886F008E622BBFE80
:1000BB000AE92582F8E2F5F008E222E5832AF583C6
:0800CB00E993F5F0A3E993228B
:1000D300BB010DC58229C582C5833AC5830200854C
:1000E3005011C58229F808E5F026F618F5F0E582E7
:1000F30036F622BBFE11C58229F808E225F0F5F099
:10010300F218E23582F222F8E58229F582E5832AA4
:0D011300F58374019325F0F5F0E493382294
:10012000F8BB0111E58229F582E5833AF583E8F011
:10013000E5F0A3F0225009E92582C8F608A6F022CE
:0D014000BBFE09E92582C8F2E5F008F222B5
:10014D0075F008758200EF2FFFEE33FECD33CDCC69
:10015D0033CCC58233C5829BED9AEC99E5829840EC
:10016D000CF582EE9BFEED9AFDEC99FC0FD5F0D6C9
:10017D00E4CEFBE4CDFAE4CCF9A88222B800C1B9F3
:10018D000059BA002DEC8BF084CFCECDFCE5F0CB31
:10019D00F97818EF2FFFEE33FEED33FDEC33FCEB6A
:1001AD0033FB10D703994004EB99FB0FD8E5E4F925
:1001BD00FA227818EF2FFFEE33FEED33FDEC33FC12
:1001CD00C933C910D7059BE99A4007EC9BFCE99A06
:1001DD00F90FD8E0E4C9FAE4CCFB2275F010EF2F4B
:1001ED00FFEE33FEED33FDCC33CCC833C810D7074B
:1001FD009BEC9AE899400AED9BFDEC9AFCE899F886
:0E020D000FD5F0DAE4CDFBE4CCFAE4C8F92218
:10021B00EB9FF5F0EA9E42F0E99D42F0E89C45F039
:01022B0022B0
:10022C00E8600FECC313FCED13FDEE13FEEF13FFB0
:03023C00D8F122D4
:0C023F00ECF0A3EDF0A3EEF0A3EFF02232
:10024B00A8828583F0D083D08212026212026212DE
:10025B000262120262E473E493A3C583C5F0C58303
:10026B00C8C582C8F0A3C583C5F0C583C8C582C8FD
:01027B002260
:10027C00BB010789828A830203075005E9F8020251
:10028C00FEBBFE05E9F802033089828A830203393A
:06029C008A838982E473ED
:1002A200E50E2582F582E50D3583F583B50D0485CE
:1002B200820E2210AF0685820EF50D2285820EF582
:0402C2000DD2AF2288
:0D02C600E50E2582F582E50D3583F58322D6
:10036B00E508243CF582E43400F583E0050822908F
:10037B00003930070390003CE475F00112031002C2
:10038B0002D32000E97F2ED2008018EF540F249067
:10039B00D43440D4FF30040BEF24BFB41A00500305
:1003AB002461FFE50960021509050CE50C700205D7
:1003BB000B30070E900039E475F001120310EF02B9
:1003CB0002EC0219C37403D2078003E4C207F508D9
:1003DB00900039120327E4F509F50BF50CE50960DC
:1003EB00077F201203AE80F5750AFFC201C200C25F
:1003FB0002C203C205C206C20812037AFF700D3097
:10040B0007057F001203BFAF0CAE0B22B4255FC2F2
:10041B00D5C20412037AFF24D0B40A00501A75F027
:10042B000A780930D50508B6FF0106C6A426F620C2
:10043B00D5047002D20380D924CFB41A00EF500434
:10044B00C2E5D2040205C0D20180C6D20080C0D260
:10045B000280BCD2D580BAD20580B47F201203AE05
:10046B002002077401B5090040F112036BFF120360
:10047B00AE0203E8D208D206809512036BFB12037F
:10048B006BFA12036BF94A4B700679917A067BFF74
:10049B0020022EE509602A7E008E827583001200F1
:1004AB000360060EEE650A70F0C2D5EBC0E0EAC041
:1004BB00E0E9C0E0EE120607D0E0F9D0E0FAD0E0B8
:1004CB00FB1202D3FF60AAEBC0E0EAC0E0E9C0E098
:1004DB001203AED0E02401F9D0E03400FAD0E0FBF7
:1004EB00E50A0460DCD50AD980877BFF7A0679039D
:1004FB00D202809C791080027908C206C20880085B
:10050B00D2D5790A8004790AC2D5E50A047002F5BE
:10051B000AE4FAFDFEFF12036BFC7B0820011312A9
:10052B00036BFD7B1030000A12036BFE12036BFF93
:10053B007B20EC3382D592D55013C3E43000069F59
:10054B00FFE49EFEE42001039DFDE49CFCE4CBF85C
:10055B00C201EC700CCFCECDCCE824F8F870F38050
:10056B0017C3EF33FFEE33FEED33FDEC33FCEB3310
:10057B00FB994002FB0FD8E9EB300105F8D0E0C442
:10058B0048B201C0E00AEC4D4E4F78207B0070C2A0
:10059B00EAB50A0040BCC0E0120609D0F0D0E0205A
:1005AB000104C4C0E0C4B201C0F0120397D0F0D56F
:1005BB00F0EB0203E812034504855304FF5804567D
:1005CB004C04524205034F050B44050B49046B4386
:0805DB0005115504F54604F575
:1005E3004504F54706B150045A2D045E2E04812BB1
:1005F300046223047F20069A2A041A48000004791F
:100603003F3F3F00790AA2D5200314300509B910F2
:10061300020404B9080104A2D520060250010420F3
:1006230002689202B509005034C0E07F20300319FC
:100633007F30A20272067205500F120660C202C218
:1006430006C205C2087F30800F300503E9C0E012FF
:1006530003AE300503D0E0F9D0E0B509CC3005177F
:100663007F30B9100C1203AE7F583004077F7880B7
:1006730003B908031203AE3002057F2D0203AE7FD8
:10068300202008F87F2B2006F322920280CF286EC9
:10069300756C6C2900D20112036B3001F8C201782A
:1006A3000930D50108F602041A2D504349581203A4
:1006B3006B2403B405004001E49006AC9312039F3E
:0D06C300743A12039FD2037509040204FF6C
:1002D300BB010689828A83E0225002E722BBFE0229
:0902E300E32289828A83E493225C
:1002EC00BB010689828A83F0225002F722BBFE01F1
:0202FC00F322EB
:0902FE00E6FB08E6FA08E6F92225
:09030700E0FBA3E0FAA3E0F922F7
:10031000F8E0FBA3A3E0F925F0F0E5821582700276
:070320001583E0FA38F0221A
:09032700EBF0A3EAF0A3E9F022D7
:09033000E2FB08E2FA08E2F922FE
:0C033900E493FB740193FA740293F92220
:10034500D083D082F8E4937012740193700DA3A347
:1003550093F8740193F5828883E47374029368605B
:06036500EFA3A3A380DF5B
:00000001FF
